{
	"contracts/TinyNotesToken.sol": {
		"TinyNotesToken": {
			"abi": [
				{
					"inputs": [
						{
							"internalType": "string",
							"name": "_genesisTitle",
							"type": "string"
						},
						{
							"internalType": "string",
							"name": "_genesisContent",
							"type": "string"
						}
					],
					"stateMutability": "nonpayable",
					"type": "constructor"
				},
				{
					"anonymous": false,
					"inputs": [
						{
							"indexed": true,
							"internalType": "address",
							"name": "owner",
							"type": "address"
						},
						{
							"indexed": true,
							"internalType": "address",
							"name": "spender",
							"type": "address"
						},
						{
							"indexed": false,
							"internalType": "uint256",
							"name": "value",
							"type": "uint256"
						}
					],
					"name": "Approval",
					"type": "event"
				},
				{
					"anonymous": false,
					"inputs": [
						{
							"indexed": true,
							"internalType": "uint256",
							"name": "noteId",
							"type": "uint256"
						},
						{
							"indexed": false,
							"internalType": "address",
							"name": "creator",
							"type": "address"
						},
						{
							"indexed": false,
							"internalType": "string",
							"name": "title",
							"type": "string"
						},
						{
							"indexed": false,
							"internalType": "string",
							"name": "content",
							"type": "string"
						}
					],
					"name": "NoteCreated",
					"type": "event"
				},
				{
					"anonymous": false,
					"inputs": [
						{
							"indexed": true,
							"internalType": "uint256",
							"name": "noteId",
							"type": "uint256"
						}
					],
					"name": "NoteDeleted",
					"type": "event"
				},
				{
					"anonymous": false,
					"inputs": [
						{
							"indexed": true,
							"internalType": "uint256",
							"name": "noteId",
							"type": "uint256"
						},
						{
							"indexed": false,
							"internalType": "string",
							"name": "newTitle",
							"type": "string"
						},
						{
							"indexed": false,
							"internalType": "string",
							"name": "newContent",
							"type": "string"
						}
					],
					"name": "NoteUpdated",
					"type": "event"
				},
				{
					"anonymous": false,
					"inputs": [
						{
							"indexed": true,
							"internalType": "address",
							"name": "from",
							"type": "address"
						},
						{
							"indexed": true,
							"internalType": "address",
							"name": "to",
							"type": "address"
						},
						{
							"indexed": false,
							"internalType": "uint256",
							"name": "value",
							"type": "uint256"
						}
					],
					"name": "Transfer",
					"type": "event"
				},
				{
					"inputs": [
						{
							"internalType": "address",
							"name": "owner",
							"type": "address"
						},
						{
							"internalType": "address",
							"name": "spender",
							"type": "address"
						}
					],
					"name": "allowance",
					"outputs": [
						{
							"internalType": "uint256",
							"name": "",
							"type": "uint256"
						}
					],
					"stateMutability": "view",
					"type": "function"
				},
				{
					"inputs": [
						{
							"internalType": "address",
							"name": "spender",
							"type": "address"
						},
						{
							"internalType": "uint256",
							"name": "amount",
							"type": "uint256"
						}
					],
					"name": "approve",
					"outputs": [
						{
							"internalType": "bool",
							"name": "",
							"type": "bool"
						}
					],
					"stateMutability": "nonpayable",
					"type": "function"
				},
				{
					"inputs": [
						{
							"internalType": "address",
							"name": "account",
							"type": "address"
						}
					],
					"name": "balanceOf",
					"outputs": [
						{
							"internalType": "uint256",
							"name": "",
							"type": "uint256"
						}
					],
					"stateMutability": "view",
					"type": "function"
				},
				{
					"inputs": [
						{
							"internalType": "string",
							"name": "_title",
							"type": "string"
						},
						{
							"internalType": "string",
							"name": "_content",
							"type": "string"
						}
					],
					"name": "createNote",
					"outputs": [],
					"stateMutability": "nonpayable",
					"type": "function"
				},
				{
					"inputs": [],
					"name": "decimals",
					"outputs": [
						{
							"internalType": "uint8",
							"name": "",
							"type": "uint8"
						}
					],
					"stateMutability": "view",
					"type": "function"
				},
				{
					"inputs": [
						{
							"internalType": "address",
							"name": "spender",
							"type": "address"
						},
						{
							"internalType": "uint256",
							"name": "subtractedValue",
							"type": "uint256"
						}
					],
					"name": "decreaseAllowance",
					"outputs": [
						{
							"internalType": "bool",
							"name": "",
							"type": "bool"
						}
					],
					"stateMutability": "nonpayable",
					"type": "function"
				},
				{
					"inputs": [
						{
							"internalType": "uint256",
							"name": "_noteId",
							"type": "uint256"
						}
					],
					"name": "deleteNote",
					"outputs": [],
					"stateMutability": "nonpayable",
					"type": "function"
				},
				{
					"inputs": [
						{
							"internalType": "address",
							"name": "spender",
							"type": "address"
						},
						{
							"internalType": "uint256",
							"name": "addedValue",
							"type": "uint256"
						}
					],
					"name": "increaseAllowance",
					"outputs": [
						{
							"internalType": "bool",
							"name": "",
							"type": "bool"
						}
					],
					"stateMutability": "nonpayable",
					"type": "function"
				},
				{
					"inputs": [],
					"name": "name",
					"outputs": [
						{
							"internalType": "string",
							"name": "",
							"type": "string"
						}
					],
					"stateMutability": "view",
					"type": "function"
				},
				{
					"inputs": [],
					"name": "noteIds",
					"outputs": [
						{
							"internalType": "uint256",
							"name": "_value",
							"type": "uint256"
						}
					],
					"stateMutability": "view",
					"type": "function"
				},
				{
					"inputs": [
						{
							"internalType": "uint256",
							"name": "_noteId",
							"type": "uint256"
						}
					],
					"name": "readNote",
					"outputs": [
						{
							"internalType": "address",
							"name": "creator",
							"type": "address"
						},
						{
							"internalType": "string",
							"name": "title",
							"type": "string"
						},
						{
							"internalType": "string",
							"name": "content",
							"type": "string"
						}
					],
					"stateMutability": "view",
					"type": "function"
				},
				{
					"inputs": [],
					"name": "symbol",
					"outputs": [
						{
							"internalType": "string",
							"name": "",
							"type": "string"
						}
					],
					"stateMutability": "view",
					"type": "function"
				},
				{
					"inputs": [],
					"name": "totalSupply",
					"outputs": [
						{
							"internalType": "uint256",
							"name": "",
							"type": "uint256"
						}
					],
					"stateMutability": "view",
					"type": "function"
				},
				{
					"inputs": [
						{
							"internalType": "address",
							"name": "to",
							"type": "address"
						},
						{
							"internalType": "uint256",
							"name": "amount",
							"type": "uint256"
						}
					],
					"name": "transfer",
					"outputs": [
						{
							"internalType": "bool",
							"name": "",
							"type": "bool"
						}
					],
					"stateMutability": "nonpayable",
					"type": "function"
				},
				{
					"inputs": [
						{
							"internalType": "address",
							"name": "from",
							"type": "address"
						},
						{
							"internalType": "address",
							"name": "to",
							"type": "address"
						},
						{
							"internalType": "uint256",
							"name": "amount",
							"type": "uint256"
						}
					],
					"name": "transferFrom",
					"outputs": [
						{
							"internalType": "bool",
							"name": "",
							"type": "bool"
						}
					],
					"stateMutability": "nonpayable",
					"type": "function"
				},
				{
					"inputs": [
						{
							"internalType": "uint256",
							"name": "_noteId",
							"type": "uint256"
						},
						{
							"internalType": "string",
							"name": "_newTitle",
							"type": "string"
						},
						{
							"internalType": "string",
							"name": "_newContent",
							"type": "string"
						}
					],
					"name": "updateNote",
					"outputs": [],
					"stateMutability": "nonpayable",
					"type": "function"
				}
			],
			"devdoc": {
				"events": {
					"Approval(address,address,uint256)": {
						"details": "Emitted when the allowance of a `spender` for an `owner` is set by a call to {approve}. `value` is the new allowance."
					},
					"Transfer(address,address,uint256)": {
						"details": "Emitted when `value` tokens are moved from one account (`from`) to another (`to`). Note that `value` may be zero."
					}
				},
				"kind": "dev",
				"methods": {
					"allowance(address,address)": {
						"details": "See {IERC20-allowance}."
					},
					"approve(address,uint256)": {
						"details": "See {IERC20-approve}. NOTE: If `amount` is the maximum `uint256`, the allowance is not updated on `transferFrom`. This is semantically equivalent to an infinite approval. Requirements: - `spender` cannot be the zero address."
					},
					"balanceOf(address)": {
						"details": "See {IERC20-balanceOf}."
					},
					"decimals()": {
						"details": "Returns the number of decimals used to get its user representation. For example, if `decimals` equals `2`, a balance of `505` tokens should be displayed to a user as `5.05` (`505 / 10 ** 2`). Tokens usually opt for a value of 18, imitating the relationship between Ether and Wei. This is the value {ERC20} uses, unless this function is overridden; NOTE: This information is only used for _display_ purposes: it in no way affects any of the arithmetic of the contract, including {IERC20-balanceOf} and {IERC20-transfer}."
					},
					"decreaseAllowance(address,uint256)": {
						"details": "Atomically decreases the allowance granted to `spender` by the caller. This is an alternative to {approve} that can be used as a mitigation for problems described in {IERC20-approve}. Emits an {Approval} event indicating the updated allowance. Requirements: - `spender` cannot be the zero address. - `spender` must have allowance for the caller of at least `subtractedValue`."
					},
					"increaseAllowance(address,uint256)": {
						"details": "Atomically increases the allowance granted to `spender` by the caller. This is an alternative to {approve} that can be used as a mitigation for problems described in {IERC20-approve}. Emits an {Approval} event indicating the updated allowance. Requirements: - `spender` cannot be the zero address."
					},
					"name()": {
						"details": "Returns the name of the token."
					},
					"symbol()": {
						"details": "Returns the symbol of the token, usually a shorter version of the name."
					},
					"totalSupply()": {
						"details": "See {IERC20-totalSupply}."
					},
					"transfer(address,uint256)": {
						"details": "See {IERC20-transfer}. Requirements: - `to` cannot be the zero address. - the caller must have a balance of at least `amount`."
					},
					"transferFrom(address,address,uint256)": {
						"details": "See {IERC20-transferFrom}. Emits an {Approval} event indicating the updated allowance. This is not required by the EIP. See the note at the beginning of {ERC20}. NOTE: Does not update the allowance if the current allowance is the maximum `uint256`. Requirements: - `from` and `to` cannot be the zero address. - `from` must have a balance of at least `amount`. - the caller must have allowance for ``from``'s tokens of at least `amount`."
					}
				},
				"version": 1
			},
			"evm": {
				"assembly": "    /* \"contracts/TinyNotesToken.sol\":174:2061  contract TinyNotesToken is ERC20 {... */\n  mstore(0x40, 0x80)\n    /* \"contracts/TinyNotesToken.sol\":661:901  constructor(string memory _genesisTitle, string memory _genesisContent) ERC20(\"Tiny Notes Token\", \"TNT\") {... */\n  callvalue\n  dup1\n  iszero\n  tag_1\n  jumpi\n  0x00\n  dup1\n  revert\ntag_1:\n  pop\n  mload(0x40)\n  sub(codesize, bytecodeSize)\n  dup1\n  bytecodeSize\n  dup4\n  codecopy\n  dup2\n  dup2\n  add\n  0x40\n  mstore\n  dup2\n  add\n  swap1\n  tag_2\n  swap2\n  swap1\n  tag_3\n  jump\t// in\ntag_2:\n    /* \"@openzeppelin/contracts/token/ERC20/ERC20.sol\":1976:2089  constructor(string memory name_, string memory symbol_) {... */\n  mload(0x40)\n  dup1\n  0x40\n  add\n  0x40\n  mstore\n  dup1\n  0x10\n  dup2\n  mstore\n  0x20\n  add\n  0x54696e79204e6f74657320546f6b656e00000000000000000000000000000000\n  dup2\n  mstore\n  pop\n  mload(0x40)\n  dup1\n  0x40\n  add\n  0x40\n  mstore\n  dup1\n  0x03\n  dup2\n  mstore\n  0x20\n  add\n  0x544e540000000000000000000000000000000000000000000000000000000000\n  dup2\n  mstore\n  pop\n    /* \"@openzeppelin/contracts/token/ERC20/ERC20.sol\":2050:2055  name_ */\n  dup2\n    /* \"@openzeppelin/contracts/token/ERC20/ERC20.sol\":2042:2047  _name */\n  0x03\n    /* \"@openzeppelin/contracts/token/ERC20/ERC20.sol\":2042:2055  _name = name_ */\n  swap1\n  dup2\n  tag_7\n  swap2\n  swap1\n  tag_8\n  jump\t// in\ntag_7:\n  pop\n    /* \"@openzeppelin/contracts/token/ERC20/ERC20.sol\":2075:2082  symbol_ */\n  dup1\n    /* \"@openzeppelin/contracts/token/ERC20/ERC20.sol\":2065:2072  _symbol */\n  0x04\n    /* \"@openzeppelin/contracts/token/ERC20/ERC20.sol\":2065:2082  _symbol = symbol_ */\n  swap1\n  dup2\n  tag_9\n  swap2\n  swap1\n  tag_8\n  jump\t// in\ntag_9:\n  pop\n    /* \"@openzeppelin/contracts/token/ERC20/ERC20.sol\":1976:2089  constructor(string memory name_, string memory symbol_) {... */\n  pop\n  pop\n    /* \"contracts/TinyNotesToken.sol\":776:822  _mint(msg.sender, 47000000 * 10 ** decimals()) */\n  tag_11\n    /* \"contracts/TinyNotesToken.sol\":782:792  msg.sender */\n  caller\n    /* \"contracts/TinyNotesToken.sol\":811:821  decimals() */\n  tag_12\n    /* \"contracts/TinyNotesToken.sol\":811:819  decimals */\n  shl(0x20, tag_13)\n    /* \"contracts/TinyNotesToken.sol\":811:821  decimals() */\n  0x20\n  shr\n  jump\t// in\ntag_12:\n    /* \"contracts/TinyNotesToken.sol\":805:807  10 */\n  0x0a\n    /* \"contracts/TinyNotesToken.sol\":805:821  10 ** decimals() */\n  tag_14\n  swap2\n  swap1\n  tag_15\n  jump\t// in\ntag_14:\n    /* \"contracts/TinyNotesToken.sol\":794:802  47000000 */\n  0x02cd29c0\n    /* \"contracts/TinyNotesToken.sol\":794:821  47000000 * 10 ** decimals() */\n  tag_16\n  swap2\n  swap1\n  tag_17\n  jump\t// in\ntag_16:\n    /* \"contracts/TinyNotesToken.sol\":776:781  _mint */\n  shl(0x20, tag_18)\n    /* \"contracts/TinyNotesToken.sol\":776:822  _mint(msg.sender, 47000000 * 10 ** decimals()) */\n  0x20\n  shr\n  jump\t// in\ntag_11:\n    /* \"contracts/TinyNotesToken.sol\":846:894  Note(msg.sender, _genesisTitle, _genesisContent) */\n  mload(0x40)\n  dup1\n  0x60\n  add\n  0x40\n  mstore\n  dup1\n    /* \"contracts/TinyNotesToken.sol\":851:861  msg.sender */\n  caller\n    /* \"contracts/TinyNotesToken.sol\":846:894  Note(msg.sender, _genesisTitle, _genesisContent) */\n  0xffffffffffffffffffffffffffffffffffffffff\n  and\n  dup2\n  mstore\n  0x20\n  add\n    /* \"contracts/TinyNotesToken.sol\":863:876  _genesisTitle */\n  dup4\n    /* \"contracts/TinyNotesToken.sol\":846:894  Note(msg.sender, _genesisTitle, _genesisContent) */\n  dup2\n  mstore\n  0x20\n  add\n    /* \"contracts/TinyNotesToken.sol\":878:893  _genesisContent */\n  dup3\n    /* \"contracts/TinyNotesToken.sol\":846:894  Note(msg.sender, _genesisTitle, _genesisContent) */\n  dup2\n  mstore\n  pop\n    /* \"contracts/TinyNotesToken.sol\":832:840  idToNote */\n  0x06\n    /* \"contracts/TinyNotesToken.sol\":832:843  idToNote[0] */\n  0x00\n    /* \"contracts/TinyNotesToken.sol\":841:842  0 */\n  dup1\n    /* \"contracts/TinyNotesToken.sol\":832:843  idToNote[0] */\n  dup2\n  mstore\n  0x20\n  add\n  swap1\n  dup2\n  mstore\n  0x20\n  add\n  0x00\n  keccak256\n    /* \"contracts/TinyNotesToken.sol\":832:894  idToNote[0] = Note(msg.sender, _genesisTitle, _genesisContent) */\n  0x00\n  dup3\n  add\n  mload\n  dup2\n  0x00\n  add\n  exp(0x0100, 0x00)\n  dup2\n  sload\n  dup2\n  0xffffffffffffffffffffffffffffffffffffffff\n  mul\n  not\n  and\n  swap1\n  dup4\n  0xffffffffffffffffffffffffffffffffffffffff\n  and\n  mul\n  or\n  swap1\n  sstore\n  pop\n  0x20\n  dup3\n  add\n  mload\n  dup2\n  0x01\n  add\n  swap1\n  dup2\n  tag_19\n  swap2\n  swap1\n  tag_8\n  jump\t// in\ntag_19:\n  pop\n  0x40\n  dup3\n  add\n  mload\n  dup2\n  0x02\n  add\n  swap1\n  dup2\n  tag_20\n  swap2\n  swap1\n  tag_8\n  jump\t// in\ntag_20:\n  pop\n  swap1\n  pop\n  pop\n    /* \"contracts/TinyNotesToken.sol\":661:901  constructor(string memory _genesisTitle, string memory _genesisContent) ERC20(\"Tiny Notes Token\", \"TNT\") {... */\n  pop\n  pop\n    /* \"contracts/TinyNotesToken.sol\":174:2061  contract TinyNotesToken is ERC20 {... */\n  jump(tag_21)\n    /* \"@openzeppelin/contracts/token/ERC20/ERC20.sol\":3091:3182  function decimals() public view virtual override returns (uint8) {... */\ntag_13:\n    /* \"@openzeppelin/contracts/token/ERC20/ERC20.sol\":3149:3154  uint8 */\n  0x00\n    /* \"@openzeppelin/contracts/token/ERC20/ERC20.sol\":3173:3175  18 */\n  0x12\n    /* \"@openzeppelin/contracts/token/ERC20/ERC20.sol\":3166:3175  return 18 */\n  swap1\n  pop\n    /* \"@openzeppelin/contracts/token/ERC20/ERC20.sol\":3091:3182  function decimals() public view virtual override returns (uint8) {... */\n  swap1\n  jump\t// out\n    /* \"@openzeppelin/contracts/token/ERC20/ERC20.sol\":8567:9102  function _mint(address account, uint256 amount) internal virtual {... */\ntag_18:\n    /* \"@openzeppelin/contracts/token/ERC20/ERC20.sol\":8669:8670  0 */\n  0x00\n    /* \"@openzeppelin/contracts/token/ERC20/ERC20.sol\":8650:8671  account != address(0) */\n  0xffffffffffffffffffffffffffffffffffffffff\n  and\n    /* \"@openzeppelin/contracts/token/ERC20/ERC20.sol\":8650:8657  account */\n  dup3\n    /* \"@openzeppelin/contracts/token/ERC20/ERC20.sol\":8650:8671  account != address(0) */\n  0xffffffffffffffffffffffffffffffffffffffff\n  and\n  sub\n    /* \"@openzeppelin/contracts/token/ERC20/ERC20.sol\":8642:8707  require(account != address(0), \"ERC20: mint to the zero address\") */\n  tag_24\n  jumpi\n  mload(0x40)\n  0x08c379a000000000000000000000000000000000000000000000000000000000\n  dup2\n  mstore\n  0x04\n  add\n  tag_25\n  swap1\n  tag_26\n  jump\t// in\ntag_25:\n  mload(0x40)\n  dup1\n  swap2\n  sub\n  swap1\n  revert\ntag_24:\n    /* \"@openzeppelin/contracts/token/ERC20/ERC20.sol\":8718:8767  _beforeTokenTransfer(address(0), account, amount) */\n  tag_27\n    /* \"@openzeppelin/contracts/token/ERC20/ERC20.sol\":8747:8748  0 */\n  0x00\n    /* \"@openzeppelin/contracts/token/ERC20/ERC20.sol\":8751:8758  account */\n  dup4\n    /* \"@openzeppelin/contracts/token/ERC20/ERC20.sol\":8760:8766  amount */\n  dup4\n    /* \"@openzeppelin/contracts/token/ERC20/ERC20.sol\":8718:8738  _beforeTokenTransfer */\n  shl(0x20, tag_28)\n    /* \"@openzeppelin/contracts/token/ERC20/ERC20.sol\":8718:8767  _beforeTokenTransfer(address(0), account, amount) */\n  0x20\n  shr\n  jump\t// in\ntag_27:\n    /* \"@openzeppelin/contracts/token/ERC20/ERC20.sol\":8794:8800  amount */\n  dup1\n    /* \"@openzeppelin/contracts/token/ERC20/ERC20.sol\":8778:8790  _totalSupply */\n  0x02\n  0x00\n    /* \"@openzeppelin/contracts/token/ERC20/ERC20.sol\":8778:8800  _totalSupply += amount */\n  dup3\n  dup3\n  sload\n  tag_29\n  swap2\n  swap1\n  tag_30\n  jump\t// in\ntag_29:\n  swap3\n  pop\n  pop\n  dup2\n  swap1\n  sstore\n  pop\n    /* \"@openzeppelin/contracts/token/ERC20/ERC20.sol\":8968:8974  amount */\n  dup1\n    /* \"@openzeppelin/contracts/token/ERC20/ERC20.sol\":8946:8955  _balances */\n  0x00\n    /* \"@openzeppelin/contracts/token/ERC20/ERC20.sol\":8946:8964  _balances[account] */\n  dup1\n    /* \"@openzeppelin/contracts/token/ERC20/ERC20.sol\":8956:8963  account */\n  dup5\n    /* \"@openzeppelin/contracts/token/ERC20/ERC20.sol\":8946:8964  _balances[account] */\n  0xffffffffffffffffffffffffffffffffffffffff\n  and\n  0xffffffffffffffffffffffffffffffffffffffff\n  and\n  dup2\n  mstore\n  0x20\n  add\n  swap1\n  dup2\n  mstore\n  0x20\n  add\n  0x00\n  keccak256\n  0x00\n    /* \"@openzeppelin/contracts/token/ERC20/ERC20.sol\":8946:8974  _balances[account] += amount */\n  dup3\n  dup3\n  sload\n  add\n  swap3\n  pop\n  pop\n  dup2\n  swap1\n  sstore\n  pop\n    /* \"@openzeppelin/contracts/token/ERC20/ERC20.sol\":9020:9027  account */\n  dup2\n    /* \"@openzeppelin/contracts/token/ERC20/ERC20.sol\":8999:9036  Transfer(address(0), account, amount) */\n  0xffffffffffffffffffffffffffffffffffffffff\n  and\n    /* \"@openzeppelin/contracts/token/ERC20/ERC20.sol\":9016:9017  0 */\n  0x00\n    /* \"@openzeppelin/contracts/token/ERC20/ERC20.sol\":8999:9036  Transfer(address(0), account, amount) */\n  0xffffffffffffffffffffffffffffffffffffffff\n  and\n  0xddf252ad1be2c89b69c2b068fc378daa952ba7f163c4a11628f55a4df523b3ef\n    /* \"@openzeppelin/contracts/token/ERC20/ERC20.sol\":9029:9035  amount */\n  dup4\n    /* \"@openzeppelin/contracts/token/ERC20/ERC20.sol\":8999:9036  Transfer(address(0), account, amount) */\n  mload(0x40)\n  tag_31\n  swap2\n  swap1\n  tag_32\n  jump\t// in\ntag_31:\n  mload(0x40)\n  dup1\n  swap2\n  sub\n  swap1\n  log3\n    /* \"@openzeppelin/contracts/token/ERC20/ERC20.sol\":9047:9095  _afterTokenTransfer(address(0), account, amount) */\n  tag_33\n    /* \"@openzeppelin/contracts/token/ERC20/ERC20.sol\":9075:9076  0 */\n  0x00\n    /* \"@openzeppelin/contracts/token/ERC20/ERC20.sol\":9079:9086  account */\n  dup4\n    /* \"@openzeppelin/contracts/token/ERC20/ERC20.sol\":9088:9094  amount */\n  dup4\n    /* \"@openzeppelin/contracts/token/ERC20/ERC20.sol\":9047:9066  _afterTokenTransfer */\n  shl(0x20, tag_34)\n    /* \"@openzeppelin/contracts/token/ERC20/ERC20.sol\":9047:9095  _afterTokenTransfer(address(0), account, amount) */\n  0x20\n  shr\n  jump\t// in\ntag_33:\n    /* \"@openzeppelin/contracts/token/ERC20/ERC20.sol\":8567:9102  function _mint(address account, uint256 amount) internal virtual {... */\n  pop\n  pop\n  jump\t// out\n    /* \"@openzeppelin/contracts/token/ERC20/ERC20.sol\":12180:12301  function _beforeTokenTransfer(... */\ntag_28:\n  pop\n  pop\n  pop\n  jump\t// out\n    /* \"@openzeppelin/contracts/token/ERC20/ERC20.sol\":12889:13009  function _afterTokenTransfer(... */\ntag_34:\n  pop\n  pop\n  pop\n  jump\t// out\n    /* \"#utility.yul\":7:82   */\ntag_37:\n    /* \"#utility.yul\":40:46   */\n  0x00\n    /* \"#utility.yul\":73:75   */\n  0x40\n    /* \"#utility.yul\":67:76   */\n  mload\n    /* \"#utility.yul\":57:76   */\n  swap1\n  pop\n    /* \"#utility.yul\":7:82   */\n  swap1\n  jump\t// out\n    /* \"#utility.yul\":88:205   */\ntag_38:\n    /* \"#utility.yul\":197:198   */\n  0x00\n    /* \"#utility.yul\":194:195   */\n  dup1\n    /* \"#utility.yul\":187:199   */\n  revert\n    /* \"#utility.yul\":211:328   */\ntag_39:\n    /* \"#utility.yul\":320:321   */\n  0x00\n    /* \"#utility.yul\":317:318   */\n  dup1\n    /* \"#utility.yul\":310:322   */\n  revert\n    /* \"#utility.yul\":334:451   */\ntag_40:\n    /* \"#utility.yul\":443:444   */\n  0x00\n    /* \"#utility.yul\":440:441   */\n  dup1\n    /* \"#utility.yul\":433:445   */\n  revert\n    /* \"#utility.yul\":457:574   */\ntag_41:\n    /* \"#utility.yul\":566:567   */\n  0x00\n    /* \"#utility.yul\":563:564   */\n  dup1\n    /* \"#utility.yul\":556:568   */\n  revert\n    /* \"#utility.yul\":580:682   */\ntag_42:\n    /* \"#utility.yul\":621:627   */\n  0x00\n    /* \"#utility.yul\":672:674   */\n  0x1f\n    /* \"#utility.yul\":668:675   */\n  not\n    /* \"#utility.yul\":663:665   */\n  0x1f\n    /* \"#utility.yul\":656:661   */\n  dup4\n    /* \"#utility.yul\":652:666   */\n  add\n    /* \"#utility.yul\":648:676   */\n  and\n    /* \"#utility.yul\":638:676   */\n  swap1\n  pop\n    /* \"#utility.yul\":580:682   */\n  swap2\n  swap1\n  pop\n  jump\t// out\n    /* \"#utility.yul\":688:868   */\ntag_43:\n    /* \"#utility.yul\":736:813   */\n  0x4e487b7100000000000000000000000000000000000000000000000000000000\n    /* \"#utility.yul\":733:734   */\n  0x00\n    /* \"#utility.yul\":726:814   */\n  mstore\n    /* \"#utility.yul\":833:837   */\n  0x41\n    /* \"#utility.yul\":830:831   */\n  0x04\n    /* \"#utility.yul\":823:838   */\n  mstore\n    /* \"#utility.yul\":857:861   */\n  0x24\n    /* \"#utility.yul\":854:855   */\n  0x00\n    /* \"#utility.yul\":847:862   */\n  revert\n    /* \"#utility.yul\":874:1155   */\ntag_44:\n    /* \"#utility.yul\":957:984   */\n  tag_87\n    /* \"#utility.yul\":979:983   */\n  dup3\n    /* \"#utility.yul\":957:984   */\n  tag_42\n  jump\t// in\ntag_87:\n    /* \"#utility.yul\":949:955   */\n  dup2\n    /* \"#utility.yul\":945:985   */\n  add\n    /* \"#utility.yul\":1087:1093   */\n  dup2\n    /* \"#utility.yul\":1075:1085   */\n  dup2\n    /* \"#utility.yul\":1072:1094   */\n  lt\n    /* \"#utility.yul\":1051:1069   */\n  0xffffffffffffffff\n    /* \"#utility.yul\":1039:1049   */\n  dup3\n    /* \"#utility.yul\":1036:1070   */\n  gt\n    /* \"#utility.yul\":1033:1095   */\n  or\n    /* \"#utility.yul\":1030:1118   */\n  iszero\n  tag_88\n  jumpi\n    /* \"#utility.yul\":1098:1116   */\n  tag_89\n  tag_43\n  jump\t// in\ntag_89:\n    /* \"#utility.yul\":1030:1118   */\ntag_88:\n    /* \"#utility.yul\":1138:1148   */\n  dup1\n    /* \"#utility.yul\":1134:1136   */\n  0x40\n    /* \"#utility.yul\":1127:1149   */\n  mstore\n    /* \"#utility.yul\":917:1155   */\n  pop\n    /* \"#utility.yul\":874:1155   */\n  pop\n  pop\n  jump\t// out\n    /* \"#utility.yul\":1161:1290   */\ntag_45:\n    /* \"#utility.yul\":1195:1201   */\n  0x00\n    /* \"#utility.yul\":1222:1242   */\n  tag_91\n  tag_37\n  jump\t// in\ntag_91:\n    /* \"#utility.yul\":1212:1242   */\n  swap1\n  pop\n    /* \"#utility.yul\":1251:1284   */\n  tag_92\n    /* \"#utility.yul\":1279:1283   */\n  dup3\n    /* \"#utility.yul\":1271:1277   */\n  dup3\n    /* \"#utility.yul\":1251:1284   */\n  tag_44\n  jump\t// in\ntag_92:\n    /* \"#utility.yul\":1161:1290   */\n  swap2\n  swap1\n  pop\n  jump\t// out\n    /* \"#utility.yul\":1296:1604   */\ntag_46:\n    /* \"#utility.yul\":1358:1362   */\n  0x00\n    /* \"#utility.yul\":1448:1466   */\n  0xffffffffffffffff\n    /* \"#utility.yul\":1440:1446   */\n  dup3\n    /* \"#utility.yul\":1437:1467   */\n  gt\n    /* \"#utility.yul\":1434:1490   */\n  iszero\n  tag_94\n  jumpi\n    /* \"#utility.yul\":1470:1488   */\n  tag_95\n  tag_43\n  jump\t// in\ntag_95:\n    /* \"#utility.yul\":1434:1490   */\ntag_94:\n    /* \"#utility.yul\":1508:1537   */\n  tag_96\n    /* \"#utility.yul\":1530:1536   */\n  dup3\n    /* \"#utility.yul\":1508:1537   */\n  tag_42\n  jump\t// in\ntag_96:\n    /* \"#utility.yul\":1500:1537   */\n  swap1\n  pop\n    /* \"#utility.yul\":1592:1596   */\n  0x20\n    /* \"#utility.yul\":1586:1590   */\n  dup2\n    /* \"#utility.yul\":1582:1597   */\n  add\n    /* \"#utility.yul\":1574:1597   */\n  swap1\n  pop\n    /* \"#utility.yul\":1296:1604   */\n  swap2\n  swap1\n  pop\n  jump\t// out\n    /* \"#utility.yul\":1610:1856   */\ntag_47:\n    /* \"#utility.yul\":1691:1692   */\n  0x00\n    /* \"#utility.yul\":1701:1814   */\ntag_98:\n    /* \"#utility.yul\":1715:1721   */\n  dup4\n    /* \"#utility.yul\":1712:1713   */\n  dup2\n    /* \"#utility.yul\":1709:1722   */\n  lt\n    /* \"#utility.yul\":1701:1814   */\n  iszero\n  tag_100\n  jumpi\n    /* \"#utility.yul\":1800:1801   */\n  dup1\n    /* \"#utility.yul\":1795:1798   */\n  dup3\n    /* \"#utility.yul\":1791:1802   */\n  add\n    /* \"#utility.yul\":1785:1803   */\n  mload\n    /* \"#utility.yul\":1781:1782   */\n  dup2\n    /* \"#utility.yul\":1776:1779   */\n  dup5\n    /* \"#utility.yul\":1772:1783   */\n  add\n    /* \"#utility.yul\":1765:1804   */\n  mstore\n    /* \"#utility.yul\":1737:1739   */\n  0x20\n    /* \"#utility.yul\":1734:1735   */\n  dup2\n    /* \"#utility.yul\":1730:1740   */\n  add\n    /* \"#utility.yul\":1725:1740   */\n  swap1\n  pop\n    /* \"#utility.yul\":1701:1814   */\n  jump(tag_98)\ntag_100:\n    /* \"#utility.yul\":1848:1849   */\n  0x00\n    /* \"#utility.yul\":1839:1845   */\n  dup5\n    /* \"#utility.yul\":1834:1837   */\n  dup5\n    /* \"#utility.yul\":1830:1846   */\n  add\n    /* \"#utility.yul\":1823:1850   */\n  mstore\n    /* \"#utility.yul\":1672:1856   */\n  pop\n    /* \"#utility.yul\":1610:1856   */\n  pop\n  pop\n  pop\n  jump\t// out\n    /* \"#utility.yul\":1862:2296   */\ntag_48:\n    /* \"#utility.yul\":1951:1956   */\n  0x00\n    /* \"#utility.yul\":1976:2042   */\n  tag_102\n    /* \"#utility.yul\":1992:2041   */\n  tag_103\n    /* \"#utility.yul\":2034:2040   */\n  dup5\n    /* \"#utility.yul\":1992:2041   */\n  tag_46\n  jump\t// in\ntag_103:\n    /* \"#utility.yul\":1976:2042   */\n  tag_45\n  jump\t// in\ntag_102:\n    /* \"#utility.yul\":1967:2042   */\n  swap1\n  pop\n    /* \"#utility.yul\":2065:2071   */\n  dup3\n    /* \"#utility.yul\":2058:2063   */\n  dup2\n    /* \"#utility.yul\":2051:2072   */\n  mstore\n    /* \"#utility.yul\":2103:2107   */\n  0x20\n    /* \"#utility.yul\":2096:2101   */\n  dup2\n    /* \"#utility.yul\":2092:2108   */\n  add\n    /* \"#utility.yul\":2141:2144   */\n  dup5\n    /* \"#utility.yul\":2132:2138   */\n  dup5\n    /* \"#utility.yul\":2127:2130   */\n  dup5\n    /* \"#utility.yul\":2123:2139   */\n  add\n    /* \"#utility.yul\":2120:2145   */\n  gt\n    /* \"#utility.yul\":2117:2229   */\n  iszero\n  tag_104\n  jumpi\n    /* \"#utility.yul\":2148:2227   */\n  tag_105\n  tag_41\n  jump\t// in\ntag_105:\n    /* \"#utility.yul\":2117:2229   */\ntag_104:\n    /* \"#utility.yul\":2238:2290   */\n  tag_106\n    /* \"#utility.yul\":2283:2289   */\n  dup5\n    /* \"#utility.yul\":2278:2281   */\n  dup3\n    /* \"#utility.yul\":2273:2276   */\n  dup6\n    /* \"#utility.yul\":2238:2290   */\n  tag_47\n  jump\t// in\ntag_106:\n    /* \"#utility.yul\":1957:2296   */\n  pop\n    /* \"#utility.yul\":1862:2296   */\n  swap4\n  swap3\n  pop\n  pop\n  pop\n  jump\t// out\n    /* \"#utility.yul\":2316:2671   */\ntag_49:\n    /* \"#utility.yul\":2383:2388   */\n  0x00\n    /* \"#utility.yul\":2432:2435   */\n  dup3\n    /* \"#utility.yul\":2425:2429   */\n  0x1f\n    /* \"#utility.yul\":2417:2423   */\n  dup4\n    /* \"#utility.yul\":2413:2430   */\n  add\n    /* \"#utility.yul\":2409:2436   */\n  slt\n    /* \"#utility.yul\":2399:2521   */\n  tag_108\n  jumpi\n    /* \"#utility.yul\":2440:2519   */\n  tag_109\n  tag_40\n  jump\t// in\ntag_109:\n    /* \"#utility.yul\":2399:2521   */\ntag_108:\n    /* \"#utility.yul\":2550:2556   */\n  dup2\n    /* \"#utility.yul\":2544:2557   */\n  mload\n    /* \"#utility.yul\":2575:2665   */\n  tag_110\n    /* \"#utility.yul\":2661:2664   */\n  dup5\n    /* \"#utility.yul\":2653:2659   */\n  dup3\n    /* \"#utility.yul\":2646:2650   */\n  0x20\n    /* \"#utility.yul\":2638:2644   */\n  dup7\n    /* \"#utility.yul\":2634:2651   */\n  add\n    /* \"#utility.yul\":2575:2665   */\n  tag_48\n  jump\t// in\ntag_110:\n    /* \"#utility.yul\":2566:2665   */\n  swap2\n  pop\n    /* \"#utility.yul\":2389:2671   */\n  pop\n    /* \"#utility.yul\":2316:2671   */\n  swap3\n  swap2\n  pop\n  pop\n  jump\t// out\n    /* \"#utility.yul\":2677:3530   */\ntag_3:\n    /* \"#utility.yul\":2776:2782   */\n  0x00\n    /* \"#utility.yul\":2784:2790   */\n  dup1\n    /* \"#utility.yul\":2833:2835   */\n  0x40\n    /* \"#utility.yul\":2821:2830   */\n  dup4\n    /* \"#utility.yul\":2812:2819   */\n  dup6\n    /* \"#utility.yul\":2808:2831   */\n  sub\n    /* \"#utility.yul\":2804:2836   */\n  slt\n    /* \"#utility.yul\":2801:2920   */\n  iszero\n  tag_112\n  jumpi\n    /* \"#utility.yul\":2839:2918   */\n  tag_113\n  tag_38\n  jump\t// in\ntag_113:\n    /* \"#utility.yul\":2801:2920   */\ntag_112:\n    /* \"#utility.yul\":2980:2981   */\n  0x00\n    /* \"#utility.yul\":2969:2978   */\n  dup4\n    /* \"#utility.yul\":2965:2982   */\n  add\n    /* \"#utility.yul\":2959:2983   */\n  mload\n    /* \"#utility.yul\":3010:3028   */\n  0xffffffffffffffff\n    /* \"#utility.yul\":3002:3008   */\n  dup2\n    /* \"#utility.yul\":2999:3029   */\n  gt\n    /* \"#utility.yul\":2996:3113   */\n  iszero\n  tag_114\n  jumpi\n    /* \"#utility.yul\":3032:3111   */\n  tag_115\n  tag_39\n  jump\t// in\ntag_115:\n    /* \"#utility.yul\":2996:3113   */\ntag_114:\n    /* \"#utility.yul\":3137:3211   */\n  tag_116\n    /* \"#utility.yul\":3203:3210   */\n  dup6\n    /* \"#utility.yul\":3194:3200   */\n  dup3\n    /* \"#utility.yul\":3183:3192   */\n  dup7\n    /* \"#utility.yul\":3179:3201   */\n  add\n    /* \"#utility.yul\":3137:3211   */\n  tag_49\n  jump\t// in\ntag_116:\n    /* \"#utility.yul\":3127:3211   */\n  swap3\n  pop\n    /* \"#utility.yul\":2930:3221   */\n  pop\n    /* \"#utility.yul\":3281:3283   */\n  0x20\n    /* \"#utility.yul\":3270:3279   */\n  dup4\n    /* \"#utility.yul\":3266:3284   */\n  add\n    /* \"#utility.yul\":3260:3285   */\n  mload\n    /* \"#utility.yul\":3312:3330   */\n  0xffffffffffffffff\n    /* \"#utility.yul\":3304:3310   */\n  dup2\n    /* \"#utility.yul\":3301:3331   */\n  gt\n    /* \"#utility.yul\":3298:3415   */\n  iszero\n  tag_117\n  jumpi\n    /* \"#utility.yul\":3334:3413   */\n  tag_118\n  tag_39\n  jump\t// in\ntag_118:\n    /* \"#utility.yul\":3298:3415   */\ntag_117:\n    /* \"#utility.yul\":3439:3513   */\n  tag_119\n    /* \"#utility.yul\":3505:3512   */\n  dup6\n    /* \"#utility.yul\":3496:3502   */\n  dup3\n    /* \"#utility.yul\":3485:3494   */\n  dup7\n    /* \"#utility.yul\":3481:3503   */\n  add\n    /* \"#utility.yul\":3439:3513   */\n  tag_49\n  jump\t// in\ntag_119:\n    /* \"#utility.yul\":3429:3513   */\n  swap2\n  pop\n    /* \"#utility.yul\":3231:3523   */\n  pop\n    /* \"#utility.yul\":2677:3530   */\n  swap3\n  pop\n  swap3\n  swap1\n  pop\n  jump\t// out\n    /* \"#utility.yul\":3536:3635   */\ntag_50:\n    /* \"#utility.yul\":3588:3594   */\n  0x00\n    /* \"#utility.yul\":3622:3627   */\n  dup2\n    /* \"#utility.yul\":3616:3628   */\n  mload\n    /* \"#utility.yul\":3606:3628   */\n  swap1\n  pop\n    /* \"#utility.yul\":3536:3635   */\n  swap2\n  swap1\n  pop\n  jump\t// out\n    /* \"#utility.yul\":3641:3821   */\ntag_51:\n    /* \"#utility.yul\":3689:3766   */\n  0x4e487b7100000000000000000000000000000000000000000000000000000000\n    /* \"#utility.yul\":3686:3687   */\n  0x00\n    /* \"#utility.yul\":3679:3767   */\n  mstore\n    /* \"#utility.yul\":3786:3790   */\n  0x22\n    /* \"#utility.yul\":3783:3784   */\n  0x04\n    /* \"#utility.yul\":3776:3791   */\n  mstore\n    /* \"#utility.yul\":3810:3814   */\n  0x24\n    /* \"#utility.yul\":3807:3808   */\n  0x00\n    /* \"#utility.yul\":3800:3815   */\n  revert\n    /* \"#utility.yul\":3827:4147   */\ntag_52:\n    /* \"#utility.yul\":3871:3877   */\n  0x00\n    /* \"#utility.yul\":3908:3909   */\n  0x02\n    /* \"#utility.yul\":3902:3906   */\n  dup3\n    /* \"#utility.yul\":3898:3910   */\n  div\n    /* \"#utility.yul\":3888:3910   */\n  swap1\n  pop\n    /* \"#utility.yul\":3955:3956   */\n  0x01\n    /* \"#utility.yul\":3949:3953   */\n  dup3\n    /* \"#utility.yul\":3945:3957   */\n  and\n    /* \"#utility.yul\":3976:3994   */\n  dup1\n    /* \"#utility.yul\":3966:4047   */\n  tag_123\n  jumpi\n    /* \"#utility.yul\":4032:4036   */\n  0x7f\n    /* \"#utility.yul\":4024:4030   */\n  dup3\n    /* \"#utility.yul\":4020:4037   */\n  and\n    /* \"#utility.yul\":4010:4037   */\n  swap2\n  pop\n    /* \"#utility.yul\":3966:4047   */\ntag_123:\n    /* \"#utility.yul\":4094:4096   */\n  0x20\n    /* \"#utility.yul\":4086:4092   */\n  dup3\n    /* \"#utility.yul\":4083:4097   */\n  lt\n    /* \"#utility.yul\":4063:4081   */\n  dup2\n    /* \"#utility.yul\":4060:4098   */\n  sub\n    /* \"#utility.yul\":4057:4141   */\n  tag_124\n  jumpi\n    /* \"#utility.yul\":4113:4131   */\n  tag_125\n  tag_51\n  jump\t// in\ntag_125:\n    /* \"#utility.yul\":4057:4141   */\ntag_124:\n    /* \"#utility.yul\":3878:4147   */\n  pop\n    /* \"#utility.yul\":3827:4147   */\n  swap2\n  swap1\n  pop\n  jump\t// out\n    /* \"#utility.yul\":4153:4294   */\ntag_53:\n    /* \"#utility.yul\":4202:4206   */\n  0x00\n    /* \"#utility.yul\":4225:4228   */\n  dup2\n    /* \"#utility.yul\":4217:4228   */\n  swap1\n  pop\n    /* \"#utility.yul\":4248:4251   */\n  dup2\n    /* \"#utility.yul\":4245:4246   */\n  0x00\n    /* \"#utility.yul\":4238:4252   */\n  mstore\n    /* \"#utility.yul\":4282:4286   */\n  0x20\n    /* \"#utility.yul\":4279:4280   */\n  0x00\n    /* \"#utility.yul\":4269:4287   */\n  keccak256\n    /* \"#utility.yul\":4261:4287   */\n  swap1\n  pop\n    /* \"#utility.yul\":4153:4294   */\n  swap2\n  swap1\n  pop\n  jump\t// out\n    /* \"#utility.yul\":4300:4393   */\ntag_54:\n    /* \"#utility.yul\":4337:4343   */\n  0x00\n    /* \"#utility.yul\":4384:4386   */\n  0x20\n    /* \"#utility.yul\":4379:4381   */\n  0x1f\n    /* \"#utility.yul\":4372:4377   */\n  dup4\n    /* \"#utility.yul\":4368:4382   */\n  add\n    /* \"#utility.yul\":4364:4387   */\n  div\n    /* \"#utility.yul\":4354:4387   */\n  swap1\n  pop\n    /* \"#utility.yul\":4300:4393   */\n  swap2\n  swap1\n  pop\n  jump\t// out\n    /* \"#utility.yul\":4399:4506   */\ntag_55:\n    /* \"#utility.yul\":4443:4451   */\n  0x00\n    /* \"#utility.yul\":4493:4498   */\n  dup3\n    /* \"#utility.yul\":4487:4491   */\n  dup3\n    /* \"#utility.yul\":4483:4499   */\n  shl\n    /* \"#utility.yul\":4462:4499   */\n  swap1\n  pop\n    /* \"#utility.yul\":4399:4506   */\n  swap3\n  swap2\n  pop\n  pop\n  jump\t// out\n    /* \"#utility.yul\":4512:4905   */\ntag_56:\n    /* \"#utility.yul\":4581:4587   */\n  0x00\n    /* \"#utility.yul\":4631:4632   */\n  0x08\n    /* \"#utility.yul\":4619:4629   */\n  dup4\n    /* \"#utility.yul\":4615:4633   */\n  mul\n    /* \"#utility.yul\":4654:4751   */\n  tag_130\n    /* \"#utility.yul\":4684:4750   */\n  0xffffffffffffffffffffffffffffffffffffffffffffffffffffffffffffffff\n    /* \"#utility.yul\":4673:4682   */\n  dup3\n    /* \"#utility.yul\":4654:4751   */\n  tag_55\n  jump\t// in\ntag_130:\n    /* \"#utility.yul\":4772:4811   */\n  tag_131\n    /* \"#utility.yul\":4802:4810   */\n  dup7\n    /* \"#utility.yul\":4791:4800   */\n  dup4\n    /* \"#utility.yul\":4772:4811   */\n  tag_55\n  jump\t// in\ntag_131:\n    /* \"#utility.yul\":4760:4811   */\n  swap6\n  pop\n    /* \"#utility.yul\":4844:4848   */\n  dup1\n    /* \"#utility.yul\":4840:4849   */\n  not\n    /* \"#utility.yul\":4833:4838   */\n  dup5\n    /* \"#utility.yul\":4829:4850   */\n  and\n    /* \"#utility.yul\":4820:4850   */\n  swap4\n  pop\n    /* \"#utility.yul\":4893:4897   */\n  dup1\n    /* \"#utility.yul\":4883:4891   */\n  dup7\n    /* \"#utility.yul\":4879:4898   */\n  and\n    /* \"#utility.yul\":4872:4877   */\n  dup5\n    /* \"#utility.yul\":4869:4899   */\n  or\n    /* \"#utility.yul\":4859:4899   */\n  swap3\n  pop\n    /* \"#utility.yul\":4588:4905   */\n  pop\n  pop\n    /* \"#utility.yul\":4512:4905   */\n  swap4\n  swap3\n  pop\n  pop\n  pop\n  jump\t// out\n    /* \"#utility.yul\":4911:4988   */\ntag_57:\n    /* \"#utility.yul\":4948:4955   */\n  0x00\n    /* \"#utility.yul\":4977:4982   */\n  dup2\n    /* \"#utility.yul\":4966:4982   */\n  swap1\n  pop\n    /* \"#utility.yul\":4911:4988   */\n  swap2\n  swap1\n  pop\n  jump\t// out\n    /* \"#utility.yul\":4994:5054   */\ntag_58:\n    /* \"#utility.yul\":5022:5025   */\n  0x00\n    /* \"#utility.yul\":5043:5048   */\n  dup2\n    /* \"#utility.yul\":5036:5048   */\n  swap1\n  pop\n    /* \"#utility.yul\":4994:5054   */\n  swap2\n  swap1\n  pop\n  jump\t// out\n    /* \"#utility.yul\":5060:5202   */\ntag_59:\n    /* \"#utility.yul\":5110:5119   */\n  0x00\n    /* \"#utility.yul\":5143:5196   */\n  tag_135\n    /* \"#utility.yul\":5161:5195   */\n  tag_136\n    /* \"#utility.yul\":5170:5194   */\n  tag_137\n    /* \"#utility.yul\":5188:5193   */\n  dup5\n    /* \"#utility.yul\":5170:5194   */\n  tag_57\n  jump\t// in\ntag_137:\n    /* \"#utility.yul\":5161:5195   */\n  tag_58\n  jump\t// in\ntag_136:\n    /* \"#utility.yul\":5143:5196   */\n  tag_57\n  jump\t// in\ntag_135:\n    /* \"#utility.yul\":5130:5196   */\n  swap1\n  pop\n    /* \"#utility.yul\":5060:5202   */\n  swap2\n  swap1\n  pop\n  jump\t// out\n    /* \"#utility.yul\":5208:5283   */\ntag_60:\n    /* \"#utility.yul\":5251:5254   */\n  0x00\n    /* \"#utility.yul\":5272:5277   */\n  dup2\n    /* \"#utility.yul\":5265:5277   */\n  swap1\n  pop\n    /* \"#utility.yul\":5208:5283   */\n  swap2\n  swap1\n  pop\n  jump\t// out\n    /* \"#utility.yul\":5289:5558   */\ntag_61:\n    /* \"#utility.yul\":5399:5438   */\n  tag_140\n    /* \"#utility.yul\":5430:5437   */\n  dup4\n    /* \"#utility.yul\":5399:5438   */\n  tag_59\n  jump\t// in\ntag_140:\n    /* \"#utility.yul\":5460:5551   */\n  tag_141\n    /* \"#utility.yul\":5509:5550   */\n  tag_142\n    /* \"#utility.yul\":5533:5549   */\n  dup3\n    /* \"#utility.yul\":5509:5550   */\n  tag_60\n  jump\t// in\ntag_142:\n    /* \"#utility.yul\":5501:5507   */\n  dup5\n    /* \"#utility.yul\":5494:5498   */\n  dup5\n    /* \"#utility.yul\":5488:5499   */\n  sload\n    /* \"#utility.yul\":5460:5551   */\n  tag_56\n  jump\t// in\ntag_141:\n    /* \"#utility.yul\":5454:5458   */\n  dup3\n    /* \"#utility.yul\":5447:5552   */\n  sstore\n    /* \"#utility.yul\":5365:5558   */\n  pop\n    /* \"#utility.yul\":5289:5558   */\n  pop\n  pop\n  pop\n  jump\t// out\n    /* \"#utility.yul\":5564:5637   */\ntag_62:\n    /* \"#utility.yul\":5609:5612   */\n  0x00\n    /* \"#utility.yul\":5564:5637   */\n  swap1\n  jump\t// out\n    /* \"#utility.yul\":5643:5832   */\ntag_63:\n    /* \"#utility.yul\":5720:5752   */\n  tag_145\n  tag_62\n  jump\t// in\ntag_145:\n    /* \"#utility.yul\":5761:5826   */\n  tag_146\n    /* \"#utility.yul\":5819:5825   */\n  dup2\n    /* \"#utility.yul\":5811:5817   */\n  dup5\n    /* \"#utility.yul\":5805:5809   */\n  dup5\n    /* \"#utility.yul\":5761:5826   */\n  tag_61\n  jump\t// in\ntag_146:\n    /* \"#utility.yul\":5696:5832   */\n  pop\n    /* \"#utility.yul\":5643:5832   */\n  pop\n  pop\n  jump\t// out\n    /* \"#utility.yul\":5838:6024   */\ntag_64:\n    /* \"#utility.yul\":5898:6018   */\ntag_148:\n    /* \"#utility.yul\":5915:5918   */\n  dup2\n    /* \"#utility.yul\":5908:5913   */\n  dup2\n    /* \"#utility.yul\":5905:5919   */\n  lt\n    /* \"#utility.yul\":5898:6018   */\n  iszero\n  tag_150\n  jumpi\n    /* \"#utility.yul\":5969:6008   */\n  tag_151\n    /* \"#utility.yul\":6006:6007   */\n  0x00\n    /* \"#utility.yul\":5999:6004   */\n  dup3\n    /* \"#utility.yul\":5969:6008   */\n  tag_63\n  jump\t// in\ntag_151:\n    /* \"#utility.yul\":5942:5943   */\n  0x01\n    /* \"#utility.yul\":5935:5940   */\n  dup2\n    /* \"#utility.yul\":5931:5944   */\n  add\n    /* \"#utility.yul\":5922:5944   */\n  swap1\n  pop\n    /* \"#utility.yul\":5898:6018   */\n  jump(tag_148)\ntag_150:\n    /* \"#utility.yul\":5838:6024   */\n  pop\n  pop\n  jump\t// out\n    /* \"#utility.yul\":6030:6573   */\ntag_65:\n    /* \"#utility.yul\":6131:6133   */\n  0x1f\n    /* \"#utility.yul\":6126:6129   */\n  dup3\n    /* \"#utility.yul\":6123:6134   */\n  gt\n    /* \"#utility.yul\":6120:6566   */\n  iszero\n  tag_153\n  jumpi\n    /* \"#utility.yul\":6165:6203   */\n  tag_154\n    /* \"#utility.yul\":6197:6202   */\n  dup2\n    /* \"#utility.yul\":6165:6203   */\n  tag_53\n  jump\t// in\ntag_154:\n    /* \"#utility.yul\":6249:6278   */\n  tag_155\n    /* \"#utility.yul\":6267:6277   */\n  dup5\n    /* \"#utility.yul\":6249:6278   */\n  tag_54\n  jump\t// in\ntag_155:\n    /* \"#utility.yul\":6239:6247   */\n  dup2\n    /* \"#utility.yul\":6235:6279   */\n  add\n    /* \"#utility.yul\":6432:6434   */\n  0x20\n    /* \"#utility.yul\":6420:6430   */\n  dup6\n    /* \"#utility.yul\":6417:6435   */\n  lt\n    /* \"#utility.yul\":6414:6463   */\n  iszero\n  tag_156\n  jumpi\n    /* \"#utility.yul\":6453:6461   */\n  dup2\n    /* \"#utility.yul\":6438:6461   */\n  swap1\n  pop\n    /* \"#utility.yul\":6414:6463   */\ntag_156:\n    /* \"#utility.yul\":6476:6556   */\n  tag_157\n    /* \"#utility.yul\":6532:6554   */\n  tag_158\n    /* \"#utility.yul\":6550:6553   */\n  dup6\n    /* \"#utility.yul\":6532:6554   */\n  tag_54\n  jump\t// in\ntag_158:\n    /* \"#utility.yul\":6522:6530   */\n  dup4\n    /* \"#utility.yul\":6518:6555   */\n  add\n    /* \"#utility.yul\":6505:6516   */\n  dup3\n    /* \"#utility.yul\":6476:6556   */\n  tag_64\n  jump\t// in\ntag_157:\n    /* \"#utility.yul\":6135:6566   */\n  pop\n  pop\n    /* \"#utility.yul\":6120:6566   */\ntag_153:\n    /* \"#utility.yul\":6030:6573   */\n  pop\n  pop\n  pop\n  jump\t// out\n    /* \"#utility.yul\":6579:6696   */\ntag_66:\n    /* \"#utility.yul\":6633:6641   */\n  0x00\n    /* \"#utility.yul\":6683:6688   */\n  dup3\n    /* \"#utility.yul\":6677:6681   */\n  dup3\n    /* \"#utility.yul\":6673:6689   */\n  shr\n    /* \"#utility.yul\":6652:6689   */\n  swap1\n  pop\n    /* \"#utility.yul\":6579:6696   */\n  swap3\n  swap2\n  pop\n  pop\n  jump\t// out\n    /* \"#utility.yul\":6702:6871   */\ntag_67:\n    /* \"#utility.yul\":6746:6752   */\n  0x00\n    /* \"#utility.yul\":6779:6830   */\n  tag_161\n    /* \"#utility.yul\":6827:6828   */\n  0x00\n    /* \"#utility.yul\":6823:6829   */\n  not\n    /* \"#utility.yul\":6815:6820   */\n  dup5\n    /* \"#utility.yul\":6812:6813   */\n  0x08\n    /* \"#utility.yul\":6808:6821   */\n  mul\n    /* \"#utility.yul\":6779:6830   */\n  tag_66\n  jump\t// in\ntag_161:\n    /* \"#utility.yul\":6775:6831   */\n  not\n    /* \"#utility.yul\":6860:6864   */\n  dup1\n    /* \"#utility.yul\":6854:6858   */\n  dup4\n    /* \"#utility.yul\":6850:6865   */\n  and\n    /* \"#utility.yul\":6840:6865   */\n  swap2\n  pop\n    /* \"#utility.yul\":6753:6871   */\n  pop\n    /* \"#utility.yul\":6702:6871   */\n  swap3\n  swap2\n  pop\n  pop\n  jump\t// out\n    /* \"#utility.yul\":6876:7171   */\ntag_68:\n    /* \"#utility.yul\":6952:6956   */\n  0x00\n    /* \"#utility.yul\":7098:7127   */\n  tag_163\n    /* \"#utility.yul\":7123:7126   */\n  dup4\n    /* \"#utility.yul\":7117:7121   */\n  dup4\n    /* \"#utility.yul\":7098:7127   */\n  tag_67\n  jump\t// in\ntag_163:\n    /* \"#utility.yul\":7090:7127   */\n  swap2\n  pop\n    /* \"#utility.yul\":7160:7163   */\n  dup3\n    /* \"#utility.yul\":7157:7158   */\n  0x02\n    /* \"#utility.yul\":7153:7164   */\n  mul\n    /* \"#utility.yul\":7147:7151   */\n  dup3\n    /* \"#utility.yul\":7144:7165   */\n  or\n    /* \"#utility.yul\":7136:7165   */\n  swap1\n  pop\n    /* \"#utility.yul\":6876:7171   */\n  swap3\n  swap2\n  pop\n  pop\n  jump\t// out\n    /* \"#utility.yul\":7176:8571   */\ntag_8:\n    /* \"#utility.yul\":7293:7330   */\n  tag_165\n    /* \"#utility.yul\":7326:7329   */\n  dup3\n    /* \"#utility.yul\":7293:7330   */\n  tag_50\n  jump\t// in\ntag_165:\n    /* \"#utility.yul\":7395:7413   */\n  0xffffffffffffffff\n    /* \"#utility.yul\":7387:7393   */\n  dup2\n    /* \"#utility.yul\":7384:7414   */\n  gt\n    /* \"#utility.yul\":7381:7437   */\n  iszero\n  tag_166\n  jumpi\n    /* \"#utility.yul\":7417:7435   */\n  tag_167\n  tag_43\n  jump\t// in\ntag_167:\n    /* \"#utility.yul\":7381:7437   */\ntag_166:\n    /* \"#utility.yul\":7461:7499   */\n  tag_168\n    /* \"#utility.yul\":7493:7497   */\n  dup3\n    /* \"#utility.yul\":7487:7498   */\n  sload\n    /* \"#utility.yul\":7461:7499   */\n  tag_52\n  jump\t// in\ntag_168:\n    /* \"#utility.yul\":7546:7613   */\n  tag_169\n    /* \"#utility.yul\":7606:7612   */\n  dup3\n    /* \"#utility.yul\":7598:7604   */\n  dup3\n    /* \"#utility.yul\":7592:7596   */\n  dup6\n    /* \"#utility.yul\":7546:7613   */\n  tag_65\n  jump\t// in\ntag_169:\n    /* \"#utility.yul\":7640:7641   */\n  0x00\n    /* \"#utility.yul\":7664:7668   */\n  0x20\n    /* \"#utility.yul\":7651:7668   */\n  swap1\n  pop\n    /* \"#utility.yul\":7696:7698   */\n  0x1f\n    /* \"#utility.yul\":7688:7694   */\n  dup4\n    /* \"#utility.yul\":7685:7699   */\n  gt\n    /* \"#utility.yul\":7713:7714   */\n  0x01\n    /* \"#utility.yul\":7708:8326   */\n  dup2\n  eq\n  tag_171\n  jumpi\n    /* \"#utility.yul\":8370:8371   */\n  0x00\n    /* \"#utility.yul\":8387:8393   */\n  dup5\n    /* \"#utility.yul\":8384:8461   */\n  iszero\n  tag_172\n  jumpi\n    /* \"#utility.yul\":8436:8445   */\n  dup3\n    /* \"#utility.yul\":8431:8434   */\n  dup8\n    /* \"#utility.yul\":8427:8446   */\n  add\n    /* \"#utility.yul\":8421:8447   */\n  mload\n    /* \"#utility.yul\":8412:8447   */\n  swap1\n  pop\n    /* \"#utility.yul\":8384:8461   */\ntag_172:\n    /* \"#utility.yul\":8487:8554   */\n  tag_173\n    /* \"#utility.yul\":8547:8553   */\n  dup6\n    /* \"#utility.yul\":8540:8545   */\n  dup3\n    /* \"#utility.yul\":8487:8554   */\n  tag_68\n  jump\t// in\ntag_173:\n    /* \"#utility.yul\":8481:8485   */\n  dup7\n    /* \"#utility.yul\":8474:8555   */\n  sstore\n    /* \"#utility.yul\":8343:8565   */\n  pop\n    /* \"#utility.yul\":7678:8565   */\n  jump(tag_170)\n    /* \"#utility.yul\":7708:8326   */\ntag_171:\n    /* \"#utility.yul\":7760:7764   */\n  0x1f\n    /* \"#utility.yul\":7756:7765   */\n  not\n    /* \"#utility.yul\":7748:7754   */\n  dup5\n    /* \"#utility.yul\":7744:7766   */\n  and\n    /* \"#utility.yul\":7794:7831   */\n  tag_174\n    /* \"#utility.yul\":7826:7830   */\n  dup7\n    /* \"#utility.yul\":7794:7831   */\n  tag_53\n  jump\t// in\ntag_174:\n    /* \"#utility.yul\":7853:7854   */\n  0x00\n    /* \"#utility.yul\":7867:8075   */\ntag_175:\n    /* \"#utility.yul\":7881:7888   */\n  dup3\n    /* \"#utility.yul\":7878:7879   */\n  dup2\n    /* \"#utility.yul\":7875:7889   */\n  lt\n    /* \"#utility.yul\":7867:8075   */\n  iszero\n  tag_177\n  jumpi\n    /* \"#utility.yul\":7960:7969   */\n  dup5\n    /* \"#utility.yul\":7955:7958   */\n  dup10\n    /* \"#utility.yul\":7951:7970   */\n  add\n    /* \"#utility.yul\":7945:7971   */\n  mload\n    /* \"#utility.yul\":7937:7943   */\n  dup3\n    /* \"#utility.yul\":7930:7972   */\n  sstore\n    /* \"#utility.yul\":8011:8012   */\n  0x01\n    /* \"#utility.yul\":8003:8009   */\n  dup3\n    /* \"#utility.yul\":7999:8013   */\n  add\n    /* \"#utility.yul\":7989:8013   */\n  swap2\n  pop\n    /* \"#utility.yul\":8058:8060   */\n  0x20\n    /* \"#utility.yul\":8047:8056   */\n  dup6\n    /* \"#utility.yul\":8043:8061   */\n  add\n    /* \"#utility.yul\":8030:8061   */\n  swap5\n  pop\n    /* \"#utility.yul\":7904:7908   */\n  0x20\n    /* \"#utility.yul\":7901:7902   */\n  dup2\n    /* \"#utility.yul\":7897:7909   */\n  add\n    /* \"#utility.yul\":7892:7909   */\n  swap1\n  pop\n    /* \"#utility.yul\":7867:8075   */\n  jump(tag_175)\ntag_177:\n    /* \"#utility.yul\":8103:8109   */\n  dup7\n    /* \"#utility.yul\":8094:8101   */\n  dup4\n    /* \"#utility.yul\":8091:8110   */\n  lt\n    /* \"#utility.yul\":8088:8267   */\n  iszero\n  tag_178\n  jumpi\n    /* \"#utility.yul\":8161:8170   */\n  dup5\n    /* \"#utility.yul\":8156:8159   */\n  dup10\n    /* \"#utility.yul\":8152:8171   */\n  add\n    /* \"#utility.yul\":8146:8172   */\n  mload\n    /* \"#utility.yul\":8204:8252   */\n  tag_179\n    /* \"#utility.yul\":8246:8250   */\n  0x1f\n    /* \"#utility.yul\":8238:8244   */\n  dup10\n    /* \"#utility.yul\":8234:8251   */\n  and\n    /* \"#utility.yul\":8223:8232   */\n  dup3\n    /* \"#utility.yul\":8204:8252   */\n  tag_67\n  jump\t// in\ntag_179:\n    /* \"#utility.yul\":8196:8202   */\n  dup4\n    /* \"#utility.yul\":8189:8253   */\n  sstore\n    /* \"#utility.yul\":8111:8267   */\n  pop\n    /* \"#utility.yul\":8088:8267   */\ntag_178:\n    /* \"#utility.yul\":8313:8314   */\n  0x01\n    /* \"#utility.yul\":8309:8310   */\n  0x02\n    /* \"#utility.yul\":8301:8307   */\n  dup9\n    /* \"#utility.yul\":8297:8311   */\n  mul\n    /* \"#utility.yul\":8293:8315   */\n  add\n    /* \"#utility.yul\":8287:8291   */\n  dup9\n    /* \"#utility.yul\":8280:8316   */\n  sstore\n    /* \"#utility.yul\":7715:8326   */\n  pop\n  pop\n  pop\n    /* \"#utility.yul\":7678:8565   */\ntag_170:\n  pop\n    /* \"#utility.yul\":7268:8571   */\n  pop\n  pop\n  pop\n    /* \"#utility.yul\":7176:8571   */\n  pop\n  pop\n  jump\t// out\n    /* \"#utility.yul\":8577:8757   */\ntag_69:\n    /* \"#utility.yul\":8625:8702   */\n  0x4e487b7100000000000000000000000000000000000000000000000000000000\n    /* \"#utility.yul\":8622:8623   */\n  0x00\n    /* \"#utility.yul\":8615:8703   */\n  mstore\n    /* \"#utility.yul\":8722:8726   */\n  0x11\n    /* \"#utility.yul\":8719:8720   */\n  0x04\n    /* \"#utility.yul\":8712:8727   */\n  mstore\n    /* \"#utility.yul\":8746:8750   */\n  0x24\n    /* \"#utility.yul\":8743:8744   */\n  0x00\n    /* \"#utility.yul\":8736:8751   */\n  revert\n    /* \"#utility.yul\":8763:8865   */\ntag_70:\n    /* \"#utility.yul\":8805:8813   */\n  0x00\n    /* \"#utility.yul\":8852:8857   */\n  dup2\n    /* \"#utility.yul\":8849:8850   */\n  0x01\n    /* \"#utility.yul\":8845:8858   */\n  shr\n    /* \"#utility.yul\":8824:8858   */\n  swap1\n  pop\n    /* \"#utility.yul\":8763:8865   */\n  swap2\n  swap1\n  pop\n  jump\t// out\n    /* \"#utility.yul\":8871:9719   */\ntag_71:\n    /* \"#utility.yul\":8932:8937   */\n  0x00\n    /* \"#utility.yul\":8939:8943   */\n  dup1\n    /* \"#utility.yul\":8963:8969   */\n  dup3\n    /* \"#utility.yul\":8954:8969   */\n  swap2\n  pop\n    /* \"#utility.yul\":8987:8992   */\n  dup4\n    /* \"#utility.yul\":8978:8992   */\n  swap1\n  pop\n    /* \"#utility.yul\":9001:9713   */\ntag_183:\n    /* \"#utility.yul\":9022:9023   */\n  0x01\n    /* \"#utility.yul\":9012:9020   */\n  dup6\n    /* \"#utility.yul\":9009:9024   */\n  gt\n    /* \"#utility.yul\":9001:9713   */\n  iszero\n  tag_185\n  jumpi\n    /* \"#utility.yul\":9117:9121   */\n  dup1\n    /* \"#utility.yul\":9112:9115   */\n  dup7\n    /* \"#utility.yul\":9108:9122   */\n  div\n    /* \"#utility.yul\":9102:9106   */\n  dup2\n    /* \"#utility.yul\":9099:9123   */\n  gt\n    /* \"#utility.yul\":9096:9146   */\n  iszero\n  tag_186\n  jumpi\n    /* \"#utility.yul\":9126:9144   */\n  tag_187\n  tag_69\n  jump\t// in\ntag_187:\n    /* \"#utility.yul\":9096:9146   */\ntag_186:\n    /* \"#utility.yul\":9176:9177   */\n  0x01\n    /* \"#utility.yul\":9166:9174   */\n  dup6\n    /* \"#utility.yul\":9162:9178   */\n  and\n    /* \"#utility.yul\":9159:9610   */\n  iszero\n  tag_188\n  jumpi\n    /* \"#utility.yul\":9591:9595   */\n  dup1\n    /* \"#utility.yul\":9584:9589   */\n  dup3\n    /* \"#utility.yul\":9580:9596   */\n  mul\n    /* \"#utility.yul\":9571:9596   */\n  swap2\n  pop\n    /* \"#utility.yul\":9159:9610   */\ntag_188:\n    /* \"#utility.yul\":9641:9645   */\n  dup1\n    /* \"#utility.yul\":9635:9639   */\n  dup2\n    /* \"#utility.yul\":9631:9646   */\n  mul\n    /* \"#utility.yul\":9623:9646   */\n  swap1\n  pop\n    /* \"#utility.yul\":9671:9703   */\n  tag_189\n    /* \"#utility.yul\":9694:9702   */\n  dup6\n    /* \"#utility.yul\":9671:9703   */\n  tag_70\n  jump\t// in\ntag_189:\n    /* \"#utility.yul\":9659:9703   */\n  swap5\n  pop\n    /* \"#utility.yul\":9001:9713   */\n  jump(tag_183)\ntag_185:\n    /* \"#utility.yul\":8871:9719   */\n  swap5\n  pop\n  swap5\n  swap3\n  pop\n  pop\n  pop\n  jump\t// out\n    /* \"#utility.yul\":9725:10798   */\ntag_72:\n    /* \"#utility.yul\":9779:9784   */\n  0x00\n    /* \"#utility.yul\":9970:9978   */\n  dup3\n    /* \"#utility.yul\":9960:10000   */\n  tag_191\n  jumpi\n    /* \"#utility.yul\":9991:9992   */\n  0x01\n    /* \"#utility.yul\":9982:9992   */\n  swap1\n  pop\n    /* \"#utility.yul\":9993:9998   */\n  jump(tag_190)\n    /* \"#utility.yul\":9960:10000   */\ntag_191:\n    /* \"#utility.yul\":10019:10023   */\n  dup2\n    /* \"#utility.yul\":10009:10045   */\n  tag_192\n  jumpi\n    /* \"#utility.yul\":10036:10037   */\n  0x00\n    /* \"#utility.yul\":10027:10037   */\n  swap1\n  pop\n    /* \"#utility.yul\":10038:10043   */\n  jump(tag_190)\n    /* \"#utility.yul\":10009:10045   */\ntag_192:\n    /* \"#utility.yul\":10105:10109   */\n  dup2\n    /* \"#utility.yul\":10153:10154   */\n  0x01\n    /* \"#utility.yul\":10148:10175   */\n  dup2\n  eq\n  tag_194\n  jumpi\n    /* \"#utility.yul\":10189:10190   */\n  0x02\n    /* \"#utility.yul\":10184:10375   */\n  dup2\n  eq\n  tag_195\n  jumpi\n    /* \"#utility.yul\":10098:10375   */\n  jump(tag_193)\n    /* \"#utility.yul\":10148:10175   */\ntag_194:\n    /* \"#utility.yul\":10166:10167   */\n  0x01\n    /* \"#utility.yul\":10157:10167   */\n  swap2\n  pop\n    /* \"#utility.yul\":10168:10173   */\n  pop\n  jump(tag_190)\n    /* \"#utility.yul\":10184:10375   */\ntag_195:\n    /* \"#utility.yul\":10229:10232   */\n  0xff\n    /* \"#utility.yul\":10219:10227   */\n  dup5\n    /* \"#utility.yul\":10216:10233   */\n  gt\n    /* \"#utility.yul\":10213:10256   */\n  iszero\n  tag_196\n  jumpi\n    /* \"#utility.yul\":10236:10254   */\n  tag_197\n  tag_69\n  jump\t// in\ntag_197:\n    /* \"#utility.yul\":10213:10256   */\ntag_196:\n    /* \"#utility.yul\":10285:10293   */\n  dup4\n    /* \"#utility.yul\":10282:10283   */\n  0x02\n    /* \"#utility.yul\":10278:10294   */\n  exp\n    /* \"#utility.yul\":10269:10294   */\n  swap2\n  pop\n    /* \"#utility.yul\":10320:10323   */\n  dup5\n    /* \"#utility.yul\":10313:10318   */\n  dup3\n    /* \"#utility.yul\":10310:10324   */\n  gt\n    /* \"#utility.yul\":10307:10347   */\n  iszero\n  tag_198\n  jumpi\n    /* \"#utility.yul\":10327:10345   */\n  tag_199\n  tag_69\n  jump\t// in\ntag_199:\n    /* \"#utility.yul\":10307:10347   */\ntag_198:\n    /* \"#utility.yul\":10360:10365   */\n  pop\n  jump(tag_190)\n    /* \"#utility.yul\":10098:10375   */\ntag_193:\n  pop\n    /* \"#utility.yul\":10484:10486   */\n  0x20\n    /* \"#utility.yul\":10474:10482   */\n  dup4\n    /* \"#utility.yul\":10471:10487   */\n  lt\n    /* \"#utility.yul\":10465:10468   */\n  0x0133\n    /* \"#utility.yul\":10459:10463   */\n  dup4\n    /* \"#utility.yul\":10456:10469   */\n  lt\n    /* \"#utility.yul\":10452:10488   */\n  and\n    /* \"#utility.yul\":10434:10436   */\n  0x4e\n    /* \"#utility.yul\":10424:10432   */\n  dup5\n    /* \"#utility.yul\":10421:10437   */\n  lt\n    /* \"#utility.yul\":10416:10418   */\n  0x0b\n    /* \"#utility.yul\":10410:10414   */\n  dup5\n    /* \"#utility.yul\":10407:10419   */\n  lt\n    /* \"#utility.yul\":10403:10438   */\n  and\n    /* \"#utility.yul\":10387:10498   */\n  or\n    /* \"#utility.yul\":10384:10630   */\n  iszero\n  tag_200\n  jumpi\n    /* \"#utility.yul\":10540:10548   */\n  dup3\n    /* \"#utility.yul\":10534:10538   */\n  dup3\n    /* \"#utility.yul\":10530:10549   */\n  exp\n    /* \"#utility.yul\":10521:10549   */\n  swap1\n  pop\n    /* \"#utility.yul\":10575:10578   */\n  dup4\n    /* \"#utility.yul\":10568:10573   */\n  dup2\n    /* \"#utility.yul\":10565:10579   */\n  gt\n    /* \"#utility.yul\":10562:10602   */\n  iszero\n  tag_201\n  jumpi\n    /* \"#utility.yul\":10582:10600   */\n  tag_202\n  tag_69\n  jump\t// in\ntag_202:\n    /* \"#utility.yul\":10562:10602   */\ntag_201:\n    /* \"#utility.yul\":10615:10620   */\n  jump(tag_190)\n    /* \"#utility.yul\":10384:10630   */\ntag_200:\n    /* \"#utility.yul\":10655:10697   */\n  tag_203\n    /* \"#utility.yul\":10693:10696   */\n  dup5\n    /* \"#utility.yul\":10683:10691   */\n  dup5\n    /* \"#utility.yul\":10677:10681   */\n  dup5\n    /* \"#utility.yul\":10674:10675   */\n  0x01\n    /* \"#utility.yul\":10655:10697   */\n  tag_71\n  jump\t// in\ntag_203:\n    /* \"#utility.yul\":10640:10697   */\n  swap3\n  pop\n  swap1\n  pop\n    /* \"#utility.yul\":10729:10733   */\n  dup2\n    /* \"#utility.yul\":10724:10727   */\n  dup5\n    /* \"#utility.yul\":10720:10734   */\n  div\n    /* \"#utility.yul\":10713:10718   */\n  dup2\n    /* \"#utility.yul\":10710:10735   */\n  gt\n    /* \"#utility.yul\":10707:10758   */\n  iszero\n  tag_204\n  jumpi\n    /* \"#utility.yul\":10738:10756   */\n  tag_205\n  tag_69\n  jump\t// in\ntag_205:\n    /* \"#utility.yul\":10707:10758   */\ntag_204:\n    /* \"#utility.yul\":10787:10791   */\n  dup2\n    /* \"#utility.yul\":10780:10785   */\n  dup2\n    /* \"#utility.yul\":10776:10792   */\n  mul\n    /* \"#utility.yul\":10767:10792   */\n  swap1\n  pop\n    /* \"#utility.yul\":9725:10798   */\ntag_190:\n  swap4\n  swap3\n  pop\n  pop\n  pop\n  jump\t// out\n    /* \"#utility.yul\":10804:10890   */\ntag_73:\n    /* \"#utility.yul\":10839:10846   */\n  0x00\n    /* \"#utility.yul\":10879:10883   */\n  0xff\n    /* \"#utility.yul\":10872:10877   */\n  dup3\n    /* \"#utility.yul\":10868:10884   */\n  and\n    /* \"#utility.yul\":10857:10884   */\n  swap1\n  pop\n    /* \"#utility.yul\":10804:10890   */\n  swap2\n  swap1\n  pop\n  jump\t// out\n    /* \"#utility.yul\":10896:11177   */\ntag_15:\n    /* \"#utility.yul\":10954:10959   */\n  0x00\n    /* \"#utility.yul\":10978:11001   */\n  tag_208\n    /* \"#utility.yul\":10996:11000   */\n  dup3\n    /* \"#utility.yul\":10978:11001   */\n  tag_57\n  jump\t// in\ntag_208:\n    /* \"#utility.yul\":10970:11001   */\n  swap2\n  pop\n    /* \"#utility.yul\":11022:11047   */\n  tag_209\n    /* \"#utility.yul\":11038:11046   */\n  dup4\n    /* \"#utility.yul\":11022:11047   */\n  tag_73\n  jump\t// in\ntag_209:\n    /* \"#utility.yul\":11010:11047   */\n  swap3\n  pop\n    /* \"#utility.yul\":11066:11170   */\n  tag_210\n    /* \"#utility.yul\":11103:11169   */\n  0xffffffffffffffffffffffffffffffffffffffffffffffffffffffffffffffff\n    /* \"#utility.yul\":11093:11101   */\n  dup5\n    /* \"#utility.yul\":11087:11091   */\n  dup5\n    /* \"#utility.yul\":11066:11170   */\n  tag_72\n  jump\t// in\ntag_210:\n    /* \"#utility.yul\":11057:11170   */\n  swap1\n  pop\n    /* \"#utility.yul\":10896:11177   */\n  swap3\n  swap2\n  pop\n  pop\n  jump\t// out\n    /* \"#utility.yul\":11183:11593   */\ntag_17:\n    /* \"#utility.yul\":11223:11230   */\n  0x00\n    /* \"#utility.yul\":11246:11266   */\n  tag_212\n    /* \"#utility.yul\":11264:11265   */\n  dup3\n    /* \"#utility.yul\":11246:11266   */\n  tag_57\n  jump\t// in\ntag_212:\n    /* \"#utility.yul\":11241:11266   */\n  swap2\n  pop\n    /* \"#utility.yul\":11280:11300   */\n  tag_213\n    /* \"#utility.yul\":11298:11299   */\n  dup4\n    /* \"#utility.yul\":11280:11300   */\n  tag_57\n  jump\t// in\ntag_213:\n    /* \"#utility.yul\":11275:11300   */\n  swap3\n  pop\n    /* \"#utility.yul\":11335:11336   */\n  dup3\n    /* \"#utility.yul\":11332:11333   */\n  dup3\n    /* \"#utility.yul\":11328:11337   */\n  mul\n    /* \"#utility.yul\":11357:11387   */\n  tag_214\n    /* \"#utility.yul\":11375:11386   */\n  dup2\n    /* \"#utility.yul\":11357:11387   */\n  tag_57\n  jump\t// in\ntag_214:\n    /* \"#utility.yul\":11346:11387   */\n  swap2\n  pop\n    /* \"#utility.yul\":11536:11537   */\n  dup3\n    /* \"#utility.yul\":11527:11534   */\n  dup3\n    /* \"#utility.yul\":11523:11538   */\n  div\n    /* \"#utility.yul\":11520:11521   */\n  dup5\n    /* \"#utility.yul\":11517:11539   */\n  eq\n    /* \"#utility.yul\":11497:11498   */\n  dup4\n    /* \"#utility.yul\":11490:11499   */\n  iszero\n    /* \"#utility.yul\":11470:11553   */\n  or\n    /* \"#utility.yul\":11447:11586   */\n  tag_215\n  jumpi\n    /* \"#utility.yul\":11566:11584   */\n  tag_216\n  tag_69\n  jump\t// in\ntag_216:\n    /* \"#utility.yul\":11447:11586   */\ntag_215:\n    /* \"#utility.yul\":11231:11593   */\n  pop\n    /* \"#utility.yul\":11183:11593   */\n  swap3\n  swap2\n  pop\n  pop\n  jump\t// out\n    /* \"#utility.yul\":11599:11768   */\ntag_74:\n    /* \"#utility.yul\":11683:11694   */\n  0x00\n    /* \"#utility.yul\":11717:11723   */\n  dup3\n    /* \"#utility.yul\":11712:11715   */\n  dup3\n    /* \"#utility.yul\":11705:11724   */\n  mstore\n    /* \"#utility.yul\":11757:11761   */\n  0x20\n    /* \"#utility.yul\":11752:11755   */\n  dup3\n    /* \"#utility.yul\":11748:11762   */\n  add\n    /* \"#utility.yul\":11733:11762   */\n  swap1\n  pop\n    /* \"#utility.yul\":11599:11768   */\n  swap3\n  swap2\n  pop\n  pop\n  jump\t// out\n    /* \"#utility.yul\":11774:11955   */\ntag_75:\n    /* \"#utility.yul\":11914:11947   */\n  0x45524332303a206d696e7420746f20746865207a65726f206164647265737300\n    /* \"#utility.yul\":11910:11911   */\n  0x00\n    /* \"#utility.yul\":11902:11908   */\n  dup3\n    /* \"#utility.yul\":11898:11912   */\n  add\n    /* \"#utility.yul\":11891:11948   */\n  mstore\n    /* \"#utility.yul\":11774:11955   */\n  pop\n  jump\t// out\n    /* \"#utility.yul\":11961:12327   */\ntag_76:\n    /* \"#utility.yul\":12103:12106   */\n  0x00\n    /* \"#utility.yul\":12124:12191   */\n  tag_220\n    /* \"#utility.yul\":12188:12190   */\n  0x1f\n    /* \"#utility.yul\":12183:12186   */\n  dup4\n    /* \"#utility.yul\":12124:12191   */\n  tag_74\n  jump\t// in\ntag_220:\n    /* \"#utility.yul\":12117:12191   */\n  swap2\n  pop\n    /* \"#utility.yul\":12200:12293   */\n  tag_221\n    /* \"#utility.yul\":12289:12292   */\n  dup3\n    /* \"#utility.yul\":12200:12293   */\n  tag_75\n  jump\t// in\ntag_221:\n    /* \"#utility.yul\":12318:12320   */\n  0x20\n    /* \"#utility.yul\":12313:12316   */\n  dup3\n    /* \"#utility.yul\":12309:12321   */\n  add\n    /* \"#utility.yul\":12302:12321   */\n  swap1\n  pop\n    /* \"#utility.yul\":11961:12327   */\n  swap2\n  swap1\n  pop\n  jump\t// out\n    /* \"#utility.yul\":12333:12752   */\ntag_26:\n    /* \"#utility.yul\":12499:12503   */\n  0x00\n    /* \"#utility.yul\":12537:12539   */\n  0x20\n    /* \"#utility.yul\":12526:12535   */\n  dup3\n    /* \"#utility.yul\":12522:12540   */\n  add\n    /* \"#utility.yul\":12514:12540   */\n  swap1\n  pop\n    /* \"#utility.yul\":12586:12595   */\n  dup2\n    /* \"#utility.yul\":12580:12584   */\n  dup2\n    /* \"#utility.yul\":12576:12596   */\n  sub\n    /* \"#utility.yul\":12572:12573   */\n  0x00\n    /* \"#utility.yul\":12561:12570   */\n  dup4\n    /* \"#utility.yul\":12557:12574   */\n  add\n    /* \"#utility.yul\":12550:12597   */\n  mstore\n    /* \"#utility.yul\":12614:12745   */\n  tag_223\n    /* \"#utility.yul\":12740:12744   */\n  dup2\n    /* \"#utility.yul\":12614:12745   */\n  tag_76\n  jump\t// in\ntag_223:\n    /* \"#utility.yul\":12606:12745   */\n  swap1\n  pop\n    /* \"#utility.yul\":12333:12752   */\n  swap2\n  swap1\n  pop\n  jump\t// out\n    /* \"#utility.yul\":12758:12949   */\ntag_30:\n    /* \"#utility.yul\":12798:12801   */\n  0x00\n    /* \"#utility.yul\":12817:12837   */\n  tag_225\n    /* \"#utility.yul\":12835:12836   */\n  dup3\n    /* \"#utility.yul\":12817:12837   */\n  tag_57\n  jump\t// in\ntag_225:\n    /* \"#utility.yul\":12812:12837   */\n  swap2\n  pop\n    /* \"#utility.yul\":12851:12871   */\n  tag_226\n    /* \"#utility.yul\":12869:12870   */\n  dup4\n    /* \"#utility.yul\":12851:12871   */\n  tag_57\n  jump\t// in\ntag_226:\n    /* \"#utility.yul\":12846:12871   */\n  swap3\n  pop\n    /* \"#utility.yul\":12894:12895   */\n  dup3\n    /* \"#utility.yul\":12891:12892   */\n  dup3\n    /* \"#utility.yul\":12887:12896   */\n  add\n    /* \"#utility.yul\":12880:12896   */\n  swap1\n  pop\n    /* \"#utility.yul\":12915:12918   */\n  dup1\n    /* \"#utility.yul\":12912:12913   */\n  dup3\n    /* \"#utility.yul\":12909:12919   */\n  gt\n    /* \"#utility.yul\":12906:12942   */\n  iszero\n  tag_227\n  jumpi\n    /* \"#utility.yul\":12922:12940   */\n  tag_228\n  tag_69\n  jump\t// in\ntag_228:\n    /* \"#utility.yul\":12906:12942   */\ntag_227:\n    /* \"#utility.yul\":12758:12949   */\n  swap3\n  swap2\n  pop\n  pop\n  jump\t// out\n    /* \"#utility.yul\":12955:13073   */\ntag_77:\n    /* \"#utility.yul\":13042:13066   */\n  tag_230\n    /* \"#utility.yul\":13060:13065   */\n  dup2\n    /* \"#utility.yul\":13042:13066   */\n  tag_57\n  jump\t// in\ntag_230:\n    /* \"#utility.yul\":13037:13040   */\n  dup3\n    /* \"#utility.yul\":13030:13067   */\n  mstore\n    /* \"#utility.yul\":12955:13073   */\n  pop\n  pop\n  jump\t// out\n    /* \"#utility.yul\":13079:13301   */\ntag_32:\n    /* \"#utility.yul\":13172:13176   */\n  0x00\n    /* \"#utility.yul\":13210:13212   */\n  0x20\n    /* \"#utility.yul\":13199:13208   */\n  dup3\n    /* \"#utility.yul\":13195:13213   */\n  add\n    /* \"#utility.yul\":13187:13213   */\n  swap1\n  pop\n    /* \"#utility.yul\":13223:13294   */\n  tag_232\n    /* \"#utility.yul\":13291:13292   */\n  0x00\n    /* \"#utility.yul\":13280:13289   */\n  dup4\n    /* \"#utility.yul\":13276:13293   */\n  add\n    /* \"#utility.yul\":13267:13273   */\n  dup5\n    /* \"#utility.yul\":13223:13294   */\n  tag_77\n  jump\t// in\ntag_232:\n    /* \"#utility.yul\":13079:13301   */\n  swap3\n  swap2\n  pop\n  pop\n  jump\t// out\n    /* \"contracts/TinyNotesToken.sol\":174:2061  contract TinyNotesToken is ERC20 {... */\ntag_21:\n  dataSize(sub_0)\n  dup1\n  dataOffset(sub_0)\n  0x00\n  codecopy\n  0x00\n  return\nstop\n\nsub_0: assembly {\n        /* \"contracts/TinyNotesToken.sol\":174:2061  contract TinyNotesToken is ERC20 {... */\n      mstore(0x40, 0x80)\n      callvalue\n      dup1\n      iszero\n      tag_1\n      jumpi\n      0x00\n      dup1\n      revert\n    tag_1:\n      pop\n      jumpi(tag_2, lt(calldatasize, 0x04))\n      shr(0xe0, calldataload(0x00))\n      dup1\n      0x70a08231\n      gt\n      tag_19\n      jumpi\n      dup1\n      0xa9059cbb\n      gt\n      tag_20\n      jumpi\n      dup1\n      0xa9059cbb\n      eq\n      tag_15\n      jumpi\n      dup1\n      0xc47177f4\n      eq\n      tag_16\n      jumpi\n      dup1\n      0xd311651a\n      eq\n      tag_17\n      jumpi\n      dup1\n      0xdd62ed3e\n      eq\n      tag_18\n      jumpi\n      jump(tag_2)\n    tag_20:\n      dup1\n      0x70a08231\n      eq\n      tag_11\n      jumpi\n      dup1\n      0x95d89b41\n      eq\n      tag_12\n      jumpi\n      dup1\n      0xa1fbb8f5\n      eq\n      tag_13\n      jumpi\n      dup1\n      0xa457c2d7\n      eq\n      tag_14\n      jumpi\n      jump(tag_2)\n    tag_19:\n      dup1\n      0x23b872dd\n      gt\n      tag_21\n      jumpi\n      dup1\n      0x23b872dd\n      eq\n      tag_7\n      jumpi\n      dup1\n      0x2feaf817\n      eq\n      tag_8\n      jumpi\n      dup1\n      0x313ce567\n      eq\n      tag_9\n      jumpi\n      dup1\n      0x39509351\n      eq\n      tag_10\n      jumpi\n      jump(tag_2)\n    tag_21:\n      dup1\n      0x06fdde03\n      eq\n      tag_3\n      jumpi\n      dup1\n      0x095ea7b3\n      eq\n      tag_4\n      jumpi\n      dup1\n      0x09abcd3b\n      eq\n      tag_5\n      jumpi\n      dup1\n      0x18160ddd\n      eq\n      tag_6\n      jumpi\n    tag_2:\n      0x00\n      dup1\n      revert\n        /* \"@openzeppelin/contracts/token/ERC20/ERC20.sol\":2154:2252  function name() public view virtual override returns (string memory) {... */\n    tag_3:\n      tag_22\n      tag_23\n      jump\t// in\n    tag_22:\n      mload(0x40)\n      tag_24\n      swap2\n      swap1\n      tag_25\n      jump\t// in\n    tag_24:\n      mload(0x40)\n      dup1\n      swap2\n      sub\n      swap1\n      return\n        /* \"@openzeppelin/contracts/token/ERC20/ERC20.sol\":4431:4628  function approve(address spender, uint256 amount) public virtual override returns (bool) {... */\n    tag_4:\n      tag_26\n      0x04\n      dup1\n      calldatasize\n      sub\n      dup2\n      add\n      swap1\n      tag_27\n      swap2\n      swap1\n      tag_28\n      jump\t// in\n    tag_27:\n      tag_29\n      jump\t// in\n    tag_26:\n      mload(0x40)\n      tag_30\n      swap2\n      swap1\n      tag_31\n      jump\t// in\n    tag_30:\n      mload(0x40)\n      dup1\n      swap2\n      sub\n      swap1\n      return\n        /* \"contracts/TinyNotesToken.sol\":1483:1836  function updateNote(uint256 _noteId, string memory _newTitle, string memory _newContent) public {... */\n    tag_5:\n      tag_32\n      0x04\n      dup1\n      calldatasize\n      sub\n      dup2\n      add\n      swap1\n      tag_33\n      swap2\n      swap1\n      tag_34\n      jump\t// in\n    tag_33:\n      tag_35\n      jump\t// in\n    tag_32:\n      stop\n        /* \"@openzeppelin/contracts/token/ERC20/ERC20.sol\":3242:3348  function totalSupply() public view virtual override returns (uint256) {... */\n    tag_6:\n      tag_36\n      tag_37\n      jump\t// in\n    tag_36:\n      mload(0x40)\n      tag_38\n      swap2\n      swap1\n      tag_39\n      jump\t// in\n    tag_38:\n      mload(0x40)\n      dup1\n      swap2\n      sub\n      swap1\n      return\n        /* \"@openzeppelin/contracts/token/ERC20/ERC20.sol\":5190:5476  function transferFrom(... */\n    tag_7:\n      tag_40\n      0x04\n      dup1\n      calldatasize\n      sub\n      dup2\n      add\n      swap1\n      tag_41\n      swap2\n      swap1\n      tag_42\n      jump\t// in\n    tag_41:\n      tag_43\n      jump\t// in\n    tag_40:\n      mload(0x40)\n      tag_44\n      swap2\n      swap1\n      tag_31\n      jump\t// in\n    tag_44:\n      mload(0x40)\n      dup1\n      swap2\n      sub\n      swap1\n      return\n        /* \"contracts/TinyNotesToken.sol\":907:1244  function createNote(string memory _title, string memory _content) public {... */\n    tag_8:\n      tag_45\n      0x04\n      dup1\n      calldatasize\n      sub\n      dup2\n      add\n      swap1\n      tag_46\n      swap2\n      swap1\n      tag_47\n      jump\t// in\n    tag_46:\n      tag_48\n      jump\t// in\n    tag_45:\n      stop\n        /* \"@openzeppelin/contracts/token/ERC20/ERC20.sol\":3091:3182  function decimals() public view virtual override returns (uint8) {... */\n    tag_9:\n      tag_49\n      tag_50\n      jump\t// in\n    tag_49:\n      mload(0x40)\n      tag_51\n      swap2\n      swap1\n      tag_52\n      jump\t// in\n    tag_51:\n      mload(0x40)\n      dup1\n      swap2\n      sub\n      swap1\n      return\n        /* \"@openzeppelin/contracts/token/ERC20/ERC20.sol\":5871:6105  function increaseAllowance(address spender, uint256 addedValue) public virtual returns (bool) {... */\n    tag_10:\n      tag_53\n      0x04\n      dup1\n      calldatasize\n      sub\n      dup2\n      add\n      swap1\n      tag_54\n      swap2\n      swap1\n      tag_28\n      jump\t// in\n    tag_54:\n      tag_55\n      jump\t// in\n    tag_53:\n      mload(0x40)\n      tag_56\n      swap2\n      swap1\n      tag_31\n      jump\t// in\n    tag_56:\n      mload(0x40)\n      dup1\n      swap2\n      sub\n      swap1\n      return\n        /* \"@openzeppelin/contracts/token/ERC20/ERC20.sol\":3406:3531  function balanceOf(address account) public view virtual override returns (uint256) {... */\n    tag_11:\n      tag_57\n      0x04\n      dup1\n      calldatasize\n      sub\n      dup2\n      add\n      swap1\n      tag_58\n      swap2\n      swap1\n      tag_59\n      jump\t// in\n    tag_58:\n      tag_60\n      jump\t// in\n    tag_57:\n      mload(0x40)\n      tag_61\n      swap2\n      swap1\n      tag_39\n      jump\t// in\n    tag_61:\n      mload(0x40)\n      dup1\n      swap2\n      sub\n      swap1\n      return\n        /* \"@openzeppelin/contracts/token/ERC20/ERC20.sol\":2365:2467  function symbol() public view virtual override returns (string memory) {... */\n    tag_12:\n      tag_62\n      tag_63\n      jump\t// in\n    tag_62:\n      mload(0x40)\n      tag_64\n      swap2\n      swap1\n      tag_25\n      jump\t// in\n    tag_64:\n      mload(0x40)\n      dup1\n      swap2\n      sub\n      swap1\n      return\n        /* \"contracts/TinyNotesToken.sol\":254:285  Counters.Counter public noteIds */\n    tag_13:\n      tag_65\n      tag_66\n      jump\t// in\n    tag_65:\n      mload(0x40)\n      tag_67\n      swap2\n      swap1\n      tag_39\n      jump\t// in\n    tag_67:\n      mload(0x40)\n      dup1\n      swap2\n      sub\n      swap1\n      return\n        /* \"@openzeppelin/contracts/token/ERC20/ERC20.sol\":6592:7019  function decreaseAllowance(address spender, uint256 subtractedValue) public virtual returns (bool) {... */\n    tag_14:\n      tag_68\n      0x04\n      dup1\n      calldatasize\n      sub\n      dup2\n      add\n      swap1\n      tag_69\n      swap2\n      swap1\n      tag_28\n      jump\t// in\n    tag_69:\n      tag_70\n      jump\t// in\n    tag_68:\n      mload(0x40)\n      tag_71\n      swap2\n      swap1\n      tag_31\n      jump\t// in\n    tag_71:\n      mload(0x40)\n      dup1\n      swap2\n      sub\n      swap1\n      return\n        /* \"@openzeppelin/contracts/token/ERC20/ERC20.sol\":3727:3916  function transfer(address to, uint256 amount) public virtual override returns (bool) {... */\n    tag_15:\n      tag_72\n      0x04\n      dup1\n      calldatasize\n      sub\n      dup2\n      add\n      swap1\n      tag_73\n      swap2\n      swap1\n      tag_28\n      jump\t// in\n    tag_73:\n      tag_74\n      jump\t// in\n    tag_72:\n      mload(0x40)\n      tag_75\n      swap2\n      swap1\n      tag_31\n      jump\t// in\n    tag_75:\n      mload(0x40)\n      dup1\n      swap2\n      sub\n      swap1\n      return\n        /* \"contracts/TinyNotesToken.sol\":1842:2059  function deleteNote(uint256 _noteId) public {... */\n    tag_16:\n      tag_76\n      0x04\n      dup1\n      calldatasize\n      sub\n      dup2\n      add\n      swap1\n      tag_77\n      swap2\n      swap1\n      tag_78\n      jump\t// in\n    tag_77:\n      tag_79\n      jump\t// in\n    tag_76:\n      stop\n        /* \"contracts/TinyNotesToken.sol\":1250:1477  function readNote(uint256 _noteId) public view returns (address creator, string memory title, string memory content) {... */\n    tag_17:\n      tag_80\n      0x04\n      dup1\n      calldatasize\n      sub\n      dup2\n      add\n      swap1\n      tag_81\n      swap2\n      swap1\n      tag_78\n      jump\t// in\n    tag_81:\n      tag_82\n      jump\t// in\n    tag_80:\n      mload(0x40)\n      tag_83\n      swap4\n      swap3\n      swap2\n      swap1\n      tag_84\n      jump\t// in\n    tag_83:\n      mload(0x40)\n      dup1\n      swap2\n      sub\n      swap1\n      return\n        /* \"@openzeppelin/contracts/token/ERC20/ERC20.sol\":3974:4123  function allowance(address owner, address spender) public view virtual override returns (uint256) {... */\n    tag_18:\n      tag_85\n      0x04\n      dup1\n      calldatasize\n      sub\n      dup2\n      add\n      swap1\n      tag_86\n      swap2\n      swap1\n      tag_87\n      jump\t// in\n    tag_86:\n      tag_88\n      jump\t// in\n    tag_85:\n      mload(0x40)\n      tag_89\n      swap2\n      swap1\n      tag_39\n      jump\t// in\n    tag_89:\n      mload(0x40)\n      dup1\n      swap2\n      sub\n      swap1\n      return\n        /* \"@openzeppelin/contracts/token/ERC20/ERC20.sol\":2154:2252  function name() public view virtual override returns (string memory) {... */\n    tag_23:\n        /* \"@openzeppelin/contracts/token/ERC20/ERC20.sol\":2208:2221  string memory */\n      0x60\n        /* \"@openzeppelin/contracts/token/ERC20/ERC20.sol\":2240:2245  _name */\n      0x03\n        /* \"@openzeppelin/contracts/token/ERC20/ERC20.sol\":2233:2245  return _name */\n      dup1\n      sload\n      tag_91\n      swap1\n      tag_92\n      jump\t// in\n    tag_91:\n      dup1\n      0x1f\n      add\n      0x20\n      dup1\n      swap2\n      div\n      mul\n      0x20\n      add\n      mload(0x40)\n      swap1\n      dup2\n      add\n      0x40\n      mstore\n      dup1\n      swap3\n      swap2\n      swap1\n      dup2\n      dup2\n      mstore\n      0x20\n      add\n      dup3\n      dup1\n      sload\n      tag_93\n      swap1\n      tag_92\n      jump\t// in\n    tag_93:\n      dup1\n      iszero\n      tag_94\n      jumpi\n      dup1\n      0x1f\n      lt\n      tag_95\n      jumpi\n      0x0100\n      dup1\n      dup4\n      sload\n      div\n      mul\n      dup4\n      mstore\n      swap2\n      0x20\n      add\n      swap2\n      jump(tag_94)\n    tag_95:\n      dup3\n      add\n      swap2\n      swap1\n      0x00\n      mstore\n      keccak256(0x00, 0x20)\n      swap1\n    tag_96:\n      dup2\n      sload\n      dup2\n      mstore\n      swap1\n      0x01\n      add\n      swap1\n      0x20\n      add\n      dup1\n      dup4\n      gt\n      tag_96\n      jumpi\n      dup3\n      swap1\n      sub\n      0x1f\n      and\n      dup3\n      add\n      swap2\n    tag_94:\n      pop\n      pop\n      pop\n      pop\n      pop\n      swap1\n      pop\n        /* \"@openzeppelin/contracts/token/ERC20/ERC20.sol\":2154:2252  function name() public view virtual override returns (string memory) {... */\n      swap1\n      jump\t// out\n        /* \"@openzeppelin/contracts/token/ERC20/ERC20.sol\":4431:4628  function approve(address spender, uint256 amount) public virtual override returns (bool) {... */\n    tag_29:\n        /* \"@openzeppelin/contracts/token/ERC20/ERC20.sol\":4514:4518  bool */\n      0x00\n        /* \"@openzeppelin/contracts/token/ERC20/ERC20.sol\":4530:4543  address owner */\n      dup1\n        /* \"@openzeppelin/contracts/token/ERC20/ERC20.sol\":4546:4558  _msgSender() */\n      tag_98\n        /* \"@openzeppelin/contracts/token/ERC20/ERC20.sol\":4546:4556  _msgSender */\n      tag_99\n        /* \"@openzeppelin/contracts/token/ERC20/ERC20.sol\":4546:4558  _msgSender() */\n      jump\t// in\n    tag_98:\n        /* \"@openzeppelin/contracts/token/ERC20/ERC20.sol\":4530:4558  address owner = _msgSender() */\n      swap1\n      pop\n        /* \"@openzeppelin/contracts/token/ERC20/ERC20.sol\":4568:4600  _approve(owner, spender, amount) */\n      tag_100\n        /* \"@openzeppelin/contracts/token/ERC20/ERC20.sol\":4577:4582  owner */\n      dup2\n        /* \"@openzeppelin/contracts/token/ERC20/ERC20.sol\":4584:4591  spender */\n      dup6\n        /* \"@openzeppelin/contracts/token/ERC20/ERC20.sol\":4593:4599  amount */\n      dup6\n        /* \"@openzeppelin/contracts/token/ERC20/ERC20.sol\":4568:4576  _approve */\n      tag_101\n        /* \"@openzeppelin/contracts/token/ERC20/ERC20.sol\":4568:4600  _approve(owner, spender, amount) */\n      jump\t// in\n    tag_100:\n        /* \"@openzeppelin/contracts/token/ERC20/ERC20.sol\":4617:4621  true */\n      0x01\n        /* \"@openzeppelin/contracts/token/ERC20/ERC20.sol\":4610:4621  return true */\n      swap2\n      pop\n      pop\n        /* \"@openzeppelin/contracts/token/ERC20/ERC20.sol\":4431:4628  function approve(address spender, uint256 amount) public virtual override returns (bool) {... */\n      swap3\n      swap2\n      pop\n      pop\n      jump\t// out\n        /* \"contracts/TinyNotesToken.sol\":1483:1836  function updateNote(uint256 _noteId, string memory _newTitle, string memory _newContent) public {... */\n    tag_35:\n        /* \"contracts/TinyNotesToken.sol\":1626:1636  msg.sender */\n      caller\n        /* \"contracts/TinyNotesToken.sol\":1597:1636  idToNote[_noteId].creator == msg.sender */\n      0xffffffffffffffffffffffffffffffffffffffff\n      and\n        /* \"contracts/TinyNotesToken.sol\":1597:1605  idToNote */\n      0x06\n        /* \"contracts/TinyNotesToken.sol\":1597:1614  idToNote[_noteId] */\n      0x00\n        /* \"contracts/TinyNotesToken.sol\":1606:1613  _noteId */\n      dup6\n        /* \"contracts/TinyNotesToken.sol\":1597:1614  idToNote[_noteId] */\n      dup2\n      mstore\n      0x20\n      add\n      swap1\n      dup2\n      mstore\n      0x20\n      add\n      0x00\n      keccak256\n        /* \"contracts/TinyNotesToken.sol\":1597:1622  idToNote[_noteId].creator */\n      0x00\n      add\n      0x00\n      swap1\n      sload\n      swap1\n      0x0100\n      exp\n      swap1\n      div\n      0xffffffffffffffffffffffffffffffffffffffff\n      and\n        /* \"contracts/TinyNotesToken.sol\":1597:1636  idToNote[_noteId].creator == msg.sender */\n      0xffffffffffffffffffffffffffffffffffffffff\n      and\n      eq\n        /* \"contracts/TinyNotesToken.sol\":1589:1676  require(idToNote[_noteId].creator == msg.sender, \"Only the creator may update a Note.\") */\n      tag_103\n      jumpi\n      mload(0x40)\n      0x08c379a000000000000000000000000000000000000000000000000000000000\n      dup2\n      mstore\n      0x04\n      add\n      tag_104\n      swap1\n      tag_105\n      jump\t// in\n    tag_104:\n      mload(0x40)\n      dup1\n      swap2\n      sub\n      swap1\n      revert\n    tag_103:\n        /* \"contracts/TinyNotesToken.sol\":1712:1721  _newTitle */\n      dup2\n        /* \"contracts/TinyNotesToken.sol\":1686:1694  idToNote */\n      0x06\n        /* \"contracts/TinyNotesToken.sol\":1686:1703  idToNote[_noteId] */\n      0x00\n        /* \"contracts/TinyNotesToken.sol\":1695:1702  _noteId */\n      dup6\n        /* \"contracts/TinyNotesToken.sol\":1686:1703  idToNote[_noteId] */\n      dup2\n      mstore\n      0x20\n      add\n      swap1\n      dup2\n      mstore\n      0x20\n      add\n      0x00\n      keccak256\n        /* \"contracts/TinyNotesToken.sol\":1686:1709  idToNote[_noteId].title */\n      0x01\n      add\n        /* \"contracts/TinyNotesToken.sol\":1686:1721  idToNote[_noteId].title = _newTitle */\n      swap1\n      dup2\n      tag_106\n      swap2\n      swap1\n      tag_107\n      jump\t// in\n    tag_106:\n      pop\n        /* \"contracts/TinyNotesToken.sol\":1759:1770  _newContent */\n      dup1\n        /* \"contracts/TinyNotesToken.sol\":1731:1739  idToNote */\n      0x06\n        /* \"contracts/TinyNotesToken.sol\":1731:1748  idToNote[_noteId] */\n      0x00\n        /* \"contracts/TinyNotesToken.sol\":1740:1747  _noteId */\n      dup6\n        /* \"contracts/TinyNotesToken.sol\":1731:1748  idToNote[_noteId] */\n      dup2\n      mstore\n      0x20\n      add\n      swap1\n      dup2\n      mstore\n      0x20\n      add\n      0x00\n      keccak256\n        /* \"contracts/TinyNotesToken.sol\":1731:1756  idToNote[_noteId].content */\n      0x02\n      add\n        /* \"contracts/TinyNotesToken.sol\":1731:1770  idToNote[_noteId].content = _newContent */\n      swap1\n      dup2\n      tag_108\n      swap2\n      swap1\n      tag_107\n      jump\t// in\n    tag_108:\n      pop\n        /* \"contracts/TinyNotesToken.sol\":1797:1804  _noteId */\n      dup3\n        /* \"contracts/TinyNotesToken.sol\":1785:1829  NoteUpdated(_noteId, _newTitle, _newContent) */\n      0xf0632914d6d637e9a214fc715dc019e425c105498ffe6fed5e8597ed4920e9c8\n        /* \"contracts/TinyNotesToken.sol\":1806:1815  _newTitle */\n      dup4\n        /* \"contracts/TinyNotesToken.sol\":1817:1828  _newContent */\n      dup4\n        /* \"contracts/TinyNotesToken.sol\":1785:1829  NoteUpdated(_noteId, _newTitle, _newContent) */\n      mload(0x40)\n      tag_109\n      swap3\n      swap2\n      swap1\n      tag_110\n      jump\t// in\n    tag_109:\n      mload(0x40)\n      dup1\n      swap2\n      sub\n      swap1\n      log2\n        /* \"contracts/TinyNotesToken.sol\":1483:1836  function updateNote(uint256 _noteId, string memory _newTitle, string memory _newContent) public {... */\n      pop\n      pop\n      pop\n      jump\t// out\n        /* \"@openzeppelin/contracts/token/ERC20/ERC20.sol\":3242:3348  function totalSupply() public view virtual override returns (uint256) {... */\n    tag_37:\n        /* \"@openzeppelin/contracts/token/ERC20/ERC20.sol\":3303:3310  uint256 */\n      0x00\n        /* \"@openzeppelin/contracts/token/ERC20/ERC20.sol\":3329:3341  _totalSupply */\n      sload(0x02)\n        /* \"@openzeppelin/contracts/token/ERC20/ERC20.sol\":3322:3341  return _totalSupply */\n      swap1\n      pop\n        /* \"@openzeppelin/contracts/token/ERC20/ERC20.sol\":3242:3348  function totalSupply() public view virtual override returns (uint256) {... */\n      swap1\n      jump\t// out\n        /* \"@openzeppelin/contracts/token/ERC20/ERC20.sol\":5190:5476  function transferFrom(... */\n    tag_43:\n        /* \"@openzeppelin/contracts/token/ERC20/ERC20.sol\":5317:5321  bool */\n      0x00\n        /* \"@openzeppelin/contracts/token/ERC20/ERC20.sol\":5333:5348  address spender */\n      dup1\n        /* \"@openzeppelin/contracts/token/ERC20/ERC20.sol\":5351:5363  _msgSender() */\n      tag_113\n        /* \"@openzeppelin/contracts/token/ERC20/ERC20.sol\":5351:5361  _msgSender */\n      tag_99\n        /* \"@openzeppelin/contracts/token/ERC20/ERC20.sol\":5351:5363  _msgSender() */\n      jump\t// in\n    tag_113:\n        /* \"@openzeppelin/contracts/token/ERC20/ERC20.sol\":5333:5363  address spender = _msgSender() */\n      swap1\n      pop\n        /* \"@openzeppelin/contracts/token/ERC20/ERC20.sol\":5373:5411  _spendAllowance(from, spender, amount) */\n      tag_114\n        /* \"@openzeppelin/contracts/token/ERC20/ERC20.sol\":5389:5393  from */\n      dup6\n        /* \"@openzeppelin/contracts/token/ERC20/ERC20.sol\":5395:5402  spender */\n      dup3\n        /* \"@openzeppelin/contracts/token/ERC20/ERC20.sol\":5404:5410  amount */\n      dup6\n        /* \"@openzeppelin/contracts/token/ERC20/ERC20.sol\":5373:5388  _spendAllowance */\n      tag_115\n        /* \"@openzeppelin/contracts/token/ERC20/ERC20.sol\":5373:5411  _spendAllowance(from, spender, amount) */\n      jump\t// in\n    tag_114:\n        /* \"@openzeppelin/contracts/token/ERC20/ERC20.sol\":5421:5448  _transfer(from, to, amount) */\n      tag_116\n        /* \"@openzeppelin/contracts/token/ERC20/ERC20.sol\":5431:5435  from */\n      dup6\n        /* \"@openzeppelin/contracts/token/ERC20/ERC20.sol\":5437:5439  to */\n      dup6\n        /* \"@openzeppelin/contracts/token/ERC20/ERC20.sol\":5441:5447  amount */\n      dup6\n        /* \"@openzeppelin/contracts/token/ERC20/ERC20.sol\":5421:5430  _transfer */\n      tag_117\n        /* \"@openzeppelin/contracts/token/ERC20/ERC20.sol\":5421:5448  _transfer(from, to, amount) */\n      jump\t// in\n    tag_116:\n        /* \"@openzeppelin/contracts/token/ERC20/ERC20.sol\":5465:5469  true */\n      0x01\n        /* \"@openzeppelin/contracts/token/ERC20/ERC20.sol\":5458:5469  return true */\n      swap2\n      pop\n      pop\n        /* \"@openzeppelin/contracts/token/ERC20/ERC20.sol\":5190:5476  function transferFrom(... */\n      swap4\n      swap3\n      pop\n      pop\n      pop\n      jump\t// out\n        /* \"contracts/TinyNotesToken.sol\":907:1244  function createNote(string memory _title, string memory _content) public {... */\n    tag_48:\n        /* \"contracts/TinyNotesToken.sol\":1022:1023  0 */\n      0x00\n        /* \"contracts/TinyNotesToken.sol\":998:1019  balanceOf(msg.sender) */\n      tag_119\n        /* \"contracts/TinyNotesToken.sol\":1008:1018  msg.sender */\n      caller\n        /* \"contracts/TinyNotesToken.sol\":998:1007  balanceOf */\n      tag_60\n        /* \"contracts/TinyNotesToken.sol\":998:1019  balanceOf(msg.sender) */\n      jump\t// in\n    tag_119:\n        /* \"contracts/TinyNotesToken.sol\":998:1023  balanceOf(msg.sender) > 0 */\n      gt\n        /* \"contracts/TinyNotesToken.sol\":990:1059  require(balanceOf(msg.sender) > 0, \"Must hold TNT to create a Note.\") */\n      tag_120\n      jumpi\n      mload(0x40)\n      0x08c379a000000000000000000000000000000000000000000000000000000000\n      dup2\n      mstore\n      0x04\n      add\n      tag_121\n      swap1\n      tag_122\n      jump\t// in\n    tag_121:\n      mload(0x40)\n      dup1\n      swap2\n      sub\n      swap1\n      revert\n    tag_120:\n        /* \"contracts/TinyNotesToken.sol\":1069:1088  noteIds.increment() */\n      tag_123\n        /* \"contracts/TinyNotesToken.sol\":1069:1076  noteIds */\n      0x05\n        /* \"contracts/TinyNotesToken.sol\":1069:1086  noteIds.increment */\n      tag_124\n        /* \"contracts/TinyNotesToken.sol\":1069:1088  noteIds.increment() */\n      jump\t// in\n    tag_123:\n        /* \"contracts/TinyNotesToken.sol\":1128:1162  Note(msg.sender, _title, _content) */\n      mload(0x40)\n      dup1\n      0x60\n      add\n      0x40\n      mstore\n      dup1\n        /* \"contracts/TinyNotesToken.sol\":1133:1143  msg.sender */\n      caller\n        /* \"contracts/TinyNotesToken.sol\":1128:1162  Note(msg.sender, _title, _content) */\n      0xffffffffffffffffffffffffffffffffffffffff\n      and\n      dup2\n      mstore\n      0x20\n      add\n        /* \"contracts/TinyNotesToken.sol\":1145:1151  _title */\n      dup4\n        /* \"contracts/TinyNotesToken.sol\":1128:1162  Note(msg.sender, _title, _content) */\n      dup2\n      mstore\n      0x20\n      add\n        /* \"contracts/TinyNotesToken.sol\":1153:1161  _content */\n      dup3\n        /* \"contracts/TinyNotesToken.sol\":1128:1162  Note(msg.sender, _title, _content) */\n      dup2\n      mstore\n      pop\n        /* \"contracts/TinyNotesToken.sol\":1098:1106  idToNote */\n      0x06\n        /* \"contracts/TinyNotesToken.sol\":1098:1125  idToNote[noteIds.current()] */\n      0x00\n        /* \"contracts/TinyNotesToken.sol\":1107:1124  noteIds.current() */\n      tag_125\n        /* \"contracts/TinyNotesToken.sol\":1107:1114  noteIds */\n      0x05\n        /* \"contracts/TinyNotesToken.sol\":1107:1122  noteIds.current */\n      tag_126\n        /* \"contracts/TinyNotesToken.sol\":1107:1124  noteIds.current() */\n      jump\t// in\n    tag_125:\n        /* \"contracts/TinyNotesToken.sol\":1098:1125  idToNote[noteIds.current()] */\n      dup2\n      mstore\n      0x20\n      add\n      swap1\n      dup2\n      mstore\n      0x20\n      add\n      0x00\n      keccak256\n        /* \"contracts/TinyNotesToken.sol\":1098:1162  idToNote[noteIds.current()] = Note(msg.sender, _title, _content) */\n      0x00\n      dup3\n      add\n      mload\n      dup2\n      0x00\n      add\n      exp(0x0100, 0x00)\n      dup2\n      sload\n      dup2\n      0xffffffffffffffffffffffffffffffffffffffff\n      mul\n      not\n      and\n      swap1\n      dup4\n      0xffffffffffffffffffffffffffffffffffffffff\n      and\n      mul\n      or\n      swap1\n      sstore\n      pop\n      0x20\n      dup3\n      add\n      mload\n      dup2\n      0x01\n      add\n      swap1\n      dup2\n      tag_127\n      swap2\n      swap1\n      tag_107\n      jump\t// in\n    tag_127:\n      pop\n      0x40\n      dup3\n      add\n      mload\n      dup2\n      0x02\n      add\n      swap1\n      dup2\n      tag_128\n      swap2\n      swap1\n      tag_107\n      jump\t// in\n    tag_128:\n      pop\n      swap1\n      pop\n      pop\n        /* \"contracts/TinyNotesToken.sol\":1189:1206  noteIds.current() */\n      tag_129\n        /* \"contracts/TinyNotesToken.sol\":1189:1196  noteIds */\n      0x05\n        /* \"contracts/TinyNotesToken.sol\":1189:1204  noteIds.current */\n      tag_126\n        /* \"contracts/TinyNotesToken.sol\":1189:1206  noteIds.current() */\n      jump\t// in\n    tag_129:\n        /* \"contracts/TinyNotesToken.sol\":1177:1237  NoteCreated(noteIds.current(), msg.sender, _title, _content) */\n      0xb64def3cc683802a4837ef3a7b96aa9834f75ee8da72f3c08d38366faea4fdc8\n        /* \"contracts/TinyNotesToken.sol\":1208:1218  msg.sender */\n      caller\n        /* \"contracts/TinyNotesToken.sol\":1220:1226  _title */\n      dup5\n        /* \"contracts/TinyNotesToken.sol\":1228:1236  _content */\n      dup5\n        /* \"contracts/TinyNotesToken.sol\":1177:1237  NoteCreated(noteIds.current(), msg.sender, _title, _content) */\n      mload(0x40)\n      tag_130\n      swap4\n      swap3\n      swap2\n      swap1\n      tag_84\n      jump\t// in\n    tag_130:\n      mload(0x40)\n      dup1\n      swap2\n      sub\n      swap1\n      log2\n        /* \"contracts/TinyNotesToken.sol\":907:1244  function createNote(string memory _title, string memory _content) public {... */\n      pop\n      pop\n      jump\t// out\n        /* \"@openzeppelin/contracts/token/ERC20/ERC20.sol\":3091:3182  function decimals() public view virtual override returns (uint8) {... */\n    tag_50:\n        /* \"@openzeppelin/contracts/token/ERC20/ERC20.sol\":3149:3154  uint8 */\n      0x00\n        /* \"@openzeppelin/contracts/token/ERC20/ERC20.sol\":3173:3175  18 */\n      0x12\n        /* \"@openzeppelin/contracts/token/ERC20/ERC20.sol\":3166:3175  return 18 */\n      swap1\n      pop\n        /* \"@openzeppelin/contracts/token/ERC20/ERC20.sol\":3091:3182  function decimals() public view virtual override returns (uint8) {... */\n      swap1\n      jump\t// out\n        /* \"@openzeppelin/contracts/token/ERC20/ERC20.sol\":5871:6105  function increaseAllowance(address spender, uint256 addedValue) public virtual returns (bool) {... */\n    tag_55:\n        /* \"@openzeppelin/contracts/token/ERC20/ERC20.sol\":5959:5963  bool */\n      0x00\n        /* \"@openzeppelin/contracts/token/ERC20/ERC20.sol\":5975:5988  address owner */\n      dup1\n        /* \"@openzeppelin/contracts/token/ERC20/ERC20.sol\":5991:6003  _msgSender() */\n      tag_133\n        /* \"@openzeppelin/contracts/token/ERC20/ERC20.sol\":5991:6001  _msgSender */\n      tag_99\n        /* \"@openzeppelin/contracts/token/ERC20/ERC20.sol\":5991:6003  _msgSender() */\n      jump\t// in\n    tag_133:\n        /* \"@openzeppelin/contracts/token/ERC20/ERC20.sol\":5975:6003  address owner = _msgSender() */\n      swap1\n      pop\n        /* \"@openzeppelin/contracts/token/ERC20/ERC20.sol\":6013:6077  _approve(owner, spender, allowance(owner, spender) + addedValue) */\n      tag_134\n        /* \"@openzeppelin/contracts/token/ERC20/ERC20.sol\":6022:6027  owner */\n      dup2\n        /* \"@openzeppelin/contracts/token/ERC20/ERC20.sol\":6029:6036  spender */\n      dup6\n        /* \"@openzeppelin/contracts/token/ERC20/ERC20.sol\":6066:6076  addedValue */\n      dup6\n        /* \"@openzeppelin/contracts/token/ERC20/ERC20.sol\":6038:6063  allowance(owner, spender) */\n      tag_135\n        /* \"@openzeppelin/contracts/token/ERC20/ERC20.sol\":6048:6053  owner */\n      dup6\n        /* \"@openzeppelin/contracts/token/ERC20/ERC20.sol\":6055:6062  spender */\n      dup10\n        /* \"@openzeppelin/contracts/token/ERC20/ERC20.sol\":6038:6047  allowance */\n      tag_88\n        /* \"@openzeppelin/contracts/token/ERC20/ERC20.sol\":6038:6063  allowance(owner, spender) */\n      jump\t// in\n    tag_135:\n        /* \"@openzeppelin/contracts/token/ERC20/ERC20.sol\":6038:6076  allowance(owner, spender) + addedValue */\n      tag_136\n      swap2\n      swap1\n      tag_137\n      jump\t// in\n    tag_136:\n        /* \"@openzeppelin/contracts/token/ERC20/ERC20.sol\":6013:6021  _approve */\n      tag_101\n        /* \"@openzeppelin/contracts/token/ERC20/ERC20.sol\":6013:6077  _approve(owner, spender, allowance(owner, spender) + addedValue) */\n      jump\t// in\n    tag_134:\n        /* \"@openzeppelin/contracts/token/ERC20/ERC20.sol\":6094:6098  true */\n      0x01\n        /* \"@openzeppelin/contracts/token/ERC20/ERC20.sol\":6087:6098  return true */\n      swap2\n      pop\n      pop\n        /* \"@openzeppelin/contracts/token/ERC20/ERC20.sol\":5871:6105  function increaseAllowance(address spender, uint256 addedValue) public virtual returns (bool) {... */\n      swap3\n      swap2\n      pop\n      pop\n      jump\t// out\n        /* \"@openzeppelin/contracts/token/ERC20/ERC20.sol\":3406:3531  function balanceOf(address account) public view virtual override returns (uint256) {... */\n    tag_60:\n        /* \"@openzeppelin/contracts/token/ERC20/ERC20.sol\":3480:3487  uint256 */\n      0x00\n        /* \"@openzeppelin/contracts/token/ERC20/ERC20.sol\":3506:3515  _balances */\n      dup1\n        /* \"@openzeppelin/contracts/token/ERC20/ERC20.sol\":3506:3524  _balances[account] */\n      0x00\n        /* \"@openzeppelin/contracts/token/ERC20/ERC20.sol\":3516:3523  account */\n      dup4\n        /* \"@openzeppelin/contracts/token/ERC20/ERC20.sol\":3506:3524  _balances[account] */\n      0xffffffffffffffffffffffffffffffffffffffff\n      and\n      0xffffffffffffffffffffffffffffffffffffffff\n      and\n      dup2\n      mstore\n      0x20\n      add\n      swap1\n      dup2\n      mstore\n      0x20\n      add\n      0x00\n      keccak256\n      sload\n        /* \"@openzeppelin/contracts/token/ERC20/ERC20.sol\":3499:3524  return _balances[account] */\n      swap1\n      pop\n        /* \"@openzeppelin/contracts/token/ERC20/ERC20.sol\":3406:3531  function balanceOf(address account) public view virtual override returns (uint256) {... */\n      swap2\n      swap1\n      pop\n      jump\t// out\n        /* \"@openzeppelin/contracts/token/ERC20/ERC20.sol\":2365:2467  function symbol() public view virtual override returns (string memory) {... */\n    tag_63:\n        /* \"@openzeppelin/contracts/token/ERC20/ERC20.sol\":2421:2434  string memory */\n      0x60\n        /* \"@openzeppelin/contracts/token/ERC20/ERC20.sol\":2453:2460  _symbol */\n      0x04\n        /* \"@openzeppelin/contracts/token/ERC20/ERC20.sol\":2446:2460  return _symbol */\n      dup1\n      sload\n      tag_140\n      swap1\n      tag_92\n      jump\t// in\n    tag_140:\n      dup1\n      0x1f\n      add\n      0x20\n      dup1\n      swap2\n      div\n      mul\n      0x20\n      add\n      mload(0x40)\n      swap1\n      dup2\n      add\n      0x40\n      mstore\n      dup1\n      swap3\n      swap2\n      swap1\n      dup2\n      dup2\n      mstore\n      0x20\n      add\n      dup3\n      dup1\n      sload\n      tag_141\n      swap1\n      tag_92\n      jump\t// in\n    tag_141:\n      dup1\n      iszero\n      tag_142\n      jumpi\n      dup1\n      0x1f\n      lt\n      tag_143\n      jumpi\n      0x0100\n      dup1\n      dup4\n      sload\n      div\n      mul\n      dup4\n      mstore\n      swap2\n      0x20\n      add\n      swap2\n      jump(tag_142)\n    tag_143:\n      dup3\n      add\n      swap2\n      swap1\n      0x00\n      mstore\n      keccak256(0x00, 0x20)\n      swap1\n    tag_144:\n      dup2\n      sload\n      dup2\n      mstore\n      swap1\n      0x01\n      add\n      swap1\n      0x20\n      add\n      dup1\n      dup4\n      gt\n      tag_144\n      jumpi\n      dup3\n      swap1\n      sub\n      0x1f\n      and\n      dup3\n      add\n      swap2\n    tag_142:\n      pop\n      pop\n      pop\n      pop\n      pop\n      swap1\n      pop\n        /* \"@openzeppelin/contracts/token/ERC20/ERC20.sol\":2365:2467  function symbol() public view virtual override returns (string memory) {... */\n      swap1\n      jump\t// out\n        /* \"contracts/TinyNotesToken.sol\":254:285  Counters.Counter public noteIds */\n    tag_66:\n      0x05\n      dup1\n      0x00\n      add\n      sload\n      swap1\n      pop\n      dup2\n      jump\t// out\n        /* \"@openzeppelin/contracts/token/ERC20/ERC20.sol\":6592:7019  function decreaseAllowance(address spender, uint256 subtractedValue) public virtual returns (bool) {... */\n    tag_70:\n        /* \"@openzeppelin/contracts/token/ERC20/ERC20.sol\":6685:6689  bool */\n      0x00\n        /* \"@openzeppelin/contracts/token/ERC20/ERC20.sol\":6701:6714  address owner */\n      dup1\n        /* \"@openzeppelin/contracts/token/ERC20/ERC20.sol\":6717:6729  _msgSender() */\n      tag_146\n        /* \"@openzeppelin/contracts/token/ERC20/ERC20.sol\":6717:6727  _msgSender */\n      tag_99\n        /* \"@openzeppelin/contracts/token/ERC20/ERC20.sol\":6717:6729  _msgSender() */\n      jump\t// in\n    tag_146:\n        /* \"@openzeppelin/contracts/token/ERC20/ERC20.sol\":6701:6729  address owner = _msgSender() */\n      swap1\n      pop\n        /* \"@openzeppelin/contracts/token/ERC20/ERC20.sol\":6739:6763  uint256 currentAllowance */\n      0x00\n        /* \"@openzeppelin/contracts/token/ERC20/ERC20.sol\":6766:6791  allowance(owner, spender) */\n      tag_147\n        /* \"@openzeppelin/contracts/token/ERC20/ERC20.sol\":6776:6781  owner */\n      dup3\n        /* \"@openzeppelin/contracts/token/ERC20/ERC20.sol\":6783:6790  spender */\n      dup7\n        /* \"@openzeppelin/contracts/token/ERC20/ERC20.sol\":6766:6775  allowance */\n      tag_88\n        /* \"@openzeppelin/contracts/token/ERC20/ERC20.sol\":6766:6791  allowance(owner, spender) */\n      jump\t// in\n    tag_147:\n        /* \"@openzeppelin/contracts/token/ERC20/ERC20.sol\":6739:6791  uint256 currentAllowance = allowance(owner, spender) */\n      swap1\n      pop\n        /* \"@openzeppelin/contracts/token/ERC20/ERC20.sol\":6829:6844  subtractedValue */\n      dup4\n        /* \"@openzeppelin/contracts/token/ERC20/ERC20.sol\":6809:6825  currentAllowance */\n      dup2\n        /* \"@openzeppelin/contracts/token/ERC20/ERC20.sol\":6809:6844  currentAllowance >= subtractedValue */\n      lt\n      iszero\n        /* \"@openzeppelin/contracts/token/ERC20/ERC20.sol\":6801:6886  require(currentAllowance >= subtractedValue, \"ERC20: decreased allowance below zero\") */\n      tag_148\n      jumpi\n      mload(0x40)\n      0x08c379a000000000000000000000000000000000000000000000000000000000\n      dup2\n      mstore\n      0x04\n      add\n      tag_149\n      swap1\n      tag_150\n      jump\t// in\n    tag_149:\n      mload(0x40)\n      dup1\n      swap2\n      sub\n      swap1\n      revert\n    tag_148:\n        /* \"@openzeppelin/contracts/token/ERC20/ERC20.sol\":6920:6980  _approve(owner, spender, currentAllowance - subtractedValue) */\n      tag_151\n        /* \"@openzeppelin/contracts/token/ERC20/ERC20.sol\":6929:6934  owner */\n      dup3\n        /* \"@openzeppelin/contracts/token/ERC20/ERC20.sol\":6936:6943  spender */\n      dup7\n        /* \"@openzeppelin/contracts/token/ERC20/ERC20.sol\":6964:6979  subtractedValue */\n      dup7\n        /* \"@openzeppelin/contracts/token/ERC20/ERC20.sol\":6945:6961  currentAllowance */\n      dup5\n        /* \"@openzeppelin/contracts/token/ERC20/ERC20.sol\":6945:6979  currentAllowance - subtractedValue */\n      sub\n        /* \"@openzeppelin/contracts/token/ERC20/ERC20.sol\":6920:6928  _approve */\n      tag_101\n        /* \"@openzeppelin/contracts/token/ERC20/ERC20.sol\":6920:6980  _approve(owner, spender, currentAllowance - subtractedValue) */\n      jump\t// in\n    tag_151:\n        /* \"@openzeppelin/contracts/token/ERC20/ERC20.sol\":7008:7012  true */\n      0x01\n        /* \"@openzeppelin/contracts/token/ERC20/ERC20.sol\":7001:7012  return true */\n      swap3\n      pop\n      pop\n      pop\n        /* \"@openzeppelin/contracts/token/ERC20/ERC20.sol\":6592:7019  function decreaseAllowance(address spender, uint256 subtractedValue) public virtual returns (bool) {... */\n      swap3\n      swap2\n      pop\n      pop\n      jump\t// out\n        /* \"@openzeppelin/contracts/token/ERC20/ERC20.sol\":3727:3916  function transfer(address to, uint256 amount) public virtual override returns (bool) {... */\n    tag_74:\n        /* \"@openzeppelin/contracts/token/ERC20/ERC20.sol\":3806:3810  bool */\n      0x00\n        /* \"@openzeppelin/contracts/token/ERC20/ERC20.sol\":3822:3835  address owner */\n      dup1\n        /* \"@openzeppelin/contracts/token/ERC20/ERC20.sol\":3838:3850  _msgSender() */\n      tag_153\n        /* \"@openzeppelin/contracts/token/ERC20/ERC20.sol\":3838:3848  _msgSender */\n      tag_99\n        /* \"@openzeppelin/contracts/token/ERC20/ERC20.sol\":3838:3850  _msgSender() */\n      jump\t// in\n    tag_153:\n        /* \"@openzeppelin/contracts/token/ERC20/ERC20.sol\":3822:3850  address owner = _msgSender() */\n      swap1\n      pop\n        /* \"@openzeppelin/contracts/token/ERC20/ERC20.sol\":3860:3888  _transfer(owner, to, amount) */\n      tag_154\n        /* \"@openzeppelin/contracts/token/ERC20/ERC20.sol\":3870:3875  owner */\n      dup2\n        /* \"@openzeppelin/contracts/token/ERC20/ERC20.sol\":3877:3879  to */\n      dup6\n        /* \"@openzeppelin/contracts/token/ERC20/ERC20.sol\":3881:3887  amount */\n      dup6\n        /* \"@openzeppelin/contracts/token/ERC20/ERC20.sol\":3860:3869  _transfer */\n      tag_117\n        /* \"@openzeppelin/contracts/token/ERC20/ERC20.sol\":3860:3888  _transfer(owner, to, amount) */\n      jump\t// in\n    tag_154:\n        /* \"@openzeppelin/contracts/token/ERC20/ERC20.sol\":3905:3909  true */\n      0x01\n        /* \"@openzeppelin/contracts/token/ERC20/ERC20.sol\":3898:3909  return true */\n      swap2\n      pop\n      pop\n        /* \"@openzeppelin/contracts/token/ERC20/ERC20.sol\":3727:3916  function transfer(address to, uint256 amount) public virtual override returns (bool) {... */\n      swap3\n      swap2\n      pop\n      pop\n      jump\t// out\n        /* \"contracts/TinyNotesToken.sol\":1842:2059  function deleteNote(uint256 _noteId) public {... */\n    tag_79:\n        /* \"contracts/TinyNotesToken.sol\":1933:1943  msg.sender */\n      caller\n        /* \"contracts/TinyNotesToken.sol\":1904:1943  idToNote[_noteId].creator == msg.sender */\n      0xffffffffffffffffffffffffffffffffffffffff\n      and\n        /* \"contracts/TinyNotesToken.sol\":1904:1912  idToNote */\n      0x06\n        /* \"contracts/TinyNotesToken.sol\":1904:1921  idToNote[_noteId] */\n      0x00\n        /* \"contracts/TinyNotesToken.sol\":1913:1920  _noteId */\n      dup4\n        /* \"contracts/TinyNotesToken.sol\":1904:1921  idToNote[_noteId] */\n      dup2\n      mstore\n      0x20\n      add\n      swap1\n      dup2\n      mstore\n      0x20\n      add\n      0x00\n      keccak256\n        /* \"contracts/TinyNotesToken.sol\":1904:1929  idToNote[_noteId].creator */\n      0x00\n      add\n      0x00\n      swap1\n      sload\n      swap1\n      0x0100\n      exp\n      swap1\n      div\n      0xffffffffffffffffffffffffffffffffffffffff\n      and\n        /* \"contracts/TinyNotesToken.sol\":1904:1943  idToNote[_noteId].creator == msg.sender */\n      0xffffffffffffffffffffffffffffffffffffffff\n      and\n      eq\n        /* \"contracts/TinyNotesToken.sol\":1896:1983  require(idToNote[_noteId].creator == msg.sender, \"Only the creator may delete a Note.\") */\n      tag_156\n      jumpi\n      mload(0x40)\n      0x08c379a000000000000000000000000000000000000000000000000000000000\n      dup2\n      mstore\n      0x04\n      add\n      tag_157\n      swap1\n      tag_158\n      jump\t// in\n    tag_157:\n      mload(0x40)\n      dup1\n      swap2\n      sub\n      swap1\n      revert\n    tag_156:\n        /* \"contracts/TinyNotesToken.sol\":2000:2008  idToNote */\n      0x06\n        /* \"contracts/TinyNotesToken.sol\":2000:2017  idToNote[_noteId] */\n      0x00\n        /* \"contracts/TinyNotesToken.sol\":2009:2016  _noteId */\n      dup3\n        /* \"contracts/TinyNotesToken.sol\":2000:2017  idToNote[_noteId] */\n      dup2\n      mstore\n      0x20\n      add\n      swap1\n      dup2\n      mstore\n      0x20\n      add\n      0x00\n      keccak256\n      0x00\n        /* \"contracts/TinyNotesToken.sol\":1993:2017  delete idToNote[_noteId] */\n      dup1\n      dup3\n      add\n      exp(0x0100, 0x00)\n      dup2\n      sload\n      swap1\n      0xffffffffffffffffffffffffffffffffffffffff\n      mul\n      not\n      and\n      swap1\n      sstore\n      0x01\n      dup3\n      add\n      0x00\n      tag_159\n      swap2\n      swap1\n      tag_160\n      jump\t// in\n    tag_159:\n      0x02\n      dup3\n      add\n      0x00\n      tag_161\n      swap2\n      swap1\n      tag_160\n      jump\t// in\n    tag_161:\n      pop\n      pop\n        /* \"contracts/TinyNotesToken.sol\":2044:2051  _noteId */\n      dup1\n        /* \"contracts/TinyNotesToken.sol\":2032:2052  NoteDeleted(_noteId) */\n      0x89af6ba62ab348dc535a3187c267090f834c868a3820cd552a7110c3dc3eedb8\n      mload(0x40)\n      mload(0x40)\n      dup1\n      swap2\n      sub\n      swap1\n      log2\n        /* \"contracts/TinyNotesToken.sol\":1842:2059  function deleteNote(uint256 _noteId) public {... */\n      pop\n      jump\t// out\n        /* \"contracts/TinyNotesToken.sol\":1250:1477  function readNote(uint256 _noteId) public view returns (address creator, string memory title, string memory content) {... */\n    tag_82:\n        /* \"contracts/TinyNotesToken.sol\":1306:1321  address creator */\n      0x00\n        /* \"contracts/TinyNotesToken.sol\":1323:1342  string memory title */\n      0x60\n        /* \"contracts/TinyNotesToken.sol\":1344:1365  string memory content */\n      dup1\n        /* \"contracts/TinyNotesToken.sol\":1377:1393  Note memory note */\n      0x00\n        /* \"contracts/TinyNotesToken.sol\":1396:1404  idToNote */\n      0x06\n        /* \"contracts/TinyNotesToken.sol\":1396:1413  idToNote[_noteId] */\n      0x00\n        /* \"contracts/TinyNotesToken.sol\":1405:1412  _noteId */\n      dup7\n        /* \"contracts/TinyNotesToken.sol\":1396:1413  idToNote[_noteId] */\n      dup2\n      mstore\n      0x20\n      add\n      swap1\n      dup2\n      mstore\n      0x20\n      add\n      0x00\n      keccak256\n        /* \"contracts/TinyNotesToken.sol\":1377:1413  Note memory note = idToNote[_noteId] */\n      mload(0x40)\n      dup1\n      0x60\n      add\n      0x40\n      mstore\n      swap1\n      dup2\n      0x00\n      dup3\n      add\n      0x00\n      swap1\n      sload\n      swap1\n      0x0100\n      exp\n      swap1\n      div\n      0xffffffffffffffffffffffffffffffffffffffff\n      and\n      0xffffffffffffffffffffffffffffffffffffffff\n      and\n      0xffffffffffffffffffffffffffffffffffffffff\n      and\n      dup2\n      mstore\n      0x20\n      add\n      0x01\n      dup3\n      add\n      dup1\n      sload\n      tag_163\n      swap1\n      tag_92\n      jump\t// in\n    tag_163:\n      dup1\n      0x1f\n      add\n      0x20\n      dup1\n      swap2\n      div\n      mul\n      0x20\n      add\n      mload(0x40)\n      swap1\n      dup2\n      add\n      0x40\n      mstore\n      dup1\n      swap3\n      swap2\n      swap1\n      dup2\n      dup2\n      mstore\n      0x20\n      add\n      dup3\n      dup1\n      sload\n      tag_164\n      swap1\n      tag_92\n      jump\t// in\n    tag_164:\n      dup1\n      iszero\n      tag_165\n      jumpi\n      dup1\n      0x1f\n      lt\n      tag_166\n      jumpi\n      0x0100\n      dup1\n      dup4\n      sload\n      div\n      mul\n      dup4\n      mstore\n      swap2\n      0x20\n      add\n      swap2\n      jump(tag_165)\n    tag_166:\n      dup3\n      add\n      swap2\n      swap1\n      0x00\n      mstore\n      keccak256(0x00, 0x20)\n      swap1\n    tag_167:\n      dup2\n      sload\n      dup2\n      mstore\n      swap1\n      0x01\n      add\n      swap1\n      0x20\n      add\n      dup1\n      dup4\n      gt\n      tag_167\n      jumpi\n      dup3\n      swap1\n      sub\n      0x1f\n      and\n      dup3\n      add\n      swap2\n    tag_165:\n      pop\n      pop\n      pop\n      pop\n      pop\n      dup2\n      mstore\n      0x20\n      add\n      0x02\n      dup3\n      add\n      dup1\n      sload\n      tag_168\n      swap1\n      tag_92\n      jump\t// in\n    tag_168:\n      dup1\n      0x1f\n      add\n      0x20\n      dup1\n      swap2\n      div\n      mul\n      0x20\n      add\n      mload(0x40)\n      swap1\n      dup2\n      add\n      0x40\n      mstore\n      dup1\n      swap3\n      swap2\n      swap1\n      dup2\n      dup2\n      mstore\n      0x20\n      add\n      dup3\n      dup1\n      sload\n      tag_169\n      swap1\n      tag_92\n      jump\t// in\n    tag_169:\n      dup1\n      iszero\n      tag_170\n      jumpi\n      dup1\n      0x1f\n      lt\n      tag_171\n      jumpi\n      0x0100\n      dup1\n      dup4\n      sload\n      div\n      mul\n      dup4\n      mstore\n      swap2\n      0x20\n      add\n      swap2\n      jump(tag_170)\n    tag_171:\n      dup3\n      add\n      swap2\n      swap1\n      0x00\n      mstore\n      keccak256(0x00, 0x20)\n      swap1\n    tag_172:\n      dup2\n      sload\n      dup2\n      mstore\n      swap1\n      0x01\n      add\n      swap1\n      0x20\n      add\n      dup1\n      dup4\n      gt\n      tag_172\n      jumpi\n      dup3\n      swap1\n      sub\n      0x1f\n      and\n      dup3\n      add\n      swap2\n    tag_170:\n      pop\n      pop\n      pop\n      pop\n      pop\n      dup2\n      mstore\n      pop\n      pop\n      swap1\n      pop\n        /* \"contracts/TinyNotesToken.sol\":1431:1435  note */\n      dup1\n        /* \"contracts/TinyNotesToken.sol\":1431:1443  note.creator */\n      0x00\n      add\n      mload\n        /* \"contracts/TinyNotesToken.sol\":1445:1449  note */\n      dup2\n        /* \"contracts/TinyNotesToken.sol\":1445:1455  note.title */\n      0x20\n      add\n      mload\n        /* \"contracts/TinyNotesToken.sol\":1457:1461  note */\n      dup3\n        /* \"contracts/TinyNotesToken.sol\":1457:1469  note.content */\n      0x40\n      add\n      mload\n        /* \"contracts/TinyNotesToken.sol\":1423:1470  return (note.creator, note.title, note.content) */\n      swap4\n      pop\n      swap4\n      pop\n      swap4\n      pop\n      pop\n        /* \"contracts/TinyNotesToken.sol\":1250:1477  function readNote(uint256 _noteId) public view returns (address creator, string memory title, string memory content) {... */\n      swap2\n      swap4\n      swap1\n      swap3\n      pop\n      jump\t// out\n        /* \"@openzeppelin/contracts/token/ERC20/ERC20.sol\":3974:4123  function allowance(address owner, address spender) public view virtual override returns (uint256) {... */\n    tag_88:\n        /* \"@openzeppelin/contracts/token/ERC20/ERC20.sol\":4063:4070  uint256 */\n      0x00\n        /* \"@openzeppelin/contracts/token/ERC20/ERC20.sol\":4089:4100  _allowances */\n      0x01\n        /* \"@openzeppelin/contracts/token/ERC20/ERC20.sol\":4089:4107  _allowances[owner] */\n      0x00\n        /* \"@openzeppelin/contracts/token/ERC20/ERC20.sol\":4101:4106  owner */\n      dup5\n        /* \"@openzeppelin/contracts/token/ERC20/ERC20.sol\":4089:4107  _allowances[owner] */\n      0xffffffffffffffffffffffffffffffffffffffff\n      and\n      0xffffffffffffffffffffffffffffffffffffffff\n      and\n      dup2\n      mstore\n      0x20\n      add\n      swap1\n      dup2\n      mstore\n      0x20\n      add\n      0x00\n      keccak256\n        /* \"@openzeppelin/contracts/token/ERC20/ERC20.sol\":4089:4116  _allowances[owner][spender] */\n      0x00\n        /* \"@openzeppelin/contracts/token/ERC20/ERC20.sol\":4108:4115  spender */\n      dup4\n        /* \"@openzeppelin/contracts/token/ERC20/ERC20.sol\":4089:4116  _allowances[owner][spender] */\n      0xffffffffffffffffffffffffffffffffffffffff\n      and\n      0xffffffffffffffffffffffffffffffffffffffff\n      and\n      dup2\n      mstore\n      0x20\n      add\n      swap1\n      dup2\n      mstore\n      0x20\n      add\n      0x00\n      keccak256\n      sload\n        /* \"@openzeppelin/contracts/token/ERC20/ERC20.sol\":4082:4116  return _allowances[owner][spender] */\n      swap1\n      pop\n        /* \"@openzeppelin/contracts/token/ERC20/ERC20.sol\":3974:4123  function allowance(address owner, address spender) public view virtual override returns (uint256) {... */\n      swap3\n      swap2\n      pop\n      pop\n      jump\t// out\n        /* \"@openzeppelin/contracts/utils/Context.sol\":640:736  function _msgSender() internal view virtual returns (address) {... */\n    tag_99:\n        /* \"@openzeppelin/contracts/utils/Context.sol\":693:700  address */\n      0x00\n        /* \"@openzeppelin/contracts/utils/Context.sol\":719:729  msg.sender */\n      caller\n        /* \"@openzeppelin/contracts/utils/Context.sol\":712:729  return msg.sender */\n      swap1\n      pop\n        /* \"@openzeppelin/contracts/utils/Context.sol\":640:736  function _msgSender() internal view virtual returns (address) {... */\n      swap1\n      jump\t// out\n        /* \"@openzeppelin/contracts/token/ERC20/ERC20.sol\":10504:10874  function _approve(... */\n    tag_101:\n        /* \"@openzeppelin/contracts/token/ERC20/ERC20.sol\":10652:10653  0 */\n      0x00\n        /* \"@openzeppelin/contracts/token/ERC20/ERC20.sol\":10635:10654  owner != address(0) */\n      0xffffffffffffffffffffffffffffffffffffffff\n      and\n        /* \"@openzeppelin/contracts/token/ERC20/ERC20.sol\":10635:10640  owner */\n      dup4\n        /* \"@openzeppelin/contracts/token/ERC20/ERC20.sol\":10635:10654  owner != address(0) */\n      0xffffffffffffffffffffffffffffffffffffffff\n      and\n      sub\n        /* \"@openzeppelin/contracts/token/ERC20/ERC20.sol\":10627:10695  require(owner != address(0), \"ERC20: approve from the zero address\") */\n      tag_176\n      jumpi\n      mload(0x40)\n      0x08c379a000000000000000000000000000000000000000000000000000000000\n      dup2\n      mstore\n      0x04\n      add\n      tag_177\n      swap1\n      tag_178\n      jump\t// in\n    tag_177:\n      mload(0x40)\n      dup1\n      swap2\n      sub\n      swap1\n      revert\n    tag_176:\n        /* \"@openzeppelin/contracts/token/ERC20/ERC20.sol\":10732:10733  0 */\n      0x00\n        /* \"@openzeppelin/contracts/token/ERC20/ERC20.sol\":10713:10734  spender != address(0) */\n      0xffffffffffffffffffffffffffffffffffffffff\n      and\n        /* \"@openzeppelin/contracts/token/ERC20/ERC20.sol\":10713:10720  spender */\n      dup3\n        /* \"@openzeppelin/contracts/token/ERC20/ERC20.sol\":10713:10734  spender != address(0) */\n      0xffffffffffffffffffffffffffffffffffffffff\n      and\n      sub\n        /* \"@openzeppelin/contracts/token/ERC20/ERC20.sol\":10705:10773  require(spender != address(0), \"ERC20: approve to the zero address\") */\n      tag_179\n      jumpi\n      mload(0x40)\n      0x08c379a000000000000000000000000000000000000000000000000000000000\n      dup2\n      mstore\n      0x04\n      add\n      tag_180\n      swap1\n      tag_181\n      jump\t// in\n    tag_180:\n      mload(0x40)\n      dup1\n      swap2\n      sub\n      swap1\n      revert\n    tag_179:\n        /* \"@openzeppelin/contracts/token/ERC20/ERC20.sol\":10814:10820  amount */\n      dup1\n        /* \"@openzeppelin/contracts/token/ERC20/ERC20.sol\":10784:10795  _allowances */\n      0x01\n        /* \"@openzeppelin/contracts/token/ERC20/ERC20.sol\":10784:10802  _allowances[owner] */\n      0x00\n        /* \"@openzeppelin/contracts/token/ERC20/ERC20.sol\":10796:10801  owner */\n      dup6\n        /* \"@openzeppelin/contracts/token/ERC20/ERC20.sol\":10784:10802  _allowances[owner] */\n      0xffffffffffffffffffffffffffffffffffffffff\n      and\n      0xffffffffffffffffffffffffffffffffffffffff\n      and\n      dup2\n      mstore\n      0x20\n      add\n      swap1\n      dup2\n      mstore\n      0x20\n      add\n      0x00\n      keccak256\n        /* \"@openzeppelin/contracts/token/ERC20/ERC20.sol\":10784:10811  _allowances[owner][spender] */\n      0x00\n        /* \"@openzeppelin/contracts/token/ERC20/ERC20.sol\":10803:10810  spender */\n      dup5\n        /* \"@openzeppelin/contracts/token/ERC20/ERC20.sol\":10784:10811  _allowances[owner][spender] */\n      0xffffffffffffffffffffffffffffffffffffffff\n      and\n      0xffffffffffffffffffffffffffffffffffffffff\n      and\n      dup2\n      mstore\n      0x20\n      add\n      swap1\n      dup2\n      mstore\n      0x20\n      add\n      0x00\n      keccak256\n        /* \"@openzeppelin/contracts/token/ERC20/ERC20.sol\":10784:10820  _allowances[owner][spender] = amount */\n      dup2\n      swap1\n      sstore\n      pop\n        /* \"@openzeppelin/contracts/token/ERC20/ERC20.sol\":10851:10858  spender */\n      dup2\n        /* \"@openzeppelin/contracts/token/ERC20/ERC20.sol\":10835:10867  Approval(owner, spender, amount) */\n      0xffffffffffffffffffffffffffffffffffffffff\n      and\n        /* \"@openzeppelin/contracts/token/ERC20/ERC20.sol\":10844:10849  owner */\n      dup4\n        /* \"@openzeppelin/contracts/token/ERC20/ERC20.sol\":10835:10867  Approval(owner, spender, amount) */\n      0xffffffffffffffffffffffffffffffffffffffff\n      and\n      0x8c5be1e5ebec7d5bd14f71427d1e84f3dd0314c0f7b2291e5b200ac8c7c3b925\n        /* \"@openzeppelin/contracts/token/ERC20/ERC20.sol\":10860:10866  amount */\n      dup4\n        /* \"@openzeppelin/contracts/token/ERC20/ERC20.sol\":10835:10867  Approval(owner, spender, amount) */\n      mload(0x40)\n      tag_182\n      swap2\n      swap1\n      tag_39\n      jump\t// in\n    tag_182:\n      mload(0x40)\n      dup1\n      swap2\n      sub\n      swap1\n      log3\n        /* \"@openzeppelin/contracts/token/ERC20/ERC20.sol\":10504:10874  function _approve(... */\n      pop\n      pop\n      pop\n      jump\t// out\n        /* \"@openzeppelin/contracts/token/ERC20/ERC20.sol\":11155:11596  function _spendAllowance(... */\n    tag_115:\n        /* \"@openzeppelin/contracts/token/ERC20/ERC20.sol\":11285:11309  uint256 currentAllowance */\n      0x00\n        /* \"@openzeppelin/contracts/token/ERC20/ERC20.sol\":11312:11337  allowance(owner, spender) */\n      tag_184\n        /* \"@openzeppelin/contracts/token/ERC20/ERC20.sol\":11322:11327  owner */\n      dup5\n        /* \"@openzeppelin/contracts/token/ERC20/ERC20.sol\":11329:11336  spender */\n      dup5\n        /* \"@openzeppelin/contracts/token/ERC20/ERC20.sol\":11312:11321  allowance */\n      tag_88\n        /* \"@openzeppelin/contracts/token/ERC20/ERC20.sol\":11312:11337  allowance(owner, spender) */\n      jump\t// in\n    tag_184:\n        /* \"@openzeppelin/contracts/token/ERC20/ERC20.sol\":11285:11337  uint256 currentAllowance = allowance(owner, spender) */\n      swap1\n      pop\n        /* \"@openzeppelin/contracts/token/ERC20/ERC20.sol\":11371:11388  type(uint256).max */\n      0xffffffffffffffffffffffffffffffffffffffffffffffffffffffffffffffff\n        /* \"@openzeppelin/contracts/token/ERC20/ERC20.sol\":11351:11367  currentAllowance */\n      dup2\n        /* \"@openzeppelin/contracts/token/ERC20/ERC20.sol\":11351:11388  currentAllowance != type(uint256).max */\n      eq\n        /* \"@openzeppelin/contracts/token/ERC20/ERC20.sol\":11347:11590  if (currentAllowance != type(uint256).max) {... */\n      tag_185\n      jumpi\n        /* \"@openzeppelin/contracts/token/ERC20/ERC20.sol\":11432:11438  amount */\n      dup2\n        /* \"@openzeppelin/contracts/token/ERC20/ERC20.sol\":11412:11428  currentAllowance */\n      dup2\n        /* \"@openzeppelin/contracts/token/ERC20/ERC20.sol\":11412:11438  currentAllowance >= amount */\n      lt\n      iszero\n        /* \"@openzeppelin/contracts/token/ERC20/ERC20.sol\":11404:11472  require(currentAllowance >= amount, \"ERC20: insufficient allowance\") */\n      tag_186\n      jumpi\n      mload(0x40)\n      0x08c379a000000000000000000000000000000000000000000000000000000000\n      dup2\n      mstore\n      0x04\n      add\n      tag_187\n      swap1\n      tag_188\n      jump\t// in\n    tag_187:\n      mload(0x40)\n      dup1\n      swap2\n      sub\n      swap1\n      revert\n    tag_186:\n        /* \"@openzeppelin/contracts/token/ERC20/ERC20.sol\":11514:11565  _approve(owner, spender, currentAllowance - amount) */\n      tag_189\n        /* \"@openzeppelin/contracts/token/ERC20/ERC20.sol\":11523:11528  owner */\n      dup5\n        /* \"@openzeppelin/contracts/token/ERC20/ERC20.sol\":11530:11537  spender */\n      dup5\n        /* \"@openzeppelin/contracts/token/ERC20/ERC20.sol\":11558:11564  amount */\n      dup5\n        /* \"@openzeppelin/contracts/token/ERC20/ERC20.sol\":11539:11555  currentAllowance */\n      dup5\n        /* \"@openzeppelin/contracts/token/ERC20/ERC20.sol\":11539:11564  currentAllowance - amount */\n      sub\n        /* \"@openzeppelin/contracts/token/ERC20/ERC20.sol\":11514:11522  _approve */\n      tag_101\n        /* \"@openzeppelin/contracts/token/ERC20/ERC20.sol\":11514:11565  _approve(owner, spender, currentAllowance - amount) */\n      jump\t// in\n    tag_189:\n        /* \"@openzeppelin/contracts/token/ERC20/ERC20.sol\":11347:11590  if (currentAllowance != type(uint256).max) {... */\n    tag_185:\n        /* \"@openzeppelin/contracts/token/ERC20/ERC20.sol\":11275:11596  {... */\n      pop\n        /* \"@openzeppelin/contracts/token/ERC20/ERC20.sol\":11155:11596  function _spendAllowance(... */\n      pop\n      pop\n      pop\n      jump\t// out\n        /* \"@openzeppelin/contracts/token/ERC20/ERC20.sol\":7473:8291  function _transfer(... */\n    tag_117:\n        /* \"@openzeppelin/contracts/token/ERC20/ERC20.sol\":7615:7616  0 */\n      0x00\n        /* \"@openzeppelin/contracts/token/ERC20/ERC20.sol\":7599:7617  from != address(0) */\n      0xffffffffffffffffffffffffffffffffffffffff\n      and\n        /* \"@openzeppelin/contracts/token/ERC20/ERC20.sol\":7599:7603  from */\n      dup4\n        /* \"@openzeppelin/contracts/token/ERC20/ERC20.sol\":7599:7617  from != address(0) */\n      0xffffffffffffffffffffffffffffffffffffffff\n      and\n      sub\n        /* \"@openzeppelin/contracts/token/ERC20/ERC20.sol\":7591:7659  require(from != address(0), \"ERC20: transfer from the zero address\") */\n      tag_191\n      jumpi\n      mload(0x40)\n      0x08c379a000000000000000000000000000000000000000000000000000000000\n      dup2\n      mstore\n      0x04\n      add\n      tag_192\n      swap1\n      tag_193\n      jump\t// in\n    tag_192:\n      mload(0x40)\n      dup1\n      swap2\n      sub\n      swap1\n      revert\n    tag_191:\n        /* \"@openzeppelin/contracts/token/ERC20/ERC20.sol\":7691:7692  0 */\n      0x00\n        /* \"@openzeppelin/contracts/token/ERC20/ERC20.sol\":7677:7693  to != address(0) */\n      0xffffffffffffffffffffffffffffffffffffffff\n      and\n        /* \"@openzeppelin/contracts/token/ERC20/ERC20.sol\":7677:7679  to */\n      dup3\n        /* \"@openzeppelin/contracts/token/ERC20/ERC20.sol\":7677:7693  to != address(0) */\n      0xffffffffffffffffffffffffffffffffffffffff\n      and\n      sub\n        /* \"@openzeppelin/contracts/token/ERC20/ERC20.sol\":7669:7733  require(to != address(0), \"ERC20: transfer to the zero address\") */\n      tag_194\n      jumpi\n      mload(0x40)\n      0x08c379a000000000000000000000000000000000000000000000000000000000\n      dup2\n      mstore\n      0x04\n      add\n      tag_195\n      swap1\n      tag_196\n      jump\t// in\n    tag_195:\n      mload(0x40)\n      dup1\n      swap2\n      sub\n      swap1\n      revert\n    tag_194:\n        /* \"@openzeppelin/contracts/token/ERC20/ERC20.sol\":7744:7782  _beforeTokenTransfer(from, to, amount) */\n      tag_197\n        /* \"@openzeppelin/contracts/token/ERC20/ERC20.sol\":7765:7769  from */\n      dup4\n        /* \"@openzeppelin/contracts/token/ERC20/ERC20.sol\":7771:7773  to */\n      dup4\n        /* \"@openzeppelin/contracts/token/ERC20/ERC20.sol\":7775:7781  amount */\n      dup4\n        /* \"@openzeppelin/contracts/token/ERC20/ERC20.sol\":7744:7764  _beforeTokenTransfer */\n      tag_198\n        /* \"@openzeppelin/contracts/token/ERC20/ERC20.sol\":7744:7782  _beforeTokenTransfer(from, to, amount) */\n      jump\t// in\n    tag_197:\n        /* \"@openzeppelin/contracts/token/ERC20/ERC20.sol\":7793:7812  uint256 fromBalance */\n      0x00\n        /* \"@openzeppelin/contracts/token/ERC20/ERC20.sol\":7815:7824  _balances */\n      dup1\n        /* \"@openzeppelin/contracts/token/ERC20/ERC20.sol\":7815:7830  _balances[from] */\n      0x00\n        /* \"@openzeppelin/contracts/token/ERC20/ERC20.sol\":7825:7829  from */\n      dup6\n        /* \"@openzeppelin/contracts/token/ERC20/ERC20.sol\":7815:7830  _balances[from] */\n      0xffffffffffffffffffffffffffffffffffffffff\n      and\n      0xffffffffffffffffffffffffffffffffffffffff\n      and\n      dup2\n      mstore\n      0x20\n      add\n      swap1\n      dup2\n      mstore\n      0x20\n      add\n      0x00\n      keccak256\n      sload\n        /* \"@openzeppelin/contracts/token/ERC20/ERC20.sol\":7793:7830  uint256 fromBalance = _balances[from] */\n      swap1\n      pop\n        /* \"@openzeppelin/contracts/token/ERC20/ERC20.sol\":7863:7869  amount */\n      dup2\n        /* \"@openzeppelin/contracts/token/ERC20/ERC20.sol\":7848:7859  fromBalance */\n      dup2\n        /* \"@openzeppelin/contracts/token/ERC20/ERC20.sol\":7848:7869  fromBalance >= amount */\n      lt\n      iszero\n        /* \"@openzeppelin/contracts/token/ERC20/ERC20.sol\":7840:7912  require(fromBalance >= amount, \"ERC20: transfer amount exceeds balance\") */\n      tag_199\n      jumpi\n      mload(0x40)\n      0x08c379a000000000000000000000000000000000000000000000000000000000\n      dup2\n      mstore\n      0x04\n      add\n      tag_200\n      swap1\n      tag_201\n      jump\t// in\n    tag_200:\n      mload(0x40)\n      dup1\n      swap2\n      sub\n      swap1\n      revert\n    tag_199:\n        /* \"@openzeppelin/contracts/token/ERC20/ERC20.sol\":7978:7984  amount */\n      dup2\n        /* \"@openzeppelin/contracts/token/ERC20/ERC20.sol\":7964:7975  fromBalance */\n      dup2\n        /* \"@openzeppelin/contracts/token/ERC20/ERC20.sol\":7964:7984  fromBalance - amount */\n      sub\n        /* \"@openzeppelin/contracts/token/ERC20/ERC20.sol\":7946:7955  _balances */\n      0x00\n        /* \"@openzeppelin/contracts/token/ERC20/ERC20.sol\":7946:7961  _balances[from] */\n      dup1\n        /* \"@openzeppelin/contracts/token/ERC20/ERC20.sol\":7956:7960  from */\n      dup7\n        /* \"@openzeppelin/contracts/token/ERC20/ERC20.sol\":7946:7961  _balances[from] */\n      0xffffffffffffffffffffffffffffffffffffffff\n      and\n      0xffffffffffffffffffffffffffffffffffffffff\n      and\n      dup2\n      mstore\n      0x20\n      add\n      swap1\n      dup2\n      mstore\n      0x20\n      add\n      0x00\n      keccak256\n        /* \"@openzeppelin/contracts/token/ERC20/ERC20.sol\":7946:7984  _balances[from] = fromBalance - amount */\n      dup2\n      swap1\n      sstore\n      pop\n        /* \"@openzeppelin/contracts/token/ERC20/ERC20.sol\":8178:8184  amount */\n      dup2\n        /* \"@openzeppelin/contracts/token/ERC20/ERC20.sol\":8161:8170  _balances */\n      0x00\n        /* \"@openzeppelin/contracts/token/ERC20/ERC20.sol\":8161:8174  _balances[to] */\n      dup1\n        /* \"@openzeppelin/contracts/token/ERC20/ERC20.sol\":8171:8173  to */\n      dup6\n        /* \"@openzeppelin/contracts/token/ERC20/ERC20.sol\":8161:8174  _balances[to] */\n      0xffffffffffffffffffffffffffffffffffffffff\n      and\n      0xffffffffffffffffffffffffffffffffffffffff\n      and\n      dup2\n      mstore\n      0x20\n      add\n      swap1\n      dup2\n      mstore\n      0x20\n      add\n      0x00\n      keccak256\n      0x00\n        /* \"@openzeppelin/contracts/token/ERC20/ERC20.sol\":8161:8184  _balances[to] += amount */\n      dup3\n      dup3\n      sload\n      add\n      swap3\n      pop\n      pop\n      dup2\n      swap1\n      sstore\n      pop\n        /* \"@openzeppelin/contracts/token/ERC20/ERC20.sol\":8225:8227  to */\n      dup3\n        /* \"@openzeppelin/contracts/token/ERC20/ERC20.sol\":8210:8236  Transfer(from, to, amount) */\n      0xffffffffffffffffffffffffffffffffffffffff\n      and\n        /* \"@openzeppelin/contracts/token/ERC20/ERC20.sol\":8219:8223  from */\n      dup5\n        /* \"@openzeppelin/contracts/token/ERC20/ERC20.sol\":8210:8236  Transfer(from, to, amount) */\n      0xffffffffffffffffffffffffffffffffffffffff\n      and\n      0xddf252ad1be2c89b69c2b068fc378daa952ba7f163c4a11628f55a4df523b3ef\n        /* \"@openzeppelin/contracts/token/ERC20/ERC20.sol\":8229:8235  amount */\n      dup5\n        /* \"@openzeppelin/contracts/token/ERC20/ERC20.sol\":8210:8236  Transfer(from, to, amount) */\n      mload(0x40)\n      tag_202\n      swap2\n      swap1\n      tag_39\n      jump\t// in\n    tag_202:\n      mload(0x40)\n      dup1\n      swap2\n      sub\n      swap1\n      log3\n        /* \"@openzeppelin/contracts/token/ERC20/ERC20.sol\":8247:8284  _afterTokenTransfer(from, to, amount) */\n      tag_203\n        /* \"@openzeppelin/contracts/token/ERC20/ERC20.sol\":8267:8271  from */\n      dup5\n        /* \"@openzeppelin/contracts/token/ERC20/ERC20.sol\":8273:8275  to */\n      dup5\n        /* \"@openzeppelin/contracts/token/ERC20/ERC20.sol\":8277:8283  amount */\n      dup5\n        /* \"@openzeppelin/contracts/token/ERC20/ERC20.sol\":8247:8266  _afterTokenTransfer */\n      tag_204\n        /* \"@openzeppelin/contracts/token/ERC20/ERC20.sol\":8247:8284  _afterTokenTransfer(from, to, amount) */\n      jump\t// in\n    tag_203:\n        /* \"@openzeppelin/contracts/token/ERC20/ERC20.sol\":7581:8291  {... */\n      pop\n        /* \"@openzeppelin/contracts/token/ERC20/ERC20.sol\":7473:8291  function _transfer(... */\n      pop\n      pop\n      pop\n      jump\t// out\n        /* \"@openzeppelin/contracts/utils/Counters.sol\":945:1068  function increment(Counter storage counter) internal {... */\n    tag_124:\n        /* \"@openzeppelin/contracts/utils/Counters.sol\":1050:1051  1 */\n      0x01\n        /* \"@openzeppelin/contracts/utils/Counters.sol\":1032:1039  counter */\n      dup2\n        /* \"@openzeppelin/contracts/utils/Counters.sol\":1032:1046  counter._value */\n      0x00\n      add\n      0x00\n        /* \"@openzeppelin/contracts/utils/Counters.sol\":1032:1051  counter._value += 1 */\n      dup3\n      dup3\n      sload\n      add\n      swap3\n      pop\n      pop\n      dup2\n      swap1\n      sstore\n      pop\n        /* \"@openzeppelin/contracts/utils/Counters.sol\":945:1068  function increment(Counter storage counter) internal {... */\n      pop\n      jump\t// out\n        /* \"@openzeppelin/contracts/utils/Counters.sol\":827:939  function current(Counter storage counter) internal view returns (uint256) {... */\n    tag_126:\n        /* \"@openzeppelin/contracts/utils/Counters.sol\":892:899  uint256 */\n      0x00\n        /* \"@openzeppelin/contracts/utils/Counters.sol\":918:925  counter */\n      dup2\n        /* \"@openzeppelin/contracts/utils/Counters.sol\":918:932  counter._value */\n      0x00\n      add\n      sload\n        /* \"@openzeppelin/contracts/utils/Counters.sol\":911:932  return counter._value */\n      swap1\n      pop\n        /* \"@openzeppelin/contracts/utils/Counters.sol\":827:939  function current(Counter storage counter) internal view returns (uint256) {... */\n      swap2\n      swap1\n      pop\n      jump\t// out\n        /* \"@openzeppelin/contracts/token/ERC20/ERC20.sol\":12180:12301  function _beforeTokenTransfer(... */\n    tag_198:\n      pop\n      pop\n      pop\n      jump\t// out\n        /* \"@openzeppelin/contracts/token/ERC20/ERC20.sol\":12889:13009  function _afterTokenTransfer(... */\n    tag_204:\n      pop\n      pop\n      pop\n      jump\t// out\n    tag_160:\n      pop\n      dup1\n      sload\n      tag_209\n      swap1\n      tag_92\n      jump\t// in\n    tag_209:\n      0x00\n      dup3\n      sstore\n      dup1\n      0x1f\n      lt\n      tag_211\n      jumpi\n      pop\n      jump(tag_210)\n    tag_211:\n      0x1f\n      add\n      0x20\n      swap1\n      div\n      swap1\n      0x00\n      mstore\n      keccak256(0x00, 0x20)\n      swap1\n      dup2\n      add\n      swap1\n      tag_212\n      swap2\n      swap1\n      tag_213\n      jump\t// in\n    tag_212:\n    tag_210:\n      pop\n      jump\t// out\n    tag_213:\n    tag_214:\n      dup1\n      dup3\n      gt\n      iszero\n      tag_215\n      jumpi\n      0x00\n      dup2\n      0x00\n      swap1\n      sstore\n      pop\n      0x01\n      add\n      jump(tag_214)\n    tag_215:\n      pop\n      swap1\n      jump\t// out\n        /* \"#utility.yul\":7:106   */\n    tag_216:\n        /* \"#utility.yul\":59:65   */\n      0x00\n        /* \"#utility.yul\":93:98   */\n      dup2\n        /* \"#utility.yul\":87:99   */\n      mload\n        /* \"#utility.yul\":77:99   */\n      swap1\n      pop\n        /* \"#utility.yul\":7:106   */\n      swap2\n      swap1\n      pop\n      jump\t// out\n        /* \"#utility.yul\":112:281   */\n    tag_217:\n        /* \"#utility.yul\":196:207   */\n      0x00\n        /* \"#utility.yul\":230:236   */\n      dup3\n        /* \"#utility.yul\":225:228   */\n      dup3\n        /* \"#utility.yul\":218:237   */\n      mstore\n        /* \"#utility.yul\":270:274   */\n      0x20\n        /* \"#utility.yul\":265:268   */\n      dup3\n        /* \"#utility.yul\":261:275   */\n      add\n        /* \"#utility.yul\":246:275   */\n      swap1\n      pop\n        /* \"#utility.yul\":112:281   */\n      swap3\n      swap2\n      pop\n      pop\n      jump\t// out\n        /* \"#utility.yul\":287:533   */\n    tag_218:\n        /* \"#utility.yul\":368:369   */\n      0x00\n        /* \"#utility.yul\":378:491   */\n    tag_287:\n        /* \"#utility.yul\":392:398   */\n      dup4\n        /* \"#utility.yul\":389:390   */\n      dup2\n        /* \"#utility.yul\":386:399   */\n      lt\n        /* \"#utility.yul\":378:491   */\n      iszero\n      tag_289\n      jumpi\n        /* \"#utility.yul\":477:478   */\n      dup1\n        /* \"#utility.yul\":472:475   */\n      dup3\n        /* \"#utility.yul\":468:479   */\n      add\n        /* \"#utility.yul\":462:480   */\n      mload\n        /* \"#utility.yul\":458:459   */\n      dup2\n        /* \"#utility.yul\":453:456   */\n      dup5\n        /* \"#utility.yul\":449:460   */\n      add\n        /* \"#utility.yul\":442:481   */\n      mstore\n        /* \"#utility.yul\":414:416   */\n      0x20\n        /* \"#utility.yul\":411:412   */\n      dup2\n        /* \"#utility.yul\":407:417   */\n      add\n        /* \"#utility.yul\":402:417   */\n      swap1\n      pop\n        /* \"#utility.yul\":378:491   */\n      jump(tag_287)\n    tag_289:\n        /* \"#utility.yul\":525:526   */\n      0x00\n        /* \"#utility.yul\":516:522   */\n      dup5\n        /* \"#utility.yul\":511:514   */\n      dup5\n        /* \"#utility.yul\":507:523   */\n      add\n        /* \"#utility.yul\":500:527   */\n      mstore\n        /* \"#utility.yul\":349:533   */\n      pop\n        /* \"#utility.yul\":287:533   */\n      pop\n      pop\n      pop\n      jump\t// out\n        /* \"#utility.yul\":539:641   */\n    tag_219:\n        /* \"#utility.yul\":580:586   */\n      0x00\n        /* \"#utility.yul\":631:633   */\n      0x1f\n        /* \"#utility.yul\":627:634   */\n      not\n        /* \"#utility.yul\":622:624   */\n      0x1f\n        /* \"#utility.yul\":615:620   */\n      dup4\n        /* \"#utility.yul\":611:625   */\n      add\n        /* \"#utility.yul\":607:635   */\n      and\n        /* \"#utility.yul\":597:635   */\n      swap1\n      pop\n        /* \"#utility.yul\":539:641   */\n      swap2\n      swap1\n      pop\n      jump\t// out\n        /* \"#utility.yul\":647:1024   */\n    tag_220:\n        /* \"#utility.yul\":735:738   */\n      0x00\n        /* \"#utility.yul\":763:802   */\n      tag_292\n        /* \"#utility.yul\":796:801   */\n      dup3\n        /* \"#utility.yul\":763:802   */\n      tag_216\n      jump\t// in\n    tag_292:\n        /* \"#utility.yul\":818:889   */\n      tag_293\n        /* \"#utility.yul\":882:888   */\n      dup2\n        /* \"#utility.yul\":877:880   */\n      dup6\n        /* \"#utility.yul\":818:889   */\n      tag_217\n      jump\t// in\n    tag_293:\n        /* \"#utility.yul\":811:889   */\n      swap4\n      pop\n        /* \"#utility.yul\":898:963   */\n      tag_294\n        /* \"#utility.yul\":956:962   */\n      dup2\n        /* \"#utility.yul\":951:954   */\n      dup6\n        /* \"#utility.yul\":944:948   */\n      0x20\n        /* \"#utility.yul\":937:942   */\n      dup7\n        /* \"#utility.yul\":933:949   */\n      add\n        /* \"#utility.yul\":898:963   */\n      tag_218\n      jump\t// in\n    tag_294:\n        /* \"#utility.yul\":988:1017   */\n      tag_295\n        /* \"#utility.yul\":1010:1016   */\n      dup2\n        /* \"#utility.yul\":988:1017   */\n      tag_219\n      jump\t// in\n    tag_295:\n        /* \"#utility.yul\":983:986   */\n      dup5\n        /* \"#utility.yul\":979:1018   */\n      add\n        /* \"#utility.yul\":972:1018   */\n      swap2\n      pop\n        /* \"#utility.yul\":739:1024   */\n      pop\n        /* \"#utility.yul\":647:1024   */\n      swap3\n      swap2\n      pop\n      pop\n      jump\t// out\n        /* \"#utility.yul\":1030:1343   */\n    tag_25:\n        /* \"#utility.yul\":1143:1147   */\n      0x00\n        /* \"#utility.yul\":1181:1183   */\n      0x20\n        /* \"#utility.yul\":1170:1179   */\n      dup3\n        /* \"#utility.yul\":1166:1184   */\n      add\n        /* \"#utility.yul\":1158:1184   */\n      swap1\n      pop\n        /* \"#utility.yul\":1230:1239   */\n      dup2\n        /* \"#utility.yul\":1224:1228   */\n      dup2\n        /* \"#utility.yul\":1220:1240   */\n      sub\n        /* \"#utility.yul\":1216:1217   */\n      0x00\n        /* \"#utility.yul\":1205:1214   */\n      dup4\n        /* \"#utility.yul\":1201:1218   */\n      add\n        /* \"#utility.yul\":1194:1241   */\n      mstore\n        /* \"#utility.yul\":1258:1336   */\n      tag_297\n        /* \"#utility.yul\":1331:1335   */\n      dup2\n        /* \"#utility.yul\":1322:1328   */\n      dup5\n        /* \"#utility.yul\":1258:1336   */\n      tag_220\n      jump\t// in\n    tag_297:\n        /* \"#utility.yul\":1250:1336   */\n      swap1\n      pop\n        /* \"#utility.yul\":1030:1343   */\n      swap3\n      swap2\n      pop\n      pop\n      jump\t// out\n        /* \"#utility.yul\":1349:1424   */\n    tag_221:\n        /* \"#utility.yul\":1382:1388   */\n      0x00\n        /* \"#utility.yul\":1415:1417   */\n      0x40\n        /* \"#utility.yul\":1409:1418   */\n      mload\n        /* \"#utility.yul\":1399:1418   */\n      swap1\n      pop\n        /* \"#utility.yul\":1349:1424   */\n      swap1\n      jump\t// out\n        /* \"#utility.yul\":1430:1547   */\n    tag_222:\n        /* \"#utility.yul\":1539:1540   */\n      0x00\n        /* \"#utility.yul\":1536:1537   */\n      dup1\n        /* \"#utility.yul\":1529:1541   */\n      revert\n        /* \"#utility.yul\":1553:1670   */\n    tag_223:\n        /* \"#utility.yul\":1662:1663   */\n      0x00\n        /* \"#utility.yul\":1659:1660   */\n      dup1\n        /* \"#utility.yul\":1652:1664   */\n      revert\n        /* \"#utility.yul\":1676:1802   */\n    tag_224:\n        /* \"#utility.yul\":1713:1720   */\n      0x00\n        /* \"#utility.yul\":1753:1795   */\n      0xffffffffffffffffffffffffffffffffffffffff\n        /* \"#utility.yul\":1746:1751   */\n      dup3\n        /* \"#utility.yul\":1742:1796   */\n      and\n        /* \"#utility.yul\":1731:1796   */\n      swap1\n      pop\n        /* \"#utility.yul\":1676:1802   */\n      swap2\n      swap1\n      pop\n      jump\t// out\n        /* \"#utility.yul\":1808:1904   */\n    tag_225:\n        /* \"#utility.yul\":1845:1852   */\n      0x00\n        /* \"#utility.yul\":1874:1898   */\n      tag_303\n        /* \"#utility.yul\":1892:1897   */\n      dup3\n        /* \"#utility.yul\":1874:1898   */\n      tag_224\n      jump\t// in\n    tag_303:\n        /* \"#utility.yul\":1863:1898   */\n      swap1\n      pop\n        /* \"#utility.yul\":1808:1904   */\n      swap2\n      swap1\n      pop\n      jump\t// out\n        /* \"#utility.yul\":1910:2032   */\n    tag_226:\n        /* \"#utility.yul\":1983:2007   */\n      tag_305\n        /* \"#utility.yul\":2001:2006   */\n      dup2\n        /* \"#utility.yul\":1983:2007   */\n      tag_225\n      jump\t// in\n    tag_305:\n        /* \"#utility.yul\":1976:1981   */\n      dup2\n        /* \"#utility.yul\":1973:2008   */\n      eq\n        /* \"#utility.yul\":1963:2026   */\n      tag_306\n      jumpi\n        /* \"#utility.yul\":2022:2023   */\n      0x00\n        /* \"#utility.yul\":2019:2020   */\n      dup1\n        /* \"#utility.yul\":2012:2024   */\n      revert\n        /* \"#utility.yul\":1963:2026   */\n    tag_306:\n        /* \"#utility.yul\":1910:2032   */\n      pop\n      jump\t// out\n        /* \"#utility.yul\":2038:2177   */\n    tag_227:\n        /* \"#utility.yul\":2084:2089   */\n      0x00\n        /* \"#utility.yul\":2122:2128   */\n      dup2\n        /* \"#utility.yul\":2109:2129   */\n      calldataload\n        /* \"#utility.yul\":2100:2129   */\n      swap1\n      pop\n        /* \"#utility.yul\":2138:2171   */\n      tag_308\n        /* \"#utility.yul\":2165:2170   */\n      dup2\n        /* \"#utility.yul\":2138:2171   */\n      tag_226\n      jump\t// in\n    tag_308:\n        /* \"#utility.yul\":2038:2177   */\n      swap3\n      swap2\n      pop\n      pop\n      jump\t// out\n        /* \"#utility.yul\":2183:2260   */\n    tag_228:\n        /* \"#utility.yul\":2220:2227   */\n      0x00\n        /* \"#utility.yul\":2249:2254   */\n      dup2\n        /* \"#utility.yul\":2238:2254   */\n      swap1\n      pop\n        /* \"#utility.yul\":2183:2260   */\n      swap2\n      swap1\n      pop\n      jump\t// out\n        /* \"#utility.yul\":2266:2388   */\n    tag_229:\n        /* \"#utility.yul\":2339:2363   */\n      tag_311\n        /* \"#utility.yul\":2357:2362   */\n      dup2\n        /* \"#utility.yul\":2339:2363   */\n      tag_228\n      jump\t// in\n    tag_311:\n        /* \"#utility.yul\":2332:2337   */\n      dup2\n        /* \"#utility.yul\":2329:2364   */\n      eq\n        /* \"#utility.yul\":2319:2382   */\n      tag_312\n      jumpi\n        /* \"#utility.yul\":2378:2379   */\n      0x00\n        /* \"#utility.yul\":2375:2376   */\n      dup1\n        /* \"#utility.yul\":2368:2380   */\n      revert\n        /* \"#utility.yul\":2319:2382   */\n    tag_312:\n        /* \"#utility.yul\":2266:2388   */\n      pop\n      jump\t// out\n        /* \"#utility.yul\":2394:2533   */\n    tag_230:\n        /* \"#utility.yul\":2440:2445   */\n      0x00\n        /* \"#utility.yul\":2478:2484   */\n      dup2\n        /* \"#utility.yul\":2465:2485   */\n      calldataload\n        /* \"#utility.yul\":2456:2485   */\n      swap1\n      pop\n        /* \"#utility.yul\":2494:2527   */\n      tag_314\n        /* \"#utility.yul\":2521:2526   */\n      dup2\n        /* \"#utility.yul\":2494:2527   */\n      tag_229\n      jump\t// in\n    tag_314:\n        /* \"#utility.yul\":2394:2533   */\n      swap3\n      swap2\n      pop\n      pop\n      jump\t// out\n        /* \"#utility.yul\":2539:3013   */\n    tag_28:\n        /* \"#utility.yul\":2607:2613   */\n      0x00\n        /* \"#utility.yul\":2615:2621   */\n      dup1\n        /* \"#utility.yul\":2664:2666   */\n      0x40\n        /* \"#utility.yul\":2652:2661   */\n      dup4\n        /* \"#utility.yul\":2643:2650   */\n      dup6\n        /* \"#utility.yul\":2639:2662   */\n      sub\n        /* \"#utility.yul\":2635:2667   */\n      slt\n        /* \"#utility.yul\":2632:2751   */\n      iszero\n      tag_316\n      jumpi\n        /* \"#utility.yul\":2670:2749   */\n      tag_317\n      tag_222\n      jump\t// in\n    tag_317:\n        /* \"#utility.yul\":2632:2751   */\n    tag_316:\n        /* \"#utility.yul\":2790:2791   */\n      0x00\n        /* \"#utility.yul\":2815:2868   */\n      tag_318\n        /* \"#utility.yul\":2860:2867   */\n      dup6\n        /* \"#utility.yul\":2851:2857   */\n      dup3\n        /* \"#utility.yul\":2840:2849   */\n      dup7\n        /* \"#utility.yul\":2836:2858   */\n      add\n        /* \"#utility.yul\":2815:2868   */\n      tag_227\n      jump\t// in\n    tag_318:\n        /* \"#utility.yul\":2805:2868   */\n      swap3\n      pop\n        /* \"#utility.yul\":2761:2878   */\n      pop\n        /* \"#utility.yul\":2917:2919   */\n      0x20\n        /* \"#utility.yul\":2943:2996   */\n      tag_319\n        /* \"#utility.yul\":2988:2995   */\n      dup6\n        /* \"#utility.yul\":2979:2985   */\n      dup3\n        /* \"#utility.yul\":2968:2977   */\n      dup7\n        /* \"#utility.yul\":2964:2986   */\n      add\n        /* \"#utility.yul\":2943:2996   */\n      tag_230\n      jump\t// in\n    tag_319:\n        /* \"#utility.yul\":2933:2996   */\n      swap2\n      pop\n        /* \"#utility.yul\":2888:3006   */\n      pop\n        /* \"#utility.yul\":2539:3013   */\n      swap3\n      pop\n      swap3\n      swap1\n      pop\n      jump\t// out\n        /* \"#utility.yul\":3019:3109   */\n    tag_231:\n        /* \"#utility.yul\":3053:3060   */\n      0x00\n        /* \"#utility.yul\":3096:3101   */\n      dup2\n        /* \"#utility.yul\":3089:3102   */\n      iszero\n        /* \"#utility.yul\":3082:3103   */\n      iszero\n        /* \"#utility.yul\":3071:3103   */\n      swap1\n      pop\n        /* \"#utility.yul\":3019:3109   */\n      swap2\n      swap1\n      pop\n      jump\t// out\n        /* \"#utility.yul\":3115:3224   */\n    tag_232:\n        /* \"#utility.yul\":3196:3217   */\n      tag_322\n        /* \"#utility.yul\":3211:3216   */\n      dup2\n        /* \"#utility.yul\":3196:3217   */\n      tag_231\n      jump\t// in\n    tag_322:\n        /* \"#utility.yul\":3191:3194   */\n      dup3\n        /* \"#utility.yul\":3184:3218   */\n      mstore\n        /* \"#utility.yul\":3115:3224   */\n      pop\n      pop\n      jump\t// out\n        /* \"#utility.yul\":3230:3440   */\n    tag_31:\n        /* \"#utility.yul\":3317:3321   */\n      0x00\n        /* \"#utility.yul\":3355:3357   */\n      0x20\n        /* \"#utility.yul\":3344:3353   */\n      dup3\n        /* \"#utility.yul\":3340:3358   */\n      add\n        /* \"#utility.yul\":3332:3358   */\n      swap1\n      pop\n        /* \"#utility.yul\":3368:3433   */\n      tag_324\n        /* \"#utility.yul\":3430:3431   */\n      0x00\n        /* \"#utility.yul\":3419:3428   */\n      dup4\n        /* \"#utility.yul\":3415:3432   */\n      add\n        /* \"#utility.yul\":3406:3412   */\n      dup5\n        /* \"#utility.yul\":3368:3433   */\n      tag_232\n      jump\t// in\n    tag_324:\n        /* \"#utility.yul\":3230:3440   */\n      swap3\n      swap2\n      pop\n      pop\n      jump\t// out\n        /* \"#utility.yul\":3446:3563   */\n    tag_233:\n        /* \"#utility.yul\":3555:3556   */\n      0x00\n        /* \"#utility.yul\":3552:3553   */\n      dup1\n        /* \"#utility.yul\":3545:3557   */\n      revert\n        /* \"#utility.yul\":3569:3686   */\n    tag_234:\n        /* \"#utility.yul\":3678:3679   */\n      0x00\n        /* \"#utility.yul\":3675:3676   */\n      dup1\n        /* \"#utility.yul\":3668:3680   */\n      revert\n        /* \"#utility.yul\":3692:3872   */\n    tag_235:\n        /* \"#utility.yul\":3740:3817   */\n      0x4e487b7100000000000000000000000000000000000000000000000000000000\n        /* \"#utility.yul\":3737:3738   */\n      0x00\n        /* \"#utility.yul\":3730:3818   */\n      mstore\n        /* \"#utility.yul\":3837:3841   */\n      0x41\n        /* \"#utility.yul\":3834:3835   */\n      0x04\n        /* \"#utility.yul\":3827:3842   */\n      mstore\n        /* \"#utility.yul\":3861:3865   */\n      0x24\n        /* \"#utility.yul\":3858:3859   */\n      0x00\n        /* \"#utility.yul\":3851:3866   */\n      revert\n        /* \"#utility.yul\":3878:4159   */\n    tag_236:\n        /* \"#utility.yul\":3961:3988   */\n      tag_329\n        /* \"#utility.yul\":3983:3987   */\n      dup3\n        /* \"#utility.yul\":3961:3988   */\n      tag_219\n      jump\t// in\n    tag_329:\n        /* \"#utility.yul\":3953:3959   */\n      dup2\n        /* \"#utility.yul\":3949:3989   */\n      add\n        /* \"#utility.yul\":4091:4097   */\n      dup2\n        /* \"#utility.yul\":4079:4089   */\n      dup2\n        /* \"#utility.yul\":4076:4098   */\n      lt\n        /* \"#utility.yul\":4055:4073   */\n      0xffffffffffffffff\n        /* \"#utility.yul\":4043:4053   */\n      dup3\n        /* \"#utility.yul\":4040:4074   */\n      gt\n        /* \"#utility.yul\":4037:4099   */\n      or\n        /* \"#utility.yul\":4034:4122   */\n      iszero\n      tag_330\n      jumpi\n        /* \"#utility.yul\":4102:4120   */\n      tag_331\n      tag_235\n      jump\t// in\n    tag_331:\n        /* \"#utility.yul\":4034:4122   */\n    tag_330:\n        /* \"#utility.yul\":4142:4152   */\n      dup1\n        /* \"#utility.yul\":4138:4140   */\n      0x40\n        /* \"#utility.yul\":4131:4153   */\n      mstore\n        /* \"#utility.yul\":3921:4159   */\n      pop\n        /* \"#utility.yul\":3878:4159   */\n      pop\n      pop\n      jump\t// out\n        /* \"#utility.yul\":4165:4294   */\n    tag_237:\n        /* \"#utility.yul\":4199:4205   */\n      0x00\n        /* \"#utility.yul\":4226:4246   */\n      tag_333\n      tag_221\n      jump\t// in\n    tag_333:\n        /* \"#utility.yul\":4216:4246   */\n      swap1\n      pop\n        /* \"#utility.yul\":4255:4288   */\n      tag_334\n        /* \"#utility.yul\":4283:4287   */\n      dup3\n        /* \"#utility.yul\":4275:4281   */\n      dup3\n        /* \"#utility.yul\":4255:4288   */\n      tag_236\n      jump\t// in\n    tag_334:\n        /* \"#utility.yul\":4165:4294   */\n      swap2\n      swap1\n      pop\n      jump\t// out\n        /* \"#utility.yul\":4300:4608   */\n    tag_238:\n        /* \"#utility.yul\":4362:4366   */\n      0x00\n        /* \"#utility.yul\":4452:4470   */\n      0xffffffffffffffff\n        /* \"#utility.yul\":4444:4450   */\n      dup3\n        /* \"#utility.yul\":4441:4471   */\n      gt\n        /* \"#utility.yul\":4438:4494   */\n      iszero\n      tag_336\n      jumpi\n        /* \"#utility.yul\":4474:4492   */\n      tag_337\n      tag_235\n      jump\t// in\n    tag_337:\n        /* \"#utility.yul\":4438:4494   */\n    tag_336:\n        /* \"#utility.yul\":4512:4541   */\n      tag_338\n        /* \"#utility.yul\":4534:4540   */\n      dup3\n        /* \"#utility.yul\":4512:4541   */\n      tag_219\n      jump\t// in\n    tag_338:\n        /* \"#utility.yul\":4504:4541   */\n      swap1\n      pop\n        /* \"#utility.yul\":4596:4600   */\n      0x20\n        /* \"#utility.yul\":4590:4594   */\n      dup2\n        /* \"#utility.yul\":4586:4601   */\n      add\n        /* \"#utility.yul\":4578:4601   */\n      swap1\n      pop\n        /* \"#utility.yul\":4300:4608   */\n      swap2\n      swap1\n      pop\n      jump\t// out\n        /* \"#utility.yul\":4614:4760   */\n    tag_239:\n        /* \"#utility.yul\":4711:4717   */\n      dup3\n        /* \"#utility.yul\":4706:4709   */\n      dup2\n        /* \"#utility.yul\":4701:4704   */\n      dup4\n        /* \"#utility.yul\":4688:4718   */\n      calldatacopy\n        /* \"#utility.yul\":4752:4753   */\n      0x00\n        /* \"#utility.yul\":4743:4749   */\n      dup4\n        /* \"#utility.yul\":4738:4741   */\n      dup4\n        /* \"#utility.yul\":4734:4750   */\n      add\n        /* \"#utility.yul\":4727:4754   */\n      mstore\n        /* \"#utility.yul\":4614:4760   */\n      pop\n      pop\n      pop\n      jump\t// out\n        /* \"#utility.yul\":4766:5191   */\n    tag_240:\n        /* \"#utility.yul\":4844:4849   */\n      0x00\n        /* \"#utility.yul\":4869:4935   */\n      tag_341\n        /* \"#utility.yul\":4885:4934   */\n      tag_342\n        /* \"#utility.yul\":4927:4933   */\n      dup5\n        /* \"#utility.yul\":4885:4934   */\n      tag_238\n      jump\t// in\n    tag_342:\n        /* \"#utility.yul\":4869:4935   */\n      tag_237\n      jump\t// in\n    tag_341:\n        /* \"#utility.yul\":4860:4935   */\n      swap1\n      pop\n        /* \"#utility.yul\":4958:4964   */\n      dup3\n        /* \"#utility.yul\":4951:4956   */\n      dup2\n        /* \"#utility.yul\":4944:4965   */\n      mstore\n        /* \"#utility.yul\":4996:5000   */\n      0x20\n        /* \"#utility.yul\":4989:4994   */\n      dup2\n        /* \"#utility.yul\":4985:5001   */\n      add\n        /* \"#utility.yul\":5034:5037   */\n      dup5\n        /* \"#utility.yul\":5025:5031   */\n      dup5\n        /* \"#utility.yul\":5020:5023   */\n      dup5\n        /* \"#utility.yul\":5016:5032   */\n      add\n        /* \"#utility.yul\":5013:5038   */\n      gt\n        /* \"#utility.yul\":5010:5122   */\n      iszero\n      tag_343\n      jumpi\n        /* \"#utility.yul\":5041:5120   */\n      tag_344\n      tag_234\n      jump\t// in\n    tag_344:\n        /* \"#utility.yul\":5010:5122   */\n    tag_343:\n        /* \"#utility.yul\":5131:5185   */\n      tag_345\n        /* \"#utility.yul\":5178:5184   */\n      dup5\n        /* \"#utility.yul\":5173:5176   */\n      dup3\n        /* \"#utility.yul\":5168:5171   */\n      dup6\n        /* \"#utility.yul\":5131:5185   */\n      tag_239\n      jump\t// in\n    tag_345:\n        /* \"#utility.yul\":4850:5191   */\n      pop\n        /* \"#utility.yul\":4766:5191   */\n      swap4\n      swap3\n      pop\n      pop\n      pop\n      jump\t// out\n        /* \"#utility.yul\":5211:5551   */\n    tag_241:\n        /* \"#utility.yul\":5267:5272   */\n      0x00\n        /* \"#utility.yul\":5316:5319   */\n      dup3\n        /* \"#utility.yul\":5309:5313   */\n      0x1f\n        /* \"#utility.yul\":5301:5307   */\n      dup4\n        /* \"#utility.yul\":5297:5314   */\n      add\n        /* \"#utility.yul\":5293:5320   */\n      slt\n        /* \"#utility.yul\":5283:5405   */\n      tag_347\n      jumpi\n        /* \"#utility.yul\":5324:5403   */\n      tag_348\n      tag_233\n      jump\t// in\n    tag_348:\n        /* \"#utility.yul\":5283:5405   */\n    tag_347:\n        /* \"#utility.yul\":5441:5447   */\n      dup2\n        /* \"#utility.yul\":5428:5448   */\n      calldataload\n        /* \"#utility.yul\":5466:5545   */\n      tag_349\n        /* \"#utility.yul\":5541:5544   */\n      dup5\n        /* \"#utility.yul\":5533:5539   */\n      dup3\n        /* \"#utility.yul\":5526:5530   */\n      0x20\n        /* \"#utility.yul\":5518:5524   */\n      dup7\n        /* \"#utility.yul\":5514:5531   */\n      add\n        /* \"#utility.yul\":5466:5545   */\n      tag_240\n      jump\t// in\n    tag_349:\n        /* \"#utility.yul\":5457:5545   */\n      swap2\n      pop\n        /* \"#utility.yul\":5273:5551   */\n      pop\n        /* \"#utility.yul\":5211:5551   */\n      swap3\n      swap2\n      pop\n      pop\n      jump\t// out\n        /* \"#utility.yul\":5557:6536   */\n    tag_34:\n        /* \"#utility.yul\":5654:5660   */\n      0x00\n        /* \"#utility.yul\":5662:5668   */\n      dup1\n        /* \"#utility.yul\":5670:5676   */\n      0x00\n        /* \"#utility.yul\":5719:5721   */\n      0x60\n        /* \"#utility.yul\":5707:5716   */\n      dup5\n        /* \"#utility.yul\":5698:5705   */\n      dup7\n        /* \"#utility.yul\":5694:5717   */\n      sub\n        /* \"#utility.yul\":5690:5722   */\n      slt\n        /* \"#utility.yul\":5687:5806   */\n      iszero\n      tag_351\n      jumpi\n        /* \"#utility.yul\":5725:5804   */\n      tag_352\n      tag_222\n      jump\t// in\n    tag_352:\n        /* \"#utility.yul\":5687:5806   */\n    tag_351:\n        /* \"#utility.yul\":5845:5846   */\n      0x00\n        /* \"#utility.yul\":5870:5923   */\n      tag_353\n        /* \"#utility.yul\":5915:5922   */\n      dup7\n        /* \"#utility.yul\":5906:5912   */\n      dup3\n        /* \"#utility.yul\":5895:5904   */\n      dup8\n        /* \"#utility.yul\":5891:5913   */\n      add\n        /* \"#utility.yul\":5870:5923   */\n      tag_230\n      jump\t// in\n    tag_353:\n        /* \"#utility.yul\":5860:5923   */\n      swap4\n      pop\n        /* \"#utility.yul\":5816:5933   */\n      pop\n        /* \"#utility.yul\":6000:6002   */\n      0x20\n        /* \"#utility.yul\":5989:5998   */\n      dup5\n        /* \"#utility.yul\":5985:6003   */\n      add\n        /* \"#utility.yul\":5972:6004   */\n      calldataload\n        /* \"#utility.yul\":6031:6049   */\n      0xffffffffffffffff\n        /* \"#utility.yul\":6023:6029   */\n      dup2\n        /* \"#utility.yul\":6020:6050   */\n      gt\n        /* \"#utility.yul\":6017:6134   */\n      iszero\n      tag_354\n      jumpi\n        /* \"#utility.yul\":6053:6132   */\n      tag_355\n      tag_223\n      jump\t// in\n    tag_355:\n        /* \"#utility.yul\":6017:6134   */\n    tag_354:\n        /* \"#utility.yul\":6158:6221   */\n      tag_356\n        /* \"#utility.yul\":6213:6220   */\n      dup7\n        /* \"#utility.yul\":6204:6210   */\n      dup3\n        /* \"#utility.yul\":6193:6202   */\n      dup8\n        /* \"#utility.yul\":6189:6211   */\n      add\n        /* \"#utility.yul\":6158:6221   */\n      tag_241\n      jump\t// in\n    tag_356:\n        /* \"#utility.yul\":6148:6221   */\n      swap3\n      pop\n        /* \"#utility.yul\":5943:6231   */\n      pop\n        /* \"#utility.yul\":6298:6300   */\n      0x40\n        /* \"#utility.yul\":6287:6296   */\n      dup5\n        /* \"#utility.yul\":6283:6301   */\n      add\n        /* \"#utility.yul\":6270:6302   */\n      calldataload\n        /* \"#utility.yul\":6329:6347   */\n      0xffffffffffffffff\n        /* \"#utility.yul\":6321:6327   */\n      dup2\n        /* \"#utility.yul\":6318:6348   */\n      gt\n        /* \"#utility.yul\":6315:6432   */\n      iszero\n      tag_357\n      jumpi\n        /* \"#utility.yul\":6351:6430   */\n      tag_358\n      tag_223\n      jump\t// in\n    tag_358:\n        /* \"#utility.yul\":6315:6432   */\n    tag_357:\n        /* \"#utility.yul\":6456:6519   */\n      tag_359\n        /* \"#utility.yul\":6511:6518   */\n      dup7\n        /* \"#utility.yul\":6502:6508   */\n      dup3\n        /* \"#utility.yul\":6491:6500   */\n      dup8\n        /* \"#utility.yul\":6487:6509   */\n      add\n        /* \"#utility.yul\":6456:6519   */\n      tag_241\n      jump\t// in\n    tag_359:\n        /* \"#utility.yul\":6446:6519   */\n      swap2\n      pop\n        /* \"#utility.yul\":6241:6529   */\n      pop\n        /* \"#utility.yul\":5557:6536   */\n      swap3\n      pop\n      swap3\n      pop\n      swap3\n      jump\t// out\n        /* \"#utility.yul\":6542:6660   */\n    tag_242:\n        /* \"#utility.yul\":6629:6653   */\n      tag_361\n        /* \"#utility.yul\":6647:6652   */\n      dup2\n        /* \"#utility.yul\":6629:6653   */\n      tag_228\n      jump\t// in\n    tag_361:\n        /* \"#utility.yul\":6624:6627   */\n      dup3\n        /* \"#utility.yul\":6617:6654   */\n      mstore\n        /* \"#utility.yul\":6542:6660   */\n      pop\n      pop\n      jump\t// out\n        /* \"#utility.yul\":6666:6888   */\n    tag_39:\n        /* \"#utility.yul\":6759:6763   */\n      0x00\n        /* \"#utility.yul\":6797:6799   */\n      0x20\n        /* \"#utility.yul\":6786:6795   */\n      dup3\n        /* \"#utility.yul\":6782:6800   */\n      add\n        /* \"#utility.yul\":6774:6800   */\n      swap1\n      pop\n        /* \"#utility.yul\":6810:6881   */\n      tag_363\n        /* \"#utility.yul\":6878:6879   */\n      0x00\n        /* \"#utility.yul\":6867:6876   */\n      dup4\n        /* \"#utility.yul\":6863:6880   */\n      add\n        /* \"#utility.yul\":6854:6860   */\n      dup5\n        /* \"#utility.yul\":6810:6881   */\n      tag_242\n      jump\t// in\n    tag_363:\n        /* \"#utility.yul\":6666:6888   */\n      swap3\n      swap2\n      pop\n      pop\n      jump\t// out\n        /* \"#utility.yul\":6894:7513   */\n    tag_42:\n        /* \"#utility.yul\":6971:6977   */\n      0x00\n        /* \"#utility.yul\":6979:6985   */\n      dup1\n        /* \"#utility.yul\":6987:6993   */\n      0x00\n        /* \"#utility.yul\":7036:7038   */\n      0x60\n        /* \"#utility.yul\":7024:7033   */\n      dup5\n        /* \"#utility.yul\":7015:7022   */\n      dup7\n        /* \"#utility.yul\":7011:7034   */\n      sub\n        /* \"#utility.yul\":7007:7039   */\n      slt\n        /* \"#utility.yul\":7004:7123   */\n      iszero\n      tag_365\n      jumpi\n        /* \"#utility.yul\":7042:7121   */\n      tag_366\n      tag_222\n      jump\t// in\n    tag_366:\n        /* \"#utility.yul\":7004:7123   */\n    tag_365:\n        /* \"#utility.yul\":7162:7163   */\n      0x00\n        /* \"#utility.yul\":7187:7240   */\n      tag_367\n        /* \"#utility.yul\":7232:7239   */\n      dup7\n        /* \"#utility.yul\":7223:7229   */\n      dup3\n        /* \"#utility.yul\":7212:7221   */\n      dup8\n        /* \"#utility.yul\":7208:7230   */\n      add\n        /* \"#utility.yul\":7187:7240   */\n      tag_227\n      jump\t// in\n    tag_367:\n        /* \"#utility.yul\":7177:7240   */\n      swap4\n      pop\n        /* \"#utility.yul\":7133:7250   */\n      pop\n        /* \"#utility.yul\":7289:7291   */\n      0x20\n        /* \"#utility.yul\":7315:7368   */\n      tag_368\n        /* \"#utility.yul\":7360:7367   */\n      dup7\n        /* \"#utility.yul\":7351:7357   */\n      dup3\n        /* \"#utility.yul\":7340:7349   */\n      dup8\n        /* \"#utility.yul\":7336:7358   */\n      add\n        /* \"#utility.yul\":7315:7368   */\n      tag_227\n      jump\t// in\n    tag_368:\n        /* \"#utility.yul\":7305:7368   */\n      swap3\n      pop\n        /* \"#utility.yul\":7260:7378   */\n      pop\n        /* \"#utility.yul\":7417:7419   */\n      0x40\n        /* \"#utility.yul\":7443:7496   */\n      tag_369\n        /* \"#utility.yul\":7488:7495   */\n      dup7\n        /* \"#utility.yul\":7479:7485   */\n      dup3\n        /* \"#utility.yul\":7468:7477   */\n      dup8\n        /* \"#utility.yul\":7464:7486   */\n      add\n        /* \"#utility.yul\":7443:7496   */\n      tag_230\n      jump\t// in\n    tag_369:\n        /* \"#utility.yul\":7433:7496   */\n      swap2\n      pop\n        /* \"#utility.yul\":7388:7506   */\n      pop\n        /* \"#utility.yul\":6894:7513   */\n      swap3\n      pop\n      swap3\n      pop\n      swap3\n      jump\t// out\n        /* \"#utility.yul\":7519:8353   */\n    tag_47:\n        /* \"#utility.yul\":7607:7613   */\n      0x00\n        /* \"#utility.yul\":7615:7621   */\n      dup1\n        /* \"#utility.yul\":7664:7666   */\n      0x40\n        /* \"#utility.yul\":7652:7661   */\n      dup4\n        /* \"#utility.yul\":7643:7650   */\n      dup6\n        /* \"#utility.yul\":7639:7662   */\n      sub\n        /* \"#utility.yul\":7635:7667   */\n      slt\n        /* \"#utility.yul\":7632:7751   */\n      iszero\n      tag_371\n      jumpi\n        /* \"#utility.yul\":7670:7749   */\n      tag_372\n      tag_222\n      jump\t// in\n    tag_372:\n        /* \"#utility.yul\":7632:7751   */\n    tag_371:\n        /* \"#utility.yul\":7818:7819   */\n      0x00\n        /* \"#utility.yul\":7807:7816   */\n      dup4\n        /* \"#utility.yul\":7803:7820   */\n      add\n        /* \"#utility.yul\":7790:7821   */\n      calldataload\n        /* \"#utility.yul\":7848:7866   */\n      0xffffffffffffffff\n        /* \"#utility.yul\":7840:7846   */\n      dup2\n        /* \"#utility.yul\":7837:7867   */\n      gt\n        /* \"#utility.yul\":7834:7951   */\n      iszero\n      tag_373\n      jumpi\n        /* \"#utility.yul\":7870:7949   */\n      tag_374\n      tag_223\n      jump\t// in\n    tag_374:\n        /* \"#utility.yul\":7834:7951   */\n    tag_373:\n        /* \"#utility.yul\":7975:8038   */\n      tag_375\n        /* \"#utility.yul\":8030:8037   */\n      dup6\n        /* \"#utility.yul\":8021:8027   */\n      dup3\n        /* \"#utility.yul\":8010:8019   */\n      dup7\n        /* \"#utility.yul\":8006:8028   */\n      add\n        /* \"#utility.yul\":7975:8038   */\n      tag_241\n      jump\t// in\n    tag_375:\n        /* \"#utility.yul\":7965:8038   */\n      swap3\n      pop\n        /* \"#utility.yul\":7761:8048   */\n      pop\n        /* \"#utility.yul\":8115:8117   */\n      0x20\n        /* \"#utility.yul\":8104:8113   */\n      dup4\n        /* \"#utility.yul\":8100:8118   */\n      add\n        /* \"#utility.yul\":8087:8119   */\n      calldataload\n        /* \"#utility.yul\":8146:8164   */\n      0xffffffffffffffff\n        /* \"#utility.yul\":8138:8144   */\n      dup2\n        /* \"#utility.yul\":8135:8165   */\n      gt\n        /* \"#utility.yul\":8132:8249   */\n      iszero\n      tag_376\n      jumpi\n        /* \"#utility.yul\":8168:8247   */\n      tag_377\n      tag_223\n      jump\t// in\n    tag_377:\n        /* \"#utility.yul\":8132:8249   */\n    tag_376:\n        /* \"#utility.yul\":8273:8336   */\n      tag_378\n        /* \"#utility.yul\":8328:8335   */\n      dup6\n        /* \"#utility.yul\":8319:8325   */\n      dup3\n        /* \"#utility.yul\":8308:8317   */\n      dup7\n        /* \"#utility.yul\":8304:8326   */\n      add\n        /* \"#utility.yul\":8273:8336   */\n      tag_241\n      jump\t// in\n    tag_378:\n        /* \"#utility.yul\":8263:8336   */\n      swap2\n      pop\n        /* \"#utility.yul\":8058:8346   */\n      pop\n        /* \"#utility.yul\":7519:8353   */\n      swap3\n      pop\n      swap3\n      swap1\n      pop\n      jump\t// out\n        /* \"#utility.yul\":8359:8445   */\n    tag_243:\n        /* \"#utility.yul\":8394:8401   */\n      0x00\n        /* \"#utility.yul\":8434:8438   */\n      0xff\n        /* \"#utility.yul\":8427:8432   */\n      dup3\n        /* \"#utility.yul\":8423:8439   */\n      and\n        /* \"#utility.yul\":8412:8439   */\n      swap1\n      pop\n        /* \"#utility.yul\":8359:8445   */\n      swap2\n      swap1\n      pop\n      jump\t// out\n        /* \"#utility.yul\":8451:8563   */\n    tag_244:\n        /* \"#utility.yul\":8534:8556   */\n      tag_381\n        /* \"#utility.yul\":8550:8555   */\n      dup2\n        /* \"#utility.yul\":8534:8556   */\n      tag_243\n      jump\t// in\n    tag_381:\n        /* \"#utility.yul\":8529:8532   */\n      dup3\n        /* \"#utility.yul\":8522:8557   */\n      mstore\n        /* \"#utility.yul\":8451:8563   */\n      pop\n      pop\n      jump\t// out\n        /* \"#utility.yul\":8569:8783   */\n    tag_52:\n        /* \"#utility.yul\":8658:8662   */\n      0x00\n        /* \"#utility.yul\":8696:8698   */\n      0x20\n        /* \"#utility.yul\":8685:8694   */\n      dup3\n        /* \"#utility.yul\":8681:8699   */\n      add\n        /* \"#utility.yul\":8673:8699   */\n      swap1\n      pop\n        /* \"#utility.yul\":8709:8776   */\n      tag_383\n        /* \"#utility.yul\":8773:8774   */\n      0x00\n        /* \"#utility.yul\":8762:8771   */\n      dup4\n        /* \"#utility.yul\":8758:8775   */\n      add\n        /* \"#utility.yul\":8749:8755   */\n      dup5\n        /* \"#utility.yul\":8709:8776   */\n      tag_244\n      jump\t// in\n    tag_383:\n        /* \"#utility.yul\":8569:8783   */\n      swap3\n      swap2\n      pop\n      pop\n      jump\t// out\n        /* \"#utility.yul\":8789:9118   */\n    tag_59:\n        /* \"#utility.yul\":8848:8854   */\n      0x00\n        /* \"#utility.yul\":8897:8899   */\n      0x20\n        /* \"#utility.yul\":8885:8894   */\n      dup3\n        /* \"#utility.yul\":8876:8883   */\n      dup5\n        /* \"#utility.yul\":8872:8895   */\n      sub\n        /* \"#utility.yul\":8868:8900   */\n      slt\n        /* \"#utility.yul\":8865:8984   */\n      iszero\n      tag_385\n      jumpi\n        /* \"#utility.yul\":8903:8982   */\n      tag_386\n      tag_222\n      jump\t// in\n    tag_386:\n        /* \"#utility.yul\":8865:8984   */\n    tag_385:\n        /* \"#utility.yul\":9023:9024   */\n      0x00\n        /* \"#utility.yul\":9048:9101   */\n      tag_387\n        /* \"#utility.yul\":9093:9100   */\n      dup5\n        /* \"#utility.yul\":9084:9090   */\n      dup3\n        /* \"#utility.yul\":9073:9082   */\n      dup6\n        /* \"#utility.yul\":9069:9091   */\n      add\n        /* \"#utility.yul\":9048:9101   */\n      tag_227\n      jump\t// in\n    tag_387:\n        /* \"#utility.yul\":9038:9101   */\n      swap2\n      pop\n        /* \"#utility.yul\":8994:9111   */\n      pop\n        /* \"#utility.yul\":8789:9118   */\n      swap3\n      swap2\n      pop\n      pop\n      jump\t// out\n        /* \"#utility.yul\":9124:9453   */\n    tag_78:\n        /* \"#utility.yul\":9183:9189   */\n      0x00\n        /* \"#utility.yul\":9232:9234   */\n      0x20\n        /* \"#utility.yul\":9220:9229   */\n      dup3\n        /* \"#utility.yul\":9211:9218   */\n      dup5\n        /* \"#utility.yul\":9207:9230   */\n      sub\n        /* \"#utility.yul\":9203:9235   */\n      slt\n        /* \"#utility.yul\":9200:9319   */\n      iszero\n      tag_389\n      jumpi\n        /* \"#utility.yul\":9238:9317   */\n      tag_390\n      tag_222\n      jump\t// in\n    tag_390:\n        /* \"#utility.yul\":9200:9319   */\n    tag_389:\n        /* \"#utility.yul\":9358:9359   */\n      0x00\n        /* \"#utility.yul\":9383:9436   */\n      tag_391\n        /* \"#utility.yul\":9428:9435   */\n      dup5\n        /* \"#utility.yul\":9419:9425   */\n      dup3\n        /* \"#utility.yul\":9408:9417   */\n      dup6\n        /* \"#utility.yul\":9404:9426   */\n      add\n        /* \"#utility.yul\":9383:9436   */\n      tag_230\n      jump\t// in\n    tag_391:\n        /* \"#utility.yul\":9373:9436   */\n      swap2\n      pop\n        /* \"#utility.yul\":9329:9446   */\n      pop\n        /* \"#utility.yul\":9124:9453   */\n      swap3\n      swap2\n      pop\n      pop\n      jump\t// out\n        /* \"#utility.yul\":9459:9577   */\n    tag_245:\n        /* \"#utility.yul\":9546:9570   */\n      tag_393\n        /* \"#utility.yul\":9564:9569   */\n      dup2\n        /* \"#utility.yul\":9546:9570   */\n      tag_225\n      jump\t// in\n    tag_393:\n        /* \"#utility.yul\":9541:9544   */\n      dup3\n        /* \"#utility.yul\":9534:9571   */\n      mstore\n        /* \"#utility.yul\":9459:9577   */\n      pop\n      pop\n      jump\t// out\n        /* \"#utility.yul\":9583:10207   */\n    tag_84:\n        /* \"#utility.yul\":9772:9776   */\n      0x00\n        /* \"#utility.yul\":9810:9812   */\n      0x60\n        /* \"#utility.yul\":9799:9808   */\n      dup3\n        /* \"#utility.yul\":9795:9813   */\n      add\n        /* \"#utility.yul\":9787:9813   */\n      swap1\n      pop\n        /* \"#utility.yul\":9823:9894   */\n      tag_395\n        /* \"#utility.yul\":9891:9892   */\n      0x00\n        /* \"#utility.yul\":9880:9889   */\n      dup4\n        /* \"#utility.yul\":9876:9893   */\n      add\n        /* \"#utility.yul\":9867:9873   */\n      dup7\n        /* \"#utility.yul\":9823:9894   */\n      tag_245\n      jump\t// in\n    tag_395:\n        /* \"#utility.yul\":9941:9950   */\n      dup2\n        /* \"#utility.yul\":9935:9939   */\n      dup2\n        /* \"#utility.yul\":9931:9951   */\n      sub\n        /* \"#utility.yul\":9926:9928   */\n      0x20\n        /* \"#utility.yul\":9915:9924   */\n      dup4\n        /* \"#utility.yul\":9911:9929   */\n      add\n        /* \"#utility.yul\":9904:9952   */\n      mstore\n        /* \"#utility.yul\":9969:10047   */\n      tag_396\n        /* \"#utility.yul\":10042:10046   */\n      dup2\n        /* \"#utility.yul\":10033:10039   */\n      dup6\n        /* \"#utility.yul\":9969:10047   */\n      tag_220\n      jump\t// in\n    tag_396:\n        /* \"#utility.yul\":9961:10047   */\n      swap1\n      pop\n        /* \"#utility.yul\":10094:10103   */\n      dup2\n        /* \"#utility.yul\":10088:10092   */\n      dup2\n        /* \"#utility.yul\":10084:10104   */\n      sub\n        /* \"#utility.yul\":10079:10081   */\n      0x40\n        /* \"#utility.yul\":10068:10077   */\n      dup4\n        /* \"#utility.yul\":10064:10082   */\n      add\n        /* \"#utility.yul\":10057:10105   */\n      mstore\n        /* \"#utility.yul\":10122:10200   */\n      tag_397\n        /* \"#utility.yul\":10195:10199   */\n      dup2\n        /* \"#utility.yul\":10186:10192   */\n      dup5\n        /* \"#utility.yul\":10122:10200   */\n      tag_220\n      jump\t// in\n    tag_397:\n        /* \"#utility.yul\":10114:10200   */\n      swap1\n      pop\n        /* \"#utility.yul\":9583:10207   */\n      swap5\n      swap4\n      pop\n      pop\n      pop\n      pop\n      jump\t// out\n        /* \"#utility.yul\":10213:10687   */\n    tag_87:\n        /* \"#utility.yul\":10281:10287   */\n      0x00\n        /* \"#utility.yul\":10289:10295   */\n      dup1\n        /* \"#utility.yul\":10338:10340   */\n      0x40\n        /* \"#utility.yul\":10326:10335   */\n      dup4\n        /* \"#utility.yul\":10317:10324   */\n      dup6\n        /* \"#utility.yul\":10313:10336   */\n      sub\n        /* \"#utility.yul\":10309:10341   */\n      slt\n        /* \"#utility.yul\":10306:10425   */\n      iszero\n      tag_399\n      jumpi\n        /* \"#utility.yul\":10344:10423   */\n      tag_400\n      tag_222\n      jump\t// in\n    tag_400:\n        /* \"#utility.yul\":10306:10425   */\n    tag_399:\n        /* \"#utility.yul\":10464:10465   */\n      0x00\n        /* \"#utility.yul\":10489:10542   */\n      tag_401\n        /* \"#utility.yul\":10534:10541   */\n      dup6\n        /* \"#utility.yul\":10525:10531   */\n      dup3\n        /* \"#utility.yul\":10514:10523   */\n      dup7\n        /* \"#utility.yul\":10510:10532   */\n      add\n        /* \"#utility.yul\":10489:10542   */\n      tag_227\n      jump\t// in\n    tag_401:\n        /* \"#utility.yul\":10479:10542   */\n      swap3\n      pop\n        /* \"#utility.yul\":10435:10552   */\n      pop\n        /* \"#utility.yul\":10591:10593   */\n      0x20\n        /* \"#utility.yul\":10617:10670   */\n      tag_402\n        /* \"#utility.yul\":10662:10669   */\n      dup6\n        /* \"#utility.yul\":10653:10659   */\n      dup3\n        /* \"#utility.yul\":10642:10651   */\n      dup7\n        /* \"#utility.yul\":10638:10660   */\n      add\n        /* \"#utility.yul\":10617:10670   */\n      tag_227\n      jump\t// in\n    tag_402:\n        /* \"#utility.yul\":10607:10670   */\n      swap2\n      pop\n        /* \"#utility.yul\":10562:10680   */\n      pop\n        /* \"#utility.yul\":10213:10687   */\n      swap3\n      pop\n      swap3\n      swap1\n      pop\n      jump\t// out\n        /* \"#utility.yul\":10693:10873   */\n    tag_246:\n        /* \"#utility.yul\":10741:10818   */\n      0x4e487b7100000000000000000000000000000000000000000000000000000000\n        /* \"#utility.yul\":10738:10739   */\n      0x00\n        /* \"#utility.yul\":10731:10819   */\n      mstore\n        /* \"#utility.yul\":10838:10842   */\n      0x22\n        /* \"#utility.yul\":10835:10836   */\n      0x04\n        /* \"#utility.yul\":10828:10843   */\n      mstore\n        /* \"#utility.yul\":10862:10866   */\n      0x24\n        /* \"#utility.yul\":10859:10860   */\n      0x00\n        /* \"#utility.yul\":10852:10867   */\n      revert\n        /* \"#utility.yul\":10879:11199   */\n    tag_92:\n        /* \"#utility.yul\":10923:10929   */\n      0x00\n        /* \"#utility.yul\":10960:10961   */\n      0x02\n        /* \"#utility.yul\":10954:10958   */\n      dup3\n        /* \"#utility.yul\":10950:10962   */\n      div\n        /* \"#utility.yul\":10940:10962   */\n      swap1\n      pop\n        /* \"#utility.yul\":11007:11008   */\n      0x01\n        /* \"#utility.yul\":11001:11005   */\n      dup3\n        /* \"#utility.yul\":10997:11009   */\n      and\n        /* \"#utility.yul\":11028:11046   */\n      dup1\n        /* \"#utility.yul\":11018:11099   */\n      tag_405\n      jumpi\n        /* \"#utility.yul\":11084:11088   */\n      0x7f\n        /* \"#utility.yul\":11076:11082   */\n      dup3\n        /* \"#utility.yul\":11072:11089   */\n      and\n        /* \"#utility.yul\":11062:11089   */\n      swap2\n      pop\n        /* \"#utility.yul\":11018:11099   */\n    tag_405:\n        /* \"#utility.yul\":11146:11148   */\n      0x20\n        /* \"#utility.yul\":11138:11144   */\n      dup3\n        /* \"#utility.yul\":11135:11149   */\n      lt\n        /* \"#utility.yul\":11115:11133   */\n      dup2\n        /* \"#utility.yul\":11112:11150   */\n      sub\n        /* \"#utility.yul\":11109:11193   */\n      tag_406\n      jumpi\n        /* \"#utility.yul\":11165:11183   */\n      tag_407\n      tag_246\n      jump\t// in\n    tag_407:\n        /* \"#utility.yul\":11109:11193   */\n    tag_406:\n        /* \"#utility.yul\":10930:11199   */\n      pop\n        /* \"#utility.yul\":10879:11199   */\n      swap2\n      swap1\n      pop\n      jump\t// out\n        /* \"#utility.yul\":11205:11427   */\n    tag_247:\n        /* \"#utility.yul\":11345:11379   */\n      0x4f6e6c79207468652063726561746f72206d6179207570646174652061204e6f\n        /* \"#utility.yul\":11341:11342   */\n      0x00\n        /* \"#utility.yul\":11333:11339   */\n      dup3\n        /* \"#utility.yul\":11329:11343   */\n      add\n        /* \"#utility.yul\":11322:11380   */\n      mstore\n        /* \"#utility.yul\":11414:11419   */\n      0x74652e0000000000000000000000000000000000000000000000000000000000\n        /* \"#utility.yul\":11409:11411   */\n      0x20\n        /* \"#utility.yul\":11401:11407   */\n      dup3\n        /* \"#utility.yul\":11397:11412   */\n      add\n        /* \"#utility.yul\":11390:11420   */\n      mstore\n        /* \"#utility.yul\":11205:11427   */\n      pop\n      jump\t// out\n        /* \"#utility.yul\":11433:11799   */\n    tag_248:\n        /* \"#utility.yul\":11575:11578   */\n      0x00\n        /* \"#utility.yul\":11596:11663   */\n      tag_410\n        /* \"#utility.yul\":11660:11662   */\n      0x23\n        /* \"#utility.yul\":11655:11658   */\n      dup4\n        /* \"#utility.yul\":11596:11663   */\n      tag_217\n      jump\t// in\n    tag_410:\n        /* \"#utility.yul\":11589:11663   */\n      swap2\n      pop\n        /* \"#utility.yul\":11672:11765   */\n      tag_411\n        /* \"#utility.yul\":11761:11764   */\n      dup3\n        /* \"#utility.yul\":11672:11765   */\n      tag_247\n      jump\t// in\n    tag_411:\n        /* \"#utility.yul\":11790:11792   */\n      0x40\n        /* \"#utility.yul\":11785:11788   */\n      dup3\n        /* \"#utility.yul\":11781:11793   */\n      add\n        /* \"#utility.yul\":11774:11793   */\n      swap1\n      pop\n        /* \"#utility.yul\":11433:11799   */\n      swap2\n      swap1\n      pop\n      jump\t// out\n        /* \"#utility.yul\":11805:12224   */\n    tag_105:\n        /* \"#utility.yul\":11971:11975   */\n      0x00\n        /* \"#utility.yul\":12009:12011   */\n      0x20\n        /* \"#utility.yul\":11998:12007   */\n      dup3\n        /* \"#utility.yul\":11994:12012   */\n      add\n        /* \"#utility.yul\":11986:12012   */\n      swap1\n      pop\n        /* \"#utility.yul\":12058:12067   */\n      dup2\n        /* \"#utility.yul\":12052:12056   */\n      dup2\n        /* \"#utility.yul\":12048:12068   */\n      sub\n        /* \"#utility.yul\":12044:12045   */\n      0x00\n        /* \"#utility.yul\":12033:12042   */\n      dup4\n        /* \"#utility.yul\":12029:12046   */\n      add\n        /* \"#utility.yul\":12022:12069   */\n      mstore\n        /* \"#utility.yul\":12086:12217   */\n      tag_413\n        /* \"#utility.yul\":12212:12216   */\n      dup2\n        /* \"#utility.yul\":12086:12217   */\n      tag_248\n      jump\t// in\n    tag_413:\n        /* \"#utility.yul\":12078:12217   */\n      swap1\n      pop\n        /* \"#utility.yul\":11805:12224   */\n      swap2\n      swap1\n      pop\n      jump\t// out\n        /* \"#utility.yul\":12230:12371   */\n    tag_249:\n        /* \"#utility.yul\":12279:12283   */\n      0x00\n        /* \"#utility.yul\":12302:12305   */\n      dup2\n        /* \"#utility.yul\":12294:12305   */\n      swap1\n      pop\n        /* \"#utility.yul\":12325:12328   */\n      dup2\n        /* \"#utility.yul\":12322:12323   */\n      0x00\n        /* \"#utility.yul\":12315:12329   */\n      mstore\n        /* \"#utility.yul\":12359:12363   */\n      0x20\n        /* \"#utility.yul\":12356:12357   */\n      0x00\n        /* \"#utility.yul\":12346:12364   */\n      keccak256\n        /* \"#utility.yul\":12338:12364   */\n      swap1\n      pop\n        /* \"#utility.yul\":12230:12371   */\n      swap2\n      swap1\n      pop\n      jump\t// out\n        /* \"#utility.yul\":12377:12470   */\n    tag_250:\n        /* \"#utility.yul\":12414:12420   */\n      0x00\n        /* \"#utility.yul\":12461:12463   */\n      0x20\n        /* \"#utility.yul\":12456:12458   */\n      0x1f\n        /* \"#utility.yul\":12449:12454   */\n      dup4\n        /* \"#utility.yul\":12445:12459   */\n      add\n        /* \"#utility.yul\":12441:12464   */\n      div\n        /* \"#utility.yul\":12431:12464   */\n      swap1\n      pop\n        /* \"#utility.yul\":12377:12470   */\n      swap2\n      swap1\n      pop\n      jump\t// out\n        /* \"#utility.yul\":12476:12583   */\n    tag_251:\n        /* \"#utility.yul\":12520:12528   */\n      0x00\n        /* \"#utility.yul\":12570:12575   */\n      dup3\n        /* \"#utility.yul\":12564:12568   */\n      dup3\n        /* \"#utility.yul\":12560:12576   */\n      shl\n        /* \"#utility.yul\":12539:12576   */\n      swap1\n      pop\n        /* \"#utility.yul\":12476:12583   */\n      swap3\n      swap2\n      pop\n      pop\n      jump\t// out\n        /* \"#utility.yul\":12589:12982   */\n    tag_252:\n        /* \"#utility.yul\":12658:12664   */\n      0x00\n        /* \"#utility.yul\":12708:12709   */\n      0x08\n        /* \"#utility.yul\":12696:12706   */\n      dup4\n        /* \"#utility.yul\":12692:12710   */\n      mul\n        /* \"#utility.yul\":12731:12828   */\n      tag_418\n        /* \"#utility.yul\":12761:12827   */\n      0xffffffffffffffffffffffffffffffffffffffffffffffffffffffffffffffff\n        /* \"#utility.yul\":12750:12759   */\n      dup3\n        /* \"#utility.yul\":12731:12828   */\n      tag_251\n      jump\t// in\n    tag_418:\n        /* \"#utility.yul\":12849:12888   */\n      tag_419\n        /* \"#utility.yul\":12879:12887   */\n      dup7\n        /* \"#utility.yul\":12868:12877   */\n      dup4\n        /* \"#utility.yul\":12849:12888   */\n      tag_251\n      jump\t// in\n    tag_419:\n        /* \"#utility.yul\":12837:12888   */\n      swap6\n      pop\n        /* \"#utility.yul\":12921:12925   */\n      dup1\n        /* \"#utility.yul\":12917:12926   */\n      not\n        /* \"#utility.yul\":12910:12915   */\n      dup5\n        /* \"#utility.yul\":12906:12927   */\n      and\n        /* \"#utility.yul\":12897:12927   */\n      swap4\n      pop\n        /* \"#utility.yul\":12970:12974   */\n      dup1\n        /* \"#utility.yul\":12960:12968   */\n      dup7\n        /* \"#utility.yul\":12956:12975   */\n      and\n        /* \"#utility.yul\":12949:12954   */\n      dup5\n        /* \"#utility.yul\":12946:12976   */\n      or\n        /* \"#utility.yul\":12936:12976   */\n      swap3\n      pop\n        /* \"#utility.yul\":12665:12982   */\n      pop\n      pop\n        /* \"#utility.yul\":12589:12982   */\n      swap4\n      swap3\n      pop\n      pop\n      pop\n      jump\t// out\n        /* \"#utility.yul\":12988:13048   */\n    tag_253:\n        /* \"#utility.yul\":13016:13019   */\n      0x00\n        /* \"#utility.yul\":13037:13042   */\n      dup2\n        /* \"#utility.yul\":13030:13042   */\n      swap1\n      pop\n        /* \"#utility.yul\":12988:13048   */\n      swap2\n      swap1\n      pop\n      jump\t// out\n        /* \"#utility.yul\":13054:13196   */\n    tag_254:\n        /* \"#utility.yul\":13104:13113   */\n      0x00\n        /* \"#utility.yul\":13137:13190   */\n      tag_422\n        /* \"#utility.yul\":13155:13189   */\n      tag_423\n        /* \"#utility.yul\":13164:13188   */\n      tag_424\n        /* \"#utility.yul\":13182:13187   */\n      dup5\n        /* \"#utility.yul\":13164:13188   */\n      tag_228\n      jump\t// in\n    tag_424:\n        /* \"#utility.yul\":13155:13189   */\n      tag_253\n      jump\t// in\n    tag_423:\n        /* \"#utility.yul\":13137:13190   */\n      tag_228\n      jump\t// in\n    tag_422:\n        /* \"#utility.yul\":13124:13190   */\n      swap1\n      pop\n        /* \"#utility.yul\":13054:13196   */\n      swap2\n      swap1\n      pop\n      jump\t// out\n        /* \"#utility.yul\":13202:13277   */\n    tag_255:\n        /* \"#utility.yul\":13245:13248   */\n      0x00\n        /* \"#utility.yul\":13266:13271   */\n      dup2\n        /* \"#utility.yul\":13259:13271   */\n      swap1\n      pop\n        /* \"#utility.yul\":13202:13277   */\n      swap2\n      swap1\n      pop\n      jump\t// out\n        /* \"#utility.yul\":13283:13552   */\n    tag_256:\n        /* \"#utility.yul\":13393:13432   */\n      tag_427\n        /* \"#utility.yul\":13424:13431   */\n      dup4\n        /* \"#utility.yul\":13393:13432   */\n      tag_254\n      jump\t// in\n    tag_427:\n        /* \"#utility.yul\":13454:13545   */\n      tag_428\n        /* \"#utility.yul\":13503:13544   */\n      tag_429\n        /* \"#utility.yul\":13527:13543   */\n      dup3\n        /* \"#utility.yul\":13503:13544   */\n      tag_255\n      jump\t// in\n    tag_429:\n        /* \"#utility.yul\":13495:13501   */\n      dup5\n        /* \"#utility.yul\":13488:13492   */\n      dup5\n        /* \"#utility.yul\":13482:13493   */\n      sload\n        /* \"#utility.yul\":13454:13545   */\n      tag_252\n      jump\t// in\n    tag_428:\n        /* \"#utility.yul\":13448:13452   */\n      dup3\n        /* \"#utility.yul\":13441:13546   */\n      sstore\n        /* \"#utility.yul\":13359:13552   */\n      pop\n        /* \"#utility.yul\":13283:13552   */\n      pop\n      pop\n      pop\n      jump\t// out\n        /* \"#utility.yul\":13558:13631   */\n    tag_257:\n        /* \"#utility.yul\":13603:13606   */\n      0x00\n        /* \"#utility.yul\":13558:13631   */\n      swap1\n      jump\t// out\n        /* \"#utility.yul\":13637:13826   */\n    tag_258:\n        /* \"#utility.yul\":13714:13746   */\n      tag_432\n      tag_257\n      jump\t// in\n    tag_432:\n        /* \"#utility.yul\":13755:13820   */\n      tag_433\n        /* \"#utility.yul\":13813:13819   */\n      dup2\n        /* \"#utility.yul\":13805:13811   */\n      dup5\n        /* \"#utility.yul\":13799:13803   */\n      dup5\n        /* \"#utility.yul\":13755:13820   */\n      tag_256\n      jump\t// in\n    tag_433:\n        /* \"#utility.yul\":13690:13826   */\n      pop\n        /* \"#utility.yul\":13637:13826   */\n      pop\n      pop\n      jump\t// out\n        /* \"#utility.yul\":13832:14018   */\n    tag_259:\n        /* \"#utility.yul\":13892:14012   */\n    tag_435:\n        /* \"#utility.yul\":13909:13912   */\n      dup2\n        /* \"#utility.yul\":13902:13907   */\n      dup2\n        /* \"#utility.yul\":13899:13913   */\n      lt\n        /* \"#utility.yul\":13892:14012   */\n      iszero\n      tag_437\n      jumpi\n        /* \"#utility.yul\":13963:14002   */\n      tag_438\n        /* \"#utility.yul\":14000:14001   */\n      0x00\n        /* \"#utility.yul\":13993:13998   */\n      dup3\n        /* \"#utility.yul\":13963:14002   */\n      tag_258\n      jump\t// in\n    tag_438:\n        /* \"#utility.yul\":13936:13937   */\n      0x01\n        /* \"#utility.yul\":13929:13934   */\n      dup2\n        /* \"#utility.yul\":13925:13938   */\n      add\n        /* \"#utility.yul\":13916:13938   */\n      swap1\n      pop\n        /* \"#utility.yul\":13892:14012   */\n      jump(tag_435)\n    tag_437:\n        /* \"#utility.yul\":13832:14018   */\n      pop\n      pop\n      jump\t// out\n        /* \"#utility.yul\":14024:14567   */\n    tag_260:\n        /* \"#utility.yul\":14125:14127   */\n      0x1f\n        /* \"#utility.yul\":14120:14123   */\n      dup3\n        /* \"#utility.yul\":14117:14128   */\n      gt\n        /* \"#utility.yul\":14114:14560   */\n      iszero\n      tag_440\n      jumpi\n        /* \"#utility.yul\":14159:14197   */\n      tag_441\n        /* \"#utility.yul\":14191:14196   */\n      dup2\n        /* \"#utility.yul\":14159:14197   */\n      tag_249\n      jump\t// in\n    tag_441:\n        /* \"#utility.yul\":14243:14272   */\n      tag_442\n        /* \"#utility.yul\":14261:14271   */\n      dup5\n        /* \"#utility.yul\":14243:14272   */\n      tag_250\n      jump\t// in\n    tag_442:\n        /* \"#utility.yul\":14233:14241   */\n      dup2\n        /* \"#utility.yul\":14229:14273   */\n      add\n        /* \"#utility.yul\":14426:14428   */\n      0x20\n        /* \"#utility.yul\":14414:14424   */\n      dup6\n        /* \"#utility.yul\":14411:14429   */\n      lt\n        /* \"#utility.yul\":14408:14457   */\n      iszero\n      tag_443\n      jumpi\n        /* \"#utility.yul\":14447:14455   */\n      dup2\n        /* \"#utility.yul\":14432:14455   */\n      swap1\n      pop\n        /* \"#utility.yul\":14408:14457   */\n    tag_443:\n        /* \"#utility.yul\":14470:14550   */\n      tag_444\n        /* \"#utility.yul\":14526:14548   */\n      tag_445\n        /* \"#utility.yul\":14544:14547   */\n      dup6\n        /* \"#utility.yul\":14526:14548   */\n      tag_250\n      jump\t// in\n    tag_445:\n        /* \"#utility.yul\":14516:14524   */\n      dup4\n        /* \"#utility.yul\":14512:14549   */\n      add\n        /* \"#utility.yul\":14499:14510   */\n      dup3\n        /* \"#utility.yul\":14470:14550   */\n      tag_259\n      jump\t// in\n    tag_444:\n        /* \"#utility.yul\":14129:14560   */\n      pop\n      pop\n        /* \"#utility.yul\":14114:14560   */\n    tag_440:\n        /* \"#utility.yul\":14024:14567   */\n      pop\n      pop\n      pop\n      jump\t// out\n        /* \"#utility.yul\":14573:14690   */\n    tag_261:\n        /* \"#utility.yul\":14627:14635   */\n      0x00\n        /* \"#utility.yul\":14677:14682   */\n      dup3\n        /* \"#utility.yul\":14671:14675   */\n      dup3\n        /* \"#utility.yul\":14667:14683   */\n      shr\n        /* \"#utility.yul\":14646:14683   */\n      swap1\n      pop\n        /* \"#utility.yul\":14573:14690   */\n      swap3\n      swap2\n      pop\n      pop\n      jump\t// out\n        /* \"#utility.yul\":14696:14865   */\n    tag_262:\n        /* \"#utility.yul\":14740:14746   */\n      0x00\n        /* \"#utility.yul\":14773:14824   */\n      tag_448\n        /* \"#utility.yul\":14821:14822   */\n      0x00\n        /* \"#utility.yul\":14817:14823   */\n      not\n        /* \"#utility.yul\":14809:14814   */\n      dup5\n        /* \"#utility.yul\":14806:14807   */\n      0x08\n        /* \"#utility.yul\":14802:14815   */\n      mul\n        /* \"#utility.yul\":14773:14824   */\n      tag_261\n      jump\t// in\n    tag_448:\n        /* \"#utility.yul\":14769:14825   */\n      not\n        /* \"#utility.yul\":14854:14858   */\n      dup1\n        /* \"#utility.yul\":14848:14852   */\n      dup4\n        /* \"#utility.yul\":14844:14859   */\n      and\n        /* \"#utility.yul\":14834:14859   */\n      swap2\n      pop\n        /* \"#utility.yul\":14747:14865   */\n      pop\n        /* \"#utility.yul\":14696:14865   */\n      swap3\n      swap2\n      pop\n      pop\n      jump\t// out\n        /* \"#utility.yul\":14870:15165   */\n    tag_263:\n        /* \"#utility.yul\":14946:14950   */\n      0x00\n        /* \"#utility.yul\":15092:15121   */\n      tag_450\n        /* \"#utility.yul\":15117:15120   */\n      dup4\n        /* \"#utility.yul\":15111:15115   */\n      dup4\n        /* \"#utility.yul\":15092:15121   */\n      tag_262\n      jump\t// in\n    tag_450:\n        /* \"#utility.yul\":15084:15121   */\n      swap2\n      pop\n        /* \"#utility.yul\":15154:15157   */\n      dup3\n        /* \"#utility.yul\":15151:15152   */\n      0x02\n        /* \"#utility.yul\":15147:15158   */\n      mul\n        /* \"#utility.yul\":15141:15145   */\n      dup3\n        /* \"#utility.yul\":15138:15159   */\n      or\n        /* \"#utility.yul\":15130:15159   */\n      swap1\n      pop\n        /* \"#utility.yul\":14870:15165   */\n      swap3\n      swap2\n      pop\n      pop\n      jump\t// out\n        /* \"#utility.yul\":15170:16565   */\n    tag_107:\n        /* \"#utility.yul\":15287:15324   */\n      tag_452\n        /* \"#utility.yul\":15320:15323   */\n      dup3\n        /* \"#utility.yul\":15287:15324   */\n      tag_216\n      jump\t// in\n    tag_452:\n        /* \"#utility.yul\":15389:15407   */\n      0xffffffffffffffff\n        /* \"#utility.yul\":15381:15387   */\n      dup2\n        /* \"#utility.yul\":15378:15408   */\n      gt\n        /* \"#utility.yul\":15375:15431   */\n      iszero\n      tag_453\n      jumpi\n        /* \"#utility.yul\":15411:15429   */\n      tag_454\n      tag_235\n      jump\t// in\n    tag_454:\n        /* \"#utility.yul\":15375:15431   */\n    tag_453:\n        /* \"#utility.yul\":15455:15493   */\n      tag_455\n        /* \"#utility.yul\":15487:15491   */\n      dup3\n        /* \"#utility.yul\":15481:15492   */\n      sload\n        /* \"#utility.yul\":15455:15493   */\n      tag_92\n      jump\t// in\n    tag_455:\n        /* \"#utility.yul\":15540:15607   */\n      tag_456\n        /* \"#utility.yul\":15600:15606   */\n      dup3\n        /* \"#utility.yul\":15592:15598   */\n      dup3\n        /* \"#utility.yul\":15586:15590   */\n      dup6\n        /* \"#utility.yul\":15540:15607   */\n      tag_260\n      jump\t// in\n    tag_456:\n        /* \"#utility.yul\":15634:15635   */\n      0x00\n        /* \"#utility.yul\":15658:15662   */\n      0x20\n        /* \"#utility.yul\":15645:15662   */\n      swap1\n      pop\n        /* \"#utility.yul\":15690:15692   */\n      0x1f\n        /* \"#utility.yul\":15682:15688   */\n      dup4\n        /* \"#utility.yul\":15679:15693   */\n      gt\n        /* \"#utility.yul\":15707:15708   */\n      0x01\n        /* \"#utility.yul\":15702:16320   */\n      dup2\n      eq\n      tag_458\n      jumpi\n        /* \"#utility.yul\":16364:16365   */\n      0x00\n        /* \"#utility.yul\":16381:16387   */\n      dup5\n        /* \"#utility.yul\":16378:16455   */\n      iszero\n      tag_459\n      jumpi\n        /* \"#utility.yul\":16430:16439   */\n      dup3\n        /* \"#utility.yul\":16425:16428   */\n      dup8\n        /* \"#utility.yul\":16421:16440   */\n      add\n        /* \"#utility.yul\":16415:16441   */\n      mload\n        /* \"#utility.yul\":16406:16441   */\n      swap1\n      pop\n        /* \"#utility.yul\":16378:16455   */\n    tag_459:\n        /* \"#utility.yul\":16481:16548   */\n      tag_460\n        /* \"#utility.yul\":16541:16547   */\n      dup6\n        /* \"#utility.yul\":16534:16539   */\n      dup3\n        /* \"#utility.yul\":16481:16548   */\n      tag_263\n      jump\t// in\n    tag_460:\n        /* \"#utility.yul\":16475:16479   */\n      dup7\n        /* \"#utility.yul\":16468:16549   */\n      sstore\n        /* \"#utility.yul\":16337:16559   */\n      pop\n        /* \"#utility.yul\":15672:16559   */\n      jump(tag_457)\n        /* \"#utility.yul\":15702:16320   */\n    tag_458:\n        /* \"#utility.yul\":15754:15758   */\n      0x1f\n        /* \"#utility.yul\":15750:15759   */\n      not\n        /* \"#utility.yul\":15742:15748   */\n      dup5\n        /* \"#utility.yul\":15738:15760   */\n      and\n        /* \"#utility.yul\":15788:15825   */\n      tag_461\n        /* \"#utility.yul\":15820:15824   */\n      dup7\n        /* \"#utility.yul\":15788:15825   */\n      tag_249\n      jump\t// in\n    tag_461:\n        /* \"#utility.yul\":15847:15848   */\n      0x00\n        /* \"#utility.yul\":15861:16069   */\n    tag_462:\n        /* \"#utility.yul\":15875:15882   */\n      dup3\n        /* \"#utility.yul\":15872:15873   */\n      dup2\n        /* \"#utility.yul\":15869:15883   */\n      lt\n        /* \"#utility.yul\":15861:16069   */\n      iszero\n      tag_464\n      jumpi\n        /* \"#utility.yul\":15954:15963   */\n      dup5\n        /* \"#utility.yul\":15949:15952   */\n      dup10\n        /* \"#utility.yul\":15945:15964   */\n      add\n        /* \"#utility.yul\":15939:15965   */\n      mload\n        /* \"#utility.yul\":15931:15937   */\n      dup3\n        /* \"#utility.yul\":15924:15966   */\n      sstore\n        /* \"#utility.yul\":16005:16006   */\n      0x01\n        /* \"#utility.yul\":15997:16003   */\n      dup3\n        /* \"#utility.yul\":15993:16007   */\n      add\n        /* \"#utility.yul\":15983:16007   */\n      swap2\n      pop\n        /* \"#utility.yul\":16052:16054   */\n      0x20\n        /* \"#utility.yul\":16041:16050   */\n      dup6\n        /* \"#utility.yul\":16037:16055   */\n      add\n        /* \"#utility.yul\":16024:16055   */\n      swap5\n      pop\n        /* \"#utility.yul\":15898:15902   */\n      0x20\n        /* \"#utility.yul\":15895:15896   */\n      dup2\n        /* \"#utility.yul\":15891:15903   */\n      add\n        /* \"#utility.yul\":15886:15903   */\n      swap1\n      pop\n        /* \"#utility.yul\":15861:16069   */\n      jump(tag_462)\n    tag_464:\n        /* \"#utility.yul\":16097:16103   */\n      dup7\n        /* \"#utility.yul\":16088:16095   */\n      dup4\n        /* \"#utility.yul\":16085:16104   */\n      lt\n        /* \"#utility.yul\":16082:16261   */\n      iszero\n      tag_465\n      jumpi\n        /* \"#utility.yul\":16155:16164   */\n      dup5\n        /* \"#utility.yul\":16150:16153   */\n      dup10\n        /* \"#utility.yul\":16146:16165   */\n      add\n        /* \"#utility.yul\":16140:16166   */\n      mload\n        /* \"#utility.yul\":16198:16246   */\n      tag_466\n        /* \"#utility.yul\":16240:16244   */\n      0x1f\n        /* \"#utility.yul\":16232:16238   */\n      dup10\n        /* \"#utility.yul\":16228:16245   */\n      and\n        /* \"#utility.yul\":16217:16226   */\n      dup3\n        /* \"#utility.yul\":16198:16246   */\n      tag_262\n      jump\t// in\n    tag_466:\n        /* \"#utility.yul\":16190:16196   */\n      dup4\n        /* \"#utility.yul\":16183:16247   */\n      sstore\n        /* \"#utility.yul\":16105:16261   */\n      pop\n        /* \"#utility.yul\":16082:16261   */\n    tag_465:\n        /* \"#utility.yul\":16307:16308   */\n      0x01\n        /* \"#utility.yul\":16303:16304   */\n      0x02\n        /* \"#utility.yul\":16295:16301   */\n      dup9\n        /* \"#utility.yul\":16291:16305   */\n      mul\n        /* \"#utility.yul\":16287:16309   */\n      add\n        /* \"#utility.yul\":16281:16285   */\n      dup9\n        /* \"#utility.yul\":16274:16310   */\n      sstore\n        /* \"#utility.yul\":15709:16320   */\n      pop\n      pop\n      pop\n        /* \"#utility.yul\":15672:16559   */\n    tag_457:\n      pop\n        /* \"#utility.yul\":15262:16565   */\n      pop\n      pop\n      pop\n        /* \"#utility.yul\":15170:16565   */\n      pop\n      pop\n      jump\t// out\n        /* \"#utility.yul\":16571:17085   */\n    tag_110:\n        /* \"#utility.yul\":16732:16736   */\n      0x00\n        /* \"#utility.yul\":16770:16772   */\n      0x40\n        /* \"#utility.yul\":16759:16768   */\n      dup3\n        /* \"#utility.yul\":16755:16773   */\n      add\n        /* \"#utility.yul\":16747:16773   */\n      swap1\n      pop\n        /* \"#utility.yul\":16819:16828   */\n      dup2\n        /* \"#utility.yul\":16813:16817   */\n      dup2\n        /* \"#utility.yul\":16809:16829   */\n      sub\n        /* \"#utility.yul\":16805:16806   */\n      0x00\n        /* \"#utility.yul\":16794:16803   */\n      dup4\n        /* \"#utility.yul\":16790:16807   */\n      add\n        /* \"#utility.yul\":16783:16830   */\n      mstore\n        /* \"#utility.yul\":16847:16925   */\n      tag_468\n        /* \"#utility.yul\":16920:16924   */\n      dup2\n        /* \"#utility.yul\":16911:16917   */\n      dup6\n        /* \"#utility.yul\":16847:16925   */\n      tag_220\n      jump\t// in\n    tag_468:\n        /* \"#utility.yul\":16839:16925   */\n      swap1\n      pop\n        /* \"#utility.yul\":16972:16981   */\n      dup2\n        /* \"#utility.yul\":16966:16970   */\n      dup2\n        /* \"#utility.yul\":16962:16982   */\n      sub\n        /* \"#utility.yul\":16957:16959   */\n      0x20\n        /* \"#utility.yul\":16946:16955   */\n      dup4\n        /* \"#utility.yul\":16942:16960   */\n      add\n        /* \"#utility.yul\":16935:16983   */\n      mstore\n        /* \"#utility.yul\":17000:17078   */\n      tag_469\n        /* \"#utility.yul\":17073:17077   */\n      dup2\n        /* \"#utility.yul\":17064:17070   */\n      dup5\n        /* \"#utility.yul\":17000:17078   */\n      tag_220\n      jump\t// in\n    tag_469:\n        /* \"#utility.yul\":16992:17078   */\n      swap1\n      pop\n        /* \"#utility.yul\":16571:17085   */\n      swap4\n      swap3\n      pop\n      pop\n      pop\n      jump\t// out\n        /* \"#utility.yul\":17091:17272   */\n    tag_264:\n        /* \"#utility.yul\":17231:17264   */\n      0x4d75737420686f6c6420544e5420746f206372656174652061204e6f74652e00\n        /* \"#utility.yul\":17227:17228   */\n      0x00\n        /* \"#utility.yul\":17219:17225   */\n      dup3\n        /* \"#utility.yul\":17215:17229   */\n      add\n        /* \"#utility.yul\":17208:17265   */\n      mstore\n        /* \"#utility.yul\":17091:17272   */\n      pop\n      jump\t// out\n        /* \"#utility.yul\":17278:17644   */\n    tag_265:\n        /* \"#utility.yul\":17420:17423   */\n      0x00\n        /* \"#utility.yul\":17441:17508   */\n      tag_472\n        /* \"#utility.yul\":17505:17507   */\n      0x1f\n        /* \"#utility.yul\":17500:17503   */\n      dup4\n        /* \"#utility.yul\":17441:17508   */\n      tag_217\n      jump\t// in\n    tag_472:\n        /* \"#utility.yul\":17434:17508   */\n      swap2\n      pop\n        /* \"#utility.yul\":17517:17610   */\n      tag_473\n        /* \"#utility.yul\":17606:17609   */\n      dup3\n        /* \"#utility.yul\":17517:17610   */\n      tag_264\n      jump\t// in\n    tag_473:\n        /* \"#utility.yul\":17635:17637   */\n      0x20\n        /* \"#utility.yul\":17630:17633   */\n      dup3\n        /* \"#utility.yul\":17626:17638   */\n      add\n        /* \"#utility.yul\":17619:17638   */\n      swap1\n      pop\n        /* \"#utility.yul\":17278:17644   */\n      swap2\n      swap1\n      pop\n      jump\t// out\n        /* \"#utility.yul\":17650:18069   */\n    tag_122:\n        /* \"#utility.yul\":17816:17820   */\n      0x00\n        /* \"#utility.yul\":17854:17856   */\n      0x20\n        /* \"#utility.yul\":17843:17852   */\n      dup3\n        /* \"#utility.yul\":17839:17857   */\n      add\n        /* \"#utility.yul\":17831:17857   */\n      swap1\n      pop\n        /* \"#utility.yul\":17903:17912   */\n      dup2\n        /* \"#utility.yul\":17897:17901   */\n      dup2\n        /* \"#utility.yul\":17893:17913   */\n      sub\n        /* \"#utility.yul\":17889:17890   */\n      0x00\n        /* \"#utility.yul\":17878:17887   */\n      dup4\n        /* \"#utility.yul\":17874:17891   */\n      add\n        /* \"#utility.yul\":17867:17914   */\n      mstore\n        /* \"#utility.yul\":17931:18062   */\n      tag_475\n        /* \"#utility.yul\":18057:18061   */\n      dup2\n        /* \"#utility.yul\":17931:18062   */\n      tag_265\n      jump\t// in\n    tag_475:\n        /* \"#utility.yul\":17923:18062   */\n      swap1\n      pop\n        /* \"#utility.yul\":17650:18069   */\n      swap2\n      swap1\n      pop\n      jump\t// out\n        /* \"#utility.yul\":18075:18255   */\n    tag_266:\n        /* \"#utility.yul\":18123:18200   */\n      0x4e487b7100000000000000000000000000000000000000000000000000000000\n        /* \"#utility.yul\":18120:18121   */\n      0x00\n        /* \"#utility.yul\":18113:18201   */\n      mstore\n        /* \"#utility.yul\":18220:18224   */\n      0x11\n        /* \"#utility.yul\":18217:18218   */\n      0x04\n        /* \"#utility.yul\":18210:18225   */\n      mstore\n        /* \"#utility.yul\":18244:18248   */\n      0x24\n        /* \"#utility.yul\":18241:18242   */\n      0x00\n        /* \"#utility.yul\":18234:18249   */\n      revert\n        /* \"#utility.yul\":18261:18452   */\n    tag_137:\n        /* \"#utility.yul\":18301:18304   */\n      0x00\n        /* \"#utility.yul\":18320:18340   */\n      tag_478\n        /* \"#utility.yul\":18338:18339   */\n      dup3\n        /* \"#utility.yul\":18320:18340   */\n      tag_228\n      jump\t// in\n    tag_478:\n        /* \"#utility.yul\":18315:18340   */\n      swap2\n      pop\n        /* \"#utility.yul\":18354:18374   */\n      tag_479\n        /* \"#utility.yul\":18372:18373   */\n      dup4\n        /* \"#utility.yul\":18354:18374   */\n      tag_228\n      jump\t// in\n    tag_479:\n        /* \"#utility.yul\":18349:18374   */\n      swap3\n      pop\n        /* \"#utility.yul\":18397:18398   */\n      dup3\n        /* \"#utility.yul\":18394:18395   */\n      dup3\n        /* \"#utility.yul\":18390:18399   */\n      add\n        /* \"#utility.yul\":18383:18399   */\n      swap1\n      pop\n        /* \"#utility.yul\":18418:18421   */\n      dup1\n        /* \"#utility.yul\":18415:18416   */\n      dup3\n        /* \"#utility.yul\":18412:18422   */\n      gt\n        /* \"#utility.yul\":18409:18445   */\n      iszero\n      tag_480\n      jumpi\n        /* \"#utility.yul\":18425:18443   */\n      tag_481\n      tag_266\n      jump\t// in\n    tag_481:\n        /* \"#utility.yul\":18409:18445   */\n    tag_480:\n        /* \"#utility.yul\":18261:18452   */\n      swap3\n      swap2\n      pop\n      pop\n      jump\t// out\n        /* \"#utility.yul\":18458:18682   */\n    tag_267:\n        /* \"#utility.yul\":18598:18632   */\n      0x45524332303a2064656372656173656420616c6c6f77616e63652062656c6f77\n        /* \"#utility.yul\":18594:18595   */\n      0x00\n        /* \"#utility.yul\":18586:18592   */\n      dup3\n        /* \"#utility.yul\":18582:18596   */\n      add\n        /* \"#utility.yul\":18575:18633   */\n      mstore\n        /* \"#utility.yul\":18667:18674   */\n      0x207a65726f000000000000000000000000000000000000000000000000000000\n        /* \"#utility.yul\":18662:18664   */\n      0x20\n        /* \"#utility.yul\":18654:18660   */\n      dup3\n        /* \"#utility.yul\":18650:18665   */\n      add\n        /* \"#utility.yul\":18643:18675   */\n      mstore\n        /* \"#utility.yul\":18458:18682   */\n      pop\n      jump\t// out\n        /* \"#utility.yul\":18688:19054   */\n    tag_268:\n        /* \"#utility.yul\":18830:18833   */\n      0x00\n        /* \"#utility.yul\":18851:18918   */\n      tag_484\n        /* \"#utility.yul\":18915:18917   */\n      0x25\n        /* \"#utility.yul\":18910:18913   */\n      dup4\n        /* \"#utility.yul\":18851:18918   */\n      tag_217\n      jump\t// in\n    tag_484:\n        /* \"#utility.yul\":18844:18918   */\n      swap2\n      pop\n        /* \"#utility.yul\":18927:19020   */\n      tag_485\n        /* \"#utility.yul\":19016:19019   */\n      dup3\n        /* \"#utility.yul\":18927:19020   */\n      tag_267\n      jump\t// in\n    tag_485:\n        /* \"#utility.yul\":19045:19047   */\n      0x40\n        /* \"#utility.yul\":19040:19043   */\n      dup3\n        /* \"#utility.yul\":19036:19048   */\n      add\n        /* \"#utility.yul\":19029:19048   */\n      swap1\n      pop\n        /* \"#utility.yul\":18688:19054   */\n      swap2\n      swap1\n      pop\n      jump\t// out\n        /* \"#utility.yul\":19060:19479   */\n    tag_150:\n        /* \"#utility.yul\":19226:19230   */\n      0x00\n        /* \"#utility.yul\":19264:19266   */\n      0x20\n        /* \"#utility.yul\":19253:19262   */\n      dup3\n        /* \"#utility.yul\":19249:19267   */\n      add\n        /* \"#utility.yul\":19241:19267   */\n      swap1\n      pop\n        /* \"#utility.yul\":19313:19322   */\n      dup2\n        /* \"#utility.yul\":19307:19311   */\n      dup2\n        /* \"#utility.yul\":19303:19323   */\n      sub\n        /* \"#utility.yul\":19299:19300   */\n      0x00\n        /* \"#utility.yul\":19288:19297   */\n      dup4\n        /* \"#utility.yul\":19284:19301   */\n      add\n        /* \"#utility.yul\":19277:19324   */\n      mstore\n        /* \"#utility.yul\":19341:19472   */\n      tag_487\n        /* \"#utility.yul\":19467:19471   */\n      dup2\n        /* \"#utility.yul\":19341:19472   */\n      tag_268\n      jump\t// in\n    tag_487:\n        /* \"#utility.yul\":19333:19472   */\n      swap1\n      pop\n        /* \"#utility.yul\":19060:19479   */\n      swap2\n      swap1\n      pop\n      jump\t// out\n        /* \"#utility.yul\":19485:19707   */\n    tag_269:\n        /* \"#utility.yul\":19625:19659   */\n      0x4f6e6c79207468652063726561746f72206d61792064656c6574652061204e6f\n        /* \"#utility.yul\":19621:19622   */\n      0x00\n        /* \"#utility.yul\":19613:19619   */\n      dup3\n        /* \"#utility.yul\":19609:19623   */\n      add\n        /* \"#utility.yul\":19602:19660   */\n      mstore\n        /* \"#utility.yul\":19694:19699   */\n      0x74652e0000000000000000000000000000000000000000000000000000000000\n        /* \"#utility.yul\":19689:19691   */\n      0x20\n        /* \"#utility.yul\":19681:19687   */\n      dup3\n        /* \"#utility.yul\":19677:19692   */\n      add\n        /* \"#utility.yul\":19670:19700   */\n      mstore\n        /* \"#utility.yul\":19485:19707   */\n      pop\n      jump\t// out\n        /* \"#utility.yul\":19713:20079   */\n    tag_270:\n        /* \"#utility.yul\":19855:19858   */\n      0x00\n        /* \"#utility.yul\":19876:19943   */\n      tag_490\n        /* \"#utility.yul\":19940:19942   */\n      0x23\n        /* \"#utility.yul\":19935:19938   */\n      dup4\n        /* \"#utility.yul\":19876:19943   */\n      tag_217\n      jump\t// in\n    tag_490:\n        /* \"#utility.yul\":19869:19943   */\n      swap2\n      pop\n        /* \"#utility.yul\":19952:20045   */\n      tag_491\n        /* \"#utility.yul\":20041:20044   */\n      dup3\n        /* \"#utility.yul\":19952:20045   */\n      tag_269\n      jump\t// in\n    tag_491:\n        /* \"#utility.yul\":20070:20072   */\n      0x40\n        /* \"#utility.yul\":20065:20068   */\n      dup3\n        /* \"#utility.yul\":20061:20073   */\n      add\n        /* \"#utility.yul\":20054:20073   */\n      swap1\n      pop\n        /* \"#utility.yul\":19713:20079   */\n      swap2\n      swap1\n      pop\n      jump\t// out\n        /* \"#utility.yul\":20085:20504   */\n    tag_158:\n        /* \"#utility.yul\":20251:20255   */\n      0x00\n        /* \"#utility.yul\":20289:20291   */\n      0x20\n        /* \"#utility.yul\":20278:20287   */\n      dup3\n        /* \"#utility.yul\":20274:20292   */\n      add\n        /* \"#utility.yul\":20266:20292   */\n      swap1\n      pop\n        /* \"#utility.yul\":20338:20347   */\n      dup2\n        /* \"#utility.yul\":20332:20336   */\n      dup2\n        /* \"#utility.yul\":20328:20348   */\n      sub\n        /* \"#utility.yul\":20324:20325   */\n      0x00\n        /* \"#utility.yul\":20313:20322   */\n      dup4\n        /* \"#utility.yul\":20309:20326   */\n      add\n        /* \"#utility.yul\":20302:20349   */\n      mstore\n        /* \"#utility.yul\":20366:20497   */\n      tag_493\n        /* \"#utility.yul\":20492:20496   */\n      dup2\n        /* \"#utility.yul\":20366:20497   */\n      tag_270\n      jump\t// in\n    tag_493:\n        /* \"#utility.yul\":20358:20497   */\n      swap1\n      pop\n        /* \"#utility.yul\":20085:20504   */\n      swap2\n      swap1\n      pop\n      jump\t// out\n        /* \"#utility.yul\":20510:20733   */\n    tag_271:\n        /* \"#utility.yul\":20650:20684   */\n      0x45524332303a20617070726f76652066726f6d20746865207a65726f20616464\n        /* \"#utility.yul\":20646:20647   */\n      0x00\n        /* \"#utility.yul\":20638:20644   */\n      dup3\n        /* \"#utility.yul\":20634:20648   */\n      add\n        /* \"#utility.yul\":20627:20685   */\n      mstore\n        /* \"#utility.yul\":20719:20725   */\n      0x7265737300000000000000000000000000000000000000000000000000000000\n        /* \"#utility.yul\":20714:20716   */\n      0x20\n        /* \"#utility.yul\":20706:20712   */\n      dup3\n        /* \"#utility.yul\":20702:20717   */\n      add\n        /* \"#utility.yul\":20695:20726   */\n      mstore\n        /* \"#utility.yul\":20510:20733   */\n      pop\n      jump\t// out\n        /* \"#utility.yul\":20739:21105   */\n    tag_272:\n        /* \"#utility.yul\":20881:20884   */\n      0x00\n        /* \"#utility.yul\":20902:20969   */\n      tag_496\n        /* \"#utility.yul\":20966:20968   */\n      0x24\n        /* \"#utility.yul\":20961:20964   */\n      dup4\n        /* \"#utility.yul\":20902:20969   */\n      tag_217\n      jump\t// in\n    tag_496:\n        /* \"#utility.yul\":20895:20969   */\n      swap2\n      pop\n        /* \"#utility.yul\":20978:21071   */\n      tag_497\n        /* \"#utility.yul\":21067:21070   */\n      dup3\n        /* \"#utility.yul\":20978:21071   */\n      tag_271\n      jump\t// in\n    tag_497:\n        /* \"#utility.yul\":21096:21098   */\n      0x40\n        /* \"#utility.yul\":21091:21094   */\n      dup3\n        /* \"#utility.yul\":21087:21099   */\n      add\n        /* \"#utility.yul\":21080:21099   */\n      swap1\n      pop\n        /* \"#utility.yul\":20739:21105   */\n      swap2\n      swap1\n      pop\n      jump\t// out\n        /* \"#utility.yul\":21111:21530   */\n    tag_178:\n        /* \"#utility.yul\":21277:21281   */\n      0x00\n        /* \"#utility.yul\":21315:21317   */\n      0x20\n        /* \"#utility.yul\":21304:21313   */\n      dup3\n        /* \"#utility.yul\":21300:21318   */\n      add\n        /* \"#utility.yul\":21292:21318   */\n      swap1\n      pop\n        /* \"#utility.yul\":21364:21373   */\n      dup2\n        /* \"#utility.yul\":21358:21362   */\n      dup2\n        /* \"#utility.yul\":21354:21374   */\n      sub\n        /* \"#utility.yul\":21350:21351   */\n      0x00\n        /* \"#utility.yul\":21339:21348   */\n      dup4\n        /* \"#utility.yul\":21335:21352   */\n      add\n        /* \"#utility.yul\":21328:21375   */\n      mstore\n        /* \"#utility.yul\":21392:21523   */\n      tag_499\n        /* \"#utility.yul\":21518:21522   */\n      dup2\n        /* \"#utility.yul\":21392:21523   */\n      tag_272\n      jump\t// in\n    tag_499:\n        /* \"#utility.yul\":21384:21523   */\n      swap1\n      pop\n        /* \"#utility.yul\":21111:21530   */\n      swap2\n      swap1\n      pop\n      jump\t// out\n        /* \"#utility.yul\":21536:21757   */\n    tag_273:\n        /* \"#utility.yul\":21676:21710   */\n      0x45524332303a20617070726f766520746f20746865207a65726f206164647265\n        /* \"#utility.yul\":21672:21673   */\n      0x00\n        /* \"#utility.yul\":21664:21670   */\n      dup3\n        /* \"#utility.yul\":21660:21674   */\n      add\n        /* \"#utility.yul\":21653:21711   */\n      mstore\n        /* \"#utility.yul\":21745:21749   */\n      0x7373000000000000000000000000000000000000000000000000000000000000\n        /* \"#utility.yul\":21740:21742   */\n      0x20\n        /* \"#utility.yul\":21732:21738   */\n      dup3\n        /* \"#utility.yul\":21728:21743   */\n      add\n        /* \"#utility.yul\":21721:21750   */\n      mstore\n        /* \"#utility.yul\":21536:21757   */\n      pop\n      jump\t// out\n        /* \"#utility.yul\":21763:22129   */\n    tag_274:\n        /* \"#utility.yul\":21905:21908   */\n      0x00\n        /* \"#utility.yul\":21926:21993   */\n      tag_502\n        /* \"#utility.yul\":21990:21992   */\n      0x22\n        /* \"#utility.yul\":21985:21988   */\n      dup4\n        /* \"#utility.yul\":21926:21993   */\n      tag_217\n      jump\t// in\n    tag_502:\n        /* \"#utility.yul\":21919:21993   */\n      swap2\n      pop\n        /* \"#utility.yul\":22002:22095   */\n      tag_503\n        /* \"#utility.yul\":22091:22094   */\n      dup3\n        /* \"#utility.yul\":22002:22095   */\n      tag_273\n      jump\t// in\n    tag_503:\n        /* \"#utility.yul\":22120:22122   */\n      0x40\n        /* \"#utility.yul\":22115:22118   */\n      dup3\n        /* \"#utility.yul\":22111:22123   */\n      add\n        /* \"#utility.yul\":22104:22123   */\n      swap1\n      pop\n        /* \"#utility.yul\":21763:22129   */\n      swap2\n      swap1\n      pop\n      jump\t// out\n        /* \"#utility.yul\":22135:22554   */\n    tag_181:\n        /* \"#utility.yul\":22301:22305   */\n      0x00\n        /* \"#utility.yul\":22339:22341   */\n      0x20\n        /* \"#utility.yul\":22328:22337   */\n      dup3\n        /* \"#utility.yul\":22324:22342   */\n      add\n        /* \"#utility.yul\":22316:22342   */\n      swap1\n      pop\n        /* \"#utility.yul\":22388:22397   */\n      dup2\n        /* \"#utility.yul\":22382:22386   */\n      dup2\n        /* \"#utility.yul\":22378:22398   */\n      sub\n        /* \"#utility.yul\":22374:22375   */\n      0x00\n        /* \"#utility.yul\":22363:22372   */\n      dup4\n        /* \"#utility.yul\":22359:22376   */\n      add\n        /* \"#utility.yul\":22352:22399   */\n      mstore\n        /* \"#utility.yul\":22416:22547   */\n      tag_505\n        /* \"#utility.yul\":22542:22546   */\n      dup2\n        /* \"#utility.yul\":22416:22547   */\n      tag_274\n      jump\t// in\n    tag_505:\n        /* \"#utility.yul\":22408:22547   */\n      swap1\n      pop\n        /* \"#utility.yul\":22135:22554   */\n      swap2\n      swap1\n      pop\n      jump\t// out\n        /* \"#utility.yul\":22560:22739   */\n    tag_275:\n        /* \"#utility.yul\":22700:22731   */\n      0x45524332303a20696e73756666696369656e7420616c6c6f77616e6365000000\n        /* \"#utility.yul\":22696:22697   */\n      0x00\n        /* \"#utility.yul\":22688:22694   */\n      dup3\n        /* \"#utility.yul\":22684:22698   */\n      add\n        /* \"#utility.yul\":22677:22732   */\n      mstore\n        /* \"#utility.yul\":22560:22739   */\n      pop\n      jump\t// out\n        /* \"#utility.yul\":22745:23111   */\n    tag_276:\n        /* \"#utility.yul\":22887:22890   */\n      0x00\n        /* \"#utility.yul\":22908:22975   */\n      tag_508\n        /* \"#utility.yul\":22972:22974   */\n      0x1d\n        /* \"#utility.yul\":22967:22970   */\n      dup4\n        /* \"#utility.yul\":22908:22975   */\n      tag_217\n      jump\t// in\n    tag_508:\n        /* \"#utility.yul\":22901:22975   */\n      swap2\n      pop\n        /* \"#utility.yul\":22984:23077   */\n      tag_509\n        /* \"#utility.yul\":23073:23076   */\n      dup3\n        /* \"#utility.yul\":22984:23077   */\n      tag_275\n      jump\t// in\n    tag_509:\n        /* \"#utility.yul\":23102:23104   */\n      0x20\n        /* \"#utility.yul\":23097:23100   */\n      dup3\n        /* \"#utility.yul\":23093:23105   */\n      add\n        /* \"#utility.yul\":23086:23105   */\n      swap1\n      pop\n        /* \"#utility.yul\":22745:23111   */\n      swap2\n      swap1\n      pop\n      jump\t// out\n        /* \"#utility.yul\":23117:23536   */\n    tag_188:\n        /* \"#utility.yul\":23283:23287   */\n      0x00\n        /* \"#utility.yul\":23321:23323   */\n      0x20\n        /* \"#utility.yul\":23310:23319   */\n      dup3\n        /* \"#utility.yul\":23306:23324   */\n      add\n        /* \"#utility.yul\":23298:23324   */\n      swap1\n      pop\n        /* \"#utility.yul\":23370:23379   */\n      dup2\n        /* \"#utility.yul\":23364:23368   */\n      dup2\n        /* \"#utility.yul\":23360:23380   */\n      sub\n        /* \"#utility.yul\":23356:23357   */\n      0x00\n        /* \"#utility.yul\":23345:23354   */\n      dup4\n        /* \"#utility.yul\":23341:23358   */\n      add\n        /* \"#utility.yul\":23334:23381   */\n      mstore\n        /* \"#utility.yul\":23398:23529   */\n      tag_511\n        /* \"#utility.yul\":23524:23528   */\n      dup2\n        /* \"#utility.yul\":23398:23529   */\n      tag_276\n      jump\t// in\n    tag_511:\n        /* \"#utility.yul\":23390:23529   */\n      swap1\n      pop\n        /* \"#utility.yul\":23117:23536   */\n      swap2\n      swap1\n      pop\n      jump\t// out\n        /* \"#utility.yul\":23542:23766   */\n    tag_277:\n        /* \"#utility.yul\":23682:23716   */\n      0x45524332303a207472616e736665722066726f6d20746865207a65726f206164\n        /* \"#utility.yul\":23678:23679   */\n      0x00\n        /* \"#utility.yul\":23670:23676   */\n      dup3\n        /* \"#utility.yul\":23666:23680   */\n      add\n        /* \"#utility.yul\":23659:23717   */\n      mstore\n        /* \"#utility.yul\":23751:23758   */\n      0x6472657373000000000000000000000000000000000000000000000000000000\n        /* \"#utility.yul\":23746:23748   */\n      0x20\n        /* \"#utility.yul\":23738:23744   */\n      dup3\n        /* \"#utility.yul\":23734:23749   */\n      add\n        /* \"#utility.yul\":23727:23759   */\n      mstore\n        /* \"#utility.yul\":23542:23766   */\n      pop\n      jump\t// out\n        /* \"#utility.yul\":23772:24138   */\n    tag_278:\n        /* \"#utility.yul\":23914:23917   */\n      0x00\n        /* \"#utility.yul\":23935:24002   */\n      tag_514\n        /* \"#utility.yul\":23999:24001   */\n      0x25\n        /* \"#utility.yul\":23994:23997   */\n      dup4\n        /* \"#utility.yul\":23935:24002   */\n      tag_217\n      jump\t// in\n    tag_514:\n        /* \"#utility.yul\":23928:24002   */\n      swap2\n      pop\n        /* \"#utility.yul\":24011:24104   */\n      tag_515\n        /* \"#utility.yul\":24100:24103   */\n      dup3\n        /* \"#utility.yul\":24011:24104   */\n      tag_277\n      jump\t// in\n    tag_515:\n        /* \"#utility.yul\":24129:24131   */\n      0x40\n        /* \"#utility.yul\":24124:24127   */\n      dup3\n        /* \"#utility.yul\":24120:24132   */\n      add\n        /* \"#utility.yul\":24113:24132   */\n      swap1\n      pop\n        /* \"#utility.yul\":23772:24138   */\n      swap2\n      swap1\n      pop\n      jump\t// out\n        /* \"#utility.yul\":24144:24563   */\n    tag_193:\n        /* \"#utility.yul\":24310:24314   */\n      0x00\n        /* \"#utility.yul\":24348:24350   */\n      0x20\n        /* \"#utility.yul\":24337:24346   */\n      dup3\n        /* \"#utility.yul\":24333:24351   */\n      add\n        /* \"#utility.yul\":24325:24351   */\n      swap1\n      pop\n        /* \"#utility.yul\":24397:24406   */\n      dup2\n        /* \"#utility.yul\":24391:24395   */\n      dup2\n        /* \"#utility.yul\":24387:24407   */\n      sub\n        /* \"#utility.yul\":24383:24384   */\n      0x00\n        /* \"#utility.yul\":24372:24381   */\n      dup4\n        /* \"#utility.yul\":24368:24385   */\n      add\n        /* \"#utility.yul\":24361:24408   */\n      mstore\n        /* \"#utility.yul\":24425:24556   */\n      tag_517\n        /* \"#utility.yul\":24551:24555   */\n      dup2\n        /* \"#utility.yul\":24425:24556   */\n      tag_278\n      jump\t// in\n    tag_517:\n        /* \"#utility.yul\":24417:24556   */\n      swap1\n      pop\n        /* \"#utility.yul\":24144:24563   */\n      swap2\n      swap1\n      pop\n      jump\t// out\n        /* \"#utility.yul\":24569:24791   */\n    tag_279:\n        /* \"#utility.yul\":24709:24743   */\n      0x45524332303a207472616e7366657220746f20746865207a65726f2061646472\n        /* \"#utility.yul\":24705:24706   */\n      0x00\n        /* \"#utility.yul\":24697:24703   */\n      dup3\n        /* \"#utility.yul\":24693:24707   */\n      add\n        /* \"#utility.yul\":24686:24744   */\n      mstore\n        /* \"#utility.yul\":24778:24783   */\n      0x6573730000000000000000000000000000000000000000000000000000000000\n        /* \"#utility.yul\":24773:24775   */\n      0x20\n        /* \"#utility.yul\":24765:24771   */\n      dup3\n        /* \"#utility.yul\":24761:24776   */\n      add\n        /* \"#utility.yul\":24754:24784   */\n      mstore\n        /* \"#utility.yul\":24569:24791   */\n      pop\n      jump\t// out\n        /* \"#utility.yul\":24797:25163   */\n    tag_280:\n        /* \"#utility.yul\":24939:24942   */\n      0x00\n        /* \"#utility.yul\":24960:25027   */\n      tag_520\n        /* \"#utility.yul\":25024:25026   */\n      0x23\n        /* \"#utility.yul\":25019:25022   */\n      dup4\n        /* \"#utility.yul\":24960:25027   */\n      tag_217\n      jump\t// in\n    tag_520:\n        /* \"#utility.yul\":24953:25027   */\n      swap2\n      pop\n        /* \"#utility.yul\":25036:25129   */\n      tag_521\n        /* \"#utility.yul\":25125:25128   */\n      dup3\n        /* \"#utility.yul\":25036:25129   */\n      tag_279\n      jump\t// in\n    tag_521:\n        /* \"#utility.yul\":25154:25156   */\n      0x40\n        /* \"#utility.yul\":25149:25152   */\n      dup3\n        /* \"#utility.yul\":25145:25157   */\n      add\n        /* \"#utility.yul\":25138:25157   */\n      swap1\n      pop\n        /* \"#utility.yul\":24797:25163   */\n      swap2\n      swap1\n      pop\n      jump\t// out\n        /* \"#utility.yul\":25169:25588   */\n    tag_196:\n        /* \"#utility.yul\":25335:25339   */\n      0x00\n        /* \"#utility.yul\":25373:25375   */\n      0x20\n        /* \"#utility.yul\":25362:25371   */\n      dup3\n        /* \"#utility.yul\":25358:25376   */\n      add\n        /* \"#utility.yul\":25350:25376   */\n      swap1\n      pop\n        /* \"#utility.yul\":25422:25431   */\n      dup2\n        /* \"#utility.yul\":25416:25420   */\n      dup2\n        /* \"#utility.yul\":25412:25432   */\n      sub\n        /* \"#utility.yul\":25408:25409   */\n      0x00\n        /* \"#utility.yul\":25397:25406   */\n      dup4\n        /* \"#utility.yul\":25393:25410   */\n      add\n        /* \"#utility.yul\":25386:25433   */\n      mstore\n        /* \"#utility.yul\":25450:25581   */\n      tag_523\n        /* \"#utility.yul\":25576:25580   */\n      dup2\n        /* \"#utility.yul\":25450:25581   */\n      tag_280\n      jump\t// in\n    tag_523:\n        /* \"#utility.yul\":25442:25581   */\n      swap1\n      pop\n        /* \"#utility.yul\":25169:25588   */\n      swap2\n      swap1\n      pop\n      jump\t// out\n        /* \"#utility.yul\":25594:25819   */\n    tag_281:\n        /* \"#utility.yul\":25734:25768   */\n      0x45524332303a207472616e7366657220616d6f756e7420657863656564732062\n        /* \"#utility.yul\":25730:25731   */\n      0x00\n        /* \"#utility.yul\":25722:25728   */\n      dup3\n        /* \"#utility.yul\":25718:25732   */\n      add\n        /* \"#utility.yul\":25711:25769   */\n      mstore\n        /* \"#utility.yul\":25803:25811   */\n      0x616c616e63650000000000000000000000000000000000000000000000000000\n        /* \"#utility.yul\":25798:25800   */\n      0x20\n        /* \"#utility.yul\":25790:25796   */\n      dup3\n        /* \"#utility.yul\":25786:25801   */\n      add\n        /* \"#utility.yul\":25779:25812   */\n      mstore\n        /* \"#utility.yul\":25594:25819   */\n      pop\n      jump\t// out\n        /* \"#utility.yul\":25825:26191   */\n    tag_282:\n        /* \"#utility.yul\":25967:25970   */\n      0x00\n        /* \"#utility.yul\":25988:26055   */\n      tag_526\n        /* \"#utility.yul\":26052:26054   */\n      0x26\n        /* \"#utility.yul\":26047:26050   */\n      dup4\n        /* \"#utility.yul\":25988:26055   */\n      tag_217\n      jump\t// in\n    tag_526:\n        /* \"#utility.yul\":25981:26055   */\n      swap2\n      pop\n        /* \"#utility.yul\":26064:26157   */\n      tag_527\n        /* \"#utility.yul\":26153:26156   */\n      dup3\n        /* \"#utility.yul\":26064:26157   */\n      tag_281\n      jump\t// in\n    tag_527:\n        /* \"#utility.yul\":26182:26184   */\n      0x40\n        /* \"#utility.yul\":26177:26180   */\n      dup3\n        /* \"#utility.yul\":26173:26185   */\n      add\n        /* \"#utility.yul\":26166:26185   */\n      swap1\n      pop\n        /* \"#utility.yul\":25825:26191   */\n      swap2\n      swap1\n      pop\n      jump\t// out\n        /* \"#utility.yul\":26197:26616   */\n    tag_201:\n        /* \"#utility.yul\":26363:26367   */\n      0x00\n        /* \"#utility.yul\":26401:26403   */\n      0x20\n        /* \"#utility.yul\":26390:26399   */\n      dup3\n        /* \"#utility.yul\":26386:26404   */\n      add\n        /* \"#utility.yul\":26378:26404   */\n      swap1\n      pop\n        /* \"#utility.yul\":26450:26459   */\n      dup2\n        /* \"#utility.yul\":26444:26448   */\n      dup2\n        /* \"#utility.yul\":26440:26460   */\n      sub\n        /* \"#utility.yul\":26436:26437   */\n      0x00\n        /* \"#utility.yul\":26425:26434   */\n      dup4\n        /* \"#utility.yul\":26421:26438   */\n      add\n        /* \"#utility.yul\":26414:26461   */\n      mstore\n        /* \"#utility.yul\":26478:26609   */\n      tag_529\n        /* \"#utility.yul\":26604:26608   */\n      dup2\n        /* \"#utility.yul\":26478:26609   */\n      tag_282\n      jump\t// in\n    tag_529:\n        /* \"#utility.yul\":26470:26609   */\n      swap1\n      pop\n        /* \"#utility.yul\":26197:26616   */\n      swap2\n      swap1\n      pop\n      jump\t// out\n\n    auxdata: 0xa2646970667358221220ce79d28371e17e868f08159d0b430a87466736c77b8571e09c4a484aa055c23364736f6c63430008120033\n}\n",
				"bytecode": {
					"linkReferences": {},
					"object": "60806040523480156200001157600080fd5b5060405162002c0038038062002c008339818101604052810190620000379190620004e2565b6040518060400160405280601081526020017f54696e79204e6f74657320546f6b656e000000000000000000000000000000008152506040518060400160405280600381526020017f544e5400000000000000000000000000000000000000000000000000000000008152508160039081620000b49190620007b2565b508060049081620000c69190620007b2565b5050506200010933620000de620001cf60201b60201c565b600a620000ec919062000a29565b6302cd29c0620000fd919062000a7a565b620001d860201b60201c565b60405180606001604052803373ffffffffffffffffffffffffffffffffffffffff168152602001838152602001828152506006600080815260200190815260200160002060008201518160000160006101000a81548173ffffffffffffffffffffffffffffffffffffffff021916908373ffffffffffffffffffffffffffffffffffffffff1602179055506020820151816001019081620001ab9190620007b2565b506040820151816002019081620001c39190620007b2565b50905050505062000bb1565b60006012905090565b600073ffffffffffffffffffffffffffffffffffffffff168273ffffffffffffffffffffffffffffffffffffffff16036200024a576040517f08c379a0000000000000000000000000000000000000000000000000000000008152600401620002419062000b26565b60405180910390fd5b6200025e600083836200034560201b60201c565b806002600082825462000272919062000b48565b92505081905550806000808473ffffffffffffffffffffffffffffffffffffffff1673ffffffffffffffffffffffffffffffffffffffff168152602001908152602001600020600082825401925050819055508173ffffffffffffffffffffffffffffffffffffffff16600073ffffffffffffffffffffffffffffffffffffffff167fddf252ad1be2c89b69c2b068fc378daa952ba7f163c4a11628f55a4df523b3ef8360405162000325919062000b94565b60405180910390a362000341600083836200034a60201b60201c565b5050565b505050565b505050565b6000604051905090565b600080fd5b600080fd5b600080fd5b600080fd5b6000601f19601f8301169050919050565b7f4e487b7100000000000000000000000000000000000000000000000000000000600052604160045260246000fd5b620003b8826200036d565b810181811067ffffffffffffffff82111715620003da57620003d96200037e565b5b80604052505050565b6000620003ef6200034f565b9050620003fd8282620003ad565b919050565b600067ffffffffffffffff82111562000420576200041f6200037e565b5b6200042b826200036d565b9050602081019050919050565b60005b83811015620004585780820151818401526020810190506200043b565b60008484015250505050565b60006200047b620004758462000402565b620003e3565b9050828152602081018484840111156200049a576200049962000368565b5b620004a784828562000438565b509392505050565b600082601f830112620004c757620004c662000363565b5b8151620004d984826020860162000464565b91505092915050565b60008060408385031215620004fc57620004fb62000359565b5b600083015167ffffffffffffffff8111156200051d576200051c6200035e565b5b6200052b85828601620004af565b925050602083015167ffffffffffffffff8111156200054f576200054e6200035e565b5b6200055d85828601620004af565b9150509250929050565b600081519050919050565b7f4e487b7100000000000000000000000000000000000000000000000000000000600052602260045260246000fd5b60006002820490506001821680620005ba57607f821691505b602082108103620005d057620005cf62000572565b5b50919050565b60008190508160005260206000209050919050565b60006020601f8301049050919050565b600082821b905092915050565b6000600883026200063a7fffffffffffffffffffffffffffffffffffffffffffffffffffffffffffffffff82620005fb565b620006468683620005fb565b95508019841693508086168417925050509392505050565b6000819050919050565b6000819050919050565b6000620006936200068d62000687846200065e565b62000668565b6200065e565b9050919050565b6000819050919050565b620006af8362000672565b620006c7620006be826200069a565b84845462000608565b825550505050565b600090565b620006de620006cf565b620006eb818484620006a4565b505050565b5b81811015620007135762000707600082620006d4565b600181019050620006f1565b5050565b601f82111562000762576200072c81620005d6565b6200073784620005eb565b8101602085101562000747578190505b6200075f6200075685620005eb565b830182620006f0565b50505b505050565b600082821c905092915050565b6000620007876000198460080262000767565b1980831691505092915050565b6000620007a2838362000774565b9150826002028217905092915050565b620007bd8262000567565b67ffffffffffffffff811115620007d957620007d86200037e565b5b620007e58254620005a1565b620007f282828562000717565b600060209050601f8311600181146200082a576000841562000815578287015190505b62000821858262000794565b86555062000891565b601f1984166200083a86620005d6565b60005b8281101562000864578489015182556001820191506020850194506020810190506200083d565b8683101562000884578489015162000880601f89168262000774565b8355505b6001600288020188555050505b505050505050565b7f4e487b7100000000000000000000000000000000000000000000000000000000600052601160045260246000fd5b60008160011c9050919050565b6000808291508390505b60018511156200092757808604811115620008ff57620008fe62000899565b5b60018516156200090f5780820291505b80810290506200091f85620008c8565b9450620008df565b94509492505050565b60008262000942576001905062000a15565b8162000952576000905062000a15565b81600181146200096b57600281146200097657620009ac565b600191505062000a15565b60ff8411156200098b576200098a62000899565b5b8360020a915084821115620009a557620009a462000899565b5b5062000a15565b5060208310610133831016604e8410600b8410161715620009e65782820a905083811115620009e057620009df62000899565b5b62000a15565b620009f58484846001620008d5565b9250905081840481111562000a0f5762000a0e62000899565b5b81810290505b9392505050565b600060ff82169050919050565b600062000a36826200065e565b915062000a438362000a1c565b925062000a727fffffffffffffffffffffffffffffffffffffffffffffffffffffffffffffffff848462000930565b905092915050565b600062000a87826200065e565b915062000a94836200065e565b925082820262000aa4816200065e565b9150828204841483151762000abe5762000abd62000899565b5b5092915050565b600082825260208201905092915050565b7f45524332303a206d696e7420746f20746865207a65726f206164647265737300600082015250565b600062000b0e601f8362000ac5565b915062000b1b8262000ad6565b602082019050919050565b6000602082019050818103600083015262000b418162000aff565b9050919050565b600062000b55826200065e565b915062000b62836200065e565b925082820190508082111562000b7d5762000b7c62000899565b5b92915050565b62000b8e816200065e565b82525050565b600060208201905062000bab600083018462000b83565b92915050565b61203f8062000bc16000396000f3fe608060405234801561001057600080fd5b50600436106101005760003560e01c806370a0823111610097578063a9059cbb11610066578063a9059cbb146102c3578063c47177f4146102f3578063d311651a1461030f578063dd62ed3e1461034157610100565b806370a082311461022757806395d89b4114610257578063a1fbb8f514610275578063a457c2d71461029357610100565b806323b872dd116100d357806323b872dd1461018d5780632feaf817146101bd578063313ce567146101d957806339509351146101f757610100565b806306fdde0314610105578063095ea7b31461012357806309abcd3b1461015357806318160ddd1461016f575b600080fd5b61010d610371565b60405161011a919061120f565b60405180910390f35b61013d600480360381019061013891906112d9565b610403565b60405161014a9190611334565b60405180910390f35b61016d60048036038101906101689190611484565b610426565b005b610177610551565b604051610184919061151e565b60405180910390f35b6101a760048036038101906101a29190611539565b61055b565b6040516101b49190611334565b60405180910390f35b6101d760048036038101906101d2919061158c565b61058a565b005b6101e16106eb565b6040516101ee9190611620565b60405180910390f35b610211600480360381019061020c91906112d9565b6106f4565b60405161021e9190611334565b60405180910390f35b610241600480360381019061023c919061163b565b61072b565b60405161024e919061151e565b60405180910390f35b61025f610773565b60405161026c919061120f565b60405180910390f35b61027d610805565b60405161028a919061151e565b60405180910390f35b6102ad60048036038101906102a891906112d9565b610811565b6040516102ba9190611334565b60405180910390f35b6102dd60048036038101906102d891906112d9565b610888565b6040516102ea9190611334565b60405180910390f35b61030d60048036038101906103089190611668565b6108ab565b005b61032960048036038101906103249190611668565b6109dc565b604051610338939291906116a4565b60405180910390f35b61035b600480360381019061035691906116e9565b610b9a565b604051610368919061151e565b60405180910390f35b60606003805461038090611758565b80601f01602080910402602001604051908101604052809291908181526020018280546103ac90611758565b80156103f95780601f106103ce576101008083540402835291602001916103f9565b820191906000526020600020905b8154815290600101906020018083116103dc57829003601f168201915b5050505050905090565b60008061040e610c21565b905061041b818585610c29565b600191505092915050565b3373ffffffffffffffffffffffffffffffffffffffff166006600085815260200190815260200160002060000160009054906101000a900473ffffffffffffffffffffffffffffffffffffffff1673ffffffffffffffffffffffffffffffffffffffff16146104ca576040517f08c379a00000000000000000000000000000000000000000000000000000000081526004016104c1906117fb565b60405180910390fd5b816006600085815260200190815260200160002060010190816104ed91906119c7565b508060066000858152602001908152602001600020600201908161051191906119c7565b50827ff0632914d6d637e9a214fc715dc019e425c105498ffe6fed5e8597ed4920e9c88383604051610544929190611a99565b60405180910390a2505050565b6000600254905090565b600080610566610c21565b9050610573858285610df2565b61057e858585610e7e565b60019150509392505050565b60006105953361072b565b116105d5576040517f08c379a00000000000000000000000000000000000000000000000000000000081526004016105cc90611b1c565b60405180910390fd5b6105df60056110f4565b60405180606001604052803373ffffffffffffffffffffffffffffffffffffffff168152602001838152602001828152506006600061061e600561110a565b815260200190815260200160002060008201518160000160006101000a81548173ffffffffffffffffffffffffffffffffffffffff021916908373ffffffffffffffffffffffffffffffffffffffff160217905550602082015181600101908161068891906119c7565b50604082015181600201908161069e91906119c7565b509050506106ac600561110a565b7fb64def3cc683802a4837ef3a7b96aa9834f75ee8da72f3c08d38366faea4fdc83384846040516106df939291906116a4565b60405180910390a25050565b60006012905090565b6000806106ff610c21565b90506107208185856107118589610b9a565b61071b9190611b6b565b610c29565b600191505092915050565b60008060008373ffffffffffffffffffffffffffffffffffffffff1673ffffffffffffffffffffffffffffffffffffffff168152602001908152602001600020549050919050565b60606004805461078290611758565b80601f01602080910402602001604051908101604052809291908181526020018280546107ae90611758565b80156107fb5780601f106107d0576101008083540402835291602001916107fb565b820191906000526020600020905b8154815290600101906020018083116107de57829003601f168201915b5050505050905090565b60058060000154905081565b60008061081c610c21565b9050600061082a8286610b9a565b90508381101561086f576040517f08c379a000000000000000000000000000000000000000000000000000000000815260040161086690611c11565b60405180910390fd5b61087c8286868403610c29565b60019250505092915050565b600080610893610c21565b90506108a0818585610e7e565b600191505092915050565b3373ffffffffffffffffffffffffffffffffffffffff166006600083815260200190815260200160002060000160009054906101000a900473ffffffffffffffffffffffffffffffffffffffff1673ffffffffffffffffffffffffffffffffffffffff161461094f576040517f08c379a000000000000000000000000000000000000000000000000000000000815260040161094690611ca3565b60405180910390fd5b60066000828152602001908152602001600020600080820160006101000a81549073ffffffffffffffffffffffffffffffffffffffff021916905560018201600061099a9190611122565b6002820160006109aa9190611122565b5050807f89af6ba62ab348dc535a3187c267090f834c868a3820cd552a7110c3dc3eedb860405160405180910390a250565b60006060806000600660008681526020019081526020016000206040518060600160405290816000820160009054906101000a900473ffffffffffffffffffffffffffffffffffffffff1673ffffffffffffffffffffffffffffffffffffffff1673ffffffffffffffffffffffffffffffffffffffff168152602001600182018054610a6790611758565b80601f0160208091040260200160405190810160405280929190818152602001828054610a9390611758565b8015610ae05780601f10610ab557610100808354040283529160200191610ae0565b820191906000526020600020905b815481529060010190602001808311610ac357829003601f168201915b50505050508152602001600282018054610af990611758565b80601f0160208091040260200160405190810160405280929190818152602001828054610b2590611758565b8015610b725780601f10610b4757610100808354040283529160200191610b72565b820191906000526020600020905b815481529060010190602001808311610b5557829003601f168201915b5050505050815250509050806000015181602001518260400151935093509350509193909250565b6000600160008473ffffffffffffffffffffffffffffffffffffffff1673ffffffffffffffffffffffffffffffffffffffff16815260200190815260200160002060008373ffffffffffffffffffffffffffffffffffffffff1673ffffffffffffffffffffffffffffffffffffffff16815260200190815260200160002054905092915050565b600033905090565b600073ffffffffffffffffffffffffffffffffffffffff168373ffffffffffffffffffffffffffffffffffffffff1603610c98576040517f08c379a0000000000000000000000000000000000000000000000000000000008152600401610c8f90611d35565b60405180910390fd5b600073ffffffffffffffffffffffffffffffffffffffff168273ffffffffffffffffffffffffffffffffffffffff1603610d07576040517f08c379a0000000000000000000000000000000000000000000000000000000008152600401610cfe90611dc7565b60405180910390fd5b80600160008573ffffffffffffffffffffffffffffffffffffffff1673ffffffffffffffffffffffffffffffffffffffff16815260200190815260200160002060008473ffffffffffffffffffffffffffffffffffffffff1673ffffffffffffffffffffffffffffffffffffffff168152602001908152602001600020819055508173ffffffffffffffffffffffffffffffffffffffff168373ffffffffffffffffffffffffffffffffffffffff167f8c5be1e5ebec7d5bd14f71427d1e84f3dd0314c0f7b2291e5b200ac8c7c3b92583604051610de5919061151e565b60405180910390a3505050565b6000610dfe8484610b9a565b90507fffffffffffffffffffffffffffffffffffffffffffffffffffffffffffffffff8114610e785781811015610e6a576040517f08c379a0000000000000000000000000000000000000000000000000000000008152600401610e6190611e33565b60405180910390fd5b610e778484848403610c29565b5b50505050565b600073ffffffffffffffffffffffffffffffffffffffff168373ffffffffffffffffffffffffffffffffffffffff1603610eed576040517f08c379a0000000000000000000000000000000000000000000000000000000008152600401610ee490611ec5565b60405180910390fd5b600073ffffffffffffffffffffffffffffffffffffffff168273ffffffffffffffffffffffffffffffffffffffff1603610f5c576040517f08c379a0000000000000000000000000000000000000000000000000000000008152600401610f5390611f57565b60405180910390fd5b610f67838383611118565b60008060008573ffffffffffffffffffffffffffffffffffffffff1673ffffffffffffffffffffffffffffffffffffffff16815260200190815260200160002054905081811015610fed576040517f08c379a0000000000000000000000000000000000000000000000000000000008152600401610fe490611fe9565b60405180910390fd5b8181036000808673ffffffffffffffffffffffffffffffffffffffff1673ffffffffffffffffffffffffffffffffffffffff16815260200190815260200160002081905550816000808573ffffffffffffffffffffffffffffffffffffffff1673ffffffffffffffffffffffffffffffffffffffff168152602001908152602001600020600082825401925050819055508273ffffffffffffffffffffffffffffffffffffffff168473ffffffffffffffffffffffffffffffffffffffff167fddf252ad1be2c89b69c2b068fc378daa952ba7f163c4a11628f55a4df523b3ef846040516110db919061151e565b60405180910390a36110ee84848461111d565b50505050565b6001816000016000828254019250508190555050565b600081600001549050919050565b505050565b505050565b50805461112e90611758565b6000825580601f10611140575061115f565b601f01602090049060005260206000209081019061115e9190611162565b5b50565b5b8082111561117b576000816000905550600101611163565b5090565b600081519050919050565b600082825260208201905092915050565b60005b838110156111b957808201518184015260208101905061119e565b60008484015250505050565b6000601f19601f8301169050919050565b60006111e18261117f565b6111eb818561118a565b93506111fb81856020860161119b565b611204816111c5565b840191505092915050565b6000602082019050818103600083015261122981846111d6565b905092915050565b6000604051905090565b600080fd5b600080fd5b600073ffffffffffffffffffffffffffffffffffffffff82169050919050565b600061127082611245565b9050919050565b61128081611265565b811461128b57600080fd5b50565b60008135905061129d81611277565b92915050565b6000819050919050565b6112b6816112a3565b81146112c157600080fd5b50565b6000813590506112d3816112ad565b92915050565b600080604083850312156112f0576112ef61123b565b5b60006112fe8582860161128e565b925050602061130f858286016112c4565b9150509250929050565b60008115159050919050565b61132e81611319565b82525050565b60006020820190506113496000830184611325565b92915050565b600080fd5b600080fd5b7f4e487b7100000000000000000000000000000000000000000000000000000000600052604160045260246000fd5b611391826111c5565b810181811067ffffffffffffffff821117156113b0576113af611359565b5b80604052505050565b60006113c3611231565b90506113cf8282611388565b919050565b600067ffffffffffffffff8211156113ef576113ee611359565b5b6113f8826111c5565b9050602081019050919050565b82818337600083830152505050565b6000611427611422846113d4565b6113b9565b90508281526020810184848401111561144357611442611354565b5b61144e848285611405565b509392505050565b600082601f83011261146b5761146a61134f565b5b813561147b848260208601611414565b91505092915050565b60008060006060848603121561149d5761149c61123b565b5b60006114ab868287016112c4565b935050602084013567ffffffffffffffff8111156114cc576114cb611240565b5b6114d886828701611456565b925050604084013567ffffffffffffffff8111156114f9576114f8611240565b5b61150586828701611456565b9150509250925092565b611518816112a3565b82525050565b6000602082019050611533600083018461150f565b92915050565b6000806000606084860312156115525761155161123b565b5b60006115608682870161128e565b93505060206115718682870161128e565b9250506040611582868287016112c4565b9150509250925092565b600080604083850312156115a3576115a261123b565b5b600083013567ffffffffffffffff8111156115c1576115c0611240565b5b6115cd85828601611456565b925050602083013567ffffffffffffffff8111156115ee576115ed611240565b5b6115fa85828601611456565b9150509250929050565b600060ff82169050919050565b61161a81611604565b82525050565b60006020820190506116356000830184611611565b92915050565b6000602082840312156116515761165061123b565b5b600061165f8482850161128e565b91505092915050565b60006020828403121561167e5761167d61123b565b5b600061168c848285016112c4565b91505092915050565b61169e81611265565b82525050565b60006060820190506116b96000830186611695565b81810360208301526116cb81856111d6565b905081810360408301526116df81846111d6565b9050949350505050565b60008060408385031215611700576116ff61123b565b5b600061170e8582860161128e565b925050602061171f8582860161128e565b9150509250929050565b7f4e487b7100000000000000000000000000000000000000000000000000000000600052602260045260246000fd5b6000600282049050600182168061177057607f821691505b60208210810361178357611782611729565b5b50919050565b7f4f6e6c79207468652063726561746f72206d6179207570646174652061204e6f60008201527f74652e0000000000000000000000000000000000000000000000000000000000602082015250565b60006117e560238361118a565b91506117f082611789565b604082019050919050565b60006020820190508181036000830152611814816117d8565b9050919050565b60008190508160005260206000209050919050565b60006020601f8301049050919050565b600082821b905092915050565b60006008830261187d7fffffffffffffffffffffffffffffffffffffffffffffffffffffffffffffffff82611840565b6118878683611840565b95508019841693508086168417925050509392505050565b6000819050919050565b60006118c46118bf6118ba846112a3565b61189f565b6112a3565b9050919050565b6000819050919050565b6118de836118a9565b6118f26118ea826118cb565b84845461184d565b825550505050565b600090565b6119076118fa565b6119128184846118d5565b505050565b5b818110156119365761192b6000826118ff565b600181019050611918565b5050565b601f82111561197b5761194c8161181b565b61195584611830565b81016020851015611964578190505b61197861197085611830565b830182611917565b50505b505050565b600082821c905092915050565b600061199e60001984600802611980565b1980831691505092915050565b60006119b7838361198d565b9150826002028217905092915050565b6119d08261117f565b67ffffffffffffffff8111156119e9576119e8611359565b5b6119f38254611758565b6119fe82828561193a565b600060209050601f831160018114611a315760008415611a1f578287015190505b611a2985826119ab565b865550611a91565b601f198416611a3f8661181b565b60005b82811015611a6757848901518255600182019150602085019450602081019050611a42565b86831015611a845784890151611a80601f89168261198d565b8355505b6001600288020188555050505b505050505050565b60006040820190508181036000830152611ab381856111d6565b90508181036020830152611ac781846111d6565b90509392505050565b7f4d75737420686f6c6420544e5420746f206372656174652061204e6f74652e00600082015250565b6000611b06601f8361118a565b9150611b1182611ad0565b602082019050919050565b60006020820190508181036000830152611b3581611af9565b9050919050565b7f4e487b7100000000000000000000000000000000000000000000000000000000600052601160045260246000fd5b6000611b76826112a3565b9150611b81836112a3565b9250828201905080821115611b9957611b98611b3c565b5b92915050565b7f45524332303a2064656372656173656420616c6c6f77616e63652062656c6f7760008201527f207a65726f000000000000000000000000000000000000000000000000000000602082015250565b6000611bfb60258361118a565b9150611c0682611b9f565b604082019050919050565b60006020820190508181036000830152611c2a81611bee565b9050919050565b7f4f6e6c79207468652063726561746f72206d61792064656c6574652061204e6f60008201527f74652e0000000000000000000000000000000000000000000000000000000000602082015250565b6000611c8d60238361118a565b9150611c9882611c31565b604082019050919050565b60006020820190508181036000830152611cbc81611c80565b9050919050565b7f45524332303a20617070726f76652066726f6d20746865207a65726f2061646460008201527f7265737300000000000000000000000000000000000000000000000000000000602082015250565b6000611d1f60248361118a565b9150611d2a82611cc3565b604082019050919050565b60006020820190508181036000830152611d4e81611d12565b9050919050565b7f45524332303a20617070726f766520746f20746865207a65726f20616464726560008201527f7373000000000000000000000000000000000000000000000000000000000000602082015250565b6000611db160228361118a565b9150611dbc82611d55565b604082019050919050565b60006020820190508181036000830152611de081611da4565b9050919050565b7f45524332303a20696e73756666696369656e7420616c6c6f77616e6365000000600082015250565b6000611e1d601d8361118a565b9150611e2882611de7565b602082019050919050565b60006020820190508181036000830152611e4c81611e10565b9050919050565b7f45524332303a207472616e736665722066726f6d20746865207a65726f20616460008201527f6472657373000000000000000000000000000000000000000000000000000000602082015250565b6000611eaf60258361118a565b9150611eba82611e53565b604082019050919050565b60006020820190508181036000830152611ede81611ea2565b9050919050565b7f45524332303a207472616e7366657220746f20746865207a65726f206164647260008201527f6573730000000000000000000000000000000000000000000000000000000000602082015250565b6000611f4160238361118a565b9150611f4c82611ee5565b604082019050919050565b60006020820190508181036000830152611f7081611f34565b9050919050565b7f45524332303a207472616e7366657220616d6f756e742065786365656473206260008201527f616c616e63650000000000000000000000000000000000000000000000000000602082015250565b6000611fd360268361118a565b9150611fde82611f77565b604082019050919050565b6000602082019050818103600083015261200281611fc6565b905091905056fea2646970667358221220ce79d28371e17e868f08159d0b430a87466736c77b8571e09c4a484aa055c23364736f6c63430008120033",
					"opcodes": "PUSH1 0x80 PUSH1 0x40 MSTORE CALLVALUE DUP1 ISZERO PUSH3 0x11 JUMPI PUSH1 0x0 DUP1 REVERT JUMPDEST POP PUSH1 0x40 MLOAD PUSH3 0x2C00 CODESIZE SUB DUP1 PUSH3 0x2C00 DUP4 CODECOPY DUP2 DUP2 ADD PUSH1 0x40 MSTORE DUP2 ADD SWAP1 PUSH3 0x37 SWAP2 SWAP1 PUSH3 0x4E2 JUMP JUMPDEST PUSH1 0x40 MLOAD DUP1 PUSH1 0x40 ADD PUSH1 0x40 MSTORE DUP1 PUSH1 0x10 DUP2 MSTORE PUSH1 0x20 ADD PUSH32 0x54696E79204E6F74657320546F6B656E00000000000000000000000000000000 DUP2 MSTORE POP PUSH1 0x40 MLOAD DUP1 PUSH1 0x40 ADD PUSH1 0x40 MSTORE DUP1 PUSH1 0x3 DUP2 MSTORE PUSH1 0x20 ADD PUSH32 0x544E540000000000000000000000000000000000000000000000000000000000 DUP2 MSTORE POP DUP2 PUSH1 0x3 SWAP1 DUP2 PUSH3 0xB4 SWAP2 SWAP1 PUSH3 0x7B2 JUMP JUMPDEST POP DUP1 PUSH1 0x4 SWAP1 DUP2 PUSH3 0xC6 SWAP2 SWAP1 PUSH3 0x7B2 JUMP JUMPDEST POP POP POP PUSH3 0x109 CALLER PUSH3 0xDE PUSH3 0x1CF PUSH1 0x20 SHL PUSH1 0x20 SHR JUMP JUMPDEST PUSH1 0xA PUSH3 0xEC SWAP2 SWAP1 PUSH3 0xA29 JUMP JUMPDEST PUSH4 0x2CD29C0 PUSH3 0xFD SWAP2 SWAP1 PUSH3 0xA7A JUMP JUMPDEST PUSH3 0x1D8 PUSH1 0x20 SHL PUSH1 0x20 SHR JUMP JUMPDEST PUSH1 0x40 MLOAD DUP1 PUSH1 0x60 ADD PUSH1 0x40 MSTORE DUP1 CALLER PUSH20 0xFFFFFFFFFFFFFFFFFFFFFFFFFFFFFFFFFFFFFFFF AND DUP2 MSTORE PUSH1 0x20 ADD DUP4 DUP2 MSTORE PUSH1 0x20 ADD DUP3 DUP2 MSTORE POP PUSH1 0x6 PUSH1 0x0 DUP1 DUP2 MSTORE PUSH1 0x20 ADD SWAP1 DUP2 MSTORE PUSH1 0x20 ADD PUSH1 0x0 KECCAK256 PUSH1 0x0 DUP3 ADD MLOAD DUP2 PUSH1 0x0 ADD PUSH1 0x0 PUSH2 0x100 EXP DUP2 SLOAD DUP2 PUSH20 0xFFFFFFFFFFFFFFFFFFFFFFFFFFFFFFFFFFFFFFFF MUL NOT AND SWAP1 DUP4 PUSH20 0xFFFFFFFFFFFFFFFFFFFFFFFFFFFFFFFFFFFFFFFF AND MUL OR SWAP1 SSTORE POP PUSH1 0x20 DUP3 ADD MLOAD DUP2 PUSH1 0x1 ADD SWAP1 DUP2 PUSH3 0x1AB SWAP2 SWAP1 PUSH3 0x7B2 JUMP JUMPDEST POP PUSH1 0x40 DUP3 ADD MLOAD DUP2 PUSH1 0x2 ADD SWAP1 DUP2 PUSH3 0x1C3 SWAP2 SWAP1 PUSH3 0x7B2 JUMP JUMPDEST POP SWAP1 POP POP POP POP PUSH3 0xBB1 JUMP JUMPDEST PUSH1 0x0 PUSH1 0x12 SWAP1 POP SWAP1 JUMP JUMPDEST PUSH1 0x0 PUSH20 0xFFFFFFFFFFFFFFFFFFFFFFFFFFFFFFFFFFFFFFFF AND DUP3 PUSH20 0xFFFFFFFFFFFFFFFFFFFFFFFFFFFFFFFFFFFFFFFF AND SUB PUSH3 0x24A JUMPI PUSH1 0x40 MLOAD PUSH32 0x8C379A000000000000000000000000000000000000000000000000000000000 DUP2 MSTORE PUSH1 0x4 ADD PUSH3 0x241 SWAP1 PUSH3 0xB26 JUMP JUMPDEST PUSH1 0x40 MLOAD DUP1 SWAP2 SUB SWAP1 REVERT JUMPDEST PUSH3 0x25E PUSH1 0x0 DUP4 DUP4 PUSH3 0x345 PUSH1 0x20 SHL PUSH1 0x20 SHR JUMP JUMPDEST DUP1 PUSH1 0x2 PUSH1 0x0 DUP3 DUP3 SLOAD PUSH3 0x272 SWAP2 SWAP1 PUSH3 0xB48 JUMP JUMPDEST SWAP3 POP POP DUP2 SWAP1 SSTORE POP DUP1 PUSH1 0x0 DUP1 DUP5 PUSH20 0xFFFFFFFFFFFFFFFFFFFFFFFFFFFFFFFFFFFFFFFF AND PUSH20 0xFFFFFFFFFFFFFFFFFFFFFFFFFFFFFFFFFFFFFFFF AND DUP2 MSTORE PUSH1 0x20 ADD SWAP1 DUP2 MSTORE PUSH1 0x20 ADD PUSH1 0x0 KECCAK256 PUSH1 0x0 DUP3 DUP3 SLOAD ADD SWAP3 POP POP DUP2 SWAP1 SSTORE POP DUP2 PUSH20 0xFFFFFFFFFFFFFFFFFFFFFFFFFFFFFFFFFFFFFFFF AND PUSH1 0x0 PUSH20 0xFFFFFFFFFFFFFFFFFFFFFFFFFFFFFFFFFFFFFFFF AND PUSH32 0xDDF252AD1BE2C89B69C2B068FC378DAA952BA7F163C4A11628F55A4DF523B3EF DUP4 PUSH1 0x40 MLOAD PUSH3 0x325 SWAP2 SWAP1 PUSH3 0xB94 JUMP JUMPDEST PUSH1 0x40 MLOAD DUP1 SWAP2 SUB SWAP1 LOG3 PUSH3 0x341 PUSH1 0x0 DUP4 DUP4 PUSH3 0x34A PUSH1 0x20 SHL PUSH1 0x20 SHR JUMP JUMPDEST POP POP JUMP JUMPDEST POP POP POP JUMP JUMPDEST POP POP POP JUMP JUMPDEST PUSH1 0x0 PUSH1 0x40 MLOAD SWAP1 POP SWAP1 JUMP JUMPDEST PUSH1 0x0 DUP1 REVERT JUMPDEST PUSH1 0x0 DUP1 REVERT JUMPDEST PUSH1 0x0 DUP1 REVERT JUMPDEST PUSH1 0x0 DUP1 REVERT JUMPDEST PUSH1 0x0 PUSH1 0x1F NOT PUSH1 0x1F DUP4 ADD AND SWAP1 POP SWAP2 SWAP1 POP JUMP JUMPDEST PUSH32 0x4E487B7100000000000000000000000000000000000000000000000000000000 PUSH1 0x0 MSTORE PUSH1 0x41 PUSH1 0x4 MSTORE PUSH1 0x24 PUSH1 0x0 REVERT JUMPDEST PUSH3 0x3B8 DUP3 PUSH3 0x36D JUMP JUMPDEST DUP2 ADD DUP2 DUP2 LT PUSH8 0xFFFFFFFFFFFFFFFF DUP3 GT OR ISZERO PUSH3 0x3DA JUMPI PUSH3 0x3D9 PUSH3 0x37E JUMP JUMPDEST JUMPDEST DUP1 PUSH1 0x40 MSTORE POP POP POP JUMP JUMPDEST PUSH1 0x0 PUSH3 0x3EF PUSH3 0x34F JUMP JUMPDEST SWAP1 POP PUSH3 0x3FD DUP3 DUP3 PUSH3 0x3AD JUMP JUMPDEST SWAP2 SWAP1 POP JUMP JUMPDEST PUSH1 0x0 PUSH8 0xFFFFFFFFFFFFFFFF DUP3 GT ISZERO PUSH3 0x420 JUMPI PUSH3 0x41F PUSH3 0x37E JUMP JUMPDEST JUMPDEST PUSH3 0x42B DUP3 PUSH3 0x36D JUMP JUMPDEST SWAP1 POP PUSH1 0x20 DUP2 ADD SWAP1 POP SWAP2 SWAP1 POP JUMP JUMPDEST PUSH1 0x0 JUMPDEST DUP4 DUP2 LT ISZERO PUSH3 0x458 JUMPI DUP1 DUP3 ADD MLOAD DUP2 DUP5 ADD MSTORE PUSH1 0x20 DUP2 ADD SWAP1 POP PUSH3 0x43B JUMP JUMPDEST PUSH1 0x0 DUP5 DUP5 ADD MSTORE POP POP POP POP JUMP JUMPDEST PUSH1 0x0 PUSH3 0x47B PUSH3 0x475 DUP5 PUSH3 0x402 JUMP JUMPDEST PUSH3 0x3E3 JUMP JUMPDEST SWAP1 POP DUP3 DUP2 MSTORE PUSH1 0x20 DUP2 ADD DUP5 DUP5 DUP5 ADD GT ISZERO PUSH3 0x49A JUMPI PUSH3 0x499 PUSH3 0x368 JUMP JUMPDEST JUMPDEST PUSH3 0x4A7 DUP5 DUP3 DUP6 PUSH3 0x438 JUMP JUMPDEST POP SWAP4 SWAP3 POP POP POP JUMP JUMPDEST PUSH1 0x0 DUP3 PUSH1 0x1F DUP4 ADD SLT PUSH3 0x4C7 JUMPI PUSH3 0x4C6 PUSH3 0x363 JUMP JUMPDEST JUMPDEST DUP2 MLOAD PUSH3 0x4D9 DUP5 DUP3 PUSH1 0x20 DUP7 ADD PUSH3 0x464 JUMP JUMPDEST SWAP2 POP POP SWAP3 SWAP2 POP POP JUMP JUMPDEST PUSH1 0x0 DUP1 PUSH1 0x40 DUP4 DUP6 SUB SLT ISZERO PUSH3 0x4FC JUMPI PUSH3 0x4FB PUSH3 0x359 JUMP JUMPDEST JUMPDEST PUSH1 0x0 DUP4 ADD MLOAD PUSH8 0xFFFFFFFFFFFFFFFF DUP2 GT ISZERO PUSH3 0x51D JUMPI PUSH3 0x51C PUSH3 0x35E JUMP JUMPDEST JUMPDEST PUSH3 0x52B DUP6 DUP3 DUP7 ADD PUSH3 0x4AF JUMP JUMPDEST SWAP3 POP POP PUSH1 0x20 DUP4 ADD MLOAD PUSH8 0xFFFFFFFFFFFFFFFF DUP2 GT ISZERO PUSH3 0x54F JUMPI PUSH3 0x54E PUSH3 0x35E JUMP JUMPDEST JUMPDEST PUSH3 0x55D DUP6 DUP3 DUP7 ADD PUSH3 0x4AF JUMP JUMPDEST SWAP2 POP POP SWAP3 POP SWAP3 SWAP1 POP JUMP JUMPDEST PUSH1 0x0 DUP2 MLOAD SWAP1 POP SWAP2 SWAP1 POP JUMP JUMPDEST PUSH32 0x4E487B7100000000000000000000000000000000000000000000000000000000 PUSH1 0x0 MSTORE PUSH1 0x22 PUSH1 0x4 MSTORE PUSH1 0x24 PUSH1 0x0 REVERT JUMPDEST PUSH1 0x0 PUSH1 0x2 DUP3 DIV SWAP1 POP PUSH1 0x1 DUP3 AND DUP1 PUSH3 0x5BA JUMPI PUSH1 0x7F DUP3 AND SWAP2 POP JUMPDEST PUSH1 0x20 DUP3 LT DUP2 SUB PUSH3 0x5D0 JUMPI PUSH3 0x5CF PUSH3 0x572 JUMP JUMPDEST JUMPDEST POP SWAP2 SWAP1 POP JUMP JUMPDEST PUSH1 0x0 DUP2 SWAP1 POP DUP2 PUSH1 0x0 MSTORE PUSH1 0x20 PUSH1 0x0 KECCAK256 SWAP1 POP SWAP2 SWAP1 POP JUMP JUMPDEST PUSH1 0x0 PUSH1 0x20 PUSH1 0x1F DUP4 ADD DIV SWAP1 POP SWAP2 SWAP1 POP JUMP JUMPDEST PUSH1 0x0 DUP3 DUP3 SHL SWAP1 POP SWAP3 SWAP2 POP POP JUMP JUMPDEST PUSH1 0x0 PUSH1 0x8 DUP4 MUL PUSH3 0x63A PUSH32 0xFFFFFFFFFFFFFFFFFFFFFFFFFFFFFFFFFFFFFFFFFFFFFFFFFFFFFFFFFFFFFFFF DUP3 PUSH3 0x5FB JUMP JUMPDEST PUSH3 0x646 DUP7 DUP4 PUSH3 0x5FB JUMP JUMPDEST SWAP6 POP DUP1 NOT DUP5 AND SWAP4 POP DUP1 DUP7 AND DUP5 OR SWAP3 POP POP POP SWAP4 SWAP3 POP POP POP JUMP JUMPDEST PUSH1 0x0 DUP2 SWAP1 POP SWAP2 SWAP1 POP JUMP JUMPDEST PUSH1 0x0 DUP2 SWAP1 POP SWAP2 SWAP1 POP JUMP JUMPDEST PUSH1 0x0 PUSH3 0x693 PUSH3 0x68D PUSH3 0x687 DUP5 PUSH3 0x65E JUMP JUMPDEST PUSH3 0x668 JUMP JUMPDEST PUSH3 0x65E JUMP JUMPDEST SWAP1 POP SWAP2 SWAP1 POP JUMP JUMPDEST PUSH1 0x0 DUP2 SWAP1 POP SWAP2 SWAP1 POP JUMP JUMPDEST PUSH3 0x6AF DUP4 PUSH3 0x672 JUMP JUMPDEST PUSH3 0x6C7 PUSH3 0x6BE DUP3 PUSH3 0x69A JUMP JUMPDEST DUP5 DUP5 SLOAD PUSH3 0x608 JUMP JUMPDEST DUP3 SSTORE POP POP POP POP JUMP JUMPDEST PUSH1 0x0 SWAP1 JUMP JUMPDEST PUSH3 0x6DE PUSH3 0x6CF JUMP JUMPDEST PUSH3 0x6EB DUP2 DUP5 DUP5 PUSH3 0x6A4 JUMP JUMPDEST POP POP POP JUMP JUMPDEST JUMPDEST DUP2 DUP2 LT ISZERO PUSH3 0x713 JUMPI PUSH3 0x707 PUSH1 0x0 DUP3 PUSH3 0x6D4 JUMP JUMPDEST PUSH1 0x1 DUP2 ADD SWAP1 POP PUSH3 0x6F1 JUMP JUMPDEST POP POP JUMP JUMPDEST PUSH1 0x1F DUP3 GT ISZERO PUSH3 0x762 JUMPI PUSH3 0x72C DUP2 PUSH3 0x5D6 JUMP JUMPDEST PUSH3 0x737 DUP5 PUSH3 0x5EB JUMP JUMPDEST DUP2 ADD PUSH1 0x20 DUP6 LT ISZERO PUSH3 0x747 JUMPI DUP2 SWAP1 POP JUMPDEST PUSH3 0x75F PUSH3 0x756 DUP6 PUSH3 0x5EB JUMP JUMPDEST DUP4 ADD DUP3 PUSH3 0x6F0 JUMP JUMPDEST POP POP JUMPDEST POP POP POP JUMP JUMPDEST PUSH1 0x0 DUP3 DUP3 SHR SWAP1 POP SWAP3 SWAP2 POP POP JUMP JUMPDEST PUSH1 0x0 PUSH3 0x787 PUSH1 0x0 NOT DUP5 PUSH1 0x8 MUL PUSH3 0x767 JUMP JUMPDEST NOT DUP1 DUP4 AND SWAP2 POP POP SWAP3 SWAP2 POP POP JUMP JUMPDEST PUSH1 0x0 PUSH3 0x7A2 DUP4 DUP4 PUSH3 0x774 JUMP JUMPDEST SWAP2 POP DUP3 PUSH1 0x2 MUL DUP3 OR SWAP1 POP SWAP3 SWAP2 POP POP JUMP JUMPDEST PUSH3 0x7BD DUP3 PUSH3 0x567 JUMP JUMPDEST PUSH8 0xFFFFFFFFFFFFFFFF DUP2 GT ISZERO PUSH3 0x7D9 JUMPI PUSH3 0x7D8 PUSH3 0x37E JUMP JUMPDEST JUMPDEST PUSH3 0x7E5 DUP3 SLOAD PUSH3 0x5A1 JUMP JUMPDEST PUSH3 0x7F2 DUP3 DUP3 DUP6 PUSH3 0x717 JUMP JUMPDEST PUSH1 0x0 PUSH1 0x20 SWAP1 POP PUSH1 0x1F DUP4 GT PUSH1 0x1 DUP2 EQ PUSH3 0x82A JUMPI PUSH1 0x0 DUP5 ISZERO PUSH3 0x815 JUMPI DUP3 DUP8 ADD MLOAD SWAP1 POP JUMPDEST PUSH3 0x821 DUP6 DUP3 PUSH3 0x794 JUMP JUMPDEST DUP7 SSTORE POP PUSH3 0x891 JUMP JUMPDEST PUSH1 0x1F NOT DUP5 AND PUSH3 0x83A DUP7 PUSH3 0x5D6 JUMP JUMPDEST PUSH1 0x0 JUMPDEST DUP3 DUP2 LT ISZERO PUSH3 0x864 JUMPI DUP5 DUP10 ADD MLOAD DUP3 SSTORE PUSH1 0x1 DUP3 ADD SWAP2 POP PUSH1 0x20 DUP6 ADD SWAP5 POP PUSH1 0x20 DUP2 ADD SWAP1 POP PUSH3 0x83D JUMP JUMPDEST DUP7 DUP4 LT ISZERO PUSH3 0x884 JUMPI DUP5 DUP10 ADD MLOAD PUSH3 0x880 PUSH1 0x1F DUP10 AND DUP3 PUSH3 0x774 JUMP JUMPDEST DUP4 SSTORE POP JUMPDEST PUSH1 0x1 PUSH1 0x2 DUP9 MUL ADD DUP9 SSTORE POP POP POP JUMPDEST POP POP POP POP POP POP JUMP JUMPDEST PUSH32 0x4E487B7100000000000000000000000000000000000000000000000000000000 PUSH1 0x0 MSTORE PUSH1 0x11 PUSH1 0x4 MSTORE PUSH1 0x24 PUSH1 0x0 REVERT JUMPDEST PUSH1 0x0 DUP2 PUSH1 0x1 SHR SWAP1 POP SWAP2 SWAP1 POP JUMP JUMPDEST PUSH1 0x0 DUP1 DUP3 SWAP2 POP DUP4 SWAP1 POP JUMPDEST PUSH1 0x1 DUP6 GT ISZERO PUSH3 0x927 JUMPI DUP1 DUP7 DIV DUP2 GT ISZERO PUSH3 0x8FF JUMPI PUSH3 0x8FE PUSH3 0x899 JUMP JUMPDEST JUMPDEST PUSH1 0x1 DUP6 AND ISZERO PUSH3 0x90F JUMPI DUP1 DUP3 MUL SWAP2 POP JUMPDEST DUP1 DUP2 MUL SWAP1 POP PUSH3 0x91F DUP6 PUSH3 0x8C8 JUMP JUMPDEST SWAP5 POP PUSH3 0x8DF JUMP JUMPDEST SWAP5 POP SWAP5 SWAP3 POP POP POP JUMP JUMPDEST PUSH1 0x0 DUP3 PUSH3 0x942 JUMPI PUSH1 0x1 SWAP1 POP PUSH3 0xA15 JUMP JUMPDEST DUP2 PUSH3 0x952 JUMPI PUSH1 0x0 SWAP1 POP PUSH3 0xA15 JUMP JUMPDEST DUP2 PUSH1 0x1 DUP2 EQ PUSH3 0x96B JUMPI PUSH1 0x2 DUP2 EQ PUSH3 0x976 JUMPI PUSH3 0x9AC JUMP JUMPDEST PUSH1 0x1 SWAP2 POP POP PUSH3 0xA15 JUMP JUMPDEST PUSH1 0xFF DUP5 GT ISZERO PUSH3 0x98B JUMPI PUSH3 0x98A PUSH3 0x899 JUMP JUMPDEST JUMPDEST DUP4 PUSH1 0x2 EXP SWAP2 POP DUP5 DUP3 GT ISZERO PUSH3 0x9A5 JUMPI PUSH3 0x9A4 PUSH3 0x899 JUMP JUMPDEST JUMPDEST POP PUSH3 0xA15 JUMP JUMPDEST POP PUSH1 0x20 DUP4 LT PUSH2 0x133 DUP4 LT AND PUSH1 0x4E DUP5 LT PUSH1 0xB DUP5 LT AND OR ISZERO PUSH3 0x9E6 JUMPI DUP3 DUP3 EXP SWAP1 POP DUP4 DUP2 GT ISZERO PUSH3 0x9E0 JUMPI PUSH3 0x9DF PUSH3 0x899 JUMP JUMPDEST JUMPDEST PUSH3 0xA15 JUMP JUMPDEST PUSH3 0x9F5 DUP5 DUP5 DUP5 PUSH1 0x1 PUSH3 0x8D5 JUMP JUMPDEST SWAP3 POP SWAP1 POP DUP2 DUP5 DIV DUP2 GT ISZERO PUSH3 0xA0F JUMPI PUSH3 0xA0E PUSH3 0x899 JUMP JUMPDEST JUMPDEST DUP2 DUP2 MUL SWAP1 POP JUMPDEST SWAP4 SWAP3 POP POP POP JUMP JUMPDEST PUSH1 0x0 PUSH1 0xFF DUP3 AND SWAP1 POP SWAP2 SWAP1 POP JUMP JUMPDEST PUSH1 0x0 PUSH3 0xA36 DUP3 PUSH3 0x65E JUMP JUMPDEST SWAP2 POP PUSH3 0xA43 DUP4 PUSH3 0xA1C JUMP JUMPDEST SWAP3 POP PUSH3 0xA72 PUSH32 0xFFFFFFFFFFFFFFFFFFFFFFFFFFFFFFFFFFFFFFFFFFFFFFFFFFFFFFFFFFFFFFFF DUP5 DUP5 PUSH3 0x930 JUMP JUMPDEST SWAP1 POP SWAP3 SWAP2 POP POP JUMP JUMPDEST PUSH1 0x0 PUSH3 0xA87 DUP3 PUSH3 0x65E JUMP JUMPDEST SWAP2 POP PUSH3 0xA94 DUP4 PUSH3 0x65E JUMP JUMPDEST SWAP3 POP DUP3 DUP3 MUL PUSH3 0xAA4 DUP2 PUSH3 0x65E JUMP JUMPDEST SWAP2 POP DUP3 DUP3 DIV DUP5 EQ DUP4 ISZERO OR PUSH3 0xABE JUMPI PUSH3 0xABD PUSH3 0x899 JUMP JUMPDEST JUMPDEST POP SWAP3 SWAP2 POP POP JUMP JUMPDEST PUSH1 0x0 DUP3 DUP3 MSTORE PUSH1 0x20 DUP3 ADD SWAP1 POP SWAP3 SWAP2 POP POP JUMP JUMPDEST PUSH32 0x45524332303A206D696E7420746F20746865207A65726F206164647265737300 PUSH1 0x0 DUP3 ADD MSTORE POP JUMP JUMPDEST PUSH1 0x0 PUSH3 0xB0E PUSH1 0x1F DUP4 PUSH3 0xAC5 JUMP JUMPDEST SWAP2 POP PUSH3 0xB1B DUP3 PUSH3 0xAD6 JUMP JUMPDEST PUSH1 0x20 DUP3 ADD SWAP1 POP SWAP2 SWAP1 POP JUMP JUMPDEST PUSH1 0x0 PUSH1 0x20 DUP3 ADD SWAP1 POP DUP2 DUP2 SUB PUSH1 0x0 DUP4 ADD MSTORE PUSH3 0xB41 DUP2 PUSH3 0xAFF JUMP JUMPDEST SWAP1 POP SWAP2 SWAP1 POP JUMP JUMPDEST PUSH1 0x0 PUSH3 0xB55 DUP3 PUSH3 0x65E JUMP JUMPDEST SWAP2 POP PUSH3 0xB62 DUP4 PUSH3 0x65E JUMP JUMPDEST SWAP3 POP DUP3 DUP3 ADD SWAP1 POP DUP1 DUP3 GT ISZERO PUSH3 0xB7D JUMPI PUSH3 0xB7C PUSH3 0x899 JUMP JUMPDEST JUMPDEST SWAP3 SWAP2 POP POP JUMP JUMPDEST PUSH3 0xB8E DUP2 PUSH3 0x65E JUMP JUMPDEST DUP3 MSTORE POP POP JUMP JUMPDEST PUSH1 0x0 PUSH1 0x20 DUP3 ADD SWAP1 POP PUSH3 0xBAB PUSH1 0x0 DUP4 ADD DUP5 PUSH3 0xB83 JUMP JUMPDEST SWAP3 SWAP2 POP POP JUMP JUMPDEST PUSH2 0x203F DUP1 PUSH3 0xBC1 PUSH1 0x0 CODECOPY PUSH1 0x0 RETURN INVALID PUSH1 0x80 PUSH1 0x40 MSTORE CALLVALUE DUP1 ISZERO PUSH2 0x10 JUMPI PUSH1 0x0 DUP1 REVERT JUMPDEST POP PUSH1 0x4 CALLDATASIZE LT PUSH2 0x100 JUMPI PUSH1 0x0 CALLDATALOAD PUSH1 0xE0 SHR DUP1 PUSH4 0x70A08231 GT PUSH2 0x97 JUMPI DUP1 PUSH4 0xA9059CBB GT PUSH2 0x66 JUMPI DUP1 PUSH4 0xA9059CBB EQ PUSH2 0x2C3 JUMPI DUP1 PUSH4 0xC47177F4 EQ PUSH2 0x2F3 JUMPI DUP1 PUSH4 0xD311651A EQ PUSH2 0x30F JUMPI DUP1 PUSH4 0xDD62ED3E EQ PUSH2 0x341 JUMPI PUSH2 0x100 JUMP JUMPDEST DUP1 PUSH4 0x70A08231 EQ PUSH2 0x227 JUMPI DUP1 PUSH4 0x95D89B41 EQ PUSH2 0x257 JUMPI DUP1 PUSH4 0xA1FBB8F5 EQ PUSH2 0x275 JUMPI DUP1 PUSH4 0xA457C2D7 EQ PUSH2 0x293 JUMPI PUSH2 0x100 JUMP JUMPDEST DUP1 PUSH4 0x23B872DD GT PUSH2 0xD3 JUMPI DUP1 PUSH4 0x23B872DD EQ PUSH2 0x18D JUMPI DUP1 PUSH4 0x2FEAF817 EQ PUSH2 0x1BD JUMPI DUP1 PUSH4 0x313CE567 EQ PUSH2 0x1D9 JUMPI DUP1 PUSH4 0x39509351 EQ PUSH2 0x1F7 JUMPI PUSH2 0x100 JUMP JUMPDEST DUP1 PUSH4 0x6FDDE03 EQ PUSH2 0x105 JUMPI DUP1 PUSH4 0x95EA7B3 EQ PUSH2 0x123 JUMPI DUP1 PUSH4 0x9ABCD3B EQ PUSH2 0x153 JUMPI DUP1 PUSH4 0x18160DDD EQ PUSH2 0x16F JUMPI JUMPDEST PUSH1 0x0 DUP1 REVERT JUMPDEST PUSH2 0x10D PUSH2 0x371 JUMP JUMPDEST PUSH1 0x40 MLOAD PUSH2 0x11A SWAP2 SWAP1 PUSH2 0x120F JUMP JUMPDEST PUSH1 0x40 MLOAD DUP1 SWAP2 SUB SWAP1 RETURN JUMPDEST PUSH2 0x13D PUSH1 0x4 DUP1 CALLDATASIZE SUB DUP2 ADD SWAP1 PUSH2 0x138 SWAP2 SWAP1 PUSH2 0x12D9 JUMP JUMPDEST PUSH2 0x403 JUMP JUMPDEST PUSH1 0x40 MLOAD PUSH2 0x14A SWAP2 SWAP1 PUSH2 0x1334 JUMP JUMPDEST PUSH1 0x40 MLOAD DUP1 SWAP2 SUB SWAP1 RETURN JUMPDEST PUSH2 0x16D PUSH1 0x4 DUP1 CALLDATASIZE SUB DUP2 ADD SWAP1 PUSH2 0x168 SWAP2 SWAP1 PUSH2 0x1484 JUMP JUMPDEST PUSH2 0x426 JUMP JUMPDEST STOP JUMPDEST PUSH2 0x177 PUSH2 0x551 JUMP JUMPDEST PUSH1 0x40 MLOAD PUSH2 0x184 SWAP2 SWAP1 PUSH2 0x151E JUMP JUMPDEST PUSH1 0x40 MLOAD DUP1 SWAP2 SUB SWAP1 RETURN JUMPDEST PUSH2 0x1A7 PUSH1 0x4 DUP1 CALLDATASIZE SUB DUP2 ADD SWAP1 PUSH2 0x1A2 SWAP2 SWAP1 PUSH2 0x1539 JUMP JUMPDEST PUSH2 0x55B JUMP JUMPDEST PUSH1 0x40 MLOAD PUSH2 0x1B4 SWAP2 SWAP1 PUSH2 0x1334 JUMP JUMPDEST PUSH1 0x40 MLOAD DUP1 SWAP2 SUB SWAP1 RETURN JUMPDEST PUSH2 0x1D7 PUSH1 0x4 DUP1 CALLDATASIZE SUB DUP2 ADD SWAP1 PUSH2 0x1D2 SWAP2 SWAP1 PUSH2 0x158C JUMP JUMPDEST PUSH2 0x58A JUMP JUMPDEST STOP JUMPDEST PUSH2 0x1E1 PUSH2 0x6EB JUMP JUMPDEST PUSH1 0x40 MLOAD PUSH2 0x1EE SWAP2 SWAP1 PUSH2 0x1620 JUMP JUMPDEST PUSH1 0x40 MLOAD DUP1 SWAP2 SUB SWAP1 RETURN JUMPDEST PUSH2 0x211 PUSH1 0x4 DUP1 CALLDATASIZE SUB DUP2 ADD SWAP1 PUSH2 0x20C SWAP2 SWAP1 PUSH2 0x12D9 JUMP JUMPDEST PUSH2 0x6F4 JUMP JUMPDEST PUSH1 0x40 MLOAD PUSH2 0x21E SWAP2 SWAP1 PUSH2 0x1334 JUMP JUMPDEST PUSH1 0x40 MLOAD DUP1 SWAP2 SUB SWAP1 RETURN JUMPDEST PUSH2 0x241 PUSH1 0x4 DUP1 CALLDATASIZE SUB DUP2 ADD SWAP1 PUSH2 0x23C SWAP2 SWAP1 PUSH2 0x163B JUMP JUMPDEST PUSH2 0x72B JUMP JUMPDEST PUSH1 0x40 MLOAD PUSH2 0x24E SWAP2 SWAP1 PUSH2 0x151E JUMP JUMPDEST PUSH1 0x40 MLOAD DUP1 SWAP2 SUB SWAP1 RETURN JUMPDEST PUSH2 0x25F PUSH2 0x773 JUMP JUMPDEST PUSH1 0x40 MLOAD PUSH2 0x26C SWAP2 SWAP1 PUSH2 0x120F JUMP JUMPDEST PUSH1 0x40 MLOAD DUP1 SWAP2 SUB SWAP1 RETURN JUMPDEST PUSH2 0x27D PUSH2 0x805 JUMP JUMPDEST PUSH1 0x40 MLOAD PUSH2 0x28A SWAP2 SWAP1 PUSH2 0x151E JUMP JUMPDEST PUSH1 0x40 MLOAD DUP1 SWAP2 SUB SWAP1 RETURN JUMPDEST PUSH2 0x2AD PUSH1 0x4 DUP1 CALLDATASIZE SUB DUP2 ADD SWAP1 PUSH2 0x2A8 SWAP2 SWAP1 PUSH2 0x12D9 JUMP JUMPDEST PUSH2 0x811 JUMP JUMPDEST PUSH1 0x40 MLOAD PUSH2 0x2BA SWAP2 SWAP1 PUSH2 0x1334 JUMP JUMPDEST PUSH1 0x40 MLOAD DUP1 SWAP2 SUB SWAP1 RETURN JUMPDEST PUSH2 0x2DD PUSH1 0x4 DUP1 CALLDATASIZE SUB DUP2 ADD SWAP1 PUSH2 0x2D8 SWAP2 SWAP1 PUSH2 0x12D9 JUMP JUMPDEST PUSH2 0x888 JUMP JUMPDEST PUSH1 0x40 MLOAD PUSH2 0x2EA SWAP2 SWAP1 PUSH2 0x1334 JUMP JUMPDEST PUSH1 0x40 MLOAD DUP1 SWAP2 SUB SWAP1 RETURN JUMPDEST PUSH2 0x30D PUSH1 0x4 DUP1 CALLDATASIZE SUB DUP2 ADD SWAP1 PUSH2 0x308 SWAP2 SWAP1 PUSH2 0x1668 JUMP JUMPDEST PUSH2 0x8AB JUMP JUMPDEST STOP JUMPDEST PUSH2 0x329 PUSH1 0x4 DUP1 CALLDATASIZE SUB DUP2 ADD SWAP1 PUSH2 0x324 SWAP2 SWAP1 PUSH2 0x1668 JUMP JUMPDEST PUSH2 0x9DC JUMP JUMPDEST PUSH1 0x40 MLOAD PUSH2 0x338 SWAP4 SWAP3 SWAP2 SWAP1 PUSH2 0x16A4 JUMP JUMPDEST PUSH1 0x40 MLOAD DUP1 SWAP2 SUB SWAP1 RETURN JUMPDEST PUSH2 0x35B PUSH1 0x4 DUP1 CALLDATASIZE SUB DUP2 ADD SWAP1 PUSH2 0x356 SWAP2 SWAP1 PUSH2 0x16E9 JUMP JUMPDEST PUSH2 0xB9A JUMP JUMPDEST PUSH1 0x40 MLOAD PUSH2 0x368 SWAP2 SWAP1 PUSH2 0x151E JUMP JUMPDEST PUSH1 0x40 MLOAD DUP1 SWAP2 SUB SWAP1 RETURN JUMPDEST PUSH1 0x60 PUSH1 0x3 DUP1 SLOAD PUSH2 0x380 SWAP1 PUSH2 0x1758 JUMP JUMPDEST DUP1 PUSH1 0x1F ADD PUSH1 0x20 DUP1 SWAP2 DIV MUL PUSH1 0x20 ADD PUSH1 0x40 MLOAD SWAP1 DUP2 ADD PUSH1 0x40 MSTORE DUP1 SWAP3 SWAP2 SWAP1 DUP2 DUP2 MSTORE PUSH1 0x20 ADD DUP3 DUP1 SLOAD PUSH2 0x3AC SWAP1 PUSH2 0x1758 JUMP JUMPDEST DUP1 ISZERO PUSH2 0x3F9 JUMPI DUP1 PUSH1 0x1F LT PUSH2 0x3CE JUMPI PUSH2 0x100 DUP1 DUP4 SLOAD DIV MUL DUP4 MSTORE SWAP2 PUSH1 0x20 ADD SWAP2 PUSH2 0x3F9 JUMP JUMPDEST DUP3 ADD SWAP2 SWAP1 PUSH1 0x0 MSTORE PUSH1 0x20 PUSH1 0x0 KECCAK256 SWAP1 JUMPDEST DUP2 SLOAD DUP2 MSTORE SWAP1 PUSH1 0x1 ADD SWAP1 PUSH1 0x20 ADD DUP1 DUP4 GT PUSH2 0x3DC JUMPI DUP3 SWAP1 SUB PUSH1 0x1F AND DUP3 ADD SWAP2 JUMPDEST POP POP POP POP POP SWAP1 POP SWAP1 JUMP JUMPDEST PUSH1 0x0 DUP1 PUSH2 0x40E PUSH2 0xC21 JUMP JUMPDEST SWAP1 POP PUSH2 0x41B DUP2 DUP6 DUP6 PUSH2 0xC29 JUMP JUMPDEST PUSH1 0x1 SWAP2 POP POP SWAP3 SWAP2 POP POP JUMP JUMPDEST CALLER PUSH20 0xFFFFFFFFFFFFFFFFFFFFFFFFFFFFFFFFFFFFFFFF AND PUSH1 0x6 PUSH1 0x0 DUP6 DUP2 MSTORE PUSH1 0x20 ADD SWAP1 DUP2 MSTORE PUSH1 0x20 ADD PUSH1 0x0 KECCAK256 PUSH1 0x0 ADD PUSH1 0x0 SWAP1 SLOAD SWAP1 PUSH2 0x100 EXP SWAP1 DIV PUSH20 0xFFFFFFFFFFFFFFFFFFFFFFFFFFFFFFFFFFFFFFFF AND PUSH20 0xFFFFFFFFFFFFFFFFFFFFFFFFFFFFFFFFFFFFFFFF AND EQ PUSH2 0x4CA JUMPI PUSH1 0x40 MLOAD PUSH32 0x8C379A000000000000000000000000000000000000000000000000000000000 DUP2 MSTORE PUSH1 0x4 ADD PUSH2 0x4C1 SWAP1 PUSH2 0x17FB JUMP JUMPDEST PUSH1 0x40 MLOAD DUP1 SWAP2 SUB SWAP1 REVERT JUMPDEST DUP2 PUSH1 0x6 PUSH1 0x0 DUP6 DUP2 MSTORE PUSH1 0x20 ADD SWAP1 DUP2 MSTORE PUSH1 0x20 ADD PUSH1 0x0 KECCAK256 PUSH1 0x1 ADD SWAP1 DUP2 PUSH2 0x4ED SWAP2 SWAP1 PUSH2 0x19C7 JUMP JUMPDEST POP DUP1 PUSH1 0x6 PUSH1 0x0 DUP6 DUP2 MSTORE PUSH1 0x20 ADD SWAP1 DUP2 MSTORE PUSH1 0x20 ADD PUSH1 0x0 KECCAK256 PUSH1 0x2 ADD SWAP1 DUP2 PUSH2 0x511 SWAP2 SWAP1 PUSH2 0x19C7 JUMP JUMPDEST POP DUP3 PUSH32 0xF0632914D6D637E9A214FC715DC019E425C105498FFE6FED5E8597ED4920E9C8 DUP4 DUP4 PUSH1 0x40 MLOAD PUSH2 0x544 SWAP3 SWAP2 SWAP1 PUSH2 0x1A99 JUMP JUMPDEST PUSH1 0x40 MLOAD DUP1 SWAP2 SUB SWAP1 LOG2 POP POP POP JUMP JUMPDEST PUSH1 0x0 PUSH1 0x2 SLOAD SWAP1 POP SWAP1 JUMP JUMPDEST PUSH1 0x0 DUP1 PUSH2 0x566 PUSH2 0xC21 JUMP JUMPDEST SWAP1 POP PUSH2 0x573 DUP6 DUP3 DUP6 PUSH2 0xDF2 JUMP JUMPDEST PUSH2 0x57E DUP6 DUP6 DUP6 PUSH2 0xE7E JUMP JUMPDEST PUSH1 0x1 SWAP2 POP POP SWAP4 SWAP3 POP POP POP JUMP JUMPDEST PUSH1 0x0 PUSH2 0x595 CALLER PUSH2 0x72B JUMP JUMPDEST GT PUSH2 0x5D5 JUMPI PUSH1 0x40 MLOAD PUSH32 0x8C379A000000000000000000000000000000000000000000000000000000000 DUP2 MSTORE PUSH1 0x4 ADD PUSH2 0x5CC SWAP1 PUSH2 0x1B1C JUMP JUMPDEST PUSH1 0x40 MLOAD DUP1 SWAP2 SUB SWAP1 REVERT JUMPDEST PUSH2 0x5DF PUSH1 0x5 PUSH2 0x10F4 JUMP JUMPDEST PUSH1 0x40 MLOAD DUP1 PUSH1 0x60 ADD PUSH1 0x40 MSTORE DUP1 CALLER PUSH20 0xFFFFFFFFFFFFFFFFFFFFFFFFFFFFFFFFFFFFFFFF AND DUP2 MSTORE PUSH1 0x20 ADD DUP4 DUP2 MSTORE PUSH1 0x20 ADD DUP3 DUP2 MSTORE POP PUSH1 0x6 PUSH1 0x0 PUSH2 0x61E PUSH1 0x5 PUSH2 0x110A JUMP JUMPDEST DUP2 MSTORE PUSH1 0x20 ADD SWAP1 DUP2 MSTORE PUSH1 0x20 ADD PUSH1 0x0 KECCAK256 PUSH1 0x0 DUP3 ADD MLOAD DUP2 PUSH1 0x0 ADD PUSH1 0x0 PUSH2 0x100 EXP DUP2 SLOAD DUP2 PUSH20 0xFFFFFFFFFFFFFFFFFFFFFFFFFFFFFFFFFFFFFFFF MUL NOT AND SWAP1 DUP4 PUSH20 0xFFFFFFFFFFFFFFFFFFFFFFFFFFFFFFFFFFFFFFFF AND MUL OR SWAP1 SSTORE POP PUSH1 0x20 DUP3 ADD MLOAD DUP2 PUSH1 0x1 ADD SWAP1 DUP2 PUSH2 0x688 SWAP2 SWAP1 PUSH2 0x19C7 JUMP JUMPDEST POP PUSH1 0x40 DUP3 ADD MLOAD DUP2 PUSH1 0x2 ADD SWAP1 DUP2 PUSH2 0x69E SWAP2 SWAP1 PUSH2 0x19C7 JUMP JUMPDEST POP SWAP1 POP POP PUSH2 0x6AC PUSH1 0x5 PUSH2 0x110A JUMP JUMPDEST PUSH32 0xB64DEF3CC683802A4837EF3A7B96AA9834F75EE8DA72F3C08D38366FAEA4FDC8 CALLER DUP5 DUP5 PUSH1 0x40 MLOAD PUSH2 0x6DF SWAP4 SWAP3 SWAP2 SWAP1 PUSH2 0x16A4 JUMP JUMPDEST PUSH1 0x40 MLOAD DUP1 SWAP2 SUB SWAP1 LOG2 POP POP JUMP JUMPDEST PUSH1 0x0 PUSH1 0x12 SWAP1 POP SWAP1 JUMP JUMPDEST PUSH1 0x0 DUP1 PUSH2 0x6FF PUSH2 0xC21 JUMP JUMPDEST SWAP1 POP PUSH2 0x720 DUP2 DUP6 DUP6 PUSH2 0x711 DUP6 DUP10 PUSH2 0xB9A JUMP JUMPDEST PUSH2 0x71B SWAP2 SWAP1 PUSH2 0x1B6B JUMP JUMPDEST PUSH2 0xC29 JUMP JUMPDEST PUSH1 0x1 SWAP2 POP POP SWAP3 SWAP2 POP POP JUMP JUMPDEST PUSH1 0x0 DUP1 PUSH1 0x0 DUP4 PUSH20 0xFFFFFFFFFFFFFFFFFFFFFFFFFFFFFFFFFFFFFFFF AND PUSH20 0xFFFFFFFFFFFFFFFFFFFFFFFFFFFFFFFFFFFFFFFF AND DUP2 MSTORE PUSH1 0x20 ADD SWAP1 DUP2 MSTORE PUSH1 0x20 ADD PUSH1 0x0 KECCAK256 SLOAD SWAP1 POP SWAP2 SWAP1 POP JUMP JUMPDEST PUSH1 0x60 PUSH1 0x4 DUP1 SLOAD PUSH2 0x782 SWAP1 PUSH2 0x1758 JUMP JUMPDEST DUP1 PUSH1 0x1F ADD PUSH1 0x20 DUP1 SWAP2 DIV MUL PUSH1 0x20 ADD PUSH1 0x40 MLOAD SWAP1 DUP2 ADD PUSH1 0x40 MSTORE DUP1 SWAP3 SWAP2 SWAP1 DUP2 DUP2 MSTORE PUSH1 0x20 ADD DUP3 DUP1 SLOAD PUSH2 0x7AE SWAP1 PUSH2 0x1758 JUMP JUMPDEST DUP1 ISZERO PUSH2 0x7FB JUMPI DUP1 PUSH1 0x1F LT PUSH2 0x7D0 JUMPI PUSH2 0x100 DUP1 DUP4 SLOAD DIV MUL DUP4 MSTORE SWAP2 PUSH1 0x20 ADD SWAP2 PUSH2 0x7FB JUMP JUMPDEST DUP3 ADD SWAP2 SWAP1 PUSH1 0x0 MSTORE PUSH1 0x20 PUSH1 0x0 KECCAK256 SWAP1 JUMPDEST DUP2 SLOAD DUP2 MSTORE SWAP1 PUSH1 0x1 ADD SWAP1 PUSH1 0x20 ADD DUP1 DUP4 GT PUSH2 0x7DE JUMPI DUP3 SWAP1 SUB PUSH1 0x1F AND DUP3 ADD SWAP2 JUMPDEST POP POP POP POP POP SWAP1 POP SWAP1 JUMP JUMPDEST PUSH1 0x5 DUP1 PUSH1 0x0 ADD SLOAD SWAP1 POP DUP2 JUMP JUMPDEST PUSH1 0x0 DUP1 PUSH2 0x81C PUSH2 0xC21 JUMP JUMPDEST SWAP1 POP PUSH1 0x0 PUSH2 0x82A DUP3 DUP7 PUSH2 0xB9A JUMP JUMPDEST SWAP1 POP DUP4 DUP2 LT ISZERO PUSH2 0x86F JUMPI PUSH1 0x40 MLOAD PUSH32 0x8C379A000000000000000000000000000000000000000000000000000000000 DUP2 MSTORE PUSH1 0x4 ADD PUSH2 0x866 SWAP1 PUSH2 0x1C11 JUMP JUMPDEST PUSH1 0x40 MLOAD DUP1 SWAP2 SUB SWAP1 REVERT JUMPDEST PUSH2 0x87C DUP3 DUP7 DUP7 DUP5 SUB PUSH2 0xC29 JUMP JUMPDEST PUSH1 0x1 SWAP3 POP POP POP SWAP3 SWAP2 POP POP JUMP JUMPDEST PUSH1 0x0 DUP1 PUSH2 0x893 PUSH2 0xC21 JUMP JUMPDEST SWAP1 POP PUSH2 0x8A0 DUP2 DUP6 DUP6 PUSH2 0xE7E JUMP JUMPDEST PUSH1 0x1 SWAP2 POP POP SWAP3 SWAP2 POP POP JUMP JUMPDEST CALLER PUSH20 0xFFFFFFFFFFFFFFFFFFFFFFFFFFFFFFFFFFFFFFFF AND PUSH1 0x6 PUSH1 0x0 DUP4 DUP2 MSTORE PUSH1 0x20 ADD SWAP1 DUP2 MSTORE PUSH1 0x20 ADD PUSH1 0x0 KECCAK256 PUSH1 0x0 ADD PUSH1 0x0 SWAP1 SLOAD SWAP1 PUSH2 0x100 EXP SWAP1 DIV PUSH20 0xFFFFFFFFFFFFFFFFFFFFFFFFFFFFFFFFFFFFFFFF AND PUSH20 0xFFFFFFFFFFFFFFFFFFFFFFFFFFFFFFFFFFFFFFFF AND EQ PUSH2 0x94F JUMPI PUSH1 0x40 MLOAD PUSH32 0x8C379A000000000000000000000000000000000000000000000000000000000 DUP2 MSTORE PUSH1 0x4 ADD PUSH2 0x946 SWAP1 PUSH2 0x1CA3 JUMP JUMPDEST PUSH1 0x40 MLOAD DUP1 SWAP2 SUB SWAP1 REVERT JUMPDEST PUSH1 0x6 PUSH1 0x0 DUP3 DUP2 MSTORE PUSH1 0x20 ADD SWAP1 DUP2 MSTORE PUSH1 0x20 ADD PUSH1 0x0 KECCAK256 PUSH1 0x0 DUP1 DUP3 ADD PUSH1 0x0 PUSH2 0x100 EXP DUP2 SLOAD SWAP1 PUSH20 0xFFFFFFFFFFFFFFFFFFFFFFFFFFFFFFFFFFFFFFFF MUL NOT AND SWAP1 SSTORE PUSH1 0x1 DUP3 ADD PUSH1 0x0 PUSH2 0x99A SWAP2 SWAP1 PUSH2 0x1122 JUMP JUMPDEST PUSH1 0x2 DUP3 ADD PUSH1 0x0 PUSH2 0x9AA SWAP2 SWAP1 PUSH2 0x1122 JUMP JUMPDEST POP POP DUP1 PUSH32 0x89AF6BA62AB348DC535A3187C267090F834C868A3820CD552A7110C3DC3EEDB8 PUSH1 0x40 MLOAD PUSH1 0x40 MLOAD DUP1 SWAP2 SUB SWAP1 LOG2 POP JUMP JUMPDEST PUSH1 0x0 PUSH1 0x60 DUP1 PUSH1 0x0 PUSH1 0x6 PUSH1 0x0 DUP7 DUP2 MSTORE PUSH1 0x20 ADD SWAP1 DUP2 MSTORE PUSH1 0x20 ADD PUSH1 0x0 KECCAK256 PUSH1 0x40 MLOAD DUP1 PUSH1 0x60 ADD PUSH1 0x40 MSTORE SWAP1 DUP2 PUSH1 0x0 DUP3 ADD PUSH1 0x0 SWAP1 SLOAD SWAP1 PUSH2 0x100 EXP SWAP1 DIV PUSH20 0xFFFFFFFFFFFFFFFFFFFFFFFFFFFFFFFFFFFFFFFF AND PUSH20 0xFFFFFFFFFFFFFFFFFFFFFFFFFFFFFFFFFFFFFFFF AND PUSH20 0xFFFFFFFFFFFFFFFFFFFFFFFFFFFFFFFFFFFFFFFF AND DUP2 MSTORE PUSH1 0x20 ADD PUSH1 0x1 DUP3 ADD DUP1 SLOAD PUSH2 0xA67 SWAP1 PUSH2 0x1758 JUMP JUMPDEST DUP1 PUSH1 0x1F ADD PUSH1 0x20 DUP1 SWAP2 DIV MUL PUSH1 0x20 ADD PUSH1 0x40 MLOAD SWAP1 DUP2 ADD PUSH1 0x40 MSTORE DUP1 SWAP3 SWAP2 SWAP1 DUP2 DUP2 MSTORE PUSH1 0x20 ADD DUP3 DUP1 SLOAD PUSH2 0xA93 SWAP1 PUSH2 0x1758 JUMP JUMPDEST DUP1 ISZERO PUSH2 0xAE0 JUMPI DUP1 PUSH1 0x1F LT PUSH2 0xAB5 JUMPI PUSH2 0x100 DUP1 DUP4 SLOAD DIV MUL DUP4 MSTORE SWAP2 PUSH1 0x20 ADD SWAP2 PUSH2 0xAE0 JUMP JUMPDEST DUP3 ADD SWAP2 SWAP1 PUSH1 0x0 MSTORE PUSH1 0x20 PUSH1 0x0 KECCAK256 SWAP1 JUMPDEST DUP2 SLOAD DUP2 MSTORE SWAP1 PUSH1 0x1 ADD SWAP1 PUSH1 0x20 ADD DUP1 DUP4 GT PUSH2 0xAC3 JUMPI DUP3 SWAP1 SUB PUSH1 0x1F AND DUP3 ADD SWAP2 JUMPDEST POP POP POP POP POP DUP2 MSTORE PUSH1 0x20 ADD PUSH1 0x2 DUP3 ADD DUP1 SLOAD PUSH2 0xAF9 SWAP1 PUSH2 0x1758 JUMP JUMPDEST DUP1 PUSH1 0x1F ADD PUSH1 0x20 DUP1 SWAP2 DIV MUL PUSH1 0x20 ADD PUSH1 0x40 MLOAD SWAP1 DUP2 ADD PUSH1 0x40 MSTORE DUP1 SWAP3 SWAP2 SWAP1 DUP2 DUP2 MSTORE PUSH1 0x20 ADD DUP3 DUP1 SLOAD PUSH2 0xB25 SWAP1 PUSH2 0x1758 JUMP JUMPDEST DUP1 ISZERO PUSH2 0xB72 JUMPI DUP1 PUSH1 0x1F LT PUSH2 0xB47 JUMPI PUSH2 0x100 DUP1 DUP4 SLOAD DIV MUL DUP4 MSTORE SWAP2 PUSH1 0x20 ADD SWAP2 PUSH2 0xB72 JUMP JUMPDEST DUP3 ADD SWAP2 SWAP1 PUSH1 0x0 MSTORE PUSH1 0x20 PUSH1 0x0 KECCAK256 SWAP1 JUMPDEST DUP2 SLOAD DUP2 MSTORE SWAP1 PUSH1 0x1 ADD SWAP1 PUSH1 0x20 ADD DUP1 DUP4 GT PUSH2 0xB55 JUMPI DUP3 SWAP1 SUB PUSH1 0x1F AND DUP3 ADD SWAP2 JUMPDEST POP POP POP POP POP DUP2 MSTORE POP POP SWAP1 POP DUP1 PUSH1 0x0 ADD MLOAD DUP2 PUSH1 0x20 ADD MLOAD DUP3 PUSH1 0x40 ADD MLOAD SWAP4 POP SWAP4 POP SWAP4 POP POP SWAP2 SWAP4 SWAP1 SWAP3 POP JUMP JUMPDEST PUSH1 0x0 PUSH1 0x1 PUSH1 0x0 DUP5 PUSH20 0xFFFFFFFFFFFFFFFFFFFFFFFFFFFFFFFFFFFFFFFF AND PUSH20 0xFFFFFFFFFFFFFFFFFFFFFFFFFFFFFFFFFFFFFFFF AND DUP2 MSTORE PUSH1 0x20 ADD SWAP1 DUP2 MSTORE PUSH1 0x20 ADD PUSH1 0x0 KECCAK256 PUSH1 0x0 DUP4 PUSH20 0xFFFFFFFFFFFFFFFFFFFFFFFFFFFFFFFFFFFFFFFF AND PUSH20 0xFFFFFFFFFFFFFFFFFFFFFFFFFFFFFFFFFFFFFFFF AND DUP2 MSTORE PUSH1 0x20 ADD SWAP1 DUP2 MSTORE PUSH1 0x20 ADD PUSH1 0x0 KECCAK256 SLOAD SWAP1 POP SWAP3 SWAP2 POP POP JUMP JUMPDEST PUSH1 0x0 CALLER SWAP1 POP SWAP1 JUMP JUMPDEST PUSH1 0x0 PUSH20 0xFFFFFFFFFFFFFFFFFFFFFFFFFFFFFFFFFFFFFFFF AND DUP4 PUSH20 0xFFFFFFFFFFFFFFFFFFFFFFFFFFFFFFFFFFFFFFFF AND SUB PUSH2 0xC98 JUMPI PUSH1 0x40 MLOAD PUSH32 0x8C379A000000000000000000000000000000000000000000000000000000000 DUP2 MSTORE PUSH1 0x4 ADD PUSH2 0xC8F SWAP1 PUSH2 0x1D35 JUMP JUMPDEST PUSH1 0x40 MLOAD DUP1 SWAP2 SUB SWAP1 REVERT JUMPDEST PUSH1 0x0 PUSH20 0xFFFFFFFFFFFFFFFFFFFFFFFFFFFFFFFFFFFFFFFF AND DUP3 PUSH20 0xFFFFFFFFFFFFFFFFFFFFFFFFFFFFFFFFFFFFFFFF AND SUB PUSH2 0xD07 JUMPI PUSH1 0x40 MLOAD PUSH32 0x8C379A000000000000000000000000000000000000000000000000000000000 DUP2 MSTORE PUSH1 0x4 ADD PUSH2 0xCFE SWAP1 PUSH2 0x1DC7 JUMP JUMPDEST PUSH1 0x40 MLOAD DUP1 SWAP2 SUB SWAP1 REVERT JUMPDEST DUP1 PUSH1 0x1 PUSH1 0x0 DUP6 PUSH20 0xFFFFFFFFFFFFFFFFFFFFFFFFFFFFFFFFFFFFFFFF AND PUSH20 0xFFFFFFFFFFFFFFFFFFFFFFFFFFFFFFFFFFFFFFFF AND DUP2 MSTORE PUSH1 0x20 ADD SWAP1 DUP2 MSTORE PUSH1 0x20 ADD PUSH1 0x0 KECCAK256 PUSH1 0x0 DUP5 PUSH20 0xFFFFFFFFFFFFFFFFFFFFFFFFFFFFFFFFFFFFFFFF AND PUSH20 0xFFFFFFFFFFFFFFFFFFFFFFFFFFFFFFFFFFFFFFFF AND DUP2 MSTORE PUSH1 0x20 ADD SWAP1 DUP2 MSTORE PUSH1 0x20 ADD PUSH1 0x0 KECCAK256 DUP2 SWAP1 SSTORE POP DUP2 PUSH20 0xFFFFFFFFFFFFFFFFFFFFFFFFFFFFFFFFFFFFFFFF AND DUP4 PUSH20 0xFFFFFFFFFFFFFFFFFFFFFFFFFFFFFFFFFFFFFFFF AND PUSH32 0x8C5BE1E5EBEC7D5BD14F71427D1E84F3DD0314C0F7B2291E5B200AC8C7C3B925 DUP4 PUSH1 0x40 MLOAD PUSH2 0xDE5 SWAP2 SWAP1 PUSH2 0x151E JUMP JUMPDEST PUSH1 0x40 MLOAD DUP1 SWAP2 SUB SWAP1 LOG3 POP POP POP JUMP JUMPDEST PUSH1 0x0 PUSH2 0xDFE DUP5 DUP5 PUSH2 0xB9A JUMP JUMPDEST SWAP1 POP PUSH32 0xFFFFFFFFFFFFFFFFFFFFFFFFFFFFFFFFFFFFFFFFFFFFFFFFFFFFFFFFFFFFFFFF DUP2 EQ PUSH2 0xE78 JUMPI DUP2 DUP2 LT ISZERO PUSH2 0xE6A JUMPI PUSH1 0x40 MLOAD PUSH32 0x8C379A000000000000000000000000000000000000000000000000000000000 DUP2 MSTORE PUSH1 0x4 ADD PUSH2 0xE61 SWAP1 PUSH2 0x1E33 JUMP JUMPDEST PUSH1 0x40 MLOAD DUP1 SWAP2 SUB SWAP1 REVERT JUMPDEST PUSH2 0xE77 DUP5 DUP5 DUP5 DUP5 SUB PUSH2 0xC29 JUMP JUMPDEST JUMPDEST POP POP POP POP JUMP JUMPDEST PUSH1 0x0 PUSH20 0xFFFFFFFFFFFFFFFFFFFFFFFFFFFFFFFFFFFFFFFF AND DUP4 PUSH20 0xFFFFFFFFFFFFFFFFFFFFFFFFFFFFFFFFFFFFFFFF AND SUB PUSH2 0xEED JUMPI PUSH1 0x40 MLOAD PUSH32 0x8C379A000000000000000000000000000000000000000000000000000000000 DUP2 MSTORE PUSH1 0x4 ADD PUSH2 0xEE4 SWAP1 PUSH2 0x1EC5 JUMP JUMPDEST PUSH1 0x40 MLOAD DUP1 SWAP2 SUB SWAP1 REVERT JUMPDEST PUSH1 0x0 PUSH20 0xFFFFFFFFFFFFFFFFFFFFFFFFFFFFFFFFFFFFFFFF AND DUP3 PUSH20 0xFFFFFFFFFFFFFFFFFFFFFFFFFFFFFFFFFFFFFFFF AND SUB PUSH2 0xF5C JUMPI PUSH1 0x40 MLOAD PUSH32 0x8C379A000000000000000000000000000000000000000000000000000000000 DUP2 MSTORE PUSH1 0x4 ADD PUSH2 0xF53 SWAP1 PUSH2 0x1F57 JUMP JUMPDEST PUSH1 0x40 MLOAD DUP1 SWAP2 SUB SWAP1 REVERT JUMPDEST PUSH2 0xF67 DUP4 DUP4 DUP4 PUSH2 0x1118 JUMP JUMPDEST PUSH1 0x0 DUP1 PUSH1 0x0 DUP6 PUSH20 0xFFFFFFFFFFFFFFFFFFFFFFFFFFFFFFFFFFFFFFFF AND PUSH20 0xFFFFFFFFFFFFFFFFFFFFFFFFFFFFFFFFFFFFFFFF AND DUP2 MSTORE PUSH1 0x20 ADD SWAP1 DUP2 MSTORE PUSH1 0x20 ADD PUSH1 0x0 KECCAK256 SLOAD SWAP1 POP DUP2 DUP2 LT ISZERO PUSH2 0xFED JUMPI PUSH1 0x40 MLOAD PUSH32 0x8C379A000000000000000000000000000000000000000000000000000000000 DUP2 MSTORE PUSH1 0x4 ADD PUSH2 0xFE4 SWAP1 PUSH2 0x1FE9 JUMP JUMPDEST PUSH1 0x40 MLOAD DUP1 SWAP2 SUB SWAP1 REVERT JUMPDEST DUP2 DUP2 SUB PUSH1 0x0 DUP1 DUP7 PUSH20 0xFFFFFFFFFFFFFFFFFFFFFFFFFFFFFFFFFFFFFFFF AND PUSH20 0xFFFFFFFFFFFFFFFFFFFFFFFFFFFFFFFFFFFFFFFF AND DUP2 MSTORE PUSH1 0x20 ADD SWAP1 DUP2 MSTORE PUSH1 0x20 ADD PUSH1 0x0 KECCAK256 DUP2 SWAP1 SSTORE POP DUP2 PUSH1 0x0 DUP1 DUP6 PUSH20 0xFFFFFFFFFFFFFFFFFFFFFFFFFFFFFFFFFFFFFFFF AND PUSH20 0xFFFFFFFFFFFFFFFFFFFFFFFFFFFFFFFFFFFFFFFF AND DUP2 MSTORE PUSH1 0x20 ADD SWAP1 DUP2 MSTORE PUSH1 0x20 ADD PUSH1 0x0 KECCAK256 PUSH1 0x0 DUP3 DUP3 SLOAD ADD SWAP3 POP POP DUP2 SWAP1 SSTORE POP DUP3 PUSH20 0xFFFFFFFFFFFFFFFFFFFFFFFFFFFFFFFFFFFFFFFF AND DUP5 PUSH20 0xFFFFFFFFFFFFFFFFFFFFFFFFFFFFFFFFFFFFFFFF AND PUSH32 0xDDF252AD1BE2C89B69C2B068FC378DAA952BA7F163C4A11628F55A4DF523B3EF DUP5 PUSH1 0x40 MLOAD PUSH2 0x10DB SWAP2 SWAP1 PUSH2 0x151E JUMP JUMPDEST PUSH1 0x40 MLOAD DUP1 SWAP2 SUB SWAP1 LOG3 PUSH2 0x10EE DUP5 DUP5 DUP5 PUSH2 0x111D JUMP JUMPDEST POP POP POP POP JUMP JUMPDEST PUSH1 0x1 DUP2 PUSH1 0x0 ADD PUSH1 0x0 DUP3 DUP3 SLOAD ADD SWAP3 POP POP DUP2 SWAP1 SSTORE POP POP JUMP JUMPDEST PUSH1 0x0 DUP2 PUSH1 0x0 ADD SLOAD SWAP1 POP SWAP2 SWAP1 POP JUMP JUMPDEST POP POP POP JUMP JUMPDEST POP POP POP JUMP JUMPDEST POP DUP1 SLOAD PUSH2 0x112E SWAP1 PUSH2 0x1758 JUMP JUMPDEST PUSH1 0x0 DUP3 SSTORE DUP1 PUSH1 0x1F LT PUSH2 0x1140 JUMPI POP PUSH2 0x115F JUMP JUMPDEST PUSH1 0x1F ADD PUSH1 0x20 SWAP1 DIV SWAP1 PUSH1 0x0 MSTORE PUSH1 0x20 PUSH1 0x0 KECCAK256 SWAP1 DUP2 ADD SWAP1 PUSH2 0x115E SWAP2 SWAP1 PUSH2 0x1162 JUMP JUMPDEST JUMPDEST POP JUMP JUMPDEST JUMPDEST DUP1 DUP3 GT ISZERO PUSH2 0x117B JUMPI PUSH1 0x0 DUP2 PUSH1 0x0 SWAP1 SSTORE POP PUSH1 0x1 ADD PUSH2 0x1163 JUMP JUMPDEST POP SWAP1 JUMP JUMPDEST PUSH1 0x0 DUP2 MLOAD SWAP1 POP SWAP2 SWAP1 POP JUMP JUMPDEST PUSH1 0x0 DUP3 DUP3 MSTORE PUSH1 0x20 DUP3 ADD SWAP1 POP SWAP3 SWAP2 POP POP JUMP JUMPDEST PUSH1 0x0 JUMPDEST DUP4 DUP2 LT ISZERO PUSH2 0x11B9 JUMPI DUP1 DUP3 ADD MLOAD DUP2 DUP5 ADD MSTORE PUSH1 0x20 DUP2 ADD SWAP1 POP PUSH2 0x119E JUMP JUMPDEST PUSH1 0x0 DUP5 DUP5 ADD MSTORE POP POP POP POP JUMP JUMPDEST PUSH1 0x0 PUSH1 0x1F NOT PUSH1 0x1F DUP4 ADD AND SWAP1 POP SWAP2 SWAP1 POP JUMP JUMPDEST PUSH1 0x0 PUSH2 0x11E1 DUP3 PUSH2 0x117F JUMP JUMPDEST PUSH2 0x11EB DUP2 DUP6 PUSH2 0x118A JUMP JUMPDEST SWAP4 POP PUSH2 0x11FB DUP2 DUP6 PUSH1 0x20 DUP7 ADD PUSH2 0x119B JUMP JUMPDEST PUSH2 0x1204 DUP2 PUSH2 0x11C5 JUMP JUMPDEST DUP5 ADD SWAP2 POP POP SWAP3 SWAP2 POP POP JUMP JUMPDEST PUSH1 0x0 PUSH1 0x20 DUP3 ADD SWAP1 POP DUP2 DUP2 SUB PUSH1 0x0 DUP4 ADD MSTORE PUSH2 0x1229 DUP2 DUP5 PUSH2 0x11D6 JUMP JUMPDEST SWAP1 POP SWAP3 SWAP2 POP POP JUMP JUMPDEST PUSH1 0x0 PUSH1 0x40 MLOAD SWAP1 POP SWAP1 JUMP JUMPDEST PUSH1 0x0 DUP1 REVERT JUMPDEST PUSH1 0x0 DUP1 REVERT JUMPDEST PUSH1 0x0 PUSH20 0xFFFFFFFFFFFFFFFFFFFFFFFFFFFFFFFFFFFFFFFF DUP3 AND SWAP1 POP SWAP2 SWAP1 POP JUMP JUMPDEST PUSH1 0x0 PUSH2 0x1270 DUP3 PUSH2 0x1245 JUMP JUMPDEST SWAP1 POP SWAP2 SWAP1 POP JUMP JUMPDEST PUSH2 0x1280 DUP2 PUSH2 0x1265 JUMP JUMPDEST DUP2 EQ PUSH2 0x128B JUMPI PUSH1 0x0 DUP1 REVERT JUMPDEST POP JUMP JUMPDEST PUSH1 0x0 DUP2 CALLDATALOAD SWAP1 POP PUSH2 0x129D DUP2 PUSH2 0x1277 JUMP JUMPDEST SWAP3 SWAP2 POP POP JUMP JUMPDEST PUSH1 0x0 DUP2 SWAP1 POP SWAP2 SWAP1 POP JUMP JUMPDEST PUSH2 0x12B6 DUP2 PUSH2 0x12A3 JUMP JUMPDEST DUP2 EQ PUSH2 0x12C1 JUMPI PUSH1 0x0 DUP1 REVERT JUMPDEST POP JUMP JUMPDEST PUSH1 0x0 DUP2 CALLDATALOAD SWAP1 POP PUSH2 0x12D3 DUP2 PUSH2 0x12AD JUMP JUMPDEST SWAP3 SWAP2 POP POP JUMP JUMPDEST PUSH1 0x0 DUP1 PUSH1 0x40 DUP4 DUP6 SUB SLT ISZERO PUSH2 0x12F0 JUMPI PUSH2 0x12EF PUSH2 0x123B JUMP JUMPDEST JUMPDEST PUSH1 0x0 PUSH2 0x12FE DUP6 DUP3 DUP7 ADD PUSH2 0x128E JUMP JUMPDEST SWAP3 POP POP PUSH1 0x20 PUSH2 0x130F DUP6 DUP3 DUP7 ADD PUSH2 0x12C4 JUMP JUMPDEST SWAP2 POP POP SWAP3 POP SWAP3 SWAP1 POP JUMP JUMPDEST PUSH1 0x0 DUP2 ISZERO ISZERO SWAP1 POP SWAP2 SWAP1 POP JUMP JUMPDEST PUSH2 0x132E DUP2 PUSH2 0x1319 JUMP JUMPDEST DUP3 MSTORE POP POP JUMP JUMPDEST PUSH1 0x0 PUSH1 0x20 DUP3 ADD SWAP1 POP PUSH2 0x1349 PUSH1 0x0 DUP4 ADD DUP5 PUSH2 0x1325 JUMP JUMPDEST SWAP3 SWAP2 POP POP JUMP JUMPDEST PUSH1 0x0 DUP1 REVERT JUMPDEST PUSH1 0x0 DUP1 REVERT JUMPDEST PUSH32 0x4E487B7100000000000000000000000000000000000000000000000000000000 PUSH1 0x0 MSTORE PUSH1 0x41 PUSH1 0x4 MSTORE PUSH1 0x24 PUSH1 0x0 REVERT JUMPDEST PUSH2 0x1391 DUP3 PUSH2 0x11C5 JUMP JUMPDEST DUP2 ADD DUP2 DUP2 LT PUSH8 0xFFFFFFFFFFFFFFFF DUP3 GT OR ISZERO PUSH2 0x13B0 JUMPI PUSH2 0x13AF PUSH2 0x1359 JUMP JUMPDEST JUMPDEST DUP1 PUSH1 0x40 MSTORE POP POP POP JUMP JUMPDEST PUSH1 0x0 PUSH2 0x13C3 PUSH2 0x1231 JUMP JUMPDEST SWAP1 POP PUSH2 0x13CF DUP3 DUP3 PUSH2 0x1388 JUMP JUMPDEST SWAP2 SWAP1 POP JUMP JUMPDEST PUSH1 0x0 PUSH8 0xFFFFFFFFFFFFFFFF DUP3 GT ISZERO PUSH2 0x13EF JUMPI PUSH2 0x13EE PUSH2 0x1359 JUMP JUMPDEST JUMPDEST PUSH2 0x13F8 DUP3 PUSH2 0x11C5 JUMP JUMPDEST SWAP1 POP PUSH1 0x20 DUP2 ADD SWAP1 POP SWAP2 SWAP1 POP JUMP JUMPDEST DUP3 DUP2 DUP4 CALLDATACOPY PUSH1 0x0 DUP4 DUP4 ADD MSTORE POP POP POP JUMP JUMPDEST PUSH1 0x0 PUSH2 0x1427 PUSH2 0x1422 DUP5 PUSH2 0x13D4 JUMP JUMPDEST PUSH2 0x13B9 JUMP JUMPDEST SWAP1 POP DUP3 DUP2 MSTORE PUSH1 0x20 DUP2 ADD DUP5 DUP5 DUP5 ADD GT ISZERO PUSH2 0x1443 JUMPI PUSH2 0x1442 PUSH2 0x1354 JUMP JUMPDEST JUMPDEST PUSH2 0x144E DUP5 DUP3 DUP6 PUSH2 0x1405 JUMP JUMPDEST POP SWAP4 SWAP3 POP POP POP JUMP JUMPDEST PUSH1 0x0 DUP3 PUSH1 0x1F DUP4 ADD SLT PUSH2 0x146B JUMPI PUSH2 0x146A PUSH2 0x134F JUMP JUMPDEST JUMPDEST DUP2 CALLDATALOAD PUSH2 0x147B DUP5 DUP3 PUSH1 0x20 DUP7 ADD PUSH2 0x1414 JUMP JUMPDEST SWAP2 POP POP SWAP3 SWAP2 POP POP JUMP JUMPDEST PUSH1 0x0 DUP1 PUSH1 0x0 PUSH1 0x60 DUP5 DUP7 SUB SLT ISZERO PUSH2 0x149D JUMPI PUSH2 0x149C PUSH2 0x123B JUMP JUMPDEST JUMPDEST PUSH1 0x0 PUSH2 0x14AB DUP7 DUP3 DUP8 ADD PUSH2 0x12C4 JUMP JUMPDEST SWAP4 POP POP PUSH1 0x20 DUP5 ADD CALLDATALOAD PUSH8 0xFFFFFFFFFFFFFFFF DUP2 GT ISZERO PUSH2 0x14CC JUMPI PUSH2 0x14CB PUSH2 0x1240 JUMP JUMPDEST JUMPDEST PUSH2 0x14D8 DUP7 DUP3 DUP8 ADD PUSH2 0x1456 JUMP JUMPDEST SWAP3 POP POP PUSH1 0x40 DUP5 ADD CALLDATALOAD PUSH8 0xFFFFFFFFFFFFFFFF DUP2 GT ISZERO PUSH2 0x14F9 JUMPI PUSH2 0x14F8 PUSH2 0x1240 JUMP JUMPDEST JUMPDEST PUSH2 0x1505 DUP7 DUP3 DUP8 ADD PUSH2 0x1456 JUMP JUMPDEST SWAP2 POP POP SWAP3 POP SWAP3 POP SWAP3 JUMP JUMPDEST PUSH2 0x1518 DUP2 PUSH2 0x12A3 JUMP JUMPDEST DUP3 MSTORE POP POP JUMP JUMPDEST PUSH1 0x0 PUSH1 0x20 DUP3 ADD SWAP1 POP PUSH2 0x1533 PUSH1 0x0 DUP4 ADD DUP5 PUSH2 0x150F JUMP JUMPDEST SWAP3 SWAP2 POP POP JUMP JUMPDEST PUSH1 0x0 DUP1 PUSH1 0x0 PUSH1 0x60 DUP5 DUP7 SUB SLT ISZERO PUSH2 0x1552 JUMPI PUSH2 0x1551 PUSH2 0x123B JUMP JUMPDEST JUMPDEST PUSH1 0x0 PUSH2 0x1560 DUP7 DUP3 DUP8 ADD PUSH2 0x128E JUMP JUMPDEST SWAP4 POP POP PUSH1 0x20 PUSH2 0x1571 DUP7 DUP3 DUP8 ADD PUSH2 0x128E JUMP JUMPDEST SWAP3 POP POP PUSH1 0x40 PUSH2 0x1582 DUP7 DUP3 DUP8 ADD PUSH2 0x12C4 JUMP JUMPDEST SWAP2 POP POP SWAP3 POP SWAP3 POP SWAP3 JUMP JUMPDEST PUSH1 0x0 DUP1 PUSH1 0x40 DUP4 DUP6 SUB SLT ISZERO PUSH2 0x15A3 JUMPI PUSH2 0x15A2 PUSH2 0x123B JUMP JUMPDEST JUMPDEST PUSH1 0x0 DUP4 ADD CALLDATALOAD PUSH8 0xFFFFFFFFFFFFFFFF DUP2 GT ISZERO PUSH2 0x15C1 JUMPI PUSH2 0x15C0 PUSH2 0x1240 JUMP JUMPDEST JUMPDEST PUSH2 0x15CD DUP6 DUP3 DUP7 ADD PUSH2 0x1456 JUMP JUMPDEST SWAP3 POP POP PUSH1 0x20 DUP4 ADD CALLDATALOAD PUSH8 0xFFFFFFFFFFFFFFFF DUP2 GT ISZERO PUSH2 0x15EE JUMPI PUSH2 0x15ED PUSH2 0x1240 JUMP JUMPDEST JUMPDEST PUSH2 0x15FA DUP6 DUP3 DUP7 ADD PUSH2 0x1456 JUMP JUMPDEST SWAP2 POP POP SWAP3 POP SWAP3 SWAP1 POP JUMP JUMPDEST PUSH1 0x0 PUSH1 0xFF DUP3 AND SWAP1 POP SWAP2 SWAP1 POP JUMP JUMPDEST PUSH2 0x161A DUP2 PUSH2 0x1604 JUMP JUMPDEST DUP3 MSTORE POP POP JUMP JUMPDEST PUSH1 0x0 PUSH1 0x20 DUP3 ADD SWAP1 POP PUSH2 0x1635 PUSH1 0x0 DUP4 ADD DUP5 PUSH2 0x1611 JUMP JUMPDEST SWAP3 SWAP2 POP POP JUMP JUMPDEST PUSH1 0x0 PUSH1 0x20 DUP3 DUP5 SUB SLT ISZERO PUSH2 0x1651 JUMPI PUSH2 0x1650 PUSH2 0x123B JUMP JUMPDEST JUMPDEST PUSH1 0x0 PUSH2 0x165F DUP5 DUP3 DUP6 ADD PUSH2 0x128E JUMP JUMPDEST SWAP2 POP POP SWAP3 SWAP2 POP POP JUMP JUMPDEST PUSH1 0x0 PUSH1 0x20 DUP3 DUP5 SUB SLT ISZERO PUSH2 0x167E JUMPI PUSH2 0x167D PUSH2 0x123B JUMP JUMPDEST JUMPDEST PUSH1 0x0 PUSH2 0x168C DUP5 DUP3 DUP6 ADD PUSH2 0x12C4 JUMP JUMPDEST SWAP2 POP POP SWAP3 SWAP2 POP POP JUMP JUMPDEST PUSH2 0x169E DUP2 PUSH2 0x1265 JUMP JUMPDEST DUP3 MSTORE POP POP JUMP JUMPDEST PUSH1 0x0 PUSH1 0x60 DUP3 ADD SWAP1 POP PUSH2 0x16B9 PUSH1 0x0 DUP4 ADD DUP7 PUSH2 0x1695 JUMP JUMPDEST DUP2 DUP2 SUB PUSH1 0x20 DUP4 ADD MSTORE PUSH2 0x16CB DUP2 DUP6 PUSH2 0x11D6 JUMP JUMPDEST SWAP1 POP DUP2 DUP2 SUB PUSH1 0x40 DUP4 ADD MSTORE PUSH2 0x16DF DUP2 DUP5 PUSH2 0x11D6 JUMP JUMPDEST SWAP1 POP SWAP5 SWAP4 POP POP POP POP JUMP JUMPDEST PUSH1 0x0 DUP1 PUSH1 0x40 DUP4 DUP6 SUB SLT ISZERO PUSH2 0x1700 JUMPI PUSH2 0x16FF PUSH2 0x123B JUMP JUMPDEST JUMPDEST PUSH1 0x0 PUSH2 0x170E DUP6 DUP3 DUP7 ADD PUSH2 0x128E JUMP JUMPDEST SWAP3 POP POP PUSH1 0x20 PUSH2 0x171F DUP6 DUP3 DUP7 ADD PUSH2 0x128E JUMP JUMPDEST SWAP2 POP POP SWAP3 POP SWAP3 SWAP1 POP JUMP JUMPDEST PUSH32 0x4E487B7100000000000000000000000000000000000000000000000000000000 PUSH1 0x0 MSTORE PUSH1 0x22 PUSH1 0x4 MSTORE PUSH1 0x24 PUSH1 0x0 REVERT JUMPDEST PUSH1 0x0 PUSH1 0x2 DUP3 DIV SWAP1 POP PUSH1 0x1 DUP3 AND DUP1 PUSH2 0x1770 JUMPI PUSH1 0x7F DUP3 AND SWAP2 POP JUMPDEST PUSH1 0x20 DUP3 LT DUP2 SUB PUSH2 0x1783 JUMPI PUSH2 0x1782 PUSH2 0x1729 JUMP JUMPDEST JUMPDEST POP SWAP2 SWAP1 POP JUMP JUMPDEST PUSH32 0x4F6E6C79207468652063726561746F72206D6179207570646174652061204E6F PUSH1 0x0 DUP3 ADD MSTORE PUSH32 0x74652E0000000000000000000000000000000000000000000000000000000000 PUSH1 0x20 DUP3 ADD MSTORE POP JUMP JUMPDEST PUSH1 0x0 PUSH2 0x17E5 PUSH1 0x23 DUP4 PUSH2 0x118A JUMP JUMPDEST SWAP2 POP PUSH2 0x17F0 DUP3 PUSH2 0x1789 JUMP JUMPDEST PUSH1 0x40 DUP3 ADD SWAP1 POP SWAP2 SWAP1 POP JUMP JUMPDEST PUSH1 0x0 PUSH1 0x20 DUP3 ADD SWAP1 POP DUP2 DUP2 SUB PUSH1 0x0 DUP4 ADD MSTORE PUSH2 0x1814 DUP2 PUSH2 0x17D8 JUMP JUMPDEST SWAP1 POP SWAP2 SWAP1 POP JUMP JUMPDEST PUSH1 0x0 DUP2 SWAP1 POP DUP2 PUSH1 0x0 MSTORE PUSH1 0x20 PUSH1 0x0 KECCAK256 SWAP1 POP SWAP2 SWAP1 POP JUMP JUMPDEST PUSH1 0x0 PUSH1 0x20 PUSH1 0x1F DUP4 ADD DIV SWAP1 POP SWAP2 SWAP1 POP JUMP JUMPDEST PUSH1 0x0 DUP3 DUP3 SHL SWAP1 POP SWAP3 SWAP2 POP POP JUMP JUMPDEST PUSH1 0x0 PUSH1 0x8 DUP4 MUL PUSH2 0x187D PUSH32 0xFFFFFFFFFFFFFFFFFFFFFFFFFFFFFFFFFFFFFFFFFFFFFFFFFFFFFFFFFFFFFFFF DUP3 PUSH2 0x1840 JUMP JUMPDEST PUSH2 0x1887 DUP7 DUP4 PUSH2 0x1840 JUMP JUMPDEST SWAP6 POP DUP1 NOT DUP5 AND SWAP4 POP DUP1 DUP7 AND DUP5 OR SWAP3 POP POP POP SWAP4 SWAP3 POP POP POP JUMP JUMPDEST PUSH1 0x0 DUP2 SWAP1 POP SWAP2 SWAP1 POP JUMP JUMPDEST PUSH1 0x0 PUSH2 0x18C4 PUSH2 0x18BF PUSH2 0x18BA DUP5 PUSH2 0x12A3 JUMP JUMPDEST PUSH2 0x189F JUMP JUMPDEST PUSH2 0x12A3 JUMP JUMPDEST SWAP1 POP SWAP2 SWAP1 POP JUMP JUMPDEST PUSH1 0x0 DUP2 SWAP1 POP SWAP2 SWAP1 POP JUMP JUMPDEST PUSH2 0x18DE DUP4 PUSH2 0x18A9 JUMP JUMPDEST PUSH2 0x18F2 PUSH2 0x18EA DUP3 PUSH2 0x18CB JUMP JUMPDEST DUP5 DUP5 SLOAD PUSH2 0x184D JUMP JUMPDEST DUP3 SSTORE POP POP POP POP JUMP JUMPDEST PUSH1 0x0 SWAP1 JUMP JUMPDEST PUSH2 0x1907 PUSH2 0x18FA JUMP JUMPDEST PUSH2 0x1912 DUP2 DUP5 DUP5 PUSH2 0x18D5 JUMP JUMPDEST POP POP POP JUMP JUMPDEST JUMPDEST DUP2 DUP2 LT ISZERO PUSH2 0x1936 JUMPI PUSH2 0x192B PUSH1 0x0 DUP3 PUSH2 0x18FF JUMP JUMPDEST PUSH1 0x1 DUP2 ADD SWAP1 POP PUSH2 0x1918 JUMP JUMPDEST POP POP JUMP JUMPDEST PUSH1 0x1F DUP3 GT ISZERO PUSH2 0x197B JUMPI PUSH2 0x194C DUP2 PUSH2 0x181B JUMP JUMPDEST PUSH2 0x1955 DUP5 PUSH2 0x1830 JUMP JUMPDEST DUP2 ADD PUSH1 0x20 DUP6 LT ISZERO PUSH2 0x1964 JUMPI DUP2 SWAP1 POP JUMPDEST PUSH2 0x1978 PUSH2 0x1970 DUP6 PUSH2 0x1830 JUMP JUMPDEST DUP4 ADD DUP3 PUSH2 0x1917 JUMP JUMPDEST POP POP JUMPDEST POP POP POP JUMP JUMPDEST PUSH1 0x0 DUP3 DUP3 SHR SWAP1 POP SWAP3 SWAP2 POP POP JUMP JUMPDEST PUSH1 0x0 PUSH2 0x199E PUSH1 0x0 NOT DUP5 PUSH1 0x8 MUL PUSH2 0x1980 JUMP JUMPDEST NOT DUP1 DUP4 AND SWAP2 POP POP SWAP3 SWAP2 POP POP JUMP JUMPDEST PUSH1 0x0 PUSH2 0x19B7 DUP4 DUP4 PUSH2 0x198D JUMP JUMPDEST SWAP2 POP DUP3 PUSH1 0x2 MUL DUP3 OR SWAP1 POP SWAP3 SWAP2 POP POP JUMP JUMPDEST PUSH2 0x19D0 DUP3 PUSH2 0x117F JUMP JUMPDEST PUSH8 0xFFFFFFFFFFFFFFFF DUP2 GT ISZERO PUSH2 0x19E9 JUMPI PUSH2 0x19E8 PUSH2 0x1359 JUMP JUMPDEST JUMPDEST PUSH2 0x19F3 DUP3 SLOAD PUSH2 0x1758 JUMP JUMPDEST PUSH2 0x19FE DUP3 DUP3 DUP6 PUSH2 0x193A JUMP JUMPDEST PUSH1 0x0 PUSH1 0x20 SWAP1 POP PUSH1 0x1F DUP4 GT PUSH1 0x1 DUP2 EQ PUSH2 0x1A31 JUMPI PUSH1 0x0 DUP5 ISZERO PUSH2 0x1A1F JUMPI DUP3 DUP8 ADD MLOAD SWAP1 POP JUMPDEST PUSH2 0x1A29 DUP6 DUP3 PUSH2 0x19AB JUMP JUMPDEST DUP7 SSTORE POP PUSH2 0x1A91 JUMP JUMPDEST PUSH1 0x1F NOT DUP5 AND PUSH2 0x1A3F DUP7 PUSH2 0x181B JUMP JUMPDEST PUSH1 0x0 JUMPDEST DUP3 DUP2 LT ISZERO PUSH2 0x1A67 JUMPI DUP5 DUP10 ADD MLOAD DUP3 SSTORE PUSH1 0x1 DUP3 ADD SWAP2 POP PUSH1 0x20 DUP6 ADD SWAP5 POP PUSH1 0x20 DUP2 ADD SWAP1 POP PUSH2 0x1A42 JUMP JUMPDEST DUP7 DUP4 LT ISZERO PUSH2 0x1A84 JUMPI DUP5 DUP10 ADD MLOAD PUSH2 0x1A80 PUSH1 0x1F DUP10 AND DUP3 PUSH2 0x198D JUMP JUMPDEST DUP4 SSTORE POP JUMPDEST PUSH1 0x1 PUSH1 0x2 DUP9 MUL ADD DUP9 SSTORE POP POP POP JUMPDEST POP POP POP POP POP POP JUMP JUMPDEST PUSH1 0x0 PUSH1 0x40 DUP3 ADD SWAP1 POP DUP2 DUP2 SUB PUSH1 0x0 DUP4 ADD MSTORE PUSH2 0x1AB3 DUP2 DUP6 PUSH2 0x11D6 JUMP JUMPDEST SWAP1 POP DUP2 DUP2 SUB PUSH1 0x20 DUP4 ADD MSTORE PUSH2 0x1AC7 DUP2 DUP5 PUSH2 0x11D6 JUMP JUMPDEST SWAP1 POP SWAP4 SWAP3 POP POP POP JUMP JUMPDEST PUSH32 0x4D75737420686F6C6420544E5420746F206372656174652061204E6F74652E00 PUSH1 0x0 DUP3 ADD MSTORE POP JUMP JUMPDEST PUSH1 0x0 PUSH2 0x1B06 PUSH1 0x1F DUP4 PUSH2 0x118A JUMP JUMPDEST SWAP2 POP PUSH2 0x1B11 DUP3 PUSH2 0x1AD0 JUMP JUMPDEST PUSH1 0x20 DUP3 ADD SWAP1 POP SWAP2 SWAP1 POP JUMP JUMPDEST PUSH1 0x0 PUSH1 0x20 DUP3 ADD SWAP1 POP DUP2 DUP2 SUB PUSH1 0x0 DUP4 ADD MSTORE PUSH2 0x1B35 DUP2 PUSH2 0x1AF9 JUMP JUMPDEST SWAP1 POP SWAP2 SWAP1 POP JUMP JUMPDEST PUSH32 0x4E487B7100000000000000000000000000000000000000000000000000000000 PUSH1 0x0 MSTORE PUSH1 0x11 PUSH1 0x4 MSTORE PUSH1 0x24 PUSH1 0x0 REVERT JUMPDEST PUSH1 0x0 PUSH2 0x1B76 DUP3 PUSH2 0x12A3 JUMP JUMPDEST SWAP2 POP PUSH2 0x1B81 DUP4 PUSH2 0x12A3 JUMP JUMPDEST SWAP3 POP DUP3 DUP3 ADD SWAP1 POP DUP1 DUP3 GT ISZERO PUSH2 0x1B99 JUMPI PUSH2 0x1B98 PUSH2 0x1B3C JUMP JUMPDEST JUMPDEST SWAP3 SWAP2 POP POP JUMP JUMPDEST PUSH32 0x45524332303A2064656372656173656420616C6C6F77616E63652062656C6F77 PUSH1 0x0 DUP3 ADD MSTORE PUSH32 0x207A65726F000000000000000000000000000000000000000000000000000000 PUSH1 0x20 DUP3 ADD MSTORE POP JUMP JUMPDEST PUSH1 0x0 PUSH2 0x1BFB PUSH1 0x25 DUP4 PUSH2 0x118A JUMP JUMPDEST SWAP2 POP PUSH2 0x1C06 DUP3 PUSH2 0x1B9F JUMP JUMPDEST PUSH1 0x40 DUP3 ADD SWAP1 POP SWAP2 SWAP1 POP JUMP JUMPDEST PUSH1 0x0 PUSH1 0x20 DUP3 ADD SWAP1 POP DUP2 DUP2 SUB PUSH1 0x0 DUP4 ADD MSTORE PUSH2 0x1C2A DUP2 PUSH2 0x1BEE JUMP JUMPDEST SWAP1 POP SWAP2 SWAP1 POP JUMP JUMPDEST PUSH32 0x4F6E6C79207468652063726561746F72206D61792064656C6574652061204E6F PUSH1 0x0 DUP3 ADD MSTORE PUSH32 0x74652E0000000000000000000000000000000000000000000000000000000000 PUSH1 0x20 DUP3 ADD MSTORE POP JUMP JUMPDEST PUSH1 0x0 PUSH2 0x1C8D PUSH1 0x23 DUP4 PUSH2 0x118A JUMP JUMPDEST SWAP2 POP PUSH2 0x1C98 DUP3 PUSH2 0x1C31 JUMP JUMPDEST PUSH1 0x40 DUP3 ADD SWAP1 POP SWAP2 SWAP1 POP JUMP JUMPDEST PUSH1 0x0 PUSH1 0x20 DUP3 ADD SWAP1 POP DUP2 DUP2 SUB PUSH1 0x0 DUP4 ADD MSTORE PUSH2 0x1CBC DUP2 PUSH2 0x1C80 JUMP JUMPDEST SWAP1 POP SWAP2 SWAP1 POP JUMP JUMPDEST PUSH32 0x45524332303A20617070726F76652066726F6D20746865207A65726F20616464 PUSH1 0x0 DUP3 ADD MSTORE PUSH32 0x7265737300000000000000000000000000000000000000000000000000000000 PUSH1 0x20 DUP3 ADD MSTORE POP JUMP JUMPDEST PUSH1 0x0 PUSH2 0x1D1F PUSH1 0x24 DUP4 PUSH2 0x118A JUMP JUMPDEST SWAP2 POP PUSH2 0x1D2A DUP3 PUSH2 0x1CC3 JUMP JUMPDEST PUSH1 0x40 DUP3 ADD SWAP1 POP SWAP2 SWAP1 POP JUMP JUMPDEST PUSH1 0x0 PUSH1 0x20 DUP3 ADD SWAP1 POP DUP2 DUP2 SUB PUSH1 0x0 DUP4 ADD MSTORE PUSH2 0x1D4E DUP2 PUSH2 0x1D12 JUMP JUMPDEST SWAP1 POP SWAP2 SWAP1 POP JUMP JUMPDEST PUSH32 0x45524332303A20617070726F766520746F20746865207A65726F206164647265 PUSH1 0x0 DUP3 ADD MSTORE PUSH32 0x7373000000000000000000000000000000000000000000000000000000000000 PUSH1 0x20 DUP3 ADD MSTORE POP JUMP JUMPDEST PUSH1 0x0 PUSH2 0x1DB1 PUSH1 0x22 DUP4 PUSH2 0x118A JUMP JUMPDEST SWAP2 POP PUSH2 0x1DBC DUP3 PUSH2 0x1D55 JUMP JUMPDEST PUSH1 0x40 DUP3 ADD SWAP1 POP SWAP2 SWAP1 POP JUMP JUMPDEST PUSH1 0x0 PUSH1 0x20 DUP3 ADD SWAP1 POP DUP2 DUP2 SUB PUSH1 0x0 DUP4 ADD MSTORE PUSH2 0x1DE0 DUP2 PUSH2 0x1DA4 JUMP JUMPDEST SWAP1 POP SWAP2 SWAP1 POP JUMP JUMPDEST PUSH32 0x45524332303A20696E73756666696369656E7420616C6C6F77616E6365000000 PUSH1 0x0 DUP3 ADD MSTORE POP JUMP JUMPDEST PUSH1 0x0 PUSH2 0x1E1D PUSH1 0x1D DUP4 PUSH2 0x118A JUMP JUMPDEST SWAP2 POP PUSH2 0x1E28 DUP3 PUSH2 0x1DE7 JUMP JUMPDEST PUSH1 0x20 DUP3 ADD SWAP1 POP SWAP2 SWAP1 POP JUMP JUMPDEST PUSH1 0x0 PUSH1 0x20 DUP3 ADD SWAP1 POP DUP2 DUP2 SUB PUSH1 0x0 DUP4 ADD MSTORE PUSH2 0x1E4C DUP2 PUSH2 0x1E10 JUMP JUMPDEST SWAP1 POP SWAP2 SWAP1 POP JUMP JUMPDEST PUSH32 0x45524332303A207472616E736665722066726F6D20746865207A65726F206164 PUSH1 0x0 DUP3 ADD MSTORE PUSH32 0x6472657373000000000000000000000000000000000000000000000000000000 PUSH1 0x20 DUP3 ADD MSTORE POP JUMP JUMPDEST PUSH1 0x0 PUSH2 0x1EAF PUSH1 0x25 DUP4 PUSH2 0x118A JUMP JUMPDEST SWAP2 POP PUSH2 0x1EBA DUP3 PUSH2 0x1E53 JUMP JUMPDEST PUSH1 0x40 DUP3 ADD SWAP1 POP SWAP2 SWAP1 POP JUMP JUMPDEST PUSH1 0x0 PUSH1 0x20 DUP3 ADD SWAP1 POP DUP2 DUP2 SUB PUSH1 0x0 DUP4 ADD MSTORE PUSH2 0x1EDE DUP2 PUSH2 0x1EA2 JUMP JUMPDEST SWAP1 POP SWAP2 SWAP1 POP JUMP JUMPDEST PUSH32 0x45524332303A207472616E7366657220746F20746865207A65726F2061646472 PUSH1 0x0 DUP3 ADD MSTORE PUSH32 0x6573730000000000000000000000000000000000000000000000000000000000 PUSH1 0x20 DUP3 ADD MSTORE POP JUMP JUMPDEST PUSH1 0x0 PUSH2 0x1F41 PUSH1 0x23 DUP4 PUSH2 0x118A JUMP JUMPDEST SWAP2 POP PUSH2 0x1F4C DUP3 PUSH2 0x1EE5 JUMP JUMPDEST PUSH1 0x40 DUP3 ADD SWAP1 POP SWAP2 SWAP1 POP JUMP JUMPDEST PUSH1 0x0 PUSH1 0x20 DUP3 ADD SWAP1 POP DUP2 DUP2 SUB PUSH1 0x0 DUP4 ADD MSTORE PUSH2 0x1F70 DUP2 PUSH2 0x1F34 JUMP JUMPDEST SWAP1 POP SWAP2 SWAP1 POP JUMP JUMPDEST PUSH32 0x45524332303A207472616E7366657220616D6F756E7420657863656564732062 PUSH1 0x0 DUP3 ADD MSTORE PUSH32 0x616C616E63650000000000000000000000000000000000000000000000000000 PUSH1 0x20 DUP3 ADD MSTORE POP JUMP JUMPDEST PUSH1 0x0 PUSH2 0x1FD3 PUSH1 0x26 DUP4 PUSH2 0x118A JUMP JUMPDEST SWAP2 POP PUSH2 0x1FDE DUP3 PUSH2 0x1F77 JUMP JUMPDEST PUSH1 0x40 DUP3 ADD SWAP1 POP SWAP2 SWAP1 POP JUMP JUMPDEST PUSH1 0x0 PUSH1 0x20 DUP3 ADD SWAP1 POP DUP2 DUP2 SUB PUSH1 0x0 DUP4 ADD MSTORE PUSH2 0x2002 DUP2 PUSH2 0x1FC6 JUMP JUMPDEST SWAP1 POP SWAP2 SWAP1 POP JUMP INVALID LOG2 PUSH5 0x6970667358 0x22 SLT KECCAK256 0xCE PUSH26 0xD28371E17E868F08159D0B430A87466736C77B8571E09C4A484A LOG0 SSTORE 0xC2 CALLER PUSH5 0x736F6C6343 STOP ADDMOD SLT STOP CALLER "
				},
				"gasEstimates": {
					"creation": {
						"codeDepositCost": "1651000",
						"executionCost": "infinite",
						"totalCost": "infinite"
					},
					"external": {
						"allowance(address,address)": "infinite",
						"approve(address,uint256)": "infinite",
						"balanceOf(address)": "2864",
						"createNote(string,string)": "infinite",
						"decimals()": "410",
						"decreaseAllowance(address,uint256)": "infinite",
						"deleteNote(uint256)": "infinite",
						"increaseAllowance(address,uint256)": "infinite",
						"name()": "infinite",
						"noteIds()": "2510",
						"readNote(uint256)": "infinite",
						"symbol()": "infinite",
						"totalSupply()": "2527",
						"transfer(address,uint256)": "infinite",
						"transferFrom(address,address,uint256)": "infinite",
						"updateNote(uint256,string,string)": "infinite"
					}
				},
				"methodIdentifiers": {
					"allowance(address,address)": "dd62ed3e",
					"approve(address,uint256)": "095ea7b3",
					"balanceOf(address)": "70a08231",
					"createNote(string,string)": "2feaf817",
					"decimals()": "313ce567",
					"decreaseAllowance(address,uint256)": "a457c2d7",
					"deleteNote(uint256)": "c47177f4",
					"increaseAllowance(address,uint256)": "39509351",
					"name()": "06fdde03",
					"noteIds()": "a1fbb8f5",
					"readNote(uint256)": "d311651a",
					"symbol()": "95d89b41",
					"totalSupply()": "18160ddd",
					"transfer(address,uint256)": "a9059cbb",
					"transferFrom(address,address,uint256)": "23b872dd",
					"updateNote(uint256,string,string)": "09abcd3b"
				}
			},
			"storageLayout": {
				"storage": [
					{
						"astId": 15,
						"contract": "contracts/TinyNotesToken.sol:TinyNotesToken",
						"label": "_balances",
						"offset": 0,
						"slot": "0",
						"type": "t_mapping(t_address,t_uint256)"
					},
					{
						"astId": 21,
						"contract": "contracts/TinyNotesToken.sol:TinyNotesToken",
						"label": "_allowances",
						"offset": 0,
						"slot": "1",
						"type": "t_mapping(t_address,t_mapping(t_address,t_uint256))"
					},
					{
						"astId": 23,
						"contract": "contracts/TinyNotesToken.sol:TinyNotesToken",
						"label": "_totalSupply",
						"offset": 0,
						"slot": "2",
						"type": "t_uint256"
					},
					{
						"astId": 25,
						"contract": "contracts/TinyNotesToken.sol:TinyNotesToken",
						"label": "_name",
						"offset": 0,
						"slot": "3",
						"type": "t_string_storage"
					},
					{
						"astId": 27,
						"contract": "contracts/TinyNotesToken.sol:TinyNotesToken",
						"label": "_symbol",
						"offset": 0,
						"slot": "4",
						"type": "t_string_storage"
					},
					{
						"astId": 798,
						"contract": "contracts/TinyNotesToken.sol:TinyNotesToken",
						"label": "noteIds",
						"offset": 0,
						"slot": "5",
						"type": "t_struct(Counter)717_storage"
					},
					{
						"astId": 810,
						"contract": "contracts/TinyNotesToken.sol:TinyNotesToken",
						"label": "idToNote",
						"offset": 0,
						"slot": "6",
						"type": "t_mapping(t_uint256,t_struct(Note)805_storage)"
					}
				],
				"types": {
					"t_address": {
						"encoding": "inplace",
						"label": "address",
						"numberOfBytes": "20"
					},
					"t_mapping(t_address,t_mapping(t_address,t_uint256))": {
						"encoding": "mapping",
						"key": "t_address",
						"label": "mapping(address => mapping(address => uint256))",
						"numberOfBytes": "32",
						"value": "t_mapping(t_address,t_uint256)"
					},
					"t_mapping(t_address,t_uint256)": {
						"encoding": "mapping",
						"key": "t_address",
						"label": "mapping(address => uint256)",
						"numberOfBytes": "32",
						"value": "t_uint256"
					},
					"t_mapping(t_uint256,t_struct(Note)805_storage)": {
						"encoding": "mapping",
						"key": "t_uint256",
						"label": "mapping(uint256 => struct TinyNotesToken.Note)",
						"numberOfBytes": "32",
						"value": "t_struct(Note)805_storage"
					},
					"t_string_storage": {
						"encoding": "bytes",
						"label": "string",
						"numberOfBytes": "32"
					},
					"t_struct(Counter)717_storage": {
						"encoding": "inplace",
						"label": "struct Counters.Counter",
						"members": [
							{
								"astId": 716,
								"contract": "contracts/TinyNotesToken.sol:TinyNotesToken",
								"label": "_value",
								"offset": 0,
								"slot": "0",
								"type": "t_uint256"
							}
						],
						"numberOfBytes": "32"
					},
					"t_struct(Note)805_storage": {
						"encoding": "inplace",
						"label": "struct TinyNotesToken.Note",
						"members": [
							{
								"astId": 800,
								"contract": "contracts/TinyNotesToken.sol:TinyNotesToken",
								"label": "creator",
								"offset": 0,
								"slot": "0",
								"type": "t_address"
							},
							{
								"astId": 802,
								"contract": "contracts/TinyNotesToken.sol:TinyNotesToken",
								"label": "title",
								"offset": 0,
								"slot": "1",
								"type": "t_string_storage"
							},
							{
								"astId": 804,
								"contract": "contracts/TinyNotesToken.sol:TinyNotesToken",
								"label": "content",
								"offset": 0,
								"slot": "2",
								"type": "t_string_storage"
							}
						],
						"numberOfBytes": "96"
					},
					"t_uint256": {
						"encoding": "inplace",
						"label": "uint256",
						"numberOfBytes": "32"
					}
				}
			},
			"userdoc": {
				"kind": "user",
				"methods": {},
				"version": 1
			}
		}
	}
}