{
	"contracts/TinyNotesTokenFaucet.sol": {
		"TinyNotesTokenFaucet": {
			"abi": [
				{
					"inputs": [
						{
							"internalType": "address",
							"name": "_tokenAddress",
							"type": "address"
						},
						{
							"internalType": "uint256",
							"name": "_maxTokensPerRequest",
							"type": "uint256"
						},
						{
							"internalType": "uint8",
							"name": "_decimals",
							"type": "uint8"
						}
					],
					"stateMutability": "nonpayable",
					"type": "constructor"
				},
				{
					"inputs": [],
					"name": "maxTokensPerRequest",
					"outputs": [
						{
							"internalType": "uint256",
							"name": "",
							"type": "uint256"
						}
					],
					"stateMutability": "view",
					"type": "function"
				},
				{
					"inputs": [],
					"name": "requestTokens",
					"outputs": [],
					"stateMutability": "nonpayable",
					"type": "function"
				},
				{
					"inputs": [],
					"name": "token",
					"outputs": [
						{
							"internalType": "contract TinyNotesToken",
							"name": "",
							"type": "address"
						}
					],
					"stateMutability": "view",
					"type": "function"
				}
			],
			"devdoc": {
				"kind": "dev",
				"methods": {},
				"version": 1
			},
			"evm": {
				"assembly": "    /* \"contracts/TinyNotesTokenFaucet.sol\":96:615  contract TinyNotesTokenFaucet {... */\n  mstore(0x40, 0x80)\n    /* \"contracts/TinyNotesTokenFaucet.sol\":206:414  constructor(address _tokenAddress, uint256 _maxTokensPerRequest, uint8 _decimals) {... */\n  callvalue\n  dup1\n  iszero\n  tag_1\n  jumpi\n  0x00\n  dup1\n  revert\ntag_1:\n  pop\n  mload(0x40)\n  sub(codesize, bytecodeSize)\n  dup1\n  bytecodeSize\n  dup4\n  codecopy\n  dup2\n  dup2\n  add\n  0x40\n  mstore\n  dup2\n  add\n  swap1\n  tag_2\n  swap2\n  swap1\n  tag_3\n  jump\t// in\ntag_2:\n    /* \"contracts/TinyNotesTokenFaucet.sol\":321:334  _tokenAddress */\n  dup3\n    /* \"contracts/TinyNotesTokenFaucet.sol\":298:303  token */\n  0x00\n  dup1\n    /* \"contracts/TinyNotesTokenFaucet.sol\":298:335  token = TinyNotesToken(_tokenAddress) */\n  0x0100\n  exp\n  dup2\n  sload\n  dup2\n  0xffffffffffffffffffffffffffffffffffffffff\n  mul\n  not\n  and\n  swap1\n  dup4\n  0xffffffffffffffffffffffffffffffffffffffff\n  and\n  mul\n  or\n  swap1\n  sstore\n  pop\n    /* \"contracts/TinyNotesTokenFaucet.sol\":397:406  _decimals */\n  dup1\n    /* \"contracts/TinyNotesTokenFaucet.sol\":391:393  10 */\n  0x0a\n    /* \"contracts/TinyNotesTokenFaucet.sol\":391:406  10 ** _decimals */\n  tag_6\n  swap2\n  swap1\n  tag_7\n  jump\t// in\ntag_6:\n    /* \"contracts/TinyNotesTokenFaucet.sol\":367:387  _maxTokensPerRequest */\n  dup3\n    /* \"contracts/TinyNotesTokenFaucet.sol\":367:407  _maxTokensPerRequest * (10 ** _decimals) */\n  tag_8\n  swap2\n  swap1\n  tag_9\n  jump\t// in\ntag_8:\n    /* \"contracts/TinyNotesTokenFaucet.sol\":345:364  maxTokensPerRequest */\n  0x01\n    /* \"contracts/TinyNotesTokenFaucet.sol\":345:407  maxTokensPerRequest = _maxTokensPerRequest * (10 ** _decimals) */\n  dup2\n  swap1\n  sstore\n  pop\n    /* \"contracts/TinyNotesTokenFaucet.sol\":206:414  constructor(address _tokenAddress, uint256 _maxTokensPerRequest, uint8 _decimals) {... */\n  pop\n  pop\n  pop\n    /* \"contracts/TinyNotesTokenFaucet.sol\":96:615  contract TinyNotesTokenFaucet {... */\n  jump(tag_10)\n    /* \"#utility.yul\":88:205   */\ntag_12:\n    /* \"#utility.yul\":197:198   */\n  0x00\n    /* \"#utility.yul\":194:195   */\n  dup1\n    /* \"#utility.yul\":187:199   */\n  revert\n    /* \"#utility.yul\":334:460   */\ntag_14:\n    /* \"#utility.yul\":371:378   */\n  0x00\n    /* \"#utility.yul\":411:453   */\n  0xffffffffffffffffffffffffffffffffffffffff\n    /* \"#utility.yul\":404:409   */\n  dup3\n    /* \"#utility.yul\":400:454   */\n  and\n    /* \"#utility.yul\":389:454   */\n  swap1\n  pop\n    /* \"#utility.yul\":334:460   */\n  swap2\n  swap1\n  pop\n  jump\t// out\n    /* \"#utility.yul\":466:562   */\ntag_15:\n    /* \"#utility.yul\":503:510   */\n  0x00\n    /* \"#utility.yul\":532:556   */\n  tag_34\n    /* \"#utility.yul\":550:555   */\n  dup3\n    /* \"#utility.yul\":532:556   */\n  tag_14\n  jump\t// in\ntag_34:\n    /* \"#utility.yul\":521:556   */\n  swap1\n  pop\n    /* \"#utility.yul\":466:562   */\n  swap2\n  swap1\n  pop\n  jump\t// out\n    /* \"#utility.yul\":568:690   */\ntag_16:\n    /* \"#utility.yul\":641:665   */\n  tag_36\n    /* \"#utility.yul\":659:664   */\n  dup2\n    /* \"#utility.yul\":641:665   */\n  tag_15\n  jump\t// in\ntag_36:\n    /* \"#utility.yul\":634:639   */\n  dup2\n    /* \"#utility.yul\":631:666   */\n  eq\n    /* \"#utility.yul\":621:684   */\n  tag_37\n  jumpi\n    /* \"#utility.yul\":680:681   */\n  0x00\n    /* \"#utility.yul\":677:678   */\n  dup1\n    /* \"#utility.yul\":670:682   */\n  revert\n    /* \"#utility.yul\":621:684   */\ntag_37:\n    /* \"#utility.yul\":568:690   */\n  pop\n  jump\t// out\n    /* \"#utility.yul\":696:839   */\ntag_17:\n    /* \"#utility.yul\":753:758   */\n  0x00\n    /* \"#utility.yul\":784:790   */\n  dup2\n    /* \"#utility.yul\":778:791   */\n  mload\n    /* \"#utility.yul\":769:791   */\n  swap1\n  pop\n    /* \"#utility.yul\":800:833   */\n  tag_39\n    /* \"#utility.yul\":827:832   */\n  dup2\n    /* \"#utility.yul\":800:833   */\n  tag_16\n  jump\t// in\ntag_39:\n    /* \"#utility.yul\":696:839   */\n  swap3\n  swap2\n  pop\n  pop\n  jump\t// out\n    /* \"#utility.yul\":845:922   */\ntag_18:\n    /* \"#utility.yul\":882:889   */\n  0x00\n    /* \"#utility.yul\":911:916   */\n  dup2\n    /* \"#utility.yul\":900:916   */\n  swap1\n  pop\n    /* \"#utility.yul\":845:922   */\n  swap2\n  swap1\n  pop\n  jump\t// out\n    /* \"#utility.yul\":928:1050   */\ntag_19:\n    /* \"#utility.yul\":1001:1025   */\n  tag_42\n    /* \"#utility.yul\":1019:1024   */\n  dup2\n    /* \"#utility.yul\":1001:1025   */\n  tag_18\n  jump\t// in\ntag_42:\n    /* \"#utility.yul\":994:999   */\n  dup2\n    /* \"#utility.yul\":991:1026   */\n  eq\n    /* \"#utility.yul\":981:1044   */\n  tag_43\n  jumpi\n    /* \"#utility.yul\":1040:1041   */\n  0x00\n    /* \"#utility.yul\":1037:1038   */\n  dup1\n    /* \"#utility.yul\":1030:1042   */\n  revert\n    /* \"#utility.yul\":981:1044   */\ntag_43:\n    /* \"#utility.yul\":928:1050   */\n  pop\n  jump\t// out\n    /* \"#utility.yul\":1056:1199   */\ntag_20:\n    /* \"#utility.yul\":1113:1118   */\n  0x00\n    /* \"#utility.yul\":1144:1150   */\n  dup2\n    /* \"#utility.yul\":1138:1151   */\n  mload\n    /* \"#utility.yul\":1129:1151   */\n  swap1\n  pop\n    /* \"#utility.yul\":1160:1193   */\n  tag_45\n    /* \"#utility.yul\":1187:1192   */\n  dup2\n    /* \"#utility.yul\":1160:1193   */\n  tag_19\n  jump\t// in\ntag_45:\n    /* \"#utility.yul\":1056:1199   */\n  swap3\n  swap2\n  pop\n  pop\n  jump\t// out\n    /* \"#utility.yul\":1205:1291   */\ntag_21:\n    /* \"#utility.yul\":1240:1247   */\n  0x00\n    /* \"#utility.yul\":1280:1284   */\n  0xff\n    /* \"#utility.yul\":1273:1278   */\n  dup3\n    /* \"#utility.yul\":1269:1285   */\n  and\n    /* \"#utility.yul\":1258:1285   */\n  swap1\n  pop\n    /* \"#utility.yul\":1205:1291   */\n  swap2\n  swap1\n  pop\n  jump\t// out\n    /* \"#utility.yul\":1297:1415   */\ntag_22:\n    /* \"#utility.yul\":1368:1390   */\n  tag_48\n    /* \"#utility.yul\":1384:1389   */\n  dup2\n    /* \"#utility.yul\":1368:1390   */\n  tag_21\n  jump\t// in\ntag_48:\n    /* \"#utility.yul\":1361:1366   */\n  dup2\n    /* \"#utility.yul\":1358:1391   */\n  eq\n    /* \"#utility.yul\":1348:1409   */\n  tag_49\n  jumpi\n    /* \"#utility.yul\":1405:1406   */\n  0x00\n    /* \"#utility.yul\":1402:1403   */\n  dup1\n    /* \"#utility.yul\":1395:1407   */\n  revert\n    /* \"#utility.yul\":1348:1409   */\ntag_49:\n    /* \"#utility.yul\":1297:1415   */\n  pop\n  jump\t// out\n    /* \"#utility.yul\":1421:1560   */\ntag_23:\n    /* \"#utility.yul\":1476:1481   */\n  0x00\n    /* \"#utility.yul\":1507:1513   */\n  dup2\n    /* \"#utility.yul\":1501:1514   */\n  mload\n    /* \"#utility.yul\":1492:1514   */\n  swap1\n  pop\n    /* \"#utility.yul\":1523:1554   */\n  tag_51\n    /* \"#utility.yul\":1548:1553   */\n  dup2\n    /* \"#utility.yul\":1523:1554   */\n  tag_22\n  jump\t// in\ntag_51:\n    /* \"#utility.yul\":1421:1560   */\n  swap3\n  swap2\n  pop\n  pop\n  jump\t// out\n    /* \"#utility.yul\":1566:2225   */\ntag_3:\n    /* \"#utility.yul\":1652:1658   */\n  0x00\n    /* \"#utility.yul\":1660:1666   */\n  dup1\n    /* \"#utility.yul\":1668:1674   */\n  0x00\n    /* \"#utility.yul\":1717:1719   */\n  0x60\n    /* \"#utility.yul\":1705:1714   */\n  dup5\n    /* \"#utility.yul\":1696:1703   */\n  dup7\n    /* \"#utility.yul\":1692:1715   */\n  sub\n    /* \"#utility.yul\":1688:1720   */\n  slt\n    /* \"#utility.yul\":1685:1804   */\n  iszero\n  tag_53\n  jumpi\n    /* \"#utility.yul\":1723:1802   */\n  tag_54\n  tag_12\n  jump\t// in\ntag_54:\n    /* \"#utility.yul\":1685:1804   */\ntag_53:\n    /* \"#utility.yul\":1843:1844   */\n  0x00\n    /* \"#utility.yul\":1868:1932   */\n  tag_55\n    /* \"#utility.yul\":1924:1931   */\n  dup7\n    /* \"#utility.yul\":1915:1921   */\n  dup3\n    /* \"#utility.yul\":1904:1913   */\n  dup8\n    /* \"#utility.yul\":1900:1922   */\n  add\n    /* \"#utility.yul\":1868:1932   */\n  tag_17\n  jump\t// in\ntag_55:\n    /* \"#utility.yul\":1858:1932   */\n  swap4\n  pop\n    /* \"#utility.yul\":1814:1942   */\n  pop\n    /* \"#utility.yul\":1981:1983   */\n  0x20\n    /* \"#utility.yul\":2007:2071   */\n  tag_56\n    /* \"#utility.yul\":2063:2070   */\n  dup7\n    /* \"#utility.yul\":2054:2060   */\n  dup3\n    /* \"#utility.yul\":2043:2052   */\n  dup8\n    /* \"#utility.yul\":2039:2061   */\n  add\n    /* \"#utility.yul\":2007:2071   */\n  tag_20\n  jump\t// in\ntag_56:\n    /* \"#utility.yul\":1997:2071   */\n  swap3\n  pop\n    /* \"#utility.yul\":1952:2081   */\n  pop\n    /* \"#utility.yul\":2120:2122   */\n  0x40\n    /* \"#utility.yul\":2146:2208   */\n  tag_57\n    /* \"#utility.yul\":2200:2207   */\n  dup7\n    /* \"#utility.yul\":2191:2197   */\n  dup3\n    /* \"#utility.yul\":2180:2189   */\n  dup8\n    /* \"#utility.yul\":2176:2198   */\n  add\n    /* \"#utility.yul\":2146:2208   */\n  tag_23\n  jump\t// in\ntag_57:\n    /* \"#utility.yul\":2136:2208   */\n  swap2\n  pop\n    /* \"#utility.yul\":2091:2218   */\n  pop\n    /* \"#utility.yul\":1566:2225   */\n  swap3\n  pop\n  swap3\n  pop\n  swap3\n  jump\t// out\n    /* \"#utility.yul\":2231:2411   */\ntag_24:\n    /* \"#utility.yul\":2279:2356   */\n  0x4e487b7100000000000000000000000000000000000000000000000000000000\n    /* \"#utility.yul\":2276:2277   */\n  0x00\n    /* \"#utility.yul\":2269:2357   */\n  mstore\n    /* \"#utility.yul\":2376:2380   */\n  0x11\n    /* \"#utility.yul\":2373:2374   */\n  0x04\n    /* \"#utility.yul\":2366:2381   */\n  mstore\n    /* \"#utility.yul\":2400:2404   */\n  0x24\n    /* \"#utility.yul\":2397:2398   */\n  0x00\n    /* \"#utility.yul\":2390:2405   */\n  revert\n    /* \"#utility.yul\":2417:2519   */\ntag_25:\n    /* \"#utility.yul\":2459:2467   */\n  0x00\n    /* \"#utility.yul\":2506:2511   */\n  dup2\n    /* \"#utility.yul\":2503:2504   */\n  0x01\n    /* \"#utility.yul\":2499:2512   */\n  shr\n    /* \"#utility.yul\":2478:2512   */\n  swap1\n  pop\n    /* \"#utility.yul\":2417:2519   */\n  swap2\n  swap1\n  pop\n  jump\t// out\n    /* \"#utility.yul\":2525:3373   */\ntag_26:\n    /* \"#utility.yul\":2586:2591   */\n  0x00\n    /* \"#utility.yul\":2593:2597   */\n  dup1\n    /* \"#utility.yul\":2617:2623   */\n  dup3\n    /* \"#utility.yul\":2608:2623   */\n  swap2\n  pop\n    /* \"#utility.yul\":2641:2646   */\n  dup4\n    /* \"#utility.yul\":2632:2646   */\n  swap1\n  pop\n    /* \"#utility.yul\":2655:3367   */\ntag_61:\n    /* \"#utility.yul\":2676:2677   */\n  0x01\n    /* \"#utility.yul\":2666:2674   */\n  dup6\n    /* \"#utility.yul\":2663:2678   */\n  gt\n    /* \"#utility.yul\":2655:3367   */\n  iszero\n  tag_63\n  jumpi\n    /* \"#utility.yul\":2771:2775   */\n  dup1\n    /* \"#utility.yul\":2766:2769   */\n  dup7\n    /* \"#utility.yul\":2762:2776   */\n  div\n    /* \"#utility.yul\":2756:2760   */\n  dup2\n    /* \"#utility.yul\":2753:2777   */\n  gt\n    /* \"#utility.yul\":2750:2800   */\n  iszero\n  tag_64\n  jumpi\n    /* \"#utility.yul\":2780:2798   */\n  tag_65\n  tag_24\n  jump\t// in\ntag_65:\n    /* \"#utility.yul\":2750:2800   */\ntag_64:\n    /* \"#utility.yul\":2830:2831   */\n  0x01\n    /* \"#utility.yul\":2820:2828   */\n  dup6\n    /* \"#utility.yul\":2816:2832   */\n  and\n    /* \"#utility.yul\":2813:3264   */\n  iszero\n  tag_66\n  jumpi\n    /* \"#utility.yul\":3245:3249   */\n  dup1\n    /* \"#utility.yul\":3238:3243   */\n  dup3\n    /* \"#utility.yul\":3234:3250   */\n  mul\n    /* \"#utility.yul\":3225:3250   */\n  swap2\n  pop\n    /* \"#utility.yul\":2813:3264   */\ntag_66:\n    /* \"#utility.yul\":3295:3299   */\n  dup1\n    /* \"#utility.yul\":3289:3293   */\n  dup2\n    /* \"#utility.yul\":3285:3300   */\n  mul\n    /* \"#utility.yul\":3277:3300   */\n  swap1\n  pop\n    /* \"#utility.yul\":3325:3357   */\n  tag_67\n    /* \"#utility.yul\":3348:3356   */\n  dup6\n    /* \"#utility.yul\":3325:3357   */\n  tag_25\n  jump\t// in\ntag_67:\n    /* \"#utility.yul\":3313:3357   */\n  swap5\n  pop\n    /* \"#utility.yul\":2655:3367   */\n  jump(tag_61)\ntag_63:\n    /* \"#utility.yul\":2525:3373   */\n  swap5\n  pop\n  swap5\n  swap3\n  pop\n  pop\n  pop\n  jump\t// out\n    /* \"#utility.yul\":3379:4452   */\ntag_27:\n    /* \"#utility.yul\":3433:3438   */\n  0x00\n    /* \"#utility.yul\":3624:3632   */\n  dup3\n    /* \"#utility.yul\":3614:3654   */\n  tag_69\n  jumpi\n    /* \"#utility.yul\":3645:3646   */\n  0x01\n    /* \"#utility.yul\":3636:3646   */\n  swap1\n  pop\n    /* \"#utility.yul\":3647:3652   */\n  jump(tag_68)\n    /* \"#utility.yul\":3614:3654   */\ntag_69:\n    /* \"#utility.yul\":3673:3677   */\n  dup2\n    /* \"#utility.yul\":3663:3699   */\n  tag_70\n  jumpi\n    /* \"#utility.yul\":3690:3691   */\n  0x00\n    /* \"#utility.yul\":3681:3691   */\n  swap1\n  pop\n    /* \"#utility.yul\":3692:3697   */\n  jump(tag_68)\n    /* \"#utility.yul\":3663:3699   */\ntag_70:\n    /* \"#utility.yul\":3759:3763   */\n  dup2\n    /* \"#utility.yul\":3807:3808   */\n  0x01\n    /* \"#utility.yul\":3802:3829   */\n  dup2\n  eq\n  tag_72\n  jumpi\n    /* \"#utility.yul\":3843:3844   */\n  0x02\n    /* \"#utility.yul\":3838:4029   */\n  dup2\n  eq\n  tag_73\n  jumpi\n    /* \"#utility.yul\":3752:4029   */\n  jump(tag_71)\n    /* \"#utility.yul\":3802:3829   */\ntag_72:\n    /* \"#utility.yul\":3820:3821   */\n  0x01\n    /* \"#utility.yul\":3811:3821   */\n  swap2\n  pop\n    /* \"#utility.yul\":3822:3827   */\n  pop\n  jump(tag_68)\n    /* \"#utility.yul\":3838:4029   */\ntag_73:\n    /* \"#utility.yul\":3883:3886   */\n  0xff\n    /* \"#utility.yul\":3873:3881   */\n  dup5\n    /* \"#utility.yul\":3870:3887   */\n  gt\n    /* \"#utility.yul\":3867:3910   */\n  iszero\n  tag_74\n  jumpi\n    /* \"#utility.yul\":3890:3908   */\n  tag_75\n  tag_24\n  jump\t// in\ntag_75:\n    /* \"#utility.yul\":3867:3910   */\ntag_74:\n    /* \"#utility.yul\":3939:3947   */\n  dup4\n    /* \"#utility.yul\":3936:3937   */\n  0x02\n    /* \"#utility.yul\":3932:3948   */\n  exp\n    /* \"#utility.yul\":3923:3948   */\n  swap2\n  pop\n    /* \"#utility.yul\":3974:3977   */\n  dup5\n    /* \"#utility.yul\":3967:3972   */\n  dup3\n    /* \"#utility.yul\":3964:3978   */\n  gt\n    /* \"#utility.yul\":3961:4001   */\n  iszero\n  tag_76\n  jumpi\n    /* \"#utility.yul\":3981:3999   */\n  tag_77\n  tag_24\n  jump\t// in\ntag_77:\n    /* \"#utility.yul\":3961:4001   */\ntag_76:\n    /* \"#utility.yul\":4014:4019   */\n  pop\n  jump(tag_68)\n    /* \"#utility.yul\":3752:4029   */\ntag_71:\n  pop\n    /* \"#utility.yul\":4138:4140   */\n  0x20\n    /* \"#utility.yul\":4128:4136   */\n  dup4\n    /* \"#utility.yul\":4125:4141   */\n  lt\n    /* \"#utility.yul\":4119:4122   */\n  0x0133\n    /* \"#utility.yul\":4113:4117   */\n  dup4\n    /* \"#utility.yul\":4110:4123   */\n  lt\n    /* \"#utility.yul\":4106:4142   */\n  and\n    /* \"#utility.yul\":4088:4090   */\n  0x4e\n    /* \"#utility.yul\":4078:4086   */\n  dup5\n    /* \"#utility.yul\":4075:4091   */\n  lt\n    /* \"#utility.yul\":4070:4072   */\n  0x0b\n    /* \"#utility.yul\":4064:4068   */\n  dup5\n    /* \"#utility.yul\":4061:4073   */\n  lt\n    /* \"#utility.yul\":4057:4092   */\n  and\n    /* \"#utility.yul\":4041:4152   */\n  or\n    /* \"#utility.yul\":4038:4284   */\n  iszero\n  tag_78\n  jumpi\n    /* \"#utility.yul\":4194:4202   */\n  dup3\n    /* \"#utility.yul\":4188:4192   */\n  dup3\n    /* \"#utility.yul\":4184:4203   */\n  exp\n    /* \"#utility.yul\":4175:4203   */\n  swap1\n  pop\n    /* \"#utility.yul\":4229:4232   */\n  dup4\n    /* \"#utility.yul\":4222:4227   */\n  dup2\n    /* \"#utility.yul\":4219:4233   */\n  gt\n    /* \"#utility.yul\":4216:4256   */\n  iszero\n  tag_79\n  jumpi\n    /* \"#utility.yul\":4236:4254   */\n  tag_80\n  tag_24\n  jump\t// in\ntag_80:\n    /* \"#utility.yul\":4216:4256   */\ntag_79:\n    /* \"#utility.yul\":4269:4274   */\n  jump(tag_68)\n    /* \"#utility.yul\":4038:4284   */\ntag_78:\n    /* \"#utility.yul\":4309:4351   */\n  tag_81\n    /* \"#utility.yul\":4347:4350   */\n  dup5\n    /* \"#utility.yul\":4337:4345   */\n  dup5\n    /* \"#utility.yul\":4331:4335   */\n  dup5\n    /* \"#utility.yul\":4328:4329   */\n  0x01\n    /* \"#utility.yul\":4309:4351   */\n  tag_26\n  jump\t// in\ntag_81:\n    /* \"#utility.yul\":4294:4351   */\n  swap3\n  pop\n  swap1\n  pop\n    /* \"#utility.yul\":4383:4387   */\n  dup2\n    /* \"#utility.yul\":4378:4381   */\n  dup5\n    /* \"#utility.yul\":4374:4388   */\n  div\n    /* \"#utility.yul\":4367:4372   */\n  dup2\n    /* \"#utility.yul\":4364:4389   */\n  gt\n    /* \"#utility.yul\":4361:4412   */\n  iszero\n  tag_82\n  jumpi\n    /* \"#utility.yul\":4392:4410   */\n  tag_83\n  tag_24\n  jump\t// in\ntag_83:\n    /* \"#utility.yul\":4361:4412   */\ntag_82:\n    /* \"#utility.yul\":4441:4445   */\n  dup2\n    /* \"#utility.yul\":4434:4439   */\n  dup2\n    /* \"#utility.yul\":4430:4446   */\n  mul\n    /* \"#utility.yul\":4421:4446   */\n  swap1\n  pop\n    /* \"#utility.yul\":3379:4452   */\ntag_68:\n  swap4\n  swap3\n  pop\n  pop\n  pop\n  jump\t// out\n    /* \"#utility.yul\":4458:4739   */\ntag_7:\n    /* \"#utility.yul\":4516:4521   */\n  0x00\n    /* \"#utility.yul\":4540:4563   */\n  tag_85\n    /* \"#utility.yul\":4558:4562   */\n  dup3\n    /* \"#utility.yul\":4540:4563   */\n  tag_18\n  jump\t// in\ntag_85:\n    /* \"#utility.yul\":4532:4563   */\n  swap2\n  pop\n    /* \"#utility.yul\":4584:4609   */\n  tag_86\n    /* \"#utility.yul\":4600:4608   */\n  dup4\n    /* \"#utility.yul\":4584:4609   */\n  tag_21\n  jump\t// in\ntag_86:\n    /* \"#utility.yul\":4572:4609   */\n  swap3\n  pop\n    /* \"#utility.yul\":4628:4732   */\n  tag_87\n    /* \"#utility.yul\":4665:4731   */\n  0xffffffffffffffffffffffffffffffffffffffffffffffffffffffffffffffff\n    /* \"#utility.yul\":4655:4663   */\n  dup5\n    /* \"#utility.yul\":4649:4653   */\n  dup5\n    /* \"#utility.yul\":4628:4732   */\n  tag_27\n  jump\t// in\ntag_87:\n    /* \"#utility.yul\":4619:4732   */\n  swap1\n  pop\n    /* \"#utility.yul\":4458:4739   */\n  swap3\n  swap2\n  pop\n  pop\n  jump\t// out\n    /* \"#utility.yul\":4745:5155   */\ntag_9:\n    /* \"#utility.yul\":4785:4792   */\n  0x00\n    /* \"#utility.yul\":4808:4828   */\n  tag_89\n    /* \"#utility.yul\":4826:4827   */\n  dup3\n    /* \"#utility.yul\":4808:4828   */\n  tag_18\n  jump\t// in\ntag_89:\n    /* \"#utility.yul\":4803:4828   */\n  swap2\n  pop\n    /* \"#utility.yul\":4842:4862   */\n  tag_90\n    /* \"#utility.yul\":4860:4861   */\n  dup4\n    /* \"#utility.yul\":4842:4862   */\n  tag_18\n  jump\t// in\ntag_90:\n    /* \"#utility.yul\":4837:4862   */\n  swap3\n  pop\n    /* \"#utility.yul\":4897:4898   */\n  dup3\n    /* \"#utility.yul\":4894:4895   */\n  dup3\n    /* \"#utility.yul\":4890:4899   */\n  mul\n    /* \"#utility.yul\":4919:4949   */\n  tag_91\n    /* \"#utility.yul\":4937:4948   */\n  dup2\n    /* \"#utility.yul\":4919:4949   */\n  tag_18\n  jump\t// in\ntag_91:\n    /* \"#utility.yul\":4908:4949   */\n  swap2\n  pop\n    /* \"#utility.yul\":5098:5099   */\n  dup3\n    /* \"#utility.yul\":5089:5096   */\n  dup3\n    /* \"#utility.yul\":5085:5100   */\n  div\n    /* \"#utility.yul\":5082:5083   */\n  dup5\n    /* \"#utility.yul\":5079:5101   */\n  eq\n    /* \"#utility.yul\":5059:5060   */\n  dup4\n    /* \"#utility.yul\":5052:5061   */\n  iszero\n    /* \"#utility.yul\":5032:5115   */\n  or\n    /* \"#utility.yul\":5009:5148   */\n  tag_92\n  jumpi\n    /* \"#utility.yul\":5128:5146   */\n  tag_93\n  tag_24\n  jump\t// in\ntag_93:\n    /* \"#utility.yul\":5009:5148   */\ntag_92:\n    /* \"#utility.yul\":4793:5155   */\n  pop\n    /* \"#utility.yul\":4745:5155   */\n  swap3\n  swap2\n  pop\n  pop\n  jump\t// out\n    /* \"contracts/TinyNotesTokenFaucet.sol\":96:615  contract TinyNotesTokenFaucet {... */\ntag_10:\n  dataSize(sub_0)\n  dup1\n  dataOffset(sub_0)\n  0x00\n  codecopy\n  0x00\n  return\nstop\n\nsub_0: assembly {\n        /* \"contracts/TinyNotesTokenFaucet.sol\":96:615  contract TinyNotesTokenFaucet {... */\n      mstore(0x40, 0x80)\n      callvalue\n      dup1\n      iszero\n      tag_1\n      jumpi\n      0x00\n      dup1\n      revert\n    tag_1:\n      pop\n      jumpi(tag_2, lt(calldatasize, 0x04))\n      shr(0xe0, calldataload(0x00))\n      dup1\n      0x359cf2b7\n      eq\n      tag_3\n      jumpi\n      dup1\n      0xb19f94b9\n      eq\n      tag_4\n      jumpi\n      dup1\n      0xfc0c546a\n      eq\n      tag_5\n      jumpi\n    tag_2:\n      0x00\n      dup1\n      revert\n        /* \"contracts/TinyNotesTokenFaucet.sol\":420:613  function requestTokens() public {... */\n    tag_3:\n      tag_6\n      tag_7\n      jump\t// in\n    tag_6:\n      stop\n        /* \"contracts/TinyNotesTokenFaucet.sol\":165:199  uint256 public maxTokensPerRequest */\n    tag_4:\n      tag_8\n      tag_9\n      jump\t// in\n    tag_8:\n      mload(0x40)\n      tag_10\n      swap2\n      swap1\n      tag_11\n      jump\t// in\n    tag_10:\n      mload(0x40)\n      dup1\n      swap2\n      sub\n      swap1\n      return\n        /* \"contracts/TinyNotesTokenFaucet.sol\":132:159  TinyNotesToken public token */\n    tag_5:\n      tag_12\n      tag_13\n      jump\t// in\n    tag_12:\n      mload(0x40)\n      tag_14\n      swap2\n      swap1\n      tag_15\n      jump\t// in\n    tag_14:\n      mload(0x40)\n      dup1\n      swap2\n      sub\n      swap1\n      return\n        /* \"contracts/TinyNotesTokenFaucet.sol\":420:613  function requestTokens() public {... */\n    tag_7:\n        /* \"contracts/TinyNotesTokenFaucet.sol\":501:502  0 */\n      0x00\n        /* \"contracts/TinyNotesTokenFaucet.sol\":470:475  token */\n      dup1\n      0x00\n      swap1\n      sload\n      swap1\n      0x0100\n      exp\n      swap1\n      div\n      0xffffffffffffffffffffffffffffffffffffffff\n      and\n        /* \"contracts/TinyNotesTokenFaucet.sol\":470:485  token.balanceOf */\n      0xffffffffffffffffffffffffffffffffffffffff\n      and\n      0x70a08231\n        /* \"contracts/TinyNotesTokenFaucet.sol\":486:496  msg.sender */\n      caller\n        /* \"contracts/TinyNotesTokenFaucet.sol\":470:497  token.balanceOf(msg.sender) */\n      mload(0x40)\n      dup3\n      0xffffffff\n      and\n      0xe0\n      shl\n      dup2\n      mstore\n      0x04\n      add\n      tag_17\n      swap2\n      swap1\n      tag_18\n      jump\t// in\n    tag_17:\n      0x20\n      mload(0x40)\n      dup1\n      dup4\n      sub\n      dup2\n      dup7\n      gas\n      staticcall\n      iszero\n      dup1\n      iszero\n      tag_20\n      jumpi\n      returndatasize\n      0x00\n      dup1\n      returndatacopy\n      revert(0x00, returndatasize)\n    tag_20:\n      pop\n      pop\n      pop\n      pop\n      mload(0x40)\n      returndatasize\n      not(0x1f)\n      0x1f\n      dup3\n      add\n      and\n      dup3\n      add\n      dup1\n      0x40\n      mstore\n      pop\n      dup2\n      add\n      swap1\n      tag_21\n      swap2\n      swap1\n      tag_22\n      jump\t// in\n    tag_21:\n        /* \"contracts/TinyNotesTokenFaucet.sol\":470:502  token.balanceOf(msg.sender) == 0 */\n      eq\n        /* \"contracts/TinyNotesTokenFaucet.sol\":462:549  require(token.balanceOf(msg.sender) == 0, \"You must have 0 balance to request tokens.\") */\n      tag_23\n      jumpi\n      mload(0x40)\n      0x08c379a000000000000000000000000000000000000000000000000000000000\n      dup2\n      mstore\n      0x04\n      add\n      tag_24\n      swap1\n      tag_25\n      jump\t// in\n    tag_24:\n      mload(0x40)\n      dup1\n      swap2\n      sub\n      swap1\n      revert\n    tag_23:\n        /* \"contracts/TinyNotesTokenFaucet.sol\":559:564  token */\n      0x00\n      dup1\n      sload\n      swap1\n      0x0100\n      exp\n      swap1\n      div\n      0xffffffffffffffffffffffffffffffffffffffff\n      and\n        /* \"contracts/TinyNotesTokenFaucet.sol\":559:573  token.transfer */\n      0xffffffffffffffffffffffffffffffffffffffff\n      and\n      0xa9059cbb\n        /* \"contracts/TinyNotesTokenFaucet.sol\":574:584  msg.sender */\n      caller\n        /* \"contracts/TinyNotesTokenFaucet.sol\":586:605  maxTokensPerRequest */\n      sload(0x01)\n        /* \"contracts/TinyNotesTokenFaucet.sol\":559:606  token.transfer(msg.sender, maxTokensPerRequest) */\n      mload(0x40)\n      dup4\n      0xffffffff\n      and\n      0xe0\n      shl\n      dup2\n      mstore\n      0x04\n      add\n      tag_26\n      swap3\n      swap2\n      swap1\n      tag_27\n      jump\t// in\n    tag_26:\n      0x20\n      mload(0x40)\n      dup1\n      dup4\n      sub\n      dup2\n      0x00\n      dup8\n      gas\n      call\n      iszero\n      dup1\n      iszero\n      tag_29\n      jumpi\n      returndatasize\n      0x00\n      dup1\n      returndatacopy\n      revert(0x00, returndatasize)\n    tag_29:\n      pop\n      pop\n      pop\n      pop\n      mload(0x40)\n      returndatasize\n      not(0x1f)\n      0x1f\n      dup3\n      add\n      and\n      dup3\n      add\n      dup1\n      0x40\n      mstore\n      pop\n      dup2\n      add\n      swap1\n      tag_30\n      swap2\n      swap1\n      tag_31\n      jump\t// in\n    tag_30:\n      pop\n        /* \"contracts/TinyNotesTokenFaucet.sol\":420:613  function requestTokens() public {... */\n      jump\t// out\n        /* \"contracts/TinyNotesTokenFaucet.sol\":165:199  uint256 public maxTokensPerRequest */\n    tag_9:\n      sload(0x01)\n      dup2\n      jump\t// out\n        /* \"contracts/TinyNotesTokenFaucet.sol\":132:159  TinyNotesToken public token */\n    tag_13:\n      0x00\n      dup1\n      sload\n      swap1\n      0x0100\n      exp\n      swap1\n      div\n      0xffffffffffffffffffffffffffffffffffffffff\n      and\n      dup2\n      jump\t// out\n        /* \"#utility.yul\":7:84   */\n    tag_32:\n        /* \"#utility.yul\":44:51   */\n      0x00\n        /* \"#utility.yul\":73:78   */\n      dup2\n        /* \"#utility.yul\":62:78   */\n      swap1\n      pop\n        /* \"#utility.yul\":7:84   */\n      swap2\n      swap1\n      pop\n      jump\t// out\n        /* \"#utility.yul\":90:208   */\n    tag_33:\n        /* \"#utility.yul\":177:201   */\n      tag_56\n        /* \"#utility.yul\":195:200   */\n      dup2\n        /* \"#utility.yul\":177:201   */\n      tag_32\n      jump\t// in\n    tag_56:\n        /* \"#utility.yul\":172:175   */\n      dup3\n        /* \"#utility.yul\":165:202   */\n      mstore\n        /* \"#utility.yul\":90:208   */\n      pop\n      pop\n      jump\t// out\n        /* \"#utility.yul\":214:436   */\n    tag_11:\n        /* \"#utility.yul\":307:311   */\n      0x00\n        /* \"#utility.yul\":345:347   */\n      0x20\n        /* \"#utility.yul\":334:343   */\n      dup3\n        /* \"#utility.yul\":330:348   */\n      add\n        /* \"#utility.yul\":322:348   */\n      swap1\n      pop\n        /* \"#utility.yul\":358:429   */\n      tag_58\n        /* \"#utility.yul\":426:427   */\n      0x00\n        /* \"#utility.yul\":415:424   */\n      dup4\n        /* \"#utility.yul\":411:428   */\n      add\n        /* \"#utility.yul\":402:408   */\n      dup5\n        /* \"#utility.yul\":358:429   */\n      tag_33\n      jump\t// in\n    tag_58:\n        /* \"#utility.yul\":214:436   */\n      swap3\n      swap2\n      pop\n      pop\n      jump\t// out\n        /* \"#utility.yul\":442:568   */\n    tag_34:\n        /* \"#utility.yul\":479:486   */\n      0x00\n        /* \"#utility.yul\":519:561   */\n      0xffffffffffffffffffffffffffffffffffffffff\n        /* \"#utility.yul\":512:517   */\n      dup3\n        /* \"#utility.yul\":508:562   */\n      and\n        /* \"#utility.yul\":497:562   */\n      swap1\n      pop\n        /* \"#utility.yul\":442:568   */\n      swap2\n      swap1\n      pop\n      jump\t// out\n        /* \"#utility.yul\":574:634   */\n    tag_35:\n        /* \"#utility.yul\":602:605   */\n      0x00\n        /* \"#utility.yul\":623:628   */\n      dup2\n        /* \"#utility.yul\":616:628   */\n      swap1\n      pop\n        /* \"#utility.yul\":574:634   */\n      swap2\n      swap1\n      pop\n      jump\t// out\n        /* \"#utility.yul\":640:782   */\n    tag_36:\n        /* \"#utility.yul\":690:699   */\n      0x00\n        /* \"#utility.yul\":723:776   */\n      tag_62\n        /* \"#utility.yul\":741:775   */\n      tag_63\n        /* \"#utility.yul\":750:774   */\n      tag_64\n        /* \"#utility.yul\":768:773   */\n      dup5\n        /* \"#utility.yul\":750:774   */\n      tag_34\n      jump\t// in\n    tag_64:\n        /* \"#utility.yul\":741:775   */\n      tag_35\n      jump\t// in\n    tag_63:\n        /* \"#utility.yul\":723:776   */\n      tag_34\n      jump\t// in\n    tag_62:\n        /* \"#utility.yul\":710:776   */\n      swap1\n      pop\n        /* \"#utility.yul\":640:782   */\n      swap2\n      swap1\n      pop\n      jump\t// out\n        /* \"#utility.yul\":788:914   */\n    tag_37:\n        /* \"#utility.yul\":838:847   */\n      0x00\n        /* \"#utility.yul\":871:908   */\n      tag_66\n        /* \"#utility.yul\":902:907   */\n      dup3\n        /* \"#utility.yul\":871:908   */\n      tag_36\n      jump\t// in\n    tag_66:\n        /* \"#utility.yul\":858:908   */\n      swap1\n      pop\n        /* \"#utility.yul\":788:914   */\n      swap2\n      swap1\n      pop\n      jump\t// out\n        /* \"#utility.yul\":920:1069   */\n    tag_38:\n        /* \"#utility.yul\":993:1002   */\n      0x00\n        /* \"#utility.yul\":1026:1063   */\n      tag_68\n        /* \"#utility.yul\":1057:1062   */\n      dup3\n        /* \"#utility.yul\":1026:1063   */\n      tag_37\n      jump\t// in\n    tag_68:\n        /* \"#utility.yul\":1013:1063   */\n      swap1\n      pop\n        /* \"#utility.yul\":920:1069   */\n      swap2\n      swap1\n      pop\n      jump\t// out\n        /* \"#utility.yul\":1075:1252   */\n    tag_39:\n        /* \"#utility.yul\":1185:1245   */\n      tag_70\n        /* \"#utility.yul\":1239:1244   */\n      dup2\n        /* \"#utility.yul\":1185:1245   */\n      tag_38\n      jump\t// in\n    tag_70:\n        /* \"#utility.yul\":1180:1183   */\n      dup3\n        /* \"#utility.yul\":1173:1246   */\n      mstore\n        /* \"#utility.yul\":1075:1252   */\n      pop\n      pop\n      jump\t// out\n        /* \"#utility.yul\":1258:1526   */\n    tag_15:\n        /* \"#utility.yul\":1374:1378   */\n      0x00\n        /* \"#utility.yul\":1412:1414   */\n      0x20\n        /* \"#utility.yul\":1401:1410   */\n      dup3\n        /* \"#utility.yul\":1397:1415   */\n      add\n        /* \"#utility.yul\":1389:1415   */\n      swap1\n      pop\n        /* \"#utility.yul\":1425:1519   */\n      tag_72\n        /* \"#utility.yul\":1516:1517   */\n      0x00\n        /* \"#utility.yul\":1505:1514   */\n      dup4\n        /* \"#utility.yul\":1501:1518   */\n      add\n        /* \"#utility.yul\":1492:1498   */\n      dup5\n        /* \"#utility.yul\":1425:1519   */\n      tag_39\n      jump\t// in\n    tag_72:\n        /* \"#utility.yul\":1258:1526   */\n      swap3\n      swap2\n      pop\n      pop\n      jump\t// out\n        /* \"#utility.yul\":1532:1628   */\n    tag_40:\n        /* \"#utility.yul\":1569:1576   */\n      0x00\n        /* \"#utility.yul\":1598:1622   */\n      tag_74\n        /* \"#utility.yul\":1616:1621   */\n      dup3\n        /* \"#utility.yul\":1598:1622   */\n      tag_34\n      jump\t// in\n    tag_74:\n        /* \"#utility.yul\":1587:1622   */\n      swap1\n      pop\n        /* \"#utility.yul\":1532:1628   */\n      swap2\n      swap1\n      pop\n      jump\t// out\n        /* \"#utility.yul\":1634:1752   */\n    tag_41:\n        /* \"#utility.yul\":1721:1745   */\n      tag_76\n        /* \"#utility.yul\":1739:1744   */\n      dup2\n        /* \"#utility.yul\":1721:1745   */\n      tag_40\n      jump\t// in\n    tag_76:\n        /* \"#utility.yul\":1716:1719   */\n      dup3\n        /* \"#utility.yul\":1709:1746   */\n      mstore\n        /* \"#utility.yul\":1634:1752   */\n      pop\n      pop\n      jump\t// out\n        /* \"#utility.yul\":1758:1980   */\n    tag_18:\n        /* \"#utility.yul\":1851:1855   */\n      0x00\n        /* \"#utility.yul\":1889:1891   */\n      0x20\n        /* \"#utility.yul\":1878:1887   */\n      dup3\n        /* \"#utility.yul\":1874:1892   */\n      add\n        /* \"#utility.yul\":1866:1892   */\n      swap1\n      pop\n        /* \"#utility.yul\":1902:1973   */\n      tag_78\n        /* \"#utility.yul\":1970:1971   */\n      0x00\n        /* \"#utility.yul\":1959:1968   */\n      dup4\n        /* \"#utility.yul\":1955:1972   */\n      add\n        /* \"#utility.yul\":1946:1952   */\n      dup5\n        /* \"#utility.yul\":1902:1973   */\n      tag_41\n      jump\t// in\n    tag_78:\n        /* \"#utility.yul\":1758:1980   */\n      swap3\n      swap2\n      pop\n      pop\n      jump\t// out\n        /* \"#utility.yul\":2067:2184   */\n    tag_43:\n        /* \"#utility.yul\":2176:2177   */\n      0x00\n        /* \"#utility.yul\":2173:2174   */\n      dup1\n        /* \"#utility.yul\":2166:2178   */\n      revert\n        /* \"#utility.yul\":2313:2435   */\n    tag_45:\n        /* \"#utility.yul\":2386:2410   */\n      tag_83\n        /* \"#utility.yul\":2404:2409   */\n      dup2\n        /* \"#utility.yul\":2386:2410   */\n      tag_32\n      jump\t// in\n    tag_83:\n        /* \"#utility.yul\":2379:2384   */\n      dup2\n        /* \"#utility.yul\":2376:2411   */\n      eq\n        /* \"#utility.yul\":2366:2429   */\n      tag_84\n      jumpi\n        /* \"#utility.yul\":2425:2426   */\n      0x00\n        /* \"#utility.yul\":2422:2423   */\n      dup1\n        /* \"#utility.yul\":2415:2427   */\n      revert\n        /* \"#utility.yul\":2366:2429   */\n    tag_84:\n        /* \"#utility.yul\":2313:2435   */\n      pop\n      jump\t// out\n        /* \"#utility.yul\":2441:2584   */\n    tag_46:\n        /* \"#utility.yul\":2498:2503   */\n      0x00\n        /* \"#utility.yul\":2529:2535   */\n      dup2\n        /* \"#utility.yul\":2523:2536   */\n      mload\n        /* \"#utility.yul\":2514:2536   */\n      swap1\n      pop\n        /* \"#utility.yul\":2545:2578   */\n      tag_86\n        /* \"#utility.yul\":2572:2577   */\n      dup2\n        /* \"#utility.yul\":2545:2578   */\n      tag_45\n      jump\t// in\n    tag_86:\n        /* \"#utility.yul\":2441:2584   */\n      swap3\n      swap2\n      pop\n      pop\n      jump\t// out\n        /* \"#utility.yul\":2590:2941   */\n    tag_22:\n        /* \"#utility.yul\":2660:2666   */\n      0x00\n        /* \"#utility.yul\":2709:2711   */\n      0x20\n        /* \"#utility.yul\":2697:2706   */\n      dup3\n        /* \"#utility.yul\":2688:2695   */\n      dup5\n        /* \"#utility.yul\":2684:2707   */\n      sub\n        /* \"#utility.yul\":2680:2712   */\n      slt\n        /* \"#utility.yul\":2677:2796   */\n      iszero\n      tag_88\n      jumpi\n        /* \"#utility.yul\":2715:2794   */\n      tag_89\n      tag_43\n      jump\t// in\n    tag_89:\n        /* \"#utility.yul\":2677:2796   */\n    tag_88:\n        /* \"#utility.yul\":2835:2836   */\n      0x00\n        /* \"#utility.yul\":2860:2924   */\n      tag_90\n        /* \"#utility.yul\":2916:2923   */\n      dup5\n        /* \"#utility.yul\":2907:2913   */\n      dup3\n        /* \"#utility.yul\":2896:2905   */\n      dup6\n        /* \"#utility.yul\":2892:2914   */\n      add\n        /* \"#utility.yul\":2860:2924   */\n      tag_46\n      jump\t// in\n    tag_90:\n        /* \"#utility.yul\":2850:2924   */\n      swap2\n      pop\n        /* \"#utility.yul\":2806:2934   */\n      pop\n        /* \"#utility.yul\":2590:2941   */\n      swap3\n      swap2\n      pop\n      pop\n      jump\t// out\n        /* \"#utility.yul\":2947:3116   */\n    tag_47:\n        /* \"#utility.yul\":3031:3042   */\n      0x00\n        /* \"#utility.yul\":3065:3071   */\n      dup3\n        /* \"#utility.yul\":3060:3063   */\n      dup3\n        /* \"#utility.yul\":3053:3072   */\n      mstore\n        /* \"#utility.yul\":3105:3109   */\n      0x20\n        /* \"#utility.yul\":3100:3103   */\n      dup3\n        /* \"#utility.yul\":3096:3110   */\n      add\n        /* \"#utility.yul\":3081:3110   */\n      swap1\n      pop\n        /* \"#utility.yul\":2947:3116   */\n      swap3\n      swap2\n      pop\n      pop\n      jump\t// out\n        /* \"#utility.yul\":3122:3351   */\n    tag_48:\n        /* \"#utility.yul\":3262:3296   */\n      0x596f75206d757374206861766520302062616c616e636520746f207265717565\n        /* \"#utility.yul\":3258:3259   */\n      0x00\n        /* \"#utility.yul\":3250:3256   */\n      dup3\n        /* \"#utility.yul\":3246:3260   */\n      add\n        /* \"#utility.yul\":3239:3297   */\n      mstore\n        /* \"#utility.yul\":3331:3343   */\n      0x737420746f6b656e732e00000000000000000000000000000000000000000000\n        /* \"#utility.yul\":3326:3328   */\n      0x20\n        /* \"#utility.yul\":3318:3324   */\n      dup3\n        /* \"#utility.yul\":3314:3329   */\n      add\n        /* \"#utility.yul\":3307:3344   */\n      mstore\n        /* \"#utility.yul\":3122:3351   */\n      pop\n      jump\t// out\n        /* \"#utility.yul\":3357:3723   */\n    tag_49:\n        /* \"#utility.yul\":3499:3502   */\n      0x00\n        /* \"#utility.yul\":3520:3587   */\n      tag_94\n        /* \"#utility.yul\":3584:3586   */\n      0x2a\n        /* \"#utility.yul\":3579:3582   */\n      dup4\n        /* \"#utility.yul\":3520:3587   */\n      tag_47\n      jump\t// in\n    tag_94:\n        /* \"#utility.yul\":3513:3587   */\n      swap2\n      pop\n        /* \"#utility.yul\":3596:3689   */\n      tag_95\n        /* \"#utility.yul\":3685:3688   */\n      dup3\n        /* \"#utility.yul\":3596:3689   */\n      tag_48\n      jump\t// in\n    tag_95:\n        /* \"#utility.yul\":3714:3716   */\n      0x40\n        /* \"#utility.yul\":3709:3712   */\n      dup3\n        /* \"#utility.yul\":3705:3717   */\n      add\n        /* \"#utility.yul\":3698:3717   */\n      swap1\n      pop\n        /* \"#utility.yul\":3357:3723   */\n      swap2\n      swap1\n      pop\n      jump\t// out\n        /* \"#utility.yul\":3729:4148   */\n    tag_25:\n        /* \"#utility.yul\":3895:3899   */\n      0x00\n        /* \"#utility.yul\":3933:3935   */\n      0x20\n        /* \"#utility.yul\":3922:3931   */\n      dup3\n        /* \"#utility.yul\":3918:3936   */\n      add\n        /* \"#utility.yul\":3910:3936   */\n      swap1\n      pop\n        /* \"#utility.yul\":3982:3991   */\n      dup2\n        /* \"#utility.yul\":3976:3980   */\n      dup2\n        /* \"#utility.yul\":3972:3992   */\n      sub\n        /* \"#utility.yul\":3968:3969   */\n      0x00\n        /* \"#utility.yul\":3957:3966   */\n      dup4\n        /* \"#utility.yul\":3953:3970   */\n      add\n        /* \"#utility.yul\":3946:3993   */\n      mstore\n        /* \"#utility.yul\":4010:4141   */\n      tag_97\n        /* \"#utility.yul\":4136:4140   */\n      dup2\n        /* \"#utility.yul\":4010:4141   */\n      tag_49\n      jump\t// in\n    tag_97:\n        /* \"#utility.yul\":4002:4141   */\n      swap1\n      pop\n        /* \"#utility.yul\":3729:4148   */\n      swap2\n      swap1\n      pop\n      jump\t// out\n        /* \"#utility.yul\":4154:4486   */\n    tag_27:\n        /* \"#utility.yul\":4275:4279   */\n      0x00\n        /* \"#utility.yul\":4313:4315   */\n      0x40\n        /* \"#utility.yul\":4302:4311   */\n      dup3\n        /* \"#utility.yul\":4298:4316   */\n      add\n        /* \"#utility.yul\":4290:4316   */\n      swap1\n      pop\n        /* \"#utility.yul\":4326:4397   */\n      tag_99\n        /* \"#utility.yul\":4394:4395   */\n      0x00\n        /* \"#utility.yul\":4383:4392   */\n      dup4\n        /* \"#utility.yul\":4379:4396   */\n      add\n        /* \"#utility.yul\":4370:4376   */\n      dup6\n        /* \"#utility.yul\":4326:4397   */\n      tag_41\n      jump\t// in\n    tag_99:\n        /* \"#utility.yul\":4407:4479   */\n      tag_100\n        /* \"#utility.yul\":4475:4477   */\n      0x20\n        /* \"#utility.yul\":4464:4473   */\n      dup4\n        /* \"#utility.yul\":4460:4478   */\n      add\n        /* \"#utility.yul\":4451:4457   */\n      dup5\n        /* \"#utility.yul\":4407:4479   */\n      tag_33\n      jump\t// in\n    tag_100:\n        /* \"#utility.yul\":4154:4486   */\n      swap4\n      swap3\n      pop\n      pop\n      pop\n      jump\t// out\n        /* \"#utility.yul\":4492:4582   */\n    tag_50:\n        /* \"#utility.yul\":4526:4533   */\n      0x00\n        /* \"#utility.yul\":4569:4574   */\n      dup2\n        /* \"#utility.yul\":4562:4575   */\n      iszero\n        /* \"#utility.yul\":4555:4576   */\n      iszero\n        /* \"#utility.yul\":4544:4576   */\n      swap1\n      pop\n        /* \"#utility.yul\":4492:4582   */\n      swap2\n      swap1\n      pop\n      jump\t// out\n        /* \"#utility.yul\":4588:4704   */\n    tag_51:\n        /* \"#utility.yul\":4658:4679   */\n      tag_103\n        /* \"#utility.yul\":4673:4678   */\n      dup2\n        /* \"#utility.yul\":4658:4679   */\n      tag_50\n      jump\t// in\n    tag_103:\n        /* \"#utility.yul\":4651:4656   */\n      dup2\n        /* \"#utility.yul\":4648:4680   */\n      eq\n        /* \"#utility.yul\":4638:4698   */\n      tag_104\n      jumpi\n        /* \"#utility.yul\":4694:4695   */\n      0x00\n        /* \"#utility.yul\":4691:4692   */\n      dup1\n        /* \"#utility.yul\":4684:4696   */\n      revert\n        /* \"#utility.yul\":4638:4698   */\n    tag_104:\n        /* \"#utility.yul\":4588:4704   */\n      pop\n      jump\t// out\n        /* \"#utility.yul\":4710:4847   */\n    tag_52:\n        /* \"#utility.yul\":4764:4769   */\n      0x00\n        /* \"#utility.yul\":4795:4801   */\n      dup2\n        /* \"#utility.yul\":4789:4802   */\n      mload\n        /* \"#utility.yul\":4780:4802   */\n      swap1\n      pop\n        /* \"#utility.yul\":4811:4841   */\n      tag_106\n        /* \"#utility.yul\":4835:4840   */\n      dup2\n        /* \"#utility.yul\":4811:4841   */\n      tag_51\n      jump\t// in\n    tag_106:\n        /* \"#utility.yul\":4710:4847   */\n      swap3\n      swap2\n      pop\n      pop\n      jump\t// out\n        /* \"#utility.yul\":4853:5198   */\n    tag_31:\n        /* \"#utility.yul\":4920:4926   */\n      0x00\n        /* \"#utility.yul\":4969:4971   */\n      0x20\n        /* \"#utility.yul\":4957:4966   */\n      dup3\n        /* \"#utility.yul\":4948:4955   */\n      dup5\n        /* \"#utility.yul\":4944:4967   */\n      sub\n        /* \"#utility.yul\":4940:4972   */\n      slt\n        /* \"#utility.yul\":4937:5056   */\n      iszero\n      tag_108\n      jumpi\n        /* \"#utility.yul\":4975:5054   */\n      tag_109\n      tag_43\n      jump\t// in\n    tag_109:\n        /* \"#utility.yul\":4937:5056   */\n    tag_108:\n        /* \"#utility.yul\":5095:5096   */\n      0x00\n        /* \"#utility.yul\":5120:5181   */\n      tag_110\n        /* \"#utility.yul\":5173:5180   */\n      dup5\n        /* \"#utility.yul\":5164:5170   */\n      dup3\n        /* \"#utility.yul\":5153:5162   */\n      dup6\n        /* \"#utility.yul\":5149:5171   */\n      add\n        /* \"#utility.yul\":5120:5181   */\n      tag_52\n      jump\t// in\n    tag_110:\n        /* \"#utility.yul\":5110:5181   */\n      swap2\n      pop\n        /* \"#utility.yul\":5066:5191   */\n      pop\n        /* \"#utility.yul\":4853:5198   */\n      swap3\n      swap2\n      pop\n      pop\n      jump\t// out\n\n    auxdata: 0xa2646970667358221220112d23e1161e5e68ad7e586b44c007cb3d7ed0775a42d6d45eae069fd397ff9564736f6c63430008120033\n}\n",
				"bytecode": {
					"linkReferences": {},
					"object": "60806040523480156200001157600080fd5b506040516200091538038062000915833981810160405281019062000037919062000185565b826000806101000a81548173ffffffffffffffffffffffffffffffffffffffff021916908373ffffffffffffffffffffffffffffffffffffffff16021790555080600a62000086919062000364565b82620000939190620003b5565b60018190555050505062000400565b600080fd5b600073ffffffffffffffffffffffffffffffffffffffff82169050919050565b6000620000d482620000a7565b9050919050565b620000e681620000c7565b8114620000f257600080fd5b50565b6000815190506200010681620000db565b92915050565b6000819050919050565b62000121816200010c565b81146200012d57600080fd5b50565b600081519050620001418162000116565b92915050565b600060ff82169050919050565b6200015f8162000147565b81146200016b57600080fd5b50565b6000815190506200017f8162000154565b92915050565b600080600060608486031215620001a157620001a0620000a2565b5b6000620001b186828701620000f5565b9350506020620001c48682870162000130565b9250506040620001d7868287016200016e565b9150509250925092565b7f4e487b7100000000000000000000000000000000000000000000000000000000600052601160045260246000fd5b60008160011c9050919050565b6000808291508390505b60018511156200026f57808604811115620002475762000246620001e1565b5b6001851615620002575780820291505b8081029050620002678562000210565b945062000227565b94509492505050565b6000826200028a57600190506200035d565b816200029a57600090506200035d565b8160018114620002b35760028114620002be57620002f4565b60019150506200035d565b60ff841115620002d357620002d2620001e1565b5b8360020a915084821115620002ed57620002ec620001e1565b5b506200035d565b5060208310610133831016604e8410600b84101617156200032e5782820a905083811115620003285762000327620001e1565b5b6200035d565b6200033d84848460016200021d565b92509050818404811115620003575762000356620001e1565b5b81810290505b9392505050565b600062000371826200010c565b91506200037e8362000147565b9250620003ad7fffffffffffffffffffffffffffffffffffffffffffffffffffffffffffffffff848462000278565b905092915050565b6000620003c2826200010c565b9150620003cf836200010c565b9250828202620003df816200010c565b91508282048414831517620003f957620003f8620001e1565b5b5092915050565b61050580620004106000396000f3fe608060405234801561001057600080fd5b50600436106100415760003560e01c8063359cf2b714610046578063b19f94b914610050578063fc0c546a1461006e575b600080fd5b61004e61008c565b005b61005861020c565b604051610065919061024f565b60405180910390f35b610076610212565b60405161008391906102e9565b60405180910390f35b60008060009054906101000a900473ffffffffffffffffffffffffffffffffffffffff1673ffffffffffffffffffffffffffffffffffffffff166370a08231336040518263ffffffff1660e01b81526004016100e89190610325565b602060405180830381865afa158015610105573d6000803e3d6000fd5b505050506040513d601f19601f820116820180604052508101906101299190610371565b14610169576040517f08c379a000000000000000000000000000000000000000000000000000000000815260040161016090610421565b60405180910390fd5b60008054906101000a900473ffffffffffffffffffffffffffffffffffffffff1673ffffffffffffffffffffffffffffffffffffffff1663a9059cbb336001546040518363ffffffff1660e01b81526004016101c6929190610441565b6020604051808303816000875af11580156101e5573d6000803e3d6000fd5b505050506040513d601f19601f8201168201806040525081019061020991906104a2565b50565b60015481565b60008054906101000a900473ffffffffffffffffffffffffffffffffffffffff1681565b6000819050919050565b61024981610236565b82525050565b60006020820190506102646000830184610240565b92915050565b600073ffffffffffffffffffffffffffffffffffffffff82169050919050565b6000819050919050565b60006102af6102aa6102a58461026a565b61028a565b61026a565b9050919050565b60006102c182610294565b9050919050565b60006102d3826102b6565b9050919050565b6102e3816102c8565b82525050565b60006020820190506102fe60008301846102da565b92915050565b600061030f8261026a565b9050919050565b61031f81610304565b82525050565b600060208201905061033a6000830184610316565b92915050565b600080fd5b61034e81610236565b811461035957600080fd5b50565b60008151905061036b81610345565b92915050565b60006020828403121561038757610386610340565b5b60006103958482850161035c565b91505092915050565b600082825260208201905092915050565b7f596f75206d757374206861766520302062616c616e636520746f20726571756560008201527f737420746f6b656e732e00000000000000000000000000000000000000000000602082015250565b600061040b602a8361039e565b9150610416826103af565b604082019050919050565b6000602082019050818103600083015261043a816103fe565b9050919050565b60006040820190506104566000830185610316565b6104636020830184610240565b9392505050565b60008115159050919050565b61047f8161046a565b811461048a57600080fd5b50565b60008151905061049c81610476565b92915050565b6000602082840312156104b8576104b7610340565b5b60006104c68482850161048d565b9150509291505056fea2646970667358221220112d23e1161e5e68ad7e586b44c007cb3d7ed0775a42d6d45eae069fd397ff9564736f6c63430008120033",
					"opcodes": "PUSH1 0x80 PUSH1 0x40 MSTORE CALLVALUE DUP1 ISZERO PUSH3 0x11 JUMPI PUSH1 0x0 DUP1 REVERT JUMPDEST POP PUSH1 0x40 MLOAD PUSH3 0x915 CODESIZE SUB DUP1 PUSH3 0x915 DUP4 CODECOPY DUP2 DUP2 ADD PUSH1 0x40 MSTORE DUP2 ADD SWAP1 PUSH3 0x37 SWAP2 SWAP1 PUSH3 0x185 JUMP JUMPDEST DUP3 PUSH1 0x0 DUP1 PUSH2 0x100 EXP DUP2 SLOAD DUP2 PUSH20 0xFFFFFFFFFFFFFFFFFFFFFFFFFFFFFFFFFFFFFFFF MUL NOT AND SWAP1 DUP4 PUSH20 0xFFFFFFFFFFFFFFFFFFFFFFFFFFFFFFFFFFFFFFFF AND MUL OR SWAP1 SSTORE POP DUP1 PUSH1 0xA PUSH3 0x86 SWAP2 SWAP1 PUSH3 0x364 JUMP JUMPDEST DUP3 PUSH3 0x93 SWAP2 SWAP1 PUSH3 0x3B5 JUMP JUMPDEST PUSH1 0x1 DUP2 SWAP1 SSTORE POP POP POP POP PUSH3 0x400 JUMP JUMPDEST PUSH1 0x0 DUP1 REVERT JUMPDEST PUSH1 0x0 PUSH20 0xFFFFFFFFFFFFFFFFFFFFFFFFFFFFFFFFFFFFFFFF DUP3 AND SWAP1 POP SWAP2 SWAP1 POP JUMP JUMPDEST PUSH1 0x0 PUSH3 0xD4 DUP3 PUSH3 0xA7 JUMP JUMPDEST SWAP1 POP SWAP2 SWAP1 POP JUMP JUMPDEST PUSH3 0xE6 DUP2 PUSH3 0xC7 JUMP JUMPDEST DUP2 EQ PUSH3 0xF2 JUMPI PUSH1 0x0 DUP1 REVERT JUMPDEST POP JUMP JUMPDEST PUSH1 0x0 DUP2 MLOAD SWAP1 POP PUSH3 0x106 DUP2 PUSH3 0xDB JUMP JUMPDEST SWAP3 SWAP2 POP POP JUMP JUMPDEST PUSH1 0x0 DUP2 SWAP1 POP SWAP2 SWAP1 POP JUMP JUMPDEST PUSH3 0x121 DUP2 PUSH3 0x10C JUMP JUMPDEST DUP2 EQ PUSH3 0x12D JUMPI PUSH1 0x0 DUP1 REVERT JUMPDEST POP JUMP JUMPDEST PUSH1 0x0 DUP2 MLOAD SWAP1 POP PUSH3 0x141 DUP2 PUSH3 0x116 JUMP JUMPDEST SWAP3 SWAP2 POP POP JUMP JUMPDEST PUSH1 0x0 PUSH1 0xFF DUP3 AND SWAP1 POP SWAP2 SWAP1 POP JUMP JUMPDEST PUSH3 0x15F DUP2 PUSH3 0x147 JUMP JUMPDEST DUP2 EQ PUSH3 0x16B JUMPI PUSH1 0x0 DUP1 REVERT JUMPDEST POP JUMP JUMPDEST PUSH1 0x0 DUP2 MLOAD SWAP1 POP PUSH3 0x17F DUP2 PUSH3 0x154 JUMP JUMPDEST SWAP3 SWAP2 POP POP JUMP JUMPDEST PUSH1 0x0 DUP1 PUSH1 0x0 PUSH1 0x60 DUP5 DUP7 SUB SLT ISZERO PUSH3 0x1A1 JUMPI PUSH3 0x1A0 PUSH3 0xA2 JUMP JUMPDEST JUMPDEST PUSH1 0x0 PUSH3 0x1B1 DUP7 DUP3 DUP8 ADD PUSH3 0xF5 JUMP JUMPDEST SWAP4 POP POP PUSH1 0x20 PUSH3 0x1C4 DUP7 DUP3 DUP8 ADD PUSH3 0x130 JUMP JUMPDEST SWAP3 POP POP PUSH1 0x40 PUSH3 0x1D7 DUP7 DUP3 DUP8 ADD PUSH3 0x16E JUMP JUMPDEST SWAP2 POP POP SWAP3 POP SWAP3 POP SWAP3 JUMP JUMPDEST PUSH32 0x4E487B7100000000000000000000000000000000000000000000000000000000 PUSH1 0x0 MSTORE PUSH1 0x11 PUSH1 0x4 MSTORE PUSH1 0x24 PUSH1 0x0 REVERT JUMPDEST PUSH1 0x0 DUP2 PUSH1 0x1 SHR SWAP1 POP SWAP2 SWAP1 POP JUMP JUMPDEST PUSH1 0x0 DUP1 DUP3 SWAP2 POP DUP4 SWAP1 POP JUMPDEST PUSH1 0x1 DUP6 GT ISZERO PUSH3 0x26F JUMPI DUP1 DUP7 DIV DUP2 GT ISZERO PUSH3 0x247 JUMPI PUSH3 0x246 PUSH3 0x1E1 JUMP JUMPDEST JUMPDEST PUSH1 0x1 DUP6 AND ISZERO PUSH3 0x257 JUMPI DUP1 DUP3 MUL SWAP2 POP JUMPDEST DUP1 DUP2 MUL SWAP1 POP PUSH3 0x267 DUP6 PUSH3 0x210 JUMP JUMPDEST SWAP5 POP PUSH3 0x227 JUMP JUMPDEST SWAP5 POP SWAP5 SWAP3 POP POP POP JUMP JUMPDEST PUSH1 0x0 DUP3 PUSH3 0x28A JUMPI PUSH1 0x1 SWAP1 POP PUSH3 0x35D JUMP JUMPDEST DUP2 PUSH3 0x29A JUMPI PUSH1 0x0 SWAP1 POP PUSH3 0x35D JUMP JUMPDEST DUP2 PUSH1 0x1 DUP2 EQ PUSH3 0x2B3 JUMPI PUSH1 0x2 DUP2 EQ PUSH3 0x2BE JUMPI PUSH3 0x2F4 JUMP JUMPDEST PUSH1 0x1 SWAP2 POP POP PUSH3 0x35D JUMP JUMPDEST PUSH1 0xFF DUP5 GT ISZERO PUSH3 0x2D3 JUMPI PUSH3 0x2D2 PUSH3 0x1E1 JUMP JUMPDEST JUMPDEST DUP4 PUSH1 0x2 EXP SWAP2 POP DUP5 DUP3 GT ISZERO PUSH3 0x2ED JUMPI PUSH3 0x2EC PUSH3 0x1E1 JUMP JUMPDEST JUMPDEST POP PUSH3 0x35D JUMP JUMPDEST POP PUSH1 0x20 DUP4 LT PUSH2 0x133 DUP4 LT AND PUSH1 0x4E DUP5 LT PUSH1 0xB DUP5 LT AND OR ISZERO PUSH3 0x32E JUMPI DUP3 DUP3 EXP SWAP1 POP DUP4 DUP2 GT ISZERO PUSH3 0x328 JUMPI PUSH3 0x327 PUSH3 0x1E1 JUMP JUMPDEST JUMPDEST PUSH3 0x35D JUMP JUMPDEST PUSH3 0x33D DUP5 DUP5 DUP5 PUSH1 0x1 PUSH3 0x21D JUMP JUMPDEST SWAP3 POP SWAP1 POP DUP2 DUP5 DIV DUP2 GT ISZERO PUSH3 0x357 JUMPI PUSH3 0x356 PUSH3 0x1E1 JUMP JUMPDEST JUMPDEST DUP2 DUP2 MUL SWAP1 POP JUMPDEST SWAP4 SWAP3 POP POP POP JUMP JUMPDEST PUSH1 0x0 PUSH3 0x371 DUP3 PUSH3 0x10C JUMP JUMPDEST SWAP2 POP PUSH3 0x37E DUP4 PUSH3 0x147 JUMP JUMPDEST SWAP3 POP PUSH3 0x3AD PUSH32 0xFFFFFFFFFFFFFFFFFFFFFFFFFFFFFFFFFFFFFFFFFFFFFFFFFFFFFFFFFFFFFFFF DUP5 DUP5 PUSH3 0x278 JUMP JUMPDEST SWAP1 POP SWAP3 SWAP2 POP POP JUMP JUMPDEST PUSH1 0x0 PUSH3 0x3C2 DUP3 PUSH3 0x10C JUMP JUMPDEST SWAP2 POP PUSH3 0x3CF DUP4 PUSH3 0x10C JUMP JUMPDEST SWAP3 POP DUP3 DUP3 MUL PUSH3 0x3DF DUP2 PUSH3 0x10C JUMP JUMPDEST SWAP2 POP DUP3 DUP3 DIV DUP5 EQ DUP4 ISZERO OR PUSH3 0x3F9 JUMPI PUSH3 0x3F8 PUSH3 0x1E1 JUMP JUMPDEST JUMPDEST POP SWAP3 SWAP2 POP POP JUMP JUMPDEST PUSH2 0x505 DUP1 PUSH3 0x410 PUSH1 0x0 CODECOPY PUSH1 0x0 RETURN INVALID PUSH1 0x80 PUSH1 0x40 MSTORE CALLVALUE DUP1 ISZERO PUSH2 0x10 JUMPI PUSH1 0x0 DUP1 REVERT JUMPDEST POP PUSH1 0x4 CALLDATASIZE LT PUSH2 0x41 JUMPI PUSH1 0x0 CALLDATALOAD PUSH1 0xE0 SHR DUP1 PUSH4 0x359CF2B7 EQ PUSH2 0x46 JUMPI DUP1 PUSH4 0xB19F94B9 EQ PUSH2 0x50 JUMPI DUP1 PUSH4 0xFC0C546A EQ PUSH2 0x6E JUMPI JUMPDEST PUSH1 0x0 DUP1 REVERT JUMPDEST PUSH2 0x4E PUSH2 0x8C JUMP JUMPDEST STOP JUMPDEST PUSH2 0x58 PUSH2 0x20C JUMP JUMPDEST PUSH1 0x40 MLOAD PUSH2 0x65 SWAP2 SWAP1 PUSH2 0x24F JUMP JUMPDEST PUSH1 0x40 MLOAD DUP1 SWAP2 SUB SWAP1 RETURN JUMPDEST PUSH2 0x76 PUSH2 0x212 JUMP JUMPDEST PUSH1 0x40 MLOAD PUSH2 0x83 SWAP2 SWAP1 PUSH2 0x2E9 JUMP JUMPDEST PUSH1 0x40 MLOAD DUP1 SWAP2 SUB SWAP1 RETURN JUMPDEST PUSH1 0x0 DUP1 PUSH1 0x0 SWAP1 SLOAD SWAP1 PUSH2 0x100 EXP SWAP1 DIV PUSH20 0xFFFFFFFFFFFFFFFFFFFFFFFFFFFFFFFFFFFFFFFF AND PUSH20 0xFFFFFFFFFFFFFFFFFFFFFFFFFFFFFFFFFFFFFFFF AND PUSH4 0x70A08231 CALLER PUSH1 0x40 MLOAD DUP3 PUSH4 0xFFFFFFFF AND PUSH1 0xE0 SHL DUP2 MSTORE PUSH1 0x4 ADD PUSH2 0xE8 SWAP2 SWAP1 PUSH2 0x325 JUMP JUMPDEST PUSH1 0x20 PUSH1 0x40 MLOAD DUP1 DUP4 SUB DUP2 DUP7 GAS STATICCALL ISZERO DUP1 ISZERO PUSH2 0x105 JUMPI RETURNDATASIZE PUSH1 0x0 DUP1 RETURNDATACOPY RETURNDATASIZE PUSH1 0x0 REVERT JUMPDEST POP POP POP POP PUSH1 0x40 MLOAD RETURNDATASIZE PUSH1 0x1F NOT PUSH1 0x1F DUP3 ADD AND DUP3 ADD DUP1 PUSH1 0x40 MSTORE POP DUP2 ADD SWAP1 PUSH2 0x129 SWAP2 SWAP1 PUSH2 0x371 JUMP JUMPDEST EQ PUSH2 0x169 JUMPI PUSH1 0x40 MLOAD PUSH32 0x8C379A000000000000000000000000000000000000000000000000000000000 DUP2 MSTORE PUSH1 0x4 ADD PUSH2 0x160 SWAP1 PUSH2 0x421 JUMP JUMPDEST PUSH1 0x40 MLOAD DUP1 SWAP2 SUB SWAP1 REVERT JUMPDEST PUSH1 0x0 DUP1 SLOAD SWAP1 PUSH2 0x100 EXP SWAP1 DIV PUSH20 0xFFFFFFFFFFFFFFFFFFFFFFFFFFFFFFFFFFFFFFFF AND PUSH20 0xFFFFFFFFFFFFFFFFFFFFFFFFFFFFFFFFFFFFFFFF AND PUSH4 0xA9059CBB CALLER PUSH1 0x1 SLOAD PUSH1 0x40 MLOAD DUP4 PUSH4 0xFFFFFFFF AND PUSH1 0xE0 SHL DUP2 MSTORE PUSH1 0x4 ADD PUSH2 0x1C6 SWAP3 SWAP2 SWAP1 PUSH2 0x441 JUMP JUMPDEST PUSH1 0x20 PUSH1 0x40 MLOAD DUP1 DUP4 SUB DUP2 PUSH1 0x0 DUP8 GAS CALL ISZERO DUP1 ISZERO PUSH2 0x1E5 JUMPI RETURNDATASIZE PUSH1 0x0 DUP1 RETURNDATACOPY RETURNDATASIZE PUSH1 0x0 REVERT JUMPDEST POP POP POP POP PUSH1 0x40 MLOAD RETURNDATASIZE PUSH1 0x1F NOT PUSH1 0x1F DUP3 ADD AND DUP3 ADD DUP1 PUSH1 0x40 MSTORE POP DUP2 ADD SWAP1 PUSH2 0x209 SWAP2 SWAP1 PUSH2 0x4A2 JUMP JUMPDEST POP JUMP JUMPDEST PUSH1 0x1 SLOAD DUP2 JUMP JUMPDEST PUSH1 0x0 DUP1 SLOAD SWAP1 PUSH2 0x100 EXP SWAP1 DIV PUSH20 0xFFFFFFFFFFFFFFFFFFFFFFFFFFFFFFFFFFFFFFFF AND DUP2 JUMP JUMPDEST PUSH1 0x0 DUP2 SWAP1 POP SWAP2 SWAP1 POP JUMP JUMPDEST PUSH2 0x249 DUP2 PUSH2 0x236 JUMP JUMPDEST DUP3 MSTORE POP POP JUMP JUMPDEST PUSH1 0x0 PUSH1 0x20 DUP3 ADD SWAP1 POP PUSH2 0x264 PUSH1 0x0 DUP4 ADD DUP5 PUSH2 0x240 JUMP JUMPDEST SWAP3 SWAP2 POP POP JUMP JUMPDEST PUSH1 0x0 PUSH20 0xFFFFFFFFFFFFFFFFFFFFFFFFFFFFFFFFFFFFFFFF DUP3 AND SWAP1 POP SWAP2 SWAP1 POP JUMP JUMPDEST PUSH1 0x0 DUP2 SWAP1 POP SWAP2 SWAP1 POP JUMP JUMPDEST PUSH1 0x0 PUSH2 0x2AF PUSH2 0x2AA PUSH2 0x2A5 DUP5 PUSH2 0x26A JUMP JUMPDEST PUSH2 0x28A JUMP JUMPDEST PUSH2 0x26A JUMP JUMPDEST SWAP1 POP SWAP2 SWAP1 POP JUMP JUMPDEST PUSH1 0x0 PUSH2 0x2C1 DUP3 PUSH2 0x294 JUMP JUMPDEST SWAP1 POP SWAP2 SWAP1 POP JUMP JUMPDEST PUSH1 0x0 PUSH2 0x2D3 DUP3 PUSH2 0x2B6 JUMP JUMPDEST SWAP1 POP SWAP2 SWAP1 POP JUMP JUMPDEST PUSH2 0x2E3 DUP2 PUSH2 0x2C8 JUMP JUMPDEST DUP3 MSTORE POP POP JUMP JUMPDEST PUSH1 0x0 PUSH1 0x20 DUP3 ADD SWAP1 POP PUSH2 0x2FE PUSH1 0x0 DUP4 ADD DUP5 PUSH2 0x2DA JUMP JUMPDEST SWAP3 SWAP2 POP POP JUMP JUMPDEST PUSH1 0x0 PUSH2 0x30F DUP3 PUSH2 0x26A JUMP JUMPDEST SWAP1 POP SWAP2 SWAP1 POP JUMP JUMPDEST PUSH2 0x31F DUP2 PUSH2 0x304 JUMP JUMPDEST DUP3 MSTORE POP POP JUMP JUMPDEST PUSH1 0x0 PUSH1 0x20 DUP3 ADD SWAP1 POP PUSH2 0x33A PUSH1 0x0 DUP4 ADD DUP5 PUSH2 0x316 JUMP JUMPDEST SWAP3 SWAP2 POP POP JUMP JUMPDEST PUSH1 0x0 DUP1 REVERT JUMPDEST PUSH2 0x34E DUP2 PUSH2 0x236 JUMP JUMPDEST DUP2 EQ PUSH2 0x359 JUMPI PUSH1 0x0 DUP1 REVERT JUMPDEST POP JUMP JUMPDEST PUSH1 0x0 DUP2 MLOAD SWAP1 POP PUSH2 0x36B DUP2 PUSH2 0x345 JUMP JUMPDEST SWAP3 SWAP2 POP POP JUMP JUMPDEST PUSH1 0x0 PUSH1 0x20 DUP3 DUP5 SUB SLT ISZERO PUSH2 0x387 JUMPI PUSH2 0x386 PUSH2 0x340 JUMP JUMPDEST JUMPDEST PUSH1 0x0 PUSH2 0x395 DUP5 DUP3 DUP6 ADD PUSH2 0x35C JUMP JUMPDEST SWAP2 POP POP SWAP3 SWAP2 POP POP JUMP JUMPDEST PUSH1 0x0 DUP3 DUP3 MSTORE PUSH1 0x20 DUP3 ADD SWAP1 POP SWAP3 SWAP2 POP POP JUMP JUMPDEST PUSH32 0x596F75206D757374206861766520302062616C616E636520746F207265717565 PUSH1 0x0 DUP3 ADD MSTORE PUSH32 0x737420746F6B656E732E00000000000000000000000000000000000000000000 PUSH1 0x20 DUP3 ADD MSTORE POP JUMP JUMPDEST PUSH1 0x0 PUSH2 0x40B PUSH1 0x2A DUP4 PUSH2 0x39E JUMP JUMPDEST SWAP2 POP PUSH2 0x416 DUP3 PUSH2 0x3AF JUMP JUMPDEST PUSH1 0x40 DUP3 ADD SWAP1 POP SWAP2 SWAP1 POP JUMP JUMPDEST PUSH1 0x0 PUSH1 0x20 DUP3 ADD SWAP1 POP DUP2 DUP2 SUB PUSH1 0x0 DUP4 ADD MSTORE PUSH2 0x43A DUP2 PUSH2 0x3FE JUMP JUMPDEST SWAP1 POP SWAP2 SWAP1 POP JUMP JUMPDEST PUSH1 0x0 PUSH1 0x40 DUP3 ADD SWAP1 POP PUSH2 0x456 PUSH1 0x0 DUP4 ADD DUP6 PUSH2 0x316 JUMP JUMPDEST PUSH2 0x463 PUSH1 0x20 DUP4 ADD DUP5 PUSH2 0x240 JUMP JUMPDEST SWAP4 SWAP3 POP POP POP JUMP JUMPDEST PUSH1 0x0 DUP2 ISZERO ISZERO SWAP1 POP SWAP2 SWAP1 POP JUMP JUMPDEST PUSH2 0x47F DUP2 PUSH2 0x46A JUMP JUMPDEST DUP2 EQ PUSH2 0x48A JUMPI PUSH1 0x0 DUP1 REVERT JUMPDEST POP JUMP JUMPDEST PUSH1 0x0 DUP2 MLOAD SWAP1 POP PUSH2 0x49C DUP2 PUSH2 0x476 JUMP JUMPDEST SWAP3 SWAP2 POP POP JUMP JUMPDEST PUSH1 0x0 PUSH1 0x20 DUP3 DUP5 SUB SLT ISZERO PUSH2 0x4B8 JUMPI PUSH2 0x4B7 PUSH2 0x340 JUMP JUMPDEST JUMPDEST PUSH1 0x0 PUSH2 0x4C6 DUP5 DUP3 DUP6 ADD PUSH2 0x48D JUMP JUMPDEST SWAP2 POP POP SWAP3 SWAP2 POP POP JUMP INVALID LOG2 PUSH5 0x6970667358 0x22 SLT KECCAK256 GT 0x2D 0x23 0xE1 AND 0x1E 0x5E PUSH9 0xAD7E586B44C007CB3D PUSH31 0xD0775A42D6D45EAE069FD397FF9564736F6C63430008120033000000000000 "
				},
				"gasEstimates": {
					"creation": {
						"codeDepositCost": "257000",
						"executionCost": "infinite",
						"totalCost": "infinite"
					},
					"external": {
						"maxTokensPerRequest()": "2429",
						"requestTokens()": "infinite",
						"token()": "infinite"
					}
				},
				"methodIdentifiers": {
					"maxTokensPerRequest()": "b19f94b9",
					"requestTokens()": "359cf2b7",
					"token()": "fc0c546a"
				}
			},
			"storageLayout": {
				"storage": [
					{
						"astId": 1009,
						"contract": "contracts/TinyNotesTokenFaucet.sol:TinyNotesTokenFaucet",
						"label": "token",
						"offset": 0,
						"slot": "0",
						"type": "t_contract(TinyNotesToken)1003"
					},
					{
						"astId": 1011,
						"contract": "contracts/TinyNotesTokenFaucet.sol:TinyNotesTokenFaucet",
						"label": "maxTokensPerRequest",
						"offset": 0,
						"slot": "1",
						"type": "t_uint256"
					}
				],
				"types": {
					"t_contract(TinyNotesToken)1003": {
						"encoding": "inplace",
						"label": "contract TinyNotesToken",
						"numberOfBytes": "20"
					},
					"t_uint256": {
						"encoding": "inplace",
						"label": "uint256",
						"numberOfBytes": "32"
					}
				}
			},
			"userdoc": {
				"kind": "user",
				"methods": {},
				"version": 1
			}
		}
	}
}