{
	"contracts/TinyNotesToken.sol": {
		"TinyNotesToken": {
			"abi": [
				{
					"inputs": [],
					"stateMutability": "nonpayable",
					"type": "constructor"
				},
				{
					"anonymous": false,
					"inputs": [
						{
							"indexed": true,
							"internalType": "address",
							"name": "owner",
							"type": "address"
						},
						{
							"indexed": true,
							"internalType": "address",
							"name": "spender",
							"type": "address"
						},
						{
							"indexed": false,
							"internalType": "uint256",
							"name": "value",
							"type": "uint256"
						}
					],
					"name": "Approval",
					"type": "event"
				},
				{
					"anonymous": false,
					"inputs": [
						{
							"indexed": true,
							"internalType": "address",
							"name": "from",
							"type": "address"
						},
						{
							"indexed": true,
							"internalType": "address",
							"name": "to",
							"type": "address"
						},
						{
							"indexed": false,
							"internalType": "uint256",
							"name": "value",
							"type": "uint256"
						}
					],
					"name": "Transfer",
					"type": "event"
				},
				{
					"inputs": [
						{
							"internalType": "address",
							"name": "owner",
							"type": "address"
						},
						{
							"internalType": "address",
							"name": "spender",
							"type": "address"
						}
					],
					"name": "allowance",
					"outputs": [
						{
							"internalType": "uint256",
							"name": "",
							"type": "uint256"
						}
					],
					"stateMutability": "view",
					"type": "function"
				},
				{
					"inputs": [
						{
							"internalType": "address",
							"name": "spender",
							"type": "address"
						},
						{
							"internalType": "uint256",
							"name": "amount",
							"type": "uint256"
						}
					],
					"name": "approve",
					"outputs": [
						{
							"internalType": "bool",
							"name": "",
							"type": "bool"
						}
					],
					"stateMutability": "nonpayable",
					"type": "function"
				},
				{
					"inputs": [
						{
							"internalType": "address",
							"name": "account",
							"type": "address"
						}
					],
					"name": "balanceOf",
					"outputs": [
						{
							"internalType": "uint256",
							"name": "",
							"type": "uint256"
						}
					],
					"stateMutability": "view",
					"type": "function"
				},
				{
					"inputs": [
						{
							"internalType": "string",
							"name": "_title",
							"type": "string"
						},
						{
							"internalType": "string",
							"name": "_content",
							"type": "string"
						}
					],
					"name": "createNote",
					"outputs": [],
					"stateMutability": "nonpayable",
					"type": "function"
				},
				{
					"inputs": [],
					"name": "decimals",
					"outputs": [
						{
							"internalType": "uint8",
							"name": "",
							"type": "uint8"
						}
					],
					"stateMutability": "view",
					"type": "function"
				},
				{
					"inputs": [
						{
							"internalType": "address",
							"name": "spender",
							"type": "address"
						},
						{
							"internalType": "uint256",
							"name": "subtractedValue",
							"type": "uint256"
						}
					],
					"name": "decreaseAllowance",
					"outputs": [
						{
							"internalType": "bool",
							"name": "",
							"type": "bool"
						}
					],
					"stateMutability": "nonpayable",
					"type": "function"
				},
				{
					"inputs": [
						{
							"internalType": "address",
							"name": "spender",
							"type": "address"
						},
						{
							"internalType": "uint256",
							"name": "addedValue",
							"type": "uint256"
						}
					],
					"name": "increaseAllowance",
					"outputs": [
						{
							"internalType": "bool",
							"name": "",
							"type": "bool"
						}
					],
					"stateMutability": "nonpayable",
					"type": "function"
				},
				{
					"inputs": [],
					"name": "name",
					"outputs": [
						{
							"internalType": "string",
							"name": "",
							"type": "string"
						}
					],
					"stateMutability": "view",
					"type": "function"
				},
				{
					"inputs": [
						{
							"internalType": "uint256",
							"name": "_noteId",
							"type": "uint256"
						}
					],
					"name": "readNote",
					"outputs": [
						{
							"internalType": "string",
							"name": "title",
							"type": "string"
						},
						{
							"internalType": "string",
							"name": "content",
							"type": "string"
						}
					],
					"stateMutability": "view",
					"type": "function"
				},
				{
					"inputs": [],
					"name": "symbol",
					"outputs": [
						{
							"internalType": "string",
							"name": "",
							"type": "string"
						}
					],
					"stateMutability": "view",
					"type": "function"
				},
				{
					"inputs": [],
					"name": "totalSupply",
					"outputs": [
						{
							"internalType": "uint256",
							"name": "",
							"type": "uint256"
						}
					],
					"stateMutability": "view",
					"type": "function"
				},
				{
					"inputs": [
						{
							"internalType": "address",
							"name": "to",
							"type": "address"
						},
						{
							"internalType": "uint256",
							"name": "amount",
							"type": "uint256"
						}
					],
					"name": "transfer",
					"outputs": [
						{
							"internalType": "bool",
							"name": "",
							"type": "bool"
						}
					],
					"stateMutability": "nonpayable",
					"type": "function"
				},
				{
					"inputs": [
						{
							"internalType": "address",
							"name": "from",
							"type": "address"
						},
						{
							"internalType": "address",
							"name": "to",
							"type": "address"
						},
						{
							"internalType": "uint256",
							"name": "amount",
							"type": "uint256"
						}
					],
					"name": "transferFrom",
					"outputs": [
						{
							"internalType": "bool",
							"name": "",
							"type": "bool"
						}
					],
					"stateMutability": "nonpayable",
					"type": "function"
				}
			],
			"devdoc": {
				"events": {
					"Approval(address,address,uint256)": {
						"details": "Emitted when the allowance of a `spender` for an `owner` is set by a call to {approve}. `value` is the new allowance."
					},
					"Transfer(address,address,uint256)": {
						"details": "Emitted when `value` tokens are moved from one account (`from`) to another (`to`). Note that `value` may be zero."
					}
				},
				"kind": "dev",
				"methods": {
					"allowance(address,address)": {
						"details": "See {IERC20-allowance}."
					},
					"approve(address,uint256)": {
						"details": "See {IERC20-approve}. NOTE: If `amount` is the maximum `uint256`, the allowance is not updated on `transferFrom`. This is semantically equivalent to an infinite approval. Requirements: - `spender` cannot be the zero address."
					},
					"balanceOf(address)": {
						"details": "See {IERC20-balanceOf}."
					},
					"decimals()": {
						"details": "Returns the number of decimals used to get its user representation. For example, if `decimals` equals `2`, a balance of `505` tokens should be displayed to a user as `5.05` (`505 / 10 ** 2`). Tokens usually opt for a value of 18, imitating the relationship between Ether and Wei. This is the value {ERC20} uses, unless this function is overridden; NOTE: This information is only used for _display_ purposes: it in no way affects any of the arithmetic of the contract, including {IERC20-balanceOf} and {IERC20-transfer}."
					},
					"decreaseAllowance(address,uint256)": {
						"details": "Atomically decreases the allowance granted to `spender` by the caller. This is an alternative to {approve} that can be used as a mitigation for problems described in {IERC20-approve}. Emits an {Approval} event indicating the updated allowance. Requirements: - `spender` cannot be the zero address. - `spender` must have allowance for the caller of at least `subtractedValue`."
					},
					"increaseAllowance(address,uint256)": {
						"details": "Atomically increases the allowance granted to `spender` by the caller. This is an alternative to {approve} that can be used as a mitigation for problems described in {IERC20-approve}. Emits an {Approval} event indicating the updated allowance. Requirements: - `spender` cannot be the zero address."
					},
					"name()": {
						"details": "Returns the name of the token."
					},
					"symbol()": {
						"details": "Returns the symbol of the token, usually a shorter version of the name."
					},
					"totalSupply()": {
						"details": "See {IERC20-totalSupply}."
					},
					"transfer(address,uint256)": {
						"details": "See {IERC20-transfer}. Requirements: - `to` cannot be the zero address. - the caller must have a balance of at least `amount`."
					},
					"transferFrom(address,address,uint256)": {
						"details": "See {IERC20-transferFrom}. Emits an {Approval} event indicating the updated allowance. This is not required by the EIP. See the note at the beginning of {ERC20}. NOTE: Does not update the allowance if the current allowance is the maximum `uint256`. Requirements: - `from` and `to` cannot be the zero address. - `from` must have a balance of at least `amount`. - the caller must have allowance for ``from``'s tokens of at least `amount`."
					}
				},
				"version": 1
			},
			"evm": {
				"assembly": "    /* \"contracts/TinyNotesToken.sol\":174:1116  contract TinyNotesToken is ERC20 {... */\n  mstore(0x40, 0x80)\n    /* \"contracts/TinyNotesToken.sol\":438:548  constructor() ERC20(\"Tiny Notes Token\", \"TNT\") {... */\n  callvalue\n  dup1\n  iszero\n  tag_1\n  jumpi\n  0x00\n  dup1\n  revert\ntag_1:\n  pop\n    /* \"@openzeppelin/contracts/token/ERC20/ERC20.sol\":1976:2089  constructor(string memory name_, string memory symbol_) {... */\n  mload(0x40)\n  dup1\n  0x40\n  add\n  0x40\n  mstore\n  dup1\n  0x10\n  dup2\n  mstore\n  0x20\n  add\n  0x54696e79204e6f74657320546f6b656e00000000000000000000000000000000\n  dup2\n  mstore\n  pop\n  mload(0x40)\n  dup1\n  0x40\n  add\n  0x40\n  mstore\n  dup1\n  0x03\n  dup2\n  mstore\n  0x20\n  add\n  0x544e540000000000000000000000000000000000000000000000000000000000\n  dup2\n  mstore\n  pop\n    /* \"@openzeppelin/contracts/token/ERC20/ERC20.sol\":2050:2055  name_ */\n  dup2\n    /* \"@openzeppelin/contracts/token/ERC20/ERC20.sol\":2042:2047  _name */\n  0x03\n    /* \"@openzeppelin/contracts/token/ERC20/ERC20.sol\":2042:2055  _name = name_ */\n  swap1\n  dup2\n  tag_5\n  swap2\n  swap1\n  tag_6\n  jump\t// in\ntag_5:\n  pop\n    /* \"@openzeppelin/contracts/token/ERC20/ERC20.sol\":2075:2082  symbol_ */\n  dup1\n    /* \"@openzeppelin/contracts/token/ERC20/ERC20.sol\":2065:2072  _symbol */\n  0x04\n    /* \"@openzeppelin/contracts/token/ERC20/ERC20.sol\":2065:2082  _symbol = symbol_ */\n  swap1\n  dup2\n  tag_7\n  swap2\n  swap1\n  tag_6\n  jump\t// in\ntag_7:\n  pop\n    /* \"@openzeppelin/contracts/token/ERC20/ERC20.sol\":1976:2089  constructor(string memory name_, string memory symbol_) {... */\n  pop\n  pop\n    /* \"contracts/TinyNotesToken.sol\":495:541  _mint(msg.sender, 47000000 * 10 ** decimals()) */\n  tag_9\n    /* \"contracts/TinyNotesToken.sol\":501:511  msg.sender */\n  caller\n    /* \"contracts/TinyNotesToken.sol\":530:540  decimals() */\n  tag_10\n    /* \"contracts/TinyNotesToken.sol\":530:538  decimals */\n  shl(0x20, tag_11)\n    /* \"contracts/TinyNotesToken.sol\":530:540  decimals() */\n  0x20\n  shr\n  jump\t// in\ntag_10:\n    /* \"contracts/TinyNotesToken.sol\":524:526  10 */\n  0x0a\n    /* \"contracts/TinyNotesToken.sol\":524:540  10 ** decimals() */\n  tag_12\n  swap2\n  swap1\n  tag_13\n  jump\t// in\ntag_12:\n    /* \"contracts/TinyNotesToken.sol\":513:521  47000000 */\n  0x02cd29c0\n    /* \"contracts/TinyNotesToken.sol\":513:540  47000000 * 10 ** decimals() */\n  tag_14\n  swap2\n  swap1\n  tag_15\n  jump\t// in\ntag_14:\n    /* \"contracts/TinyNotesToken.sol\":495:500  _mint */\n  shl(0x20, tag_16)\n    /* \"contracts/TinyNotesToken.sol\":495:541  _mint(msg.sender, 47000000 * 10 ** decimals()) */\n  0x20\n  shr\n  jump\t// in\ntag_9:\n    /* \"contracts/TinyNotesToken.sol\":174:1116  contract TinyNotesToken is ERC20 {... */\n  jump(tag_17)\n    /* \"@openzeppelin/contracts/token/ERC20/ERC20.sol\":3091:3182  function decimals() public view virtual override returns (uint8) {... */\ntag_11:\n    /* \"@openzeppelin/contracts/token/ERC20/ERC20.sol\":3149:3154  uint8 */\n  0x00\n    /* \"@openzeppelin/contracts/token/ERC20/ERC20.sol\":3173:3175  18 */\n  0x12\n    /* \"@openzeppelin/contracts/token/ERC20/ERC20.sol\":3166:3175  return 18 */\n  swap1\n  pop\n    /* \"@openzeppelin/contracts/token/ERC20/ERC20.sol\":3091:3182  function decimals() public view virtual override returns (uint8) {... */\n  swap1\n  jump\t// out\n    /* \"@openzeppelin/contracts/token/ERC20/ERC20.sol\":8567:9102  function _mint(address account, uint256 amount) internal virtual {... */\ntag_16:\n    /* \"@openzeppelin/contracts/token/ERC20/ERC20.sol\":8669:8670  0 */\n  0x00\n    /* \"@openzeppelin/contracts/token/ERC20/ERC20.sol\":8650:8671  account != address(0) */\n  0xffffffffffffffffffffffffffffffffffffffff\n  and\n    /* \"@openzeppelin/contracts/token/ERC20/ERC20.sol\":8650:8657  account */\n  dup3\n    /* \"@openzeppelin/contracts/token/ERC20/ERC20.sol\":8650:8671  account != address(0) */\n  0xffffffffffffffffffffffffffffffffffffffff\n  and\n  sub\n    /* \"@openzeppelin/contracts/token/ERC20/ERC20.sol\":8642:8707  require(account != address(0), \"ERC20: mint to the zero address\") */\n  tag_20\n  jumpi\n  mload(0x40)\n  0x08c379a000000000000000000000000000000000000000000000000000000000\n  dup2\n  mstore\n  0x04\n  add\n  tag_21\n  swap1\n  tag_22\n  jump\t// in\ntag_21:\n  mload(0x40)\n  dup1\n  swap2\n  sub\n  swap1\n  revert\ntag_20:\n    /* \"@openzeppelin/contracts/token/ERC20/ERC20.sol\":8718:8767  _beforeTokenTransfer(address(0), account, amount) */\n  tag_23\n    /* \"@openzeppelin/contracts/token/ERC20/ERC20.sol\":8747:8748  0 */\n  0x00\n    /* \"@openzeppelin/contracts/token/ERC20/ERC20.sol\":8751:8758  account */\n  dup4\n    /* \"@openzeppelin/contracts/token/ERC20/ERC20.sol\":8760:8766  amount */\n  dup4\n    /* \"@openzeppelin/contracts/token/ERC20/ERC20.sol\":8718:8738  _beforeTokenTransfer */\n  shl(0x20, tag_24)\n    /* \"@openzeppelin/contracts/token/ERC20/ERC20.sol\":8718:8767  _beforeTokenTransfer(address(0), account, amount) */\n  0x20\n  shr\n  jump\t// in\ntag_23:\n    /* \"@openzeppelin/contracts/token/ERC20/ERC20.sol\":8794:8800  amount */\n  dup1\n    /* \"@openzeppelin/contracts/token/ERC20/ERC20.sol\":8778:8790  _totalSupply */\n  0x02\n  0x00\n    /* \"@openzeppelin/contracts/token/ERC20/ERC20.sol\":8778:8800  _totalSupply += amount */\n  dup3\n  dup3\n  sload\n  tag_25\n  swap2\n  swap1\n  tag_26\n  jump\t// in\ntag_25:\n  swap3\n  pop\n  pop\n  dup2\n  swap1\n  sstore\n  pop\n    /* \"@openzeppelin/contracts/token/ERC20/ERC20.sol\":8968:8974  amount */\n  dup1\n    /* \"@openzeppelin/contracts/token/ERC20/ERC20.sol\":8946:8955  _balances */\n  0x00\n    /* \"@openzeppelin/contracts/token/ERC20/ERC20.sol\":8946:8964  _balances[account] */\n  dup1\n    /* \"@openzeppelin/contracts/token/ERC20/ERC20.sol\":8956:8963  account */\n  dup5\n    /* \"@openzeppelin/contracts/token/ERC20/ERC20.sol\":8946:8964  _balances[account] */\n  0xffffffffffffffffffffffffffffffffffffffff\n  and\n  0xffffffffffffffffffffffffffffffffffffffff\n  and\n  dup2\n  mstore\n  0x20\n  add\n  swap1\n  dup2\n  mstore\n  0x20\n  add\n  0x00\n  keccak256\n  0x00\n    /* \"@openzeppelin/contracts/token/ERC20/ERC20.sol\":8946:8974  _balances[account] += amount */\n  dup3\n  dup3\n  sload\n  add\n  swap3\n  pop\n  pop\n  dup2\n  swap1\n  sstore\n  pop\n    /* \"@openzeppelin/contracts/token/ERC20/ERC20.sol\":9020:9027  account */\n  dup2\n    /* \"@openzeppelin/contracts/token/ERC20/ERC20.sol\":8999:9036  Transfer(address(0), account, amount) */\n  0xffffffffffffffffffffffffffffffffffffffff\n  and\n    /* \"@openzeppelin/contracts/token/ERC20/ERC20.sol\":9016:9017  0 */\n  0x00\n    /* \"@openzeppelin/contracts/token/ERC20/ERC20.sol\":8999:9036  Transfer(address(0), account, amount) */\n  0xffffffffffffffffffffffffffffffffffffffff\n  and\n  0xddf252ad1be2c89b69c2b068fc378daa952ba7f163c4a11628f55a4df523b3ef\n    /* \"@openzeppelin/contracts/token/ERC20/ERC20.sol\":9029:9035  amount */\n  dup4\n    /* \"@openzeppelin/contracts/token/ERC20/ERC20.sol\":8999:9036  Transfer(address(0), account, amount) */\n  mload(0x40)\n  tag_27\n  swap2\n  swap1\n  tag_28\n  jump\t// in\ntag_27:\n  mload(0x40)\n  dup1\n  swap2\n  sub\n  swap1\n  log3\n    /* \"@openzeppelin/contracts/token/ERC20/ERC20.sol\":9047:9095  _afterTokenTransfer(address(0), account, amount) */\n  tag_29\n    /* \"@openzeppelin/contracts/token/ERC20/ERC20.sol\":9075:9076  0 */\n  0x00\n    /* \"@openzeppelin/contracts/token/ERC20/ERC20.sol\":9079:9086  account */\n  dup4\n    /* \"@openzeppelin/contracts/token/ERC20/ERC20.sol\":9088:9094  amount */\n  dup4\n    /* \"@openzeppelin/contracts/token/ERC20/ERC20.sol\":9047:9066  _afterTokenTransfer */\n  shl(0x20, tag_30)\n    /* \"@openzeppelin/contracts/token/ERC20/ERC20.sol\":9047:9095  _afterTokenTransfer(address(0), account, amount) */\n  0x20\n  shr\n  jump\t// in\ntag_29:\n    /* \"@openzeppelin/contracts/token/ERC20/ERC20.sol\":8567:9102  function _mint(address account, uint256 amount) internal virtual {... */\n  pop\n  pop\n  jump\t// out\n    /* \"@openzeppelin/contracts/token/ERC20/ERC20.sol\":12180:12301  function _beforeTokenTransfer(... */\ntag_24:\n  pop\n  pop\n  pop\n  jump\t// out\n    /* \"@openzeppelin/contracts/token/ERC20/ERC20.sol\":12889:13009  function _afterTokenTransfer(... */\ntag_30:\n  pop\n  pop\n  pop\n  jump\t// out\n    /* \"#utility.yul\":7:106   */\ntag_33:\n    /* \"#utility.yul\":59:65   */\n  0x00\n    /* \"#utility.yul\":93:98   */\n  dup2\n    /* \"#utility.yul\":87:99   */\n  mload\n    /* \"#utility.yul\":77:99   */\n  swap1\n  pop\n    /* \"#utility.yul\":7:106   */\n  swap2\n  swap1\n  pop\n  jump\t// out\n    /* \"#utility.yul\":112:292   */\ntag_34:\n    /* \"#utility.yul\":160:237   */\n  0x4e487b7100000000000000000000000000000000000000000000000000000000\n    /* \"#utility.yul\":157:158   */\n  0x00\n    /* \"#utility.yul\":150:238   */\n  mstore\n    /* \"#utility.yul\":257:261   */\n  0x41\n    /* \"#utility.yul\":254:255   */\n  0x04\n    /* \"#utility.yul\":247:262   */\n  mstore\n    /* \"#utility.yul\":281:285   */\n  0x24\n    /* \"#utility.yul\":278:279   */\n  0x00\n    /* \"#utility.yul\":271:286   */\n  revert\n    /* \"#utility.yul\":298:478   */\ntag_35:\n    /* \"#utility.yul\":346:423   */\n  0x4e487b7100000000000000000000000000000000000000000000000000000000\n    /* \"#utility.yul\":343:344   */\n  0x00\n    /* \"#utility.yul\":336:424   */\n  mstore\n    /* \"#utility.yul\":443:447   */\n  0x22\n    /* \"#utility.yul\":440:441   */\n  0x04\n    /* \"#utility.yul\":433:448   */\n  mstore\n    /* \"#utility.yul\":467:471   */\n  0x24\n    /* \"#utility.yul\":464:465   */\n  0x00\n    /* \"#utility.yul\":457:472   */\n  revert\n    /* \"#utility.yul\":484:804   */\ntag_36:\n    /* \"#utility.yul\":528:534   */\n  0x00\n    /* \"#utility.yul\":565:566   */\n  0x02\n    /* \"#utility.yul\":559:563   */\n  dup3\n    /* \"#utility.yul\":555:567   */\n  div\n    /* \"#utility.yul\":545:567   */\n  swap1\n  pop\n    /* \"#utility.yul\":612:613   */\n  0x01\n    /* \"#utility.yul\":606:610   */\n  dup3\n    /* \"#utility.yul\":602:614   */\n  and\n    /* \"#utility.yul\":633:651   */\n  dup1\n    /* \"#utility.yul\":623:704   */\n  tag_67\n  jumpi\n    /* \"#utility.yul\":689:693   */\n  0x7f\n    /* \"#utility.yul\":681:687   */\n  dup3\n    /* \"#utility.yul\":677:694   */\n  and\n    /* \"#utility.yul\":667:694   */\n  swap2\n  pop\n    /* \"#utility.yul\":623:704   */\ntag_67:\n    /* \"#utility.yul\":751:753   */\n  0x20\n    /* \"#utility.yul\":743:749   */\n  dup3\n    /* \"#utility.yul\":740:754   */\n  lt\n    /* \"#utility.yul\":720:738   */\n  dup2\n    /* \"#utility.yul\":717:755   */\n  sub\n    /* \"#utility.yul\":714:798   */\n  tag_68\n  jumpi\n    /* \"#utility.yul\":770:788   */\n  tag_69\n  tag_35\n  jump\t// in\ntag_69:\n    /* \"#utility.yul\":714:798   */\ntag_68:\n    /* \"#utility.yul\":535:804   */\n  pop\n    /* \"#utility.yul\":484:804   */\n  swap2\n  swap1\n  pop\n  jump\t// out\n    /* \"#utility.yul\":810:951   */\ntag_37:\n    /* \"#utility.yul\":859:863   */\n  0x00\n    /* \"#utility.yul\":882:885   */\n  dup2\n    /* \"#utility.yul\":874:885   */\n  swap1\n  pop\n    /* \"#utility.yul\":905:908   */\n  dup2\n    /* \"#utility.yul\":902:903   */\n  0x00\n    /* \"#utility.yul\":895:909   */\n  mstore\n    /* \"#utility.yul\":939:943   */\n  0x20\n    /* \"#utility.yul\":936:937   */\n  0x00\n    /* \"#utility.yul\":926:944   */\n  keccak256\n    /* \"#utility.yul\":918:944   */\n  swap1\n  pop\n    /* \"#utility.yul\":810:951   */\n  swap2\n  swap1\n  pop\n  jump\t// out\n    /* \"#utility.yul\":957:1050   */\ntag_38:\n    /* \"#utility.yul\":994:1000   */\n  0x00\n    /* \"#utility.yul\":1041:1043   */\n  0x20\n    /* \"#utility.yul\":1036:1038   */\n  0x1f\n    /* \"#utility.yul\":1029:1034   */\n  dup4\n    /* \"#utility.yul\":1025:1039   */\n  add\n    /* \"#utility.yul\":1021:1044   */\n  div\n    /* \"#utility.yul\":1011:1044   */\n  swap1\n  pop\n    /* \"#utility.yul\":957:1050   */\n  swap2\n  swap1\n  pop\n  jump\t// out\n    /* \"#utility.yul\":1056:1163   */\ntag_39:\n    /* \"#utility.yul\":1100:1108   */\n  0x00\n    /* \"#utility.yul\":1150:1155   */\n  dup3\n    /* \"#utility.yul\":1144:1148   */\n  dup3\n    /* \"#utility.yul\":1140:1156   */\n  shl\n    /* \"#utility.yul\":1119:1156   */\n  swap1\n  pop\n    /* \"#utility.yul\":1056:1163   */\n  swap3\n  swap2\n  pop\n  pop\n  jump\t// out\n    /* \"#utility.yul\":1169:1562   */\ntag_40:\n    /* \"#utility.yul\":1238:1244   */\n  0x00\n    /* \"#utility.yul\":1288:1289   */\n  0x08\n    /* \"#utility.yul\":1276:1286   */\n  dup4\n    /* \"#utility.yul\":1272:1290   */\n  mul\n    /* \"#utility.yul\":1311:1408   */\n  tag_74\n    /* \"#utility.yul\":1341:1407   */\n  0xffffffffffffffffffffffffffffffffffffffffffffffffffffffffffffffff\n    /* \"#utility.yul\":1330:1339   */\n  dup3\n    /* \"#utility.yul\":1311:1408   */\n  tag_39\n  jump\t// in\ntag_74:\n    /* \"#utility.yul\":1429:1468   */\n  tag_75\n    /* \"#utility.yul\":1459:1467   */\n  dup7\n    /* \"#utility.yul\":1448:1457   */\n  dup4\n    /* \"#utility.yul\":1429:1468   */\n  tag_39\n  jump\t// in\ntag_75:\n    /* \"#utility.yul\":1417:1468   */\n  swap6\n  pop\n    /* \"#utility.yul\":1501:1505   */\n  dup1\n    /* \"#utility.yul\":1497:1506   */\n  not\n    /* \"#utility.yul\":1490:1495   */\n  dup5\n    /* \"#utility.yul\":1486:1507   */\n  and\n    /* \"#utility.yul\":1477:1507   */\n  swap4\n  pop\n    /* \"#utility.yul\":1550:1554   */\n  dup1\n    /* \"#utility.yul\":1540:1548   */\n  dup7\n    /* \"#utility.yul\":1536:1555   */\n  and\n    /* \"#utility.yul\":1529:1534   */\n  dup5\n    /* \"#utility.yul\":1526:1556   */\n  or\n    /* \"#utility.yul\":1516:1556   */\n  swap3\n  pop\n    /* \"#utility.yul\":1245:1562   */\n  pop\n  pop\n    /* \"#utility.yul\":1169:1562   */\n  swap4\n  swap3\n  pop\n  pop\n  pop\n  jump\t// out\n    /* \"#utility.yul\":1568:1645   */\ntag_41:\n    /* \"#utility.yul\":1605:1612   */\n  0x00\n    /* \"#utility.yul\":1634:1639   */\n  dup2\n    /* \"#utility.yul\":1623:1639   */\n  swap1\n  pop\n    /* \"#utility.yul\":1568:1645   */\n  swap2\n  swap1\n  pop\n  jump\t// out\n    /* \"#utility.yul\":1651:1711   */\ntag_42:\n    /* \"#utility.yul\":1679:1682   */\n  0x00\n    /* \"#utility.yul\":1700:1705   */\n  dup2\n    /* \"#utility.yul\":1693:1705   */\n  swap1\n  pop\n    /* \"#utility.yul\":1651:1711   */\n  swap2\n  swap1\n  pop\n  jump\t// out\n    /* \"#utility.yul\":1717:1859   */\ntag_43:\n    /* \"#utility.yul\":1767:1776   */\n  0x00\n    /* \"#utility.yul\":1800:1853   */\n  tag_79\n    /* \"#utility.yul\":1818:1852   */\n  tag_80\n    /* \"#utility.yul\":1827:1851   */\n  tag_81\n    /* \"#utility.yul\":1845:1850   */\n  dup5\n    /* \"#utility.yul\":1827:1851   */\n  tag_41\n  jump\t// in\ntag_81:\n    /* \"#utility.yul\":1818:1852   */\n  tag_42\n  jump\t// in\ntag_80:\n    /* \"#utility.yul\":1800:1853   */\n  tag_41\n  jump\t// in\ntag_79:\n    /* \"#utility.yul\":1787:1853   */\n  swap1\n  pop\n    /* \"#utility.yul\":1717:1859   */\n  swap2\n  swap1\n  pop\n  jump\t// out\n    /* \"#utility.yul\":1865:1940   */\ntag_44:\n    /* \"#utility.yul\":1908:1911   */\n  0x00\n    /* \"#utility.yul\":1929:1934   */\n  dup2\n    /* \"#utility.yul\":1922:1934   */\n  swap1\n  pop\n    /* \"#utility.yul\":1865:1940   */\n  swap2\n  swap1\n  pop\n  jump\t// out\n    /* \"#utility.yul\":1946:2215   */\ntag_45:\n    /* \"#utility.yul\":2056:2095   */\n  tag_84\n    /* \"#utility.yul\":2087:2094   */\n  dup4\n    /* \"#utility.yul\":2056:2095   */\n  tag_43\n  jump\t// in\ntag_84:\n    /* \"#utility.yul\":2117:2208   */\n  tag_85\n    /* \"#utility.yul\":2166:2207   */\n  tag_86\n    /* \"#utility.yul\":2190:2206   */\n  dup3\n    /* \"#utility.yul\":2166:2207   */\n  tag_44\n  jump\t// in\ntag_86:\n    /* \"#utility.yul\":2158:2164   */\n  dup5\n    /* \"#utility.yul\":2151:2155   */\n  dup5\n    /* \"#utility.yul\":2145:2156   */\n  sload\n    /* \"#utility.yul\":2117:2208   */\n  tag_40\n  jump\t// in\ntag_85:\n    /* \"#utility.yul\":2111:2115   */\n  dup3\n    /* \"#utility.yul\":2104:2209   */\n  sstore\n    /* \"#utility.yul\":2022:2215   */\n  pop\n    /* \"#utility.yul\":1946:2215   */\n  pop\n  pop\n  pop\n  jump\t// out\n    /* \"#utility.yul\":2221:2294   */\ntag_46:\n    /* \"#utility.yul\":2266:2269   */\n  0x00\n    /* \"#utility.yul\":2221:2294   */\n  swap1\n  jump\t// out\n    /* \"#utility.yul\":2300:2489   */\ntag_47:\n    /* \"#utility.yul\":2377:2409   */\n  tag_89\n  tag_46\n  jump\t// in\ntag_89:\n    /* \"#utility.yul\":2418:2483   */\n  tag_90\n    /* \"#utility.yul\":2476:2482   */\n  dup2\n    /* \"#utility.yul\":2468:2474   */\n  dup5\n    /* \"#utility.yul\":2462:2466   */\n  dup5\n    /* \"#utility.yul\":2418:2483   */\n  tag_45\n  jump\t// in\ntag_90:\n    /* \"#utility.yul\":2353:2489   */\n  pop\n    /* \"#utility.yul\":2300:2489   */\n  pop\n  pop\n  jump\t// out\n    /* \"#utility.yul\":2495:2681   */\ntag_48:\n    /* \"#utility.yul\":2555:2675   */\ntag_92:\n    /* \"#utility.yul\":2572:2575   */\n  dup2\n    /* \"#utility.yul\":2565:2570   */\n  dup2\n    /* \"#utility.yul\":2562:2576   */\n  lt\n    /* \"#utility.yul\":2555:2675   */\n  iszero\n  tag_94\n  jumpi\n    /* \"#utility.yul\":2626:2665   */\n  tag_95\n    /* \"#utility.yul\":2663:2664   */\n  0x00\n    /* \"#utility.yul\":2656:2661   */\n  dup3\n    /* \"#utility.yul\":2626:2665   */\n  tag_47\n  jump\t// in\ntag_95:\n    /* \"#utility.yul\":2599:2600   */\n  0x01\n    /* \"#utility.yul\":2592:2597   */\n  dup2\n    /* \"#utility.yul\":2588:2601   */\n  add\n    /* \"#utility.yul\":2579:2601   */\n  swap1\n  pop\n    /* \"#utility.yul\":2555:2675   */\n  jump(tag_92)\ntag_94:\n    /* \"#utility.yul\":2495:2681   */\n  pop\n  pop\n  jump\t// out\n    /* \"#utility.yul\":2687:3230   */\ntag_49:\n    /* \"#utility.yul\":2788:2790   */\n  0x1f\n    /* \"#utility.yul\":2783:2786   */\n  dup3\n    /* \"#utility.yul\":2780:2791   */\n  gt\n    /* \"#utility.yul\":2777:3223   */\n  iszero\n  tag_97\n  jumpi\n    /* \"#utility.yul\":2822:2860   */\n  tag_98\n    /* \"#utility.yul\":2854:2859   */\n  dup2\n    /* \"#utility.yul\":2822:2860   */\n  tag_37\n  jump\t// in\ntag_98:\n    /* \"#utility.yul\":2906:2935   */\n  tag_99\n    /* \"#utility.yul\":2924:2934   */\n  dup5\n    /* \"#utility.yul\":2906:2935   */\n  tag_38\n  jump\t// in\ntag_99:\n    /* \"#utility.yul\":2896:2904   */\n  dup2\n    /* \"#utility.yul\":2892:2936   */\n  add\n    /* \"#utility.yul\":3089:3091   */\n  0x20\n    /* \"#utility.yul\":3077:3087   */\n  dup6\n    /* \"#utility.yul\":3074:3092   */\n  lt\n    /* \"#utility.yul\":3071:3120   */\n  iszero\n  tag_100\n  jumpi\n    /* \"#utility.yul\":3110:3118   */\n  dup2\n    /* \"#utility.yul\":3095:3118   */\n  swap1\n  pop\n    /* \"#utility.yul\":3071:3120   */\ntag_100:\n    /* \"#utility.yul\":3133:3213   */\n  tag_101\n    /* \"#utility.yul\":3189:3211   */\n  tag_102\n    /* \"#utility.yul\":3207:3210   */\n  dup6\n    /* \"#utility.yul\":3189:3211   */\n  tag_38\n  jump\t// in\ntag_102:\n    /* \"#utility.yul\":3179:3187   */\n  dup4\n    /* \"#utility.yul\":3175:3212   */\n  add\n    /* \"#utility.yul\":3162:3173   */\n  dup3\n    /* \"#utility.yul\":3133:3213   */\n  tag_48\n  jump\t// in\ntag_101:\n    /* \"#utility.yul\":2792:3223   */\n  pop\n  pop\n    /* \"#utility.yul\":2777:3223   */\ntag_97:\n    /* \"#utility.yul\":2687:3230   */\n  pop\n  pop\n  pop\n  jump\t// out\n    /* \"#utility.yul\":3236:3353   */\ntag_50:\n    /* \"#utility.yul\":3290:3298   */\n  0x00\n    /* \"#utility.yul\":3340:3345   */\n  dup3\n    /* \"#utility.yul\":3334:3338   */\n  dup3\n    /* \"#utility.yul\":3330:3346   */\n  shr\n    /* \"#utility.yul\":3309:3346   */\n  swap1\n  pop\n    /* \"#utility.yul\":3236:3353   */\n  swap3\n  swap2\n  pop\n  pop\n  jump\t// out\n    /* \"#utility.yul\":3359:3528   */\ntag_51:\n    /* \"#utility.yul\":3403:3409   */\n  0x00\n    /* \"#utility.yul\":3436:3487   */\n  tag_105\n    /* \"#utility.yul\":3484:3485   */\n  0x00\n    /* \"#utility.yul\":3480:3486   */\n  not\n    /* \"#utility.yul\":3472:3477   */\n  dup5\n    /* \"#utility.yul\":3469:3470   */\n  0x08\n    /* \"#utility.yul\":3465:3478   */\n  mul\n    /* \"#utility.yul\":3436:3487   */\n  tag_50\n  jump\t// in\ntag_105:\n    /* \"#utility.yul\":3432:3488   */\n  not\n    /* \"#utility.yul\":3517:3521   */\n  dup1\n    /* \"#utility.yul\":3511:3515   */\n  dup4\n    /* \"#utility.yul\":3507:3522   */\n  and\n    /* \"#utility.yul\":3497:3522   */\n  swap2\n  pop\n    /* \"#utility.yul\":3410:3528   */\n  pop\n    /* \"#utility.yul\":3359:3528   */\n  swap3\n  swap2\n  pop\n  pop\n  jump\t// out\n    /* \"#utility.yul\":3533:3828   */\ntag_52:\n    /* \"#utility.yul\":3609:3613   */\n  0x00\n    /* \"#utility.yul\":3755:3784   */\n  tag_107\n    /* \"#utility.yul\":3780:3783   */\n  dup4\n    /* \"#utility.yul\":3774:3778   */\n  dup4\n    /* \"#utility.yul\":3755:3784   */\n  tag_51\n  jump\t// in\ntag_107:\n    /* \"#utility.yul\":3747:3784   */\n  swap2\n  pop\n    /* \"#utility.yul\":3817:3820   */\n  dup3\n    /* \"#utility.yul\":3814:3815   */\n  0x02\n    /* \"#utility.yul\":3810:3821   */\n  mul\n    /* \"#utility.yul\":3804:3808   */\n  dup3\n    /* \"#utility.yul\":3801:3822   */\n  or\n    /* \"#utility.yul\":3793:3822   */\n  swap1\n  pop\n    /* \"#utility.yul\":3533:3828   */\n  swap3\n  swap2\n  pop\n  pop\n  jump\t// out\n    /* \"#utility.yul\":3833:5228   */\ntag_6:\n    /* \"#utility.yul\":3950:3987   */\n  tag_109\n    /* \"#utility.yul\":3983:3986   */\n  dup3\n    /* \"#utility.yul\":3950:3987   */\n  tag_33\n  jump\t// in\ntag_109:\n    /* \"#utility.yul\":4052:4070   */\n  0xffffffffffffffff\n    /* \"#utility.yul\":4044:4050   */\n  dup2\n    /* \"#utility.yul\":4041:4071   */\n  gt\n    /* \"#utility.yul\":4038:4094   */\n  iszero\n  tag_110\n  jumpi\n    /* \"#utility.yul\":4074:4092   */\n  tag_111\n  tag_34\n  jump\t// in\ntag_111:\n    /* \"#utility.yul\":4038:4094   */\ntag_110:\n    /* \"#utility.yul\":4118:4156   */\n  tag_112\n    /* \"#utility.yul\":4150:4154   */\n  dup3\n    /* \"#utility.yul\":4144:4155   */\n  sload\n    /* \"#utility.yul\":4118:4156   */\n  tag_36\n  jump\t// in\ntag_112:\n    /* \"#utility.yul\":4203:4270   */\n  tag_113\n    /* \"#utility.yul\":4263:4269   */\n  dup3\n    /* \"#utility.yul\":4255:4261   */\n  dup3\n    /* \"#utility.yul\":4249:4253   */\n  dup6\n    /* \"#utility.yul\":4203:4270   */\n  tag_49\n  jump\t// in\ntag_113:\n    /* \"#utility.yul\":4297:4298   */\n  0x00\n    /* \"#utility.yul\":4321:4325   */\n  0x20\n    /* \"#utility.yul\":4308:4325   */\n  swap1\n  pop\n    /* \"#utility.yul\":4353:4355   */\n  0x1f\n    /* \"#utility.yul\":4345:4351   */\n  dup4\n    /* \"#utility.yul\":4342:4356   */\n  gt\n    /* \"#utility.yul\":4370:4371   */\n  0x01\n    /* \"#utility.yul\":4365:4983   */\n  dup2\n  eq\n  tag_115\n  jumpi\n    /* \"#utility.yul\":5027:5028   */\n  0x00\n    /* \"#utility.yul\":5044:5050   */\n  dup5\n    /* \"#utility.yul\":5041:5118   */\n  iszero\n  tag_116\n  jumpi\n    /* \"#utility.yul\":5093:5102   */\n  dup3\n    /* \"#utility.yul\":5088:5091   */\n  dup8\n    /* \"#utility.yul\":5084:5103   */\n  add\n    /* \"#utility.yul\":5078:5104   */\n  mload\n    /* \"#utility.yul\":5069:5104   */\n  swap1\n  pop\n    /* \"#utility.yul\":5041:5118   */\ntag_116:\n    /* \"#utility.yul\":5144:5211   */\n  tag_117\n    /* \"#utility.yul\":5204:5210   */\n  dup6\n    /* \"#utility.yul\":5197:5202   */\n  dup3\n    /* \"#utility.yul\":5144:5211   */\n  tag_52\n  jump\t// in\ntag_117:\n    /* \"#utility.yul\":5138:5142   */\n  dup7\n    /* \"#utility.yul\":5131:5212   */\n  sstore\n    /* \"#utility.yul\":5000:5222   */\n  pop\n    /* \"#utility.yul\":4335:5222   */\n  jump(tag_114)\n    /* \"#utility.yul\":4365:4983   */\ntag_115:\n    /* \"#utility.yul\":4417:4421   */\n  0x1f\n    /* \"#utility.yul\":4413:4422   */\n  not\n    /* \"#utility.yul\":4405:4411   */\n  dup5\n    /* \"#utility.yul\":4401:4423   */\n  and\n    /* \"#utility.yul\":4451:4488   */\n  tag_118\n    /* \"#utility.yul\":4483:4487   */\n  dup7\n    /* \"#utility.yul\":4451:4488   */\n  tag_37\n  jump\t// in\ntag_118:\n    /* \"#utility.yul\":4510:4511   */\n  0x00\n    /* \"#utility.yul\":4524:4732   */\ntag_119:\n    /* \"#utility.yul\":4538:4545   */\n  dup3\n    /* \"#utility.yul\":4535:4536   */\n  dup2\n    /* \"#utility.yul\":4532:4546   */\n  lt\n    /* \"#utility.yul\":4524:4732   */\n  iszero\n  tag_121\n  jumpi\n    /* \"#utility.yul\":4617:4626   */\n  dup5\n    /* \"#utility.yul\":4612:4615   */\n  dup10\n    /* \"#utility.yul\":4608:4627   */\n  add\n    /* \"#utility.yul\":4602:4628   */\n  mload\n    /* \"#utility.yul\":4594:4600   */\n  dup3\n    /* \"#utility.yul\":4587:4629   */\n  sstore\n    /* \"#utility.yul\":4668:4669   */\n  0x01\n    /* \"#utility.yul\":4660:4666   */\n  dup3\n    /* \"#utility.yul\":4656:4670   */\n  add\n    /* \"#utility.yul\":4646:4670   */\n  swap2\n  pop\n    /* \"#utility.yul\":4715:4717   */\n  0x20\n    /* \"#utility.yul\":4704:4713   */\n  dup6\n    /* \"#utility.yul\":4700:4718   */\n  add\n    /* \"#utility.yul\":4687:4718   */\n  swap5\n  pop\n    /* \"#utility.yul\":4561:4565   */\n  0x20\n    /* \"#utility.yul\":4558:4559   */\n  dup2\n    /* \"#utility.yul\":4554:4566   */\n  add\n    /* \"#utility.yul\":4549:4566   */\n  swap1\n  pop\n    /* \"#utility.yul\":4524:4732   */\n  jump(tag_119)\ntag_121:\n    /* \"#utility.yul\":4760:4766   */\n  dup7\n    /* \"#utility.yul\":4751:4758   */\n  dup4\n    /* \"#utility.yul\":4748:4767   */\n  lt\n    /* \"#utility.yul\":4745:4924   */\n  iszero\n  tag_122\n  jumpi\n    /* \"#utility.yul\":4818:4827   */\n  dup5\n    /* \"#utility.yul\":4813:4816   */\n  dup10\n    /* \"#utility.yul\":4809:4828   */\n  add\n    /* \"#utility.yul\":4803:4829   */\n  mload\n    /* \"#utility.yul\":4861:4909   */\n  tag_123\n    /* \"#utility.yul\":4903:4907   */\n  0x1f\n    /* \"#utility.yul\":4895:4901   */\n  dup10\n    /* \"#utility.yul\":4891:4908   */\n  and\n    /* \"#utility.yul\":4880:4889   */\n  dup3\n    /* \"#utility.yul\":4861:4909   */\n  tag_51\n  jump\t// in\ntag_123:\n    /* \"#utility.yul\":4853:4859   */\n  dup4\n    /* \"#utility.yul\":4846:4910   */\n  sstore\n    /* \"#utility.yul\":4768:4924   */\n  pop\n    /* \"#utility.yul\":4745:4924   */\ntag_122:\n    /* \"#utility.yul\":4970:4971   */\n  0x01\n    /* \"#utility.yul\":4966:4967   */\n  0x02\n    /* \"#utility.yul\":4958:4964   */\n  dup9\n    /* \"#utility.yul\":4954:4968   */\n  mul\n    /* \"#utility.yul\":4950:4972   */\n  add\n    /* \"#utility.yul\":4944:4948   */\n  dup9\n    /* \"#utility.yul\":4937:4973   */\n  sstore\n    /* \"#utility.yul\":4372:4983   */\n  pop\n  pop\n  pop\n    /* \"#utility.yul\":4335:5222   */\ntag_114:\n  pop\n    /* \"#utility.yul\":3925:5228   */\n  pop\n  pop\n  pop\n    /* \"#utility.yul\":3833:5228   */\n  pop\n  pop\n  jump\t// out\n    /* \"#utility.yul\":5234:5414   */\ntag_53:\n    /* \"#utility.yul\":5282:5359   */\n  0x4e487b7100000000000000000000000000000000000000000000000000000000\n    /* \"#utility.yul\":5279:5280   */\n  0x00\n    /* \"#utility.yul\":5272:5360   */\n  mstore\n    /* \"#utility.yul\":5379:5383   */\n  0x11\n    /* \"#utility.yul\":5376:5377   */\n  0x04\n    /* \"#utility.yul\":5369:5384   */\n  mstore\n    /* \"#utility.yul\":5403:5407   */\n  0x24\n    /* \"#utility.yul\":5400:5401   */\n  0x00\n    /* \"#utility.yul\":5393:5408   */\n  revert\n    /* \"#utility.yul\":5420:5522   */\ntag_54:\n    /* \"#utility.yul\":5462:5470   */\n  0x00\n    /* \"#utility.yul\":5509:5514   */\n  dup2\n    /* \"#utility.yul\":5506:5507   */\n  0x01\n    /* \"#utility.yul\":5502:5515   */\n  shr\n    /* \"#utility.yul\":5481:5515   */\n  swap1\n  pop\n    /* \"#utility.yul\":5420:5522   */\n  swap2\n  swap1\n  pop\n  jump\t// out\n    /* \"#utility.yul\":5528:6376   */\ntag_55:\n    /* \"#utility.yul\":5589:5594   */\n  0x00\n    /* \"#utility.yul\":5596:5600   */\n  dup1\n    /* \"#utility.yul\":5620:5626   */\n  dup3\n    /* \"#utility.yul\":5611:5626   */\n  swap2\n  pop\n    /* \"#utility.yul\":5644:5649   */\n  dup4\n    /* \"#utility.yul\":5635:5649   */\n  swap1\n  pop\n    /* \"#utility.yul\":5658:6370   */\ntag_127:\n    /* \"#utility.yul\":5679:5680   */\n  0x01\n    /* \"#utility.yul\":5669:5677   */\n  dup6\n    /* \"#utility.yul\":5666:5681   */\n  gt\n    /* \"#utility.yul\":5658:6370   */\n  iszero\n  tag_129\n  jumpi\n    /* \"#utility.yul\":5774:5778   */\n  dup1\n    /* \"#utility.yul\":5769:5772   */\n  dup7\n    /* \"#utility.yul\":5765:5779   */\n  div\n    /* \"#utility.yul\":5759:5763   */\n  dup2\n    /* \"#utility.yul\":5756:5780   */\n  gt\n    /* \"#utility.yul\":5753:5803   */\n  iszero\n  tag_130\n  jumpi\n    /* \"#utility.yul\":5783:5801   */\n  tag_131\n  tag_53\n  jump\t// in\ntag_131:\n    /* \"#utility.yul\":5753:5803   */\ntag_130:\n    /* \"#utility.yul\":5833:5834   */\n  0x01\n    /* \"#utility.yul\":5823:5831   */\n  dup6\n    /* \"#utility.yul\":5819:5835   */\n  and\n    /* \"#utility.yul\":5816:6267   */\n  iszero\n  tag_132\n  jumpi\n    /* \"#utility.yul\":6248:6252   */\n  dup1\n    /* \"#utility.yul\":6241:6246   */\n  dup3\n    /* \"#utility.yul\":6237:6253   */\n  mul\n    /* \"#utility.yul\":6228:6253   */\n  swap2\n  pop\n    /* \"#utility.yul\":5816:6267   */\ntag_132:\n    /* \"#utility.yul\":6298:6302   */\n  dup1\n    /* \"#utility.yul\":6292:6296   */\n  dup2\n    /* \"#utility.yul\":6288:6303   */\n  mul\n    /* \"#utility.yul\":6280:6303   */\n  swap1\n  pop\n    /* \"#utility.yul\":6328:6360   */\n  tag_133\n    /* \"#utility.yul\":6351:6359   */\n  dup6\n    /* \"#utility.yul\":6328:6360   */\n  tag_54\n  jump\t// in\ntag_133:\n    /* \"#utility.yul\":6316:6360   */\n  swap5\n  pop\n    /* \"#utility.yul\":5658:6370   */\n  jump(tag_127)\ntag_129:\n    /* \"#utility.yul\":5528:6376   */\n  swap5\n  pop\n  swap5\n  swap3\n  pop\n  pop\n  pop\n  jump\t// out\n    /* \"#utility.yul\":6382:7455   */\ntag_56:\n    /* \"#utility.yul\":6436:6441   */\n  0x00\n    /* \"#utility.yul\":6627:6635   */\n  dup3\n    /* \"#utility.yul\":6617:6657   */\n  tag_135\n  jumpi\n    /* \"#utility.yul\":6648:6649   */\n  0x01\n    /* \"#utility.yul\":6639:6649   */\n  swap1\n  pop\n    /* \"#utility.yul\":6650:6655   */\n  jump(tag_134)\n    /* \"#utility.yul\":6617:6657   */\ntag_135:\n    /* \"#utility.yul\":6676:6680   */\n  dup2\n    /* \"#utility.yul\":6666:6702   */\n  tag_136\n  jumpi\n    /* \"#utility.yul\":6693:6694   */\n  0x00\n    /* \"#utility.yul\":6684:6694   */\n  swap1\n  pop\n    /* \"#utility.yul\":6695:6700   */\n  jump(tag_134)\n    /* \"#utility.yul\":6666:6702   */\ntag_136:\n    /* \"#utility.yul\":6762:6766   */\n  dup2\n    /* \"#utility.yul\":6810:6811   */\n  0x01\n    /* \"#utility.yul\":6805:6832   */\n  dup2\n  eq\n  tag_138\n  jumpi\n    /* \"#utility.yul\":6846:6847   */\n  0x02\n    /* \"#utility.yul\":6841:7032   */\n  dup2\n  eq\n  tag_139\n  jumpi\n    /* \"#utility.yul\":6755:7032   */\n  jump(tag_137)\n    /* \"#utility.yul\":6805:6832   */\ntag_138:\n    /* \"#utility.yul\":6823:6824   */\n  0x01\n    /* \"#utility.yul\":6814:6824   */\n  swap2\n  pop\n    /* \"#utility.yul\":6825:6830   */\n  pop\n  jump(tag_134)\n    /* \"#utility.yul\":6841:7032   */\ntag_139:\n    /* \"#utility.yul\":6886:6889   */\n  0xff\n    /* \"#utility.yul\":6876:6884   */\n  dup5\n    /* \"#utility.yul\":6873:6890   */\n  gt\n    /* \"#utility.yul\":6870:6913   */\n  iszero\n  tag_140\n  jumpi\n    /* \"#utility.yul\":6893:6911   */\n  tag_141\n  tag_53\n  jump\t// in\ntag_141:\n    /* \"#utility.yul\":6870:6913   */\ntag_140:\n    /* \"#utility.yul\":6942:6950   */\n  dup4\n    /* \"#utility.yul\":6939:6940   */\n  0x02\n    /* \"#utility.yul\":6935:6951   */\n  exp\n    /* \"#utility.yul\":6926:6951   */\n  swap2\n  pop\n    /* \"#utility.yul\":6977:6980   */\n  dup5\n    /* \"#utility.yul\":6970:6975   */\n  dup3\n    /* \"#utility.yul\":6967:6981   */\n  gt\n    /* \"#utility.yul\":6964:7004   */\n  iszero\n  tag_142\n  jumpi\n    /* \"#utility.yul\":6984:7002   */\n  tag_143\n  tag_53\n  jump\t// in\ntag_143:\n    /* \"#utility.yul\":6964:7004   */\ntag_142:\n    /* \"#utility.yul\":7017:7022   */\n  pop\n  jump(tag_134)\n    /* \"#utility.yul\":6755:7032   */\ntag_137:\n  pop\n    /* \"#utility.yul\":7141:7143   */\n  0x20\n    /* \"#utility.yul\":7131:7139   */\n  dup4\n    /* \"#utility.yul\":7128:7144   */\n  lt\n    /* \"#utility.yul\":7122:7125   */\n  0x0133\n    /* \"#utility.yul\":7116:7120   */\n  dup4\n    /* \"#utility.yul\":7113:7126   */\n  lt\n    /* \"#utility.yul\":7109:7145   */\n  and\n    /* \"#utility.yul\":7091:7093   */\n  0x4e\n    /* \"#utility.yul\":7081:7089   */\n  dup5\n    /* \"#utility.yul\":7078:7094   */\n  lt\n    /* \"#utility.yul\":7073:7075   */\n  0x0b\n    /* \"#utility.yul\":7067:7071   */\n  dup5\n    /* \"#utility.yul\":7064:7076   */\n  lt\n    /* \"#utility.yul\":7060:7095   */\n  and\n    /* \"#utility.yul\":7044:7155   */\n  or\n    /* \"#utility.yul\":7041:7287   */\n  iszero\n  tag_144\n  jumpi\n    /* \"#utility.yul\":7197:7205   */\n  dup3\n    /* \"#utility.yul\":7191:7195   */\n  dup3\n    /* \"#utility.yul\":7187:7206   */\n  exp\n    /* \"#utility.yul\":7178:7206   */\n  swap1\n  pop\n    /* \"#utility.yul\":7232:7235   */\n  dup4\n    /* \"#utility.yul\":7225:7230   */\n  dup2\n    /* \"#utility.yul\":7222:7236   */\n  gt\n    /* \"#utility.yul\":7219:7259   */\n  iszero\n  tag_145\n  jumpi\n    /* \"#utility.yul\":7239:7257   */\n  tag_146\n  tag_53\n  jump\t// in\ntag_146:\n    /* \"#utility.yul\":7219:7259   */\ntag_145:\n    /* \"#utility.yul\":7272:7277   */\n  jump(tag_134)\n    /* \"#utility.yul\":7041:7287   */\ntag_144:\n    /* \"#utility.yul\":7312:7354   */\n  tag_147\n    /* \"#utility.yul\":7350:7353   */\n  dup5\n    /* \"#utility.yul\":7340:7348   */\n  dup5\n    /* \"#utility.yul\":7334:7338   */\n  dup5\n    /* \"#utility.yul\":7331:7332   */\n  0x01\n    /* \"#utility.yul\":7312:7354   */\n  tag_55\n  jump\t// in\ntag_147:\n    /* \"#utility.yul\":7297:7354   */\n  swap3\n  pop\n  swap1\n  pop\n    /* \"#utility.yul\":7386:7390   */\n  dup2\n    /* \"#utility.yul\":7381:7384   */\n  dup5\n    /* \"#utility.yul\":7377:7391   */\n  div\n    /* \"#utility.yul\":7370:7375   */\n  dup2\n    /* \"#utility.yul\":7367:7392   */\n  gt\n    /* \"#utility.yul\":7364:7415   */\n  iszero\n  tag_148\n  jumpi\n    /* \"#utility.yul\":7395:7413   */\n  tag_149\n  tag_53\n  jump\t// in\ntag_149:\n    /* \"#utility.yul\":7364:7415   */\ntag_148:\n    /* \"#utility.yul\":7444:7448   */\n  dup2\n    /* \"#utility.yul\":7437:7442   */\n  dup2\n    /* \"#utility.yul\":7433:7449   */\n  mul\n    /* \"#utility.yul\":7424:7449   */\n  swap1\n  pop\n    /* \"#utility.yul\":6382:7455   */\ntag_134:\n  swap4\n  swap3\n  pop\n  pop\n  pop\n  jump\t// out\n    /* \"#utility.yul\":7461:7547   */\ntag_57:\n    /* \"#utility.yul\":7496:7503   */\n  0x00\n    /* \"#utility.yul\":7536:7540   */\n  0xff\n    /* \"#utility.yul\":7529:7534   */\n  dup3\n    /* \"#utility.yul\":7525:7541   */\n  and\n    /* \"#utility.yul\":7514:7541   */\n  swap1\n  pop\n    /* \"#utility.yul\":7461:7547   */\n  swap2\n  swap1\n  pop\n  jump\t// out\n    /* \"#utility.yul\":7553:7834   */\ntag_13:\n    /* \"#utility.yul\":7611:7616   */\n  0x00\n    /* \"#utility.yul\":7635:7658   */\n  tag_152\n    /* \"#utility.yul\":7653:7657   */\n  dup3\n    /* \"#utility.yul\":7635:7658   */\n  tag_41\n  jump\t// in\ntag_152:\n    /* \"#utility.yul\":7627:7658   */\n  swap2\n  pop\n    /* \"#utility.yul\":7679:7704   */\n  tag_153\n    /* \"#utility.yul\":7695:7703   */\n  dup4\n    /* \"#utility.yul\":7679:7704   */\n  tag_57\n  jump\t// in\ntag_153:\n    /* \"#utility.yul\":7667:7704   */\n  swap3\n  pop\n    /* \"#utility.yul\":7723:7827   */\n  tag_154\n    /* \"#utility.yul\":7760:7826   */\n  0xffffffffffffffffffffffffffffffffffffffffffffffffffffffffffffffff\n    /* \"#utility.yul\":7750:7758   */\n  dup5\n    /* \"#utility.yul\":7744:7748   */\n  dup5\n    /* \"#utility.yul\":7723:7827   */\n  tag_56\n  jump\t// in\ntag_154:\n    /* \"#utility.yul\":7714:7827   */\n  swap1\n  pop\n    /* \"#utility.yul\":7553:7834   */\n  swap3\n  swap2\n  pop\n  pop\n  jump\t// out\n    /* \"#utility.yul\":7840:8250   */\ntag_15:\n    /* \"#utility.yul\":7880:7887   */\n  0x00\n    /* \"#utility.yul\":7903:7923   */\n  tag_156\n    /* \"#utility.yul\":7921:7922   */\n  dup3\n    /* \"#utility.yul\":7903:7923   */\n  tag_41\n  jump\t// in\ntag_156:\n    /* \"#utility.yul\":7898:7923   */\n  swap2\n  pop\n    /* \"#utility.yul\":7937:7957   */\n  tag_157\n    /* \"#utility.yul\":7955:7956   */\n  dup4\n    /* \"#utility.yul\":7937:7957   */\n  tag_41\n  jump\t// in\ntag_157:\n    /* \"#utility.yul\":7932:7957   */\n  swap3\n  pop\n    /* \"#utility.yul\":7992:7993   */\n  dup3\n    /* \"#utility.yul\":7989:7990   */\n  dup3\n    /* \"#utility.yul\":7985:7994   */\n  mul\n    /* \"#utility.yul\":8014:8044   */\n  tag_158\n    /* \"#utility.yul\":8032:8043   */\n  dup2\n    /* \"#utility.yul\":8014:8044   */\n  tag_41\n  jump\t// in\ntag_158:\n    /* \"#utility.yul\":8003:8044   */\n  swap2\n  pop\n    /* \"#utility.yul\":8193:8194   */\n  dup3\n    /* \"#utility.yul\":8184:8191   */\n  dup3\n    /* \"#utility.yul\":8180:8195   */\n  div\n    /* \"#utility.yul\":8177:8178   */\n  dup5\n    /* \"#utility.yul\":8174:8196   */\n  eq\n    /* \"#utility.yul\":8154:8155   */\n  dup4\n    /* \"#utility.yul\":8147:8156   */\n  iszero\n    /* \"#utility.yul\":8127:8210   */\n  or\n    /* \"#utility.yul\":8104:8243   */\n  tag_159\n  jumpi\n    /* \"#utility.yul\":8223:8241   */\n  tag_160\n  tag_53\n  jump\t// in\ntag_160:\n    /* \"#utility.yul\":8104:8243   */\ntag_159:\n    /* \"#utility.yul\":7888:8250   */\n  pop\n    /* \"#utility.yul\":7840:8250   */\n  swap3\n  swap2\n  pop\n  pop\n  jump\t// out\n    /* \"#utility.yul\":8256:8425   */\ntag_58:\n    /* \"#utility.yul\":8340:8351   */\n  0x00\n    /* \"#utility.yul\":8374:8380   */\n  dup3\n    /* \"#utility.yul\":8369:8372   */\n  dup3\n    /* \"#utility.yul\":8362:8381   */\n  mstore\n    /* \"#utility.yul\":8414:8418   */\n  0x20\n    /* \"#utility.yul\":8409:8412   */\n  dup3\n    /* \"#utility.yul\":8405:8419   */\n  add\n    /* \"#utility.yul\":8390:8419   */\n  swap1\n  pop\n    /* \"#utility.yul\":8256:8425   */\n  swap3\n  swap2\n  pop\n  pop\n  jump\t// out\n    /* \"#utility.yul\":8431:8612   */\ntag_59:\n    /* \"#utility.yul\":8571:8604   */\n  0x45524332303a206d696e7420746f20746865207a65726f206164647265737300\n    /* \"#utility.yul\":8567:8568   */\n  0x00\n    /* \"#utility.yul\":8559:8565   */\n  dup3\n    /* \"#utility.yul\":8555:8569   */\n  add\n    /* \"#utility.yul\":8548:8605   */\n  mstore\n    /* \"#utility.yul\":8431:8612   */\n  pop\n  jump\t// out\n    /* \"#utility.yul\":8618:8984   */\ntag_60:\n    /* \"#utility.yul\":8760:8763   */\n  0x00\n    /* \"#utility.yul\":8781:8848   */\n  tag_164\n    /* \"#utility.yul\":8845:8847   */\n  0x1f\n    /* \"#utility.yul\":8840:8843   */\n  dup4\n    /* \"#utility.yul\":8781:8848   */\n  tag_58\n  jump\t// in\ntag_164:\n    /* \"#utility.yul\":8774:8848   */\n  swap2\n  pop\n    /* \"#utility.yul\":8857:8950   */\n  tag_165\n    /* \"#utility.yul\":8946:8949   */\n  dup3\n    /* \"#utility.yul\":8857:8950   */\n  tag_59\n  jump\t// in\ntag_165:\n    /* \"#utility.yul\":8975:8977   */\n  0x20\n    /* \"#utility.yul\":8970:8973   */\n  dup3\n    /* \"#utility.yul\":8966:8978   */\n  add\n    /* \"#utility.yul\":8959:8978   */\n  swap1\n  pop\n    /* \"#utility.yul\":8618:8984   */\n  swap2\n  swap1\n  pop\n  jump\t// out\n    /* \"#utility.yul\":8990:9409   */\ntag_22:\n    /* \"#utility.yul\":9156:9160   */\n  0x00\n    /* \"#utility.yul\":9194:9196   */\n  0x20\n    /* \"#utility.yul\":9183:9192   */\n  dup3\n    /* \"#utility.yul\":9179:9197   */\n  add\n    /* \"#utility.yul\":9171:9197   */\n  swap1\n  pop\n    /* \"#utility.yul\":9243:9252   */\n  dup2\n    /* \"#utility.yul\":9237:9241   */\n  dup2\n    /* \"#utility.yul\":9233:9253   */\n  sub\n    /* \"#utility.yul\":9229:9230   */\n  0x00\n    /* \"#utility.yul\":9218:9227   */\n  dup4\n    /* \"#utility.yul\":9214:9231   */\n  add\n    /* \"#utility.yul\":9207:9254   */\n  mstore\n    /* \"#utility.yul\":9271:9402   */\n  tag_167\n    /* \"#utility.yul\":9397:9401   */\n  dup2\n    /* \"#utility.yul\":9271:9402   */\n  tag_60\n  jump\t// in\ntag_167:\n    /* \"#utility.yul\":9263:9402   */\n  swap1\n  pop\n    /* \"#utility.yul\":8990:9409   */\n  swap2\n  swap1\n  pop\n  jump\t// out\n    /* \"#utility.yul\":9415:9606   */\ntag_26:\n    /* \"#utility.yul\":9455:9458   */\n  0x00\n    /* \"#utility.yul\":9474:9494   */\n  tag_169\n    /* \"#utility.yul\":9492:9493   */\n  dup3\n    /* \"#utility.yul\":9474:9494   */\n  tag_41\n  jump\t// in\ntag_169:\n    /* \"#utility.yul\":9469:9494   */\n  swap2\n  pop\n    /* \"#utility.yul\":9508:9528   */\n  tag_170\n    /* \"#utility.yul\":9526:9527   */\n  dup4\n    /* \"#utility.yul\":9508:9528   */\n  tag_41\n  jump\t// in\ntag_170:\n    /* \"#utility.yul\":9503:9528   */\n  swap3\n  pop\n    /* \"#utility.yul\":9551:9552   */\n  dup3\n    /* \"#utility.yul\":9548:9549   */\n  dup3\n    /* \"#utility.yul\":9544:9553   */\n  add\n    /* \"#utility.yul\":9537:9553   */\n  swap1\n  pop\n    /* \"#utility.yul\":9572:9575   */\n  dup1\n    /* \"#utility.yul\":9569:9570   */\n  dup3\n    /* \"#utility.yul\":9566:9576   */\n  gt\n    /* \"#utility.yul\":9563:9599   */\n  iszero\n  tag_171\n  jumpi\n    /* \"#utility.yul\":9579:9597   */\n  tag_172\n  tag_53\n  jump\t// in\ntag_172:\n    /* \"#utility.yul\":9563:9599   */\ntag_171:\n    /* \"#utility.yul\":9415:9606   */\n  swap3\n  swap2\n  pop\n  pop\n  jump\t// out\n    /* \"#utility.yul\":9612:9730   */\ntag_61:\n    /* \"#utility.yul\":9699:9723   */\n  tag_174\n    /* \"#utility.yul\":9717:9722   */\n  dup2\n    /* \"#utility.yul\":9699:9723   */\n  tag_41\n  jump\t// in\ntag_174:\n    /* \"#utility.yul\":9694:9697   */\n  dup3\n    /* \"#utility.yul\":9687:9724   */\n  mstore\n    /* \"#utility.yul\":9612:9730   */\n  pop\n  pop\n  jump\t// out\n    /* \"#utility.yul\":9736:9958   */\ntag_28:\n    /* \"#utility.yul\":9829:9833   */\n  0x00\n    /* \"#utility.yul\":9867:9869   */\n  0x20\n    /* \"#utility.yul\":9856:9865   */\n  dup3\n    /* \"#utility.yul\":9852:9870   */\n  add\n    /* \"#utility.yul\":9844:9870   */\n  swap1\n  pop\n    /* \"#utility.yul\":9880:9951   */\n  tag_176\n    /* \"#utility.yul\":9948:9949   */\n  0x00\n    /* \"#utility.yul\":9937:9946   */\n  dup4\n    /* \"#utility.yul\":9933:9950   */\n  add\n    /* \"#utility.yul\":9924:9930   */\n  dup5\n    /* \"#utility.yul\":9880:9951   */\n  tag_61\n  jump\t// in\ntag_176:\n    /* \"#utility.yul\":9736:9958   */\n  swap3\n  swap2\n  pop\n  pop\n  jump\t// out\n    /* \"contracts/TinyNotesToken.sol\":174:1116  contract TinyNotesToken is ERC20 {... */\ntag_17:\n  dataSize(sub_0)\n  dup1\n  dataOffset(sub_0)\n  0x00\n  codecopy\n  0x00\n  return\nstop\n\nsub_0: assembly {\n        /* \"contracts/TinyNotesToken.sol\":174:1116  contract TinyNotesToken is ERC20 {... */\n      mstore(0x40, 0x80)\n      callvalue\n      dup1\n      iszero\n      tag_1\n      jumpi\n      0x00\n      dup1\n      revert\n    tag_1:\n      pop\n      jumpi(tag_2, lt(calldatasize, 0x04))\n      shr(0xe0, calldataload(0x00))\n      dup1\n      0x39509351\n      gt\n      tag_16\n      jumpi\n      dup1\n      0xa457c2d7\n      gt\n      tag_17\n      jumpi\n      dup1\n      0xa457c2d7\n      eq\n      tag_12\n      jumpi\n      dup1\n      0xa9059cbb\n      eq\n      tag_13\n      jumpi\n      dup1\n      0xd311651a\n      eq\n      tag_14\n      jumpi\n      dup1\n      0xdd62ed3e\n      eq\n      tag_15\n      jumpi\n      jump(tag_2)\n    tag_17:\n      dup1\n      0x39509351\n      eq\n      tag_9\n      jumpi\n      dup1\n      0x70a08231\n      eq\n      tag_10\n      jumpi\n      dup1\n      0x95d89b41\n      eq\n      tag_11\n      jumpi\n      jump(tag_2)\n    tag_16:\n      dup1\n      0x06fdde03\n      eq\n      tag_3\n      jumpi\n      dup1\n      0x095ea7b3\n      eq\n      tag_4\n      jumpi\n      dup1\n      0x18160ddd\n      eq\n      tag_5\n      jumpi\n      dup1\n      0x23b872dd\n      eq\n      tag_6\n      jumpi\n      dup1\n      0x2feaf817\n      eq\n      tag_7\n      jumpi\n      dup1\n      0x313ce567\n      eq\n      tag_8\n      jumpi\n    tag_2:\n      0x00\n      dup1\n      revert\n        /* \"@openzeppelin/contracts/token/ERC20/ERC20.sol\":2154:2252  function name() public view virtual override returns (string memory) {... */\n    tag_3:\n      tag_18\n      tag_19\n      jump\t// in\n    tag_18:\n      mload(0x40)\n      tag_20\n      swap2\n      swap1\n      tag_21\n      jump\t// in\n    tag_20:\n      mload(0x40)\n      dup1\n      swap2\n      sub\n      swap1\n      return\n        /* \"@openzeppelin/contracts/token/ERC20/ERC20.sol\":4431:4628  function approve(address spender, uint256 amount) public virtual override returns (bool) {... */\n    tag_4:\n      tag_22\n      0x04\n      dup1\n      calldatasize\n      sub\n      dup2\n      add\n      swap1\n      tag_23\n      swap2\n      swap1\n      tag_24\n      jump\t// in\n    tag_23:\n      tag_25\n      jump\t// in\n    tag_22:\n      mload(0x40)\n      tag_26\n      swap2\n      swap1\n      tag_27\n      jump\t// in\n    tag_26:\n      mload(0x40)\n      dup1\n      swap2\n      sub\n      swap1\n      return\n        /* \"@openzeppelin/contracts/token/ERC20/ERC20.sol\":3242:3348  function totalSupply() public view virtual override returns (uint256) {... */\n    tag_5:\n      tag_28\n      tag_29\n      jump\t// in\n    tag_28:\n      mload(0x40)\n      tag_30\n      swap2\n      swap1\n      tag_31\n      jump\t// in\n    tag_30:\n      mload(0x40)\n      dup1\n      swap2\n      sub\n      swap1\n      return\n        /* \"@openzeppelin/contracts/token/ERC20/ERC20.sol\":5190:5476  function transferFrom(... */\n    tag_6:\n      tag_32\n      0x04\n      dup1\n      calldatasize\n      sub\n      dup2\n      add\n      swap1\n      tag_33\n      swap2\n      swap1\n      tag_34\n      jump\t// in\n    tag_33:\n      tag_35\n      jump\t// in\n    tag_32:\n      mload(0x40)\n      tag_36\n      swap2\n      swap1\n      tag_27\n      jump\t// in\n    tag_36:\n      mload(0x40)\n      dup1\n      swap2\n      sub\n      swap1\n      return\n        /* \"contracts/TinyNotesToken.sol\":554:912  function createNote(string memory _title, string memory _content) public {... */\n    tag_7:\n      tag_37\n      0x04\n      dup1\n      calldatasize\n      sub\n      dup2\n      add\n      swap1\n      tag_38\n      swap2\n      swap1\n      tag_39\n      jump\t// in\n    tag_38:\n      tag_40\n      jump\t// in\n    tag_37:\n      stop\n        /* \"@openzeppelin/contracts/token/ERC20/ERC20.sol\":3091:3182  function decimals() public view virtual override returns (uint8) {... */\n    tag_8:\n      tag_41\n      tag_42\n      jump\t// in\n    tag_41:\n      mload(0x40)\n      tag_43\n      swap2\n      swap1\n      tag_44\n      jump\t// in\n    tag_43:\n      mload(0x40)\n      dup1\n      swap2\n      sub\n      swap1\n      return\n        /* \"@openzeppelin/contracts/token/ERC20/ERC20.sol\":5871:6105  function increaseAllowance(address spender, uint256 addedValue) public virtual returns (bool) {... */\n    tag_9:\n      tag_45\n      0x04\n      dup1\n      calldatasize\n      sub\n      dup2\n      add\n      swap1\n      tag_46\n      swap2\n      swap1\n      tag_24\n      jump\t// in\n    tag_46:\n      tag_47\n      jump\t// in\n    tag_45:\n      mload(0x40)\n      tag_48\n      swap2\n      swap1\n      tag_27\n      jump\t// in\n    tag_48:\n      mload(0x40)\n      dup1\n      swap2\n      sub\n      swap1\n      return\n        /* \"@openzeppelin/contracts/token/ERC20/ERC20.sol\":3406:3531  function balanceOf(address account) public view virtual override returns (uint256) {... */\n    tag_10:\n      tag_49\n      0x04\n      dup1\n      calldatasize\n      sub\n      dup2\n      add\n      swap1\n      tag_50\n      swap2\n      swap1\n      tag_51\n      jump\t// in\n    tag_50:\n      tag_52\n      jump\t// in\n    tag_49:\n      mload(0x40)\n      tag_53\n      swap2\n      swap1\n      tag_31\n      jump\t// in\n    tag_53:\n      mload(0x40)\n      dup1\n      swap2\n      sub\n      swap1\n      return\n        /* \"@openzeppelin/contracts/token/ERC20/ERC20.sol\":2365:2467  function symbol() public view virtual override returns (string memory) {... */\n    tag_11:\n      tag_54\n      tag_55\n      jump\t// in\n    tag_54:\n      mload(0x40)\n      tag_56\n      swap2\n      swap1\n      tag_21\n      jump\t// in\n    tag_56:\n      mload(0x40)\n      dup1\n      swap2\n      sub\n      swap1\n      return\n        /* \"@openzeppelin/contracts/token/ERC20/ERC20.sol\":6592:7019  function decreaseAllowance(address spender, uint256 subtractedValue) public virtual returns (bool) {... */\n    tag_12:\n      tag_57\n      0x04\n      dup1\n      calldatasize\n      sub\n      dup2\n      add\n      swap1\n      tag_58\n      swap2\n      swap1\n      tag_24\n      jump\t// in\n    tag_58:\n      tag_59\n      jump\t// in\n    tag_57:\n      mload(0x40)\n      tag_60\n      swap2\n      swap1\n      tag_27\n      jump\t// in\n    tag_60:\n      mload(0x40)\n      dup1\n      swap2\n      sub\n      swap1\n      return\n        /* \"@openzeppelin/contracts/token/ERC20/ERC20.sol\":3727:3916  function transfer(address to, uint256 amount) public virtual override returns (bool) {... */\n    tag_13:\n      tag_61\n      0x04\n      dup1\n      calldatasize\n      sub\n      dup2\n      add\n      swap1\n      tag_62\n      swap2\n      swap1\n      tag_24\n      jump\t// in\n    tag_62:\n      tag_63\n      jump\t// in\n    tag_61:\n      mload(0x40)\n      tag_64\n      swap2\n      swap1\n      tag_27\n      jump\t// in\n    tag_64:\n      mload(0x40)\n      dup1\n      swap2\n      sub\n      swap1\n      return\n        /* \"contracts/TinyNotesToken.sol\":918:1114  function readNote(uint256 _noteId) public view returns (string memory title, string memory content) {... */\n    tag_14:\n      tag_65\n      0x04\n      dup1\n      calldatasize\n      sub\n      dup2\n      add\n      swap1\n      tag_66\n      swap2\n      swap1\n      tag_67\n      jump\t// in\n    tag_66:\n      tag_68\n      jump\t// in\n    tag_65:\n      mload(0x40)\n      tag_69\n      swap3\n      swap2\n      swap1\n      tag_70\n      jump\t// in\n    tag_69:\n      mload(0x40)\n      dup1\n      swap2\n      sub\n      swap1\n      return\n        /* \"@openzeppelin/contracts/token/ERC20/ERC20.sol\":3974:4123  function allowance(address owner, address spender) public view virtual override returns (uint256) {... */\n    tag_15:\n      tag_71\n      0x04\n      dup1\n      calldatasize\n      sub\n      dup2\n      add\n      swap1\n      tag_72\n      swap2\n      swap1\n      tag_73\n      jump\t// in\n    tag_72:\n      tag_74\n      jump\t// in\n    tag_71:\n      mload(0x40)\n      tag_75\n      swap2\n      swap1\n      tag_31\n      jump\t// in\n    tag_75:\n      mload(0x40)\n      dup1\n      swap2\n      sub\n      swap1\n      return\n        /* \"@openzeppelin/contracts/token/ERC20/ERC20.sol\":2154:2252  function name() public view virtual override returns (string memory) {... */\n    tag_19:\n        /* \"@openzeppelin/contracts/token/ERC20/ERC20.sol\":2208:2221  string memory */\n      0x60\n        /* \"@openzeppelin/contracts/token/ERC20/ERC20.sol\":2240:2245  _name */\n      0x03\n        /* \"@openzeppelin/contracts/token/ERC20/ERC20.sol\":2233:2245  return _name */\n      dup1\n      sload\n      tag_77\n      swap1\n      tag_78\n      jump\t// in\n    tag_77:\n      dup1\n      0x1f\n      add\n      0x20\n      dup1\n      swap2\n      div\n      mul\n      0x20\n      add\n      mload(0x40)\n      swap1\n      dup2\n      add\n      0x40\n      mstore\n      dup1\n      swap3\n      swap2\n      swap1\n      dup2\n      dup2\n      mstore\n      0x20\n      add\n      dup3\n      dup1\n      sload\n      tag_79\n      swap1\n      tag_78\n      jump\t// in\n    tag_79:\n      dup1\n      iszero\n      tag_80\n      jumpi\n      dup1\n      0x1f\n      lt\n      tag_81\n      jumpi\n      0x0100\n      dup1\n      dup4\n      sload\n      div\n      mul\n      dup4\n      mstore\n      swap2\n      0x20\n      add\n      swap2\n      jump(tag_80)\n    tag_81:\n      dup3\n      add\n      swap2\n      swap1\n      0x00\n      mstore\n      keccak256(0x00, 0x20)\n      swap1\n    tag_82:\n      dup2\n      sload\n      dup2\n      mstore\n      swap1\n      0x01\n      add\n      swap1\n      0x20\n      add\n      dup1\n      dup4\n      gt\n      tag_82\n      jumpi\n      dup3\n      swap1\n      sub\n      0x1f\n      and\n      dup3\n      add\n      swap2\n    tag_80:\n      pop\n      pop\n      pop\n      pop\n      pop\n      swap1\n      pop\n        /* \"@openzeppelin/contracts/token/ERC20/ERC20.sol\":2154:2252  function name() public view virtual override returns (string memory) {... */\n      swap1\n      jump\t// out\n        /* \"@openzeppelin/contracts/token/ERC20/ERC20.sol\":4431:4628  function approve(address spender, uint256 amount) public virtual override returns (bool) {... */\n    tag_25:\n        /* \"@openzeppelin/contracts/token/ERC20/ERC20.sol\":4514:4518  bool */\n      0x00\n        /* \"@openzeppelin/contracts/token/ERC20/ERC20.sol\":4530:4543  address owner */\n      dup1\n        /* \"@openzeppelin/contracts/token/ERC20/ERC20.sol\":4546:4558  _msgSender() */\n      tag_84\n        /* \"@openzeppelin/contracts/token/ERC20/ERC20.sol\":4546:4556  _msgSender */\n      tag_85\n        /* \"@openzeppelin/contracts/token/ERC20/ERC20.sol\":4546:4558  _msgSender() */\n      jump\t// in\n    tag_84:\n        /* \"@openzeppelin/contracts/token/ERC20/ERC20.sol\":4530:4558  address owner = _msgSender() */\n      swap1\n      pop\n        /* \"@openzeppelin/contracts/token/ERC20/ERC20.sol\":4568:4600  _approve(owner, spender, amount) */\n      tag_86\n        /* \"@openzeppelin/contracts/token/ERC20/ERC20.sol\":4577:4582  owner */\n      dup2\n        /* \"@openzeppelin/contracts/token/ERC20/ERC20.sol\":4584:4591  spender */\n      dup6\n        /* \"@openzeppelin/contracts/token/ERC20/ERC20.sol\":4593:4599  amount */\n      dup6\n        /* \"@openzeppelin/contracts/token/ERC20/ERC20.sol\":4568:4576  _approve */\n      tag_87\n        /* \"@openzeppelin/contracts/token/ERC20/ERC20.sol\":4568:4600  _approve(owner, spender, amount) */\n      jump\t// in\n    tag_86:\n        /* \"@openzeppelin/contracts/token/ERC20/ERC20.sol\":4617:4621  true */\n      0x01\n        /* \"@openzeppelin/contracts/token/ERC20/ERC20.sol\":4610:4621  return true */\n      swap2\n      pop\n      pop\n        /* \"@openzeppelin/contracts/token/ERC20/ERC20.sol\":4431:4628  function approve(address spender, uint256 amount) public virtual override returns (bool) {... */\n      swap3\n      swap2\n      pop\n      pop\n      jump\t// out\n        /* \"@openzeppelin/contracts/token/ERC20/ERC20.sol\":3242:3348  function totalSupply() public view virtual override returns (uint256) {... */\n    tag_29:\n        /* \"@openzeppelin/contracts/token/ERC20/ERC20.sol\":3303:3310  uint256 */\n      0x00\n        /* \"@openzeppelin/contracts/token/ERC20/ERC20.sol\":3329:3341  _totalSupply */\n      sload(0x02)\n        /* \"@openzeppelin/contracts/token/ERC20/ERC20.sol\":3322:3341  return _totalSupply */\n      swap1\n      pop\n        /* \"@openzeppelin/contracts/token/ERC20/ERC20.sol\":3242:3348  function totalSupply() public view virtual override returns (uint256) {... */\n      swap1\n      jump\t// out\n        /* \"@openzeppelin/contracts/token/ERC20/ERC20.sol\":5190:5476  function transferFrom(... */\n    tag_35:\n        /* \"@openzeppelin/contracts/token/ERC20/ERC20.sol\":5317:5321  bool */\n      0x00\n        /* \"@openzeppelin/contracts/token/ERC20/ERC20.sol\":5333:5348  address spender */\n      dup1\n        /* \"@openzeppelin/contracts/token/ERC20/ERC20.sol\":5351:5363  _msgSender() */\n      tag_90\n        /* \"@openzeppelin/contracts/token/ERC20/ERC20.sol\":5351:5361  _msgSender */\n      tag_85\n        /* \"@openzeppelin/contracts/token/ERC20/ERC20.sol\":5351:5363  _msgSender() */\n      jump\t// in\n    tag_90:\n        /* \"@openzeppelin/contracts/token/ERC20/ERC20.sol\":5333:5363  address spender = _msgSender() */\n      swap1\n      pop\n        /* \"@openzeppelin/contracts/token/ERC20/ERC20.sol\":5373:5411  _spendAllowance(from, spender, amount) */\n      tag_91\n        /* \"@openzeppelin/contracts/token/ERC20/ERC20.sol\":5389:5393  from */\n      dup6\n        /* \"@openzeppelin/contracts/token/ERC20/ERC20.sol\":5395:5402  spender */\n      dup3\n        /* \"@openzeppelin/contracts/token/ERC20/ERC20.sol\":5404:5410  amount */\n      dup6\n        /* \"@openzeppelin/contracts/token/ERC20/ERC20.sol\":5373:5388  _spendAllowance */\n      tag_92\n        /* \"@openzeppelin/contracts/token/ERC20/ERC20.sol\":5373:5411  _spendAllowance(from, spender, amount) */\n      jump\t// in\n    tag_91:\n        /* \"@openzeppelin/contracts/token/ERC20/ERC20.sol\":5421:5448  _transfer(from, to, amount) */\n      tag_93\n        /* \"@openzeppelin/contracts/token/ERC20/ERC20.sol\":5431:5435  from */\n      dup6\n        /* \"@openzeppelin/contracts/token/ERC20/ERC20.sol\":5437:5439  to */\n      dup6\n        /* \"@openzeppelin/contracts/token/ERC20/ERC20.sol\":5441:5447  amount */\n      dup6\n        /* \"@openzeppelin/contracts/token/ERC20/ERC20.sol\":5421:5430  _transfer */\n      tag_94\n        /* \"@openzeppelin/contracts/token/ERC20/ERC20.sol\":5421:5448  _transfer(from, to, amount) */\n      jump\t// in\n    tag_93:\n        /* \"@openzeppelin/contracts/token/ERC20/ERC20.sol\":5465:5469  true */\n      0x01\n        /* \"@openzeppelin/contracts/token/ERC20/ERC20.sol\":5458:5469  return true */\n      swap2\n      pop\n      pop\n        /* \"@openzeppelin/contracts/token/ERC20/ERC20.sol\":5190:5476  function transferFrom(... */\n      swap4\n      swap3\n      pop\n      pop\n      pop\n      jump\t// out\n        /* \"contracts/TinyNotesToken.sol\":554:912  function createNote(string memory _title, string memory _content) public {... */\n    tag_40:\n        /* \"contracts/TinyNotesToken.sol\":678:679  0 */\n      0x00\n        /* \"contracts/TinyNotesToken.sol\":645:675  balanceOf(address(msg.sender)) */\n      tag_96\n        /* \"contracts/TinyNotesToken.sol\":663:673  msg.sender */\n      caller\n        /* \"contracts/TinyNotesToken.sol\":645:654  balanceOf */\n      tag_52\n        /* \"contracts/TinyNotesToken.sol\":645:675  balanceOf(address(msg.sender)) */\n      jump\t// in\n    tag_96:\n        /* \"contracts/TinyNotesToken.sol\":645:679  balanceOf(address(msg.sender)) > 0 */\n      gt\n        /* \"contracts/TinyNotesToken.sol\":637:715  require(balanceOf(address(msg.sender)) > 0, \"Must hold TNT to create a Note.\") */\n      tag_97\n      jumpi\n      mload(0x40)\n      0x08c379a000000000000000000000000000000000000000000000000000000000\n      dup2\n      mstore\n      0x04\n      add\n      tag_98\n      swap1\n      tag_99\n      jump\t// in\n    tag_98:\n      mload(0x40)\n      dup1\n      swap2\n      sub\n      swap1\n      revert\n    tag_97:\n        /* \"contracts/TinyNotesToken.sol\":725:745  _noteIds.increment() */\n      tag_100\n        /* \"contracts/TinyNotesToken.sol\":725:733  _noteIds */\n      0x05\n        /* \"contracts/TinyNotesToken.sol\":725:743  _noteIds.increment */\n      tag_101\n        /* \"contracts/TinyNotesToken.sol\":725:745  _noteIds.increment() */\n      jump\t// in\n    tag_100:\n        /* \"contracts/TinyNotesToken.sol\":755:772  uint256 newNoteId */\n      0x00\n        /* \"contracts/TinyNotesToken.sol\":775:793  _noteIds.current() */\n      tag_102\n        /* \"contracts/TinyNotesToken.sol\":775:783  _noteIds */\n      0x05\n        /* \"contracts/TinyNotesToken.sol\":775:791  _noteIds.current */\n      tag_103\n        /* \"contracts/TinyNotesToken.sol\":775:793  _noteIds.current() */\n      jump\t// in\n    tag_102:\n        /* \"contracts/TinyNotesToken.sol\":755:793  uint256 newNoteId = _noteIds.current() */\n      swap1\n      pop\n        /* \"contracts/TinyNotesToken.sol\":825:905  Note(... */\n      mload(0x40)\n      dup1\n      0x60\n      add\n      0x40\n      mstore\n      dup1\n        /* \"contracts/TinyNotesToken.sol\":843:853  msg.sender */\n      caller\n        /* \"contracts/TinyNotesToken.sol\":825:905  Note(... */\n      0xffffffffffffffffffffffffffffffffffffffff\n      and\n      dup2\n      mstore\n      0x20\n      add\n        /* \"contracts/TinyNotesToken.sol\":867:873  _title */\n      dup5\n        /* \"contracts/TinyNotesToken.sol\":825:905  Note(... */\n      dup2\n      mstore\n      0x20\n      add\n        /* \"contracts/TinyNotesToken.sol\":887:895  _content */\n      dup4\n        /* \"contracts/TinyNotesToken.sol\":825:905  Note(... */\n      dup2\n      mstore\n      pop\n        /* \"contracts/TinyNotesToken.sol\":803:811  idToNote */\n      0x06\n        /* \"contracts/TinyNotesToken.sol\":803:822  idToNote[newNoteId] */\n      0x00\n        /* \"contracts/TinyNotesToken.sol\":812:821  newNoteId */\n      dup4\n        /* \"contracts/TinyNotesToken.sol\":803:822  idToNote[newNoteId] */\n      dup2\n      mstore\n      0x20\n      add\n      swap1\n      dup2\n      mstore\n      0x20\n      add\n      0x00\n      keccak256\n        /* \"contracts/TinyNotesToken.sol\":803:905  idToNote[newNoteId] = Note(... */\n      0x00\n      dup3\n      add\n      mload\n      dup2\n      0x00\n      add\n      exp(0x0100, 0x00)\n      dup2\n      sload\n      dup2\n      0xffffffffffffffffffffffffffffffffffffffff\n      mul\n      not\n      and\n      swap1\n      dup4\n      0xffffffffffffffffffffffffffffffffffffffff\n      and\n      mul\n      or\n      swap1\n      sstore\n      pop\n      0x20\n      dup3\n      add\n      mload\n      dup2\n      0x01\n      add\n      swap1\n      dup2\n      tag_104\n      swap2\n      swap1\n      tag_105\n      jump\t// in\n    tag_104:\n      pop\n      0x40\n      dup3\n      add\n      mload\n      dup2\n      0x02\n      add\n      swap1\n      dup2\n      tag_106\n      swap2\n      swap1\n      tag_105\n      jump\t// in\n    tag_106:\n      pop\n      swap1\n      pop\n      pop\n        /* \"contracts/TinyNotesToken.sol\":627:912  {... */\n      pop\n        /* \"contracts/TinyNotesToken.sol\":554:912  function createNote(string memory _title, string memory _content) public {... */\n      pop\n      pop\n      jump\t// out\n        /* \"@openzeppelin/contracts/token/ERC20/ERC20.sol\":3091:3182  function decimals() public view virtual override returns (uint8) {... */\n    tag_42:\n        /* \"@openzeppelin/contracts/token/ERC20/ERC20.sol\":3149:3154  uint8 */\n      0x00\n        /* \"@openzeppelin/contracts/token/ERC20/ERC20.sol\":3173:3175  18 */\n      0x12\n        /* \"@openzeppelin/contracts/token/ERC20/ERC20.sol\":3166:3175  return 18 */\n      swap1\n      pop\n        /* \"@openzeppelin/contracts/token/ERC20/ERC20.sol\":3091:3182  function decimals() public view virtual override returns (uint8) {... */\n      swap1\n      jump\t// out\n        /* \"@openzeppelin/contracts/token/ERC20/ERC20.sol\":5871:6105  function increaseAllowance(address spender, uint256 addedValue) public virtual returns (bool) {... */\n    tag_47:\n        /* \"@openzeppelin/contracts/token/ERC20/ERC20.sol\":5959:5963  bool */\n      0x00\n        /* \"@openzeppelin/contracts/token/ERC20/ERC20.sol\":5975:5988  address owner */\n      dup1\n        /* \"@openzeppelin/contracts/token/ERC20/ERC20.sol\":5991:6003  _msgSender() */\n      tag_109\n        /* \"@openzeppelin/contracts/token/ERC20/ERC20.sol\":5991:6001  _msgSender */\n      tag_85\n        /* \"@openzeppelin/contracts/token/ERC20/ERC20.sol\":5991:6003  _msgSender() */\n      jump\t// in\n    tag_109:\n        /* \"@openzeppelin/contracts/token/ERC20/ERC20.sol\":5975:6003  address owner = _msgSender() */\n      swap1\n      pop\n        /* \"@openzeppelin/contracts/token/ERC20/ERC20.sol\":6013:6077  _approve(owner, spender, allowance(owner, spender) + addedValue) */\n      tag_110\n        /* \"@openzeppelin/contracts/token/ERC20/ERC20.sol\":6022:6027  owner */\n      dup2\n        /* \"@openzeppelin/contracts/token/ERC20/ERC20.sol\":6029:6036  spender */\n      dup6\n        /* \"@openzeppelin/contracts/token/ERC20/ERC20.sol\":6066:6076  addedValue */\n      dup6\n        /* \"@openzeppelin/contracts/token/ERC20/ERC20.sol\":6038:6063  allowance(owner, spender) */\n      tag_111\n        /* \"@openzeppelin/contracts/token/ERC20/ERC20.sol\":6048:6053  owner */\n      dup6\n        /* \"@openzeppelin/contracts/token/ERC20/ERC20.sol\":6055:6062  spender */\n      dup10\n        /* \"@openzeppelin/contracts/token/ERC20/ERC20.sol\":6038:6047  allowance */\n      tag_74\n        /* \"@openzeppelin/contracts/token/ERC20/ERC20.sol\":6038:6063  allowance(owner, spender) */\n      jump\t// in\n    tag_111:\n        /* \"@openzeppelin/contracts/token/ERC20/ERC20.sol\":6038:6076  allowance(owner, spender) + addedValue */\n      tag_112\n      swap2\n      swap1\n      tag_113\n      jump\t// in\n    tag_112:\n        /* \"@openzeppelin/contracts/token/ERC20/ERC20.sol\":6013:6021  _approve */\n      tag_87\n        /* \"@openzeppelin/contracts/token/ERC20/ERC20.sol\":6013:6077  _approve(owner, spender, allowance(owner, spender) + addedValue) */\n      jump\t// in\n    tag_110:\n        /* \"@openzeppelin/contracts/token/ERC20/ERC20.sol\":6094:6098  true */\n      0x01\n        /* \"@openzeppelin/contracts/token/ERC20/ERC20.sol\":6087:6098  return true */\n      swap2\n      pop\n      pop\n        /* \"@openzeppelin/contracts/token/ERC20/ERC20.sol\":5871:6105  function increaseAllowance(address spender, uint256 addedValue) public virtual returns (bool) {... */\n      swap3\n      swap2\n      pop\n      pop\n      jump\t// out\n        /* \"@openzeppelin/contracts/token/ERC20/ERC20.sol\":3406:3531  function balanceOf(address account) public view virtual override returns (uint256) {... */\n    tag_52:\n        /* \"@openzeppelin/contracts/token/ERC20/ERC20.sol\":3480:3487  uint256 */\n      0x00\n        /* \"@openzeppelin/contracts/token/ERC20/ERC20.sol\":3506:3515  _balances */\n      dup1\n        /* \"@openzeppelin/contracts/token/ERC20/ERC20.sol\":3506:3524  _balances[account] */\n      0x00\n        /* \"@openzeppelin/contracts/token/ERC20/ERC20.sol\":3516:3523  account */\n      dup4\n        /* \"@openzeppelin/contracts/token/ERC20/ERC20.sol\":3506:3524  _balances[account] */\n      0xffffffffffffffffffffffffffffffffffffffff\n      and\n      0xffffffffffffffffffffffffffffffffffffffff\n      and\n      dup2\n      mstore\n      0x20\n      add\n      swap1\n      dup2\n      mstore\n      0x20\n      add\n      0x00\n      keccak256\n      sload\n        /* \"@openzeppelin/contracts/token/ERC20/ERC20.sol\":3499:3524  return _balances[account] */\n      swap1\n      pop\n        /* \"@openzeppelin/contracts/token/ERC20/ERC20.sol\":3406:3531  function balanceOf(address account) public view virtual override returns (uint256) {... */\n      swap2\n      swap1\n      pop\n      jump\t// out\n        /* \"@openzeppelin/contracts/token/ERC20/ERC20.sol\":2365:2467  function symbol() public view virtual override returns (string memory) {... */\n    tag_55:\n        /* \"@openzeppelin/contracts/token/ERC20/ERC20.sol\":2421:2434  string memory */\n      0x60\n        /* \"@openzeppelin/contracts/token/ERC20/ERC20.sol\":2453:2460  _symbol */\n      0x04\n        /* \"@openzeppelin/contracts/token/ERC20/ERC20.sol\":2446:2460  return _symbol */\n      dup1\n      sload\n      tag_116\n      swap1\n      tag_78\n      jump\t// in\n    tag_116:\n      dup1\n      0x1f\n      add\n      0x20\n      dup1\n      swap2\n      div\n      mul\n      0x20\n      add\n      mload(0x40)\n      swap1\n      dup2\n      add\n      0x40\n      mstore\n      dup1\n      swap3\n      swap2\n      swap1\n      dup2\n      dup2\n      mstore\n      0x20\n      add\n      dup3\n      dup1\n      sload\n      tag_117\n      swap1\n      tag_78\n      jump\t// in\n    tag_117:\n      dup1\n      iszero\n      tag_118\n      jumpi\n      dup1\n      0x1f\n      lt\n      tag_119\n      jumpi\n      0x0100\n      dup1\n      dup4\n      sload\n      div\n      mul\n      dup4\n      mstore\n      swap2\n      0x20\n      add\n      swap2\n      jump(tag_118)\n    tag_119:\n      dup3\n      add\n      swap2\n      swap1\n      0x00\n      mstore\n      keccak256(0x00, 0x20)\n      swap1\n    tag_120:\n      dup2\n      sload\n      dup2\n      mstore\n      swap1\n      0x01\n      add\n      swap1\n      0x20\n      add\n      dup1\n      dup4\n      gt\n      tag_120\n      jumpi\n      dup3\n      swap1\n      sub\n      0x1f\n      and\n      dup3\n      add\n      swap2\n    tag_118:\n      pop\n      pop\n      pop\n      pop\n      pop\n      swap1\n      pop\n        /* \"@openzeppelin/contracts/token/ERC20/ERC20.sol\":2365:2467  function symbol() public view virtual override returns (string memory) {... */\n      swap1\n      jump\t// out\n        /* \"@openzeppelin/contracts/token/ERC20/ERC20.sol\":6592:7019  function decreaseAllowance(address spender, uint256 subtractedValue) public virtual returns (bool) {... */\n    tag_59:\n        /* \"@openzeppelin/contracts/token/ERC20/ERC20.sol\":6685:6689  bool */\n      0x00\n        /* \"@openzeppelin/contracts/token/ERC20/ERC20.sol\":6701:6714  address owner */\n      dup1\n        /* \"@openzeppelin/contracts/token/ERC20/ERC20.sol\":6717:6729  _msgSender() */\n      tag_122\n        /* \"@openzeppelin/contracts/token/ERC20/ERC20.sol\":6717:6727  _msgSender */\n      tag_85\n        /* \"@openzeppelin/contracts/token/ERC20/ERC20.sol\":6717:6729  _msgSender() */\n      jump\t// in\n    tag_122:\n        /* \"@openzeppelin/contracts/token/ERC20/ERC20.sol\":6701:6729  address owner = _msgSender() */\n      swap1\n      pop\n        /* \"@openzeppelin/contracts/token/ERC20/ERC20.sol\":6739:6763  uint256 currentAllowance */\n      0x00\n        /* \"@openzeppelin/contracts/token/ERC20/ERC20.sol\":6766:6791  allowance(owner, spender) */\n      tag_123\n        /* \"@openzeppelin/contracts/token/ERC20/ERC20.sol\":6776:6781  owner */\n      dup3\n        /* \"@openzeppelin/contracts/token/ERC20/ERC20.sol\":6783:6790  spender */\n      dup7\n        /* \"@openzeppelin/contracts/token/ERC20/ERC20.sol\":6766:6775  allowance */\n      tag_74\n        /* \"@openzeppelin/contracts/token/ERC20/ERC20.sol\":6766:6791  allowance(owner, spender) */\n      jump\t// in\n    tag_123:\n        /* \"@openzeppelin/contracts/token/ERC20/ERC20.sol\":6739:6791  uint256 currentAllowance = allowance(owner, spender) */\n      swap1\n      pop\n        /* \"@openzeppelin/contracts/token/ERC20/ERC20.sol\":6829:6844  subtractedValue */\n      dup4\n        /* \"@openzeppelin/contracts/token/ERC20/ERC20.sol\":6809:6825  currentAllowance */\n      dup2\n        /* \"@openzeppelin/contracts/token/ERC20/ERC20.sol\":6809:6844  currentAllowance >= subtractedValue */\n      lt\n      iszero\n        /* \"@openzeppelin/contracts/token/ERC20/ERC20.sol\":6801:6886  require(currentAllowance >= subtractedValue, \"ERC20: decreased allowance below zero\") */\n      tag_124\n      jumpi\n      mload(0x40)\n      0x08c379a000000000000000000000000000000000000000000000000000000000\n      dup2\n      mstore\n      0x04\n      add\n      tag_125\n      swap1\n      tag_126\n      jump\t// in\n    tag_125:\n      mload(0x40)\n      dup1\n      swap2\n      sub\n      swap1\n      revert\n    tag_124:\n        /* \"@openzeppelin/contracts/token/ERC20/ERC20.sol\":6920:6980  _approve(owner, spender, currentAllowance - subtractedValue) */\n      tag_127\n        /* \"@openzeppelin/contracts/token/ERC20/ERC20.sol\":6929:6934  owner */\n      dup3\n        /* \"@openzeppelin/contracts/token/ERC20/ERC20.sol\":6936:6943  spender */\n      dup7\n        /* \"@openzeppelin/contracts/token/ERC20/ERC20.sol\":6964:6979  subtractedValue */\n      dup7\n        /* \"@openzeppelin/contracts/token/ERC20/ERC20.sol\":6945:6961  currentAllowance */\n      dup5\n        /* \"@openzeppelin/contracts/token/ERC20/ERC20.sol\":6945:6979  currentAllowance - subtractedValue */\n      sub\n        /* \"@openzeppelin/contracts/token/ERC20/ERC20.sol\":6920:6928  _approve */\n      tag_87\n        /* \"@openzeppelin/contracts/token/ERC20/ERC20.sol\":6920:6980  _approve(owner, spender, currentAllowance - subtractedValue) */\n      jump\t// in\n    tag_127:\n        /* \"@openzeppelin/contracts/token/ERC20/ERC20.sol\":7008:7012  true */\n      0x01\n        /* \"@openzeppelin/contracts/token/ERC20/ERC20.sol\":7001:7012  return true */\n      swap3\n      pop\n      pop\n      pop\n        /* \"@openzeppelin/contracts/token/ERC20/ERC20.sol\":6592:7019  function decreaseAllowance(address spender, uint256 subtractedValue) public virtual returns (bool) {... */\n      swap3\n      swap2\n      pop\n      pop\n      jump\t// out\n        /* \"@openzeppelin/contracts/token/ERC20/ERC20.sol\":3727:3916  function transfer(address to, uint256 amount) public virtual override returns (bool) {... */\n    tag_63:\n        /* \"@openzeppelin/contracts/token/ERC20/ERC20.sol\":3806:3810  bool */\n      0x00\n        /* \"@openzeppelin/contracts/token/ERC20/ERC20.sol\":3822:3835  address owner */\n      dup1\n        /* \"@openzeppelin/contracts/token/ERC20/ERC20.sol\":3838:3850  _msgSender() */\n      tag_129\n        /* \"@openzeppelin/contracts/token/ERC20/ERC20.sol\":3838:3848  _msgSender */\n      tag_85\n        /* \"@openzeppelin/contracts/token/ERC20/ERC20.sol\":3838:3850  _msgSender() */\n      jump\t// in\n    tag_129:\n        /* \"@openzeppelin/contracts/token/ERC20/ERC20.sol\":3822:3850  address owner = _msgSender() */\n      swap1\n      pop\n        /* \"@openzeppelin/contracts/token/ERC20/ERC20.sol\":3860:3888  _transfer(owner, to, amount) */\n      tag_130\n        /* \"@openzeppelin/contracts/token/ERC20/ERC20.sol\":3870:3875  owner */\n      dup2\n        /* \"@openzeppelin/contracts/token/ERC20/ERC20.sol\":3877:3879  to */\n      dup6\n        /* \"@openzeppelin/contracts/token/ERC20/ERC20.sol\":3881:3887  amount */\n      dup6\n        /* \"@openzeppelin/contracts/token/ERC20/ERC20.sol\":3860:3869  _transfer */\n      tag_94\n        /* \"@openzeppelin/contracts/token/ERC20/ERC20.sol\":3860:3888  _transfer(owner, to, amount) */\n      jump\t// in\n    tag_130:\n        /* \"@openzeppelin/contracts/token/ERC20/ERC20.sol\":3905:3909  true */\n      0x01\n        /* \"@openzeppelin/contracts/token/ERC20/ERC20.sol\":3898:3909  return true */\n      swap2\n      pop\n      pop\n        /* \"@openzeppelin/contracts/token/ERC20/ERC20.sol\":3727:3916  function transfer(address to, uint256 amount) public virtual override returns (bool) {... */\n      swap3\n      swap2\n      pop\n      pop\n      jump\t// out\n        /* \"contracts/TinyNotesToken.sol\":918:1114  function readNote(uint256 _noteId) public view returns (string memory title, string memory content) {... */\n    tag_68:\n        /* \"contracts/TinyNotesToken.sol\":974:993  string memory title */\n      0x60\n        /* \"contracts/TinyNotesToken.sol\":995:1016  string memory content */\n      dup1\n        /* \"contracts/TinyNotesToken.sol\":1028:1044  Note memory note */\n      0x00\n        /* \"contracts/TinyNotesToken.sol\":1047:1055  idToNote */\n      0x06\n        /* \"contracts/TinyNotesToken.sol\":1047:1064  idToNote[_noteId] */\n      0x00\n        /* \"contracts/TinyNotesToken.sol\":1056:1063  _noteId */\n      dup6\n        /* \"contracts/TinyNotesToken.sol\":1047:1064  idToNote[_noteId] */\n      dup2\n      mstore\n      0x20\n      add\n      swap1\n      dup2\n      mstore\n      0x20\n      add\n      0x00\n      keccak256\n        /* \"contracts/TinyNotesToken.sol\":1028:1064  Note memory note = idToNote[_noteId] */\n      mload(0x40)\n      dup1\n      0x60\n      add\n      0x40\n      mstore\n      swap1\n      dup2\n      0x00\n      dup3\n      add\n      0x00\n      swap1\n      sload\n      swap1\n      0x0100\n      exp\n      swap1\n      div\n      0xffffffffffffffffffffffffffffffffffffffff\n      and\n      0xffffffffffffffffffffffffffffffffffffffff\n      and\n      0xffffffffffffffffffffffffffffffffffffffff\n      and\n      dup2\n      mstore\n      0x20\n      add\n      0x01\n      dup3\n      add\n      dup1\n      sload\n      tag_132\n      swap1\n      tag_78\n      jump\t// in\n    tag_132:\n      dup1\n      0x1f\n      add\n      0x20\n      dup1\n      swap2\n      div\n      mul\n      0x20\n      add\n      mload(0x40)\n      swap1\n      dup2\n      add\n      0x40\n      mstore\n      dup1\n      swap3\n      swap2\n      swap1\n      dup2\n      dup2\n      mstore\n      0x20\n      add\n      dup3\n      dup1\n      sload\n      tag_133\n      swap1\n      tag_78\n      jump\t// in\n    tag_133:\n      dup1\n      iszero\n      tag_134\n      jumpi\n      dup1\n      0x1f\n      lt\n      tag_135\n      jumpi\n      0x0100\n      dup1\n      dup4\n      sload\n      div\n      mul\n      dup4\n      mstore\n      swap2\n      0x20\n      add\n      swap2\n      jump(tag_134)\n    tag_135:\n      dup3\n      add\n      swap2\n      swap1\n      0x00\n      mstore\n      keccak256(0x00, 0x20)\n      swap1\n    tag_136:\n      dup2\n      sload\n      dup2\n      mstore\n      swap1\n      0x01\n      add\n      swap1\n      0x20\n      add\n      dup1\n      dup4\n      gt\n      tag_136\n      jumpi\n      dup3\n      swap1\n      sub\n      0x1f\n      and\n      dup3\n      add\n      swap2\n    tag_134:\n      pop\n      pop\n      pop\n      pop\n      pop\n      dup2\n      mstore\n      0x20\n      add\n      0x02\n      dup3\n      add\n      dup1\n      sload\n      tag_137\n      swap1\n      tag_78\n      jump\t// in\n    tag_137:\n      dup1\n      0x1f\n      add\n      0x20\n      dup1\n      swap2\n      div\n      mul\n      0x20\n      add\n      mload(0x40)\n      swap1\n      dup2\n      add\n      0x40\n      mstore\n      dup1\n      swap3\n      swap2\n      swap1\n      dup2\n      dup2\n      mstore\n      0x20\n      add\n      dup3\n      dup1\n      sload\n      tag_138\n      swap1\n      tag_78\n      jump\t// in\n    tag_138:\n      dup1\n      iszero\n      tag_139\n      jumpi\n      dup1\n      0x1f\n      lt\n      tag_140\n      jumpi\n      0x0100\n      dup1\n      dup4\n      sload\n      div\n      mul\n      dup4\n      mstore\n      swap2\n      0x20\n      add\n      swap2\n      jump(tag_139)\n    tag_140:\n      dup3\n      add\n      swap2\n      swap1\n      0x00\n      mstore\n      keccak256(0x00, 0x20)\n      swap1\n    tag_141:\n      dup2\n      sload\n      dup2\n      mstore\n      swap1\n      0x01\n      add\n      swap1\n      0x20\n      add\n      dup1\n      dup4\n      gt\n      tag_141\n      jumpi\n      dup3\n      swap1\n      sub\n      0x1f\n      and\n      dup3\n      add\n      swap2\n    tag_139:\n      pop\n      pop\n      pop\n      pop\n      pop\n      dup2\n      mstore\n      pop\n      pop\n      swap1\n      pop\n        /* \"contracts/TinyNotesToken.sol\":1082:1086  note */\n      dup1\n        /* \"contracts/TinyNotesToken.sol\":1082:1092  note.title */\n      0x20\n      add\n      mload\n        /* \"contracts/TinyNotesToken.sol\":1094:1098  note */\n      dup2\n        /* \"contracts/TinyNotesToken.sol\":1094:1106  note.content */\n      0x40\n      add\n      mload\n        /* \"contracts/TinyNotesToken.sol\":1074:1107  return (note.title, note.content) */\n      swap3\n      pop\n      swap3\n      pop\n      pop\n        /* \"contracts/TinyNotesToken.sol\":918:1114  function readNote(uint256 _noteId) public view returns (string memory title, string memory content) {... */\n      swap2\n      pop\n      swap2\n      jump\t// out\n        /* \"@openzeppelin/contracts/token/ERC20/ERC20.sol\":3974:4123  function allowance(address owner, address spender) public view virtual override returns (uint256) {... */\n    tag_74:\n        /* \"@openzeppelin/contracts/token/ERC20/ERC20.sol\":4063:4070  uint256 */\n      0x00\n        /* \"@openzeppelin/contracts/token/ERC20/ERC20.sol\":4089:4100  _allowances */\n      0x01\n        /* \"@openzeppelin/contracts/token/ERC20/ERC20.sol\":4089:4107  _allowances[owner] */\n      0x00\n        /* \"@openzeppelin/contracts/token/ERC20/ERC20.sol\":4101:4106  owner */\n      dup5\n        /* \"@openzeppelin/contracts/token/ERC20/ERC20.sol\":4089:4107  _allowances[owner] */\n      0xffffffffffffffffffffffffffffffffffffffff\n      and\n      0xffffffffffffffffffffffffffffffffffffffff\n      and\n      dup2\n      mstore\n      0x20\n      add\n      swap1\n      dup2\n      mstore\n      0x20\n      add\n      0x00\n      keccak256\n        /* \"@openzeppelin/contracts/token/ERC20/ERC20.sol\":4089:4116  _allowances[owner][spender] */\n      0x00\n        /* \"@openzeppelin/contracts/token/ERC20/ERC20.sol\":4108:4115  spender */\n      dup4\n        /* \"@openzeppelin/contracts/token/ERC20/ERC20.sol\":4089:4116  _allowances[owner][spender] */\n      0xffffffffffffffffffffffffffffffffffffffff\n      and\n      0xffffffffffffffffffffffffffffffffffffffff\n      and\n      dup2\n      mstore\n      0x20\n      add\n      swap1\n      dup2\n      mstore\n      0x20\n      add\n      0x00\n      keccak256\n      sload\n        /* \"@openzeppelin/contracts/token/ERC20/ERC20.sol\":4082:4116  return _allowances[owner][spender] */\n      swap1\n      pop\n        /* \"@openzeppelin/contracts/token/ERC20/ERC20.sol\":3974:4123  function allowance(address owner, address spender) public view virtual override returns (uint256) {... */\n      swap3\n      swap2\n      pop\n      pop\n      jump\t// out\n        /* \"@openzeppelin/contracts/utils/Context.sol\":640:736  function _msgSender() internal view virtual returns (address) {... */\n    tag_85:\n        /* \"@openzeppelin/contracts/utils/Context.sol\":693:700  address */\n      0x00\n        /* \"@openzeppelin/contracts/utils/Context.sol\":719:729  msg.sender */\n      caller\n        /* \"@openzeppelin/contracts/utils/Context.sol\":712:729  return msg.sender */\n      swap1\n      pop\n        /* \"@openzeppelin/contracts/utils/Context.sol\":640:736  function _msgSender() internal view virtual returns (address) {... */\n      swap1\n      jump\t// out\n        /* \"@openzeppelin/contracts/token/ERC20/ERC20.sol\":10504:10874  function _approve(... */\n    tag_87:\n        /* \"@openzeppelin/contracts/token/ERC20/ERC20.sol\":10652:10653  0 */\n      0x00\n        /* \"@openzeppelin/contracts/token/ERC20/ERC20.sol\":10635:10654  owner != address(0) */\n      0xffffffffffffffffffffffffffffffffffffffff\n      and\n        /* \"@openzeppelin/contracts/token/ERC20/ERC20.sol\":10635:10640  owner */\n      dup4\n        /* \"@openzeppelin/contracts/token/ERC20/ERC20.sol\":10635:10654  owner != address(0) */\n      0xffffffffffffffffffffffffffffffffffffffff\n      and\n      sub\n        /* \"@openzeppelin/contracts/token/ERC20/ERC20.sol\":10627:10695  require(owner != address(0), \"ERC20: approve from the zero address\") */\n      tag_145\n      jumpi\n      mload(0x40)\n      0x08c379a000000000000000000000000000000000000000000000000000000000\n      dup2\n      mstore\n      0x04\n      add\n      tag_146\n      swap1\n      tag_147\n      jump\t// in\n    tag_146:\n      mload(0x40)\n      dup1\n      swap2\n      sub\n      swap1\n      revert\n    tag_145:\n        /* \"@openzeppelin/contracts/token/ERC20/ERC20.sol\":10732:10733  0 */\n      0x00\n        /* \"@openzeppelin/contracts/token/ERC20/ERC20.sol\":10713:10734  spender != address(0) */\n      0xffffffffffffffffffffffffffffffffffffffff\n      and\n        /* \"@openzeppelin/contracts/token/ERC20/ERC20.sol\":10713:10720  spender */\n      dup3\n        /* \"@openzeppelin/contracts/token/ERC20/ERC20.sol\":10713:10734  spender != address(0) */\n      0xffffffffffffffffffffffffffffffffffffffff\n      and\n      sub\n        /* \"@openzeppelin/contracts/token/ERC20/ERC20.sol\":10705:10773  require(spender != address(0), \"ERC20: approve to the zero address\") */\n      tag_148\n      jumpi\n      mload(0x40)\n      0x08c379a000000000000000000000000000000000000000000000000000000000\n      dup2\n      mstore\n      0x04\n      add\n      tag_149\n      swap1\n      tag_150\n      jump\t// in\n    tag_149:\n      mload(0x40)\n      dup1\n      swap2\n      sub\n      swap1\n      revert\n    tag_148:\n        /* \"@openzeppelin/contracts/token/ERC20/ERC20.sol\":10814:10820  amount */\n      dup1\n        /* \"@openzeppelin/contracts/token/ERC20/ERC20.sol\":10784:10795  _allowances */\n      0x01\n        /* \"@openzeppelin/contracts/token/ERC20/ERC20.sol\":10784:10802  _allowances[owner] */\n      0x00\n        /* \"@openzeppelin/contracts/token/ERC20/ERC20.sol\":10796:10801  owner */\n      dup6\n        /* \"@openzeppelin/contracts/token/ERC20/ERC20.sol\":10784:10802  _allowances[owner] */\n      0xffffffffffffffffffffffffffffffffffffffff\n      and\n      0xffffffffffffffffffffffffffffffffffffffff\n      and\n      dup2\n      mstore\n      0x20\n      add\n      swap1\n      dup2\n      mstore\n      0x20\n      add\n      0x00\n      keccak256\n        /* \"@openzeppelin/contracts/token/ERC20/ERC20.sol\":10784:10811  _allowances[owner][spender] */\n      0x00\n        /* \"@openzeppelin/contracts/token/ERC20/ERC20.sol\":10803:10810  spender */\n      dup5\n        /* \"@openzeppelin/contracts/token/ERC20/ERC20.sol\":10784:10811  _allowances[owner][spender] */\n      0xffffffffffffffffffffffffffffffffffffffff\n      and\n      0xffffffffffffffffffffffffffffffffffffffff\n      and\n      dup2\n      mstore\n      0x20\n      add\n      swap1\n      dup2\n      mstore\n      0x20\n      add\n      0x00\n      keccak256\n        /* \"@openzeppelin/contracts/token/ERC20/ERC20.sol\":10784:10820  _allowances[owner][spender] = amount */\n      dup2\n      swap1\n      sstore\n      pop\n        /* \"@openzeppelin/contracts/token/ERC20/ERC20.sol\":10851:10858  spender */\n      dup2\n        /* \"@openzeppelin/contracts/token/ERC20/ERC20.sol\":10835:10867  Approval(owner, spender, amount) */\n      0xffffffffffffffffffffffffffffffffffffffff\n      and\n        /* \"@openzeppelin/contracts/token/ERC20/ERC20.sol\":10844:10849  owner */\n      dup4\n        /* \"@openzeppelin/contracts/token/ERC20/ERC20.sol\":10835:10867  Approval(owner, spender, amount) */\n      0xffffffffffffffffffffffffffffffffffffffff\n      and\n      0x8c5be1e5ebec7d5bd14f71427d1e84f3dd0314c0f7b2291e5b200ac8c7c3b925\n        /* \"@openzeppelin/contracts/token/ERC20/ERC20.sol\":10860:10866  amount */\n      dup4\n        /* \"@openzeppelin/contracts/token/ERC20/ERC20.sol\":10835:10867  Approval(owner, spender, amount) */\n      mload(0x40)\n      tag_151\n      swap2\n      swap1\n      tag_31\n      jump\t// in\n    tag_151:\n      mload(0x40)\n      dup1\n      swap2\n      sub\n      swap1\n      log3\n        /* \"@openzeppelin/contracts/token/ERC20/ERC20.sol\":10504:10874  function _approve(... */\n      pop\n      pop\n      pop\n      jump\t// out\n        /* \"@openzeppelin/contracts/token/ERC20/ERC20.sol\":11155:11596  function _spendAllowance(... */\n    tag_92:\n        /* \"@openzeppelin/contracts/token/ERC20/ERC20.sol\":11285:11309  uint256 currentAllowance */\n      0x00\n        /* \"@openzeppelin/contracts/token/ERC20/ERC20.sol\":11312:11337  allowance(owner, spender) */\n      tag_153\n        /* \"@openzeppelin/contracts/token/ERC20/ERC20.sol\":11322:11327  owner */\n      dup5\n        /* \"@openzeppelin/contracts/token/ERC20/ERC20.sol\":11329:11336  spender */\n      dup5\n        /* \"@openzeppelin/contracts/token/ERC20/ERC20.sol\":11312:11321  allowance */\n      tag_74\n        /* \"@openzeppelin/contracts/token/ERC20/ERC20.sol\":11312:11337  allowance(owner, spender) */\n      jump\t// in\n    tag_153:\n        /* \"@openzeppelin/contracts/token/ERC20/ERC20.sol\":11285:11337  uint256 currentAllowance = allowance(owner, spender) */\n      swap1\n      pop\n        /* \"@openzeppelin/contracts/token/ERC20/ERC20.sol\":11371:11388  type(uint256).max */\n      0xffffffffffffffffffffffffffffffffffffffffffffffffffffffffffffffff\n        /* \"@openzeppelin/contracts/token/ERC20/ERC20.sol\":11351:11367  currentAllowance */\n      dup2\n        /* \"@openzeppelin/contracts/token/ERC20/ERC20.sol\":11351:11388  currentAllowance != type(uint256).max */\n      eq\n        /* \"@openzeppelin/contracts/token/ERC20/ERC20.sol\":11347:11590  if (currentAllowance != type(uint256).max) {... */\n      tag_154\n      jumpi\n        /* \"@openzeppelin/contracts/token/ERC20/ERC20.sol\":11432:11438  amount */\n      dup2\n        /* \"@openzeppelin/contracts/token/ERC20/ERC20.sol\":11412:11428  currentAllowance */\n      dup2\n        /* \"@openzeppelin/contracts/token/ERC20/ERC20.sol\":11412:11438  currentAllowance >= amount */\n      lt\n      iszero\n        /* \"@openzeppelin/contracts/token/ERC20/ERC20.sol\":11404:11472  require(currentAllowance >= amount, \"ERC20: insufficient allowance\") */\n      tag_155\n      jumpi\n      mload(0x40)\n      0x08c379a000000000000000000000000000000000000000000000000000000000\n      dup2\n      mstore\n      0x04\n      add\n      tag_156\n      swap1\n      tag_157\n      jump\t// in\n    tag_156:\n      mload(0x40)\n      dup1\n      swap2\n      sub\n      swap1\n      revert\n    tag_155:\n        /* \"@openzeppelin/contracts/token/ERC20/ERC20.sol\":11514:11565  _approve(owner, spender, currentAllowance - amount) */\n      tag_158\n        /* \"@openzeppelin/contracts/token/ERC20/ERC20.sol\":11523:11528  owner */\n      dup5\n        /* \"@openzeppelin/contracts/token/ERC20/ERC20.sol\":11530:11537  spender */\n      dup5\n        /* \"@openzeppelin/contracts/token/ERC20/ERC20.sol\":11558:11564  amount */\n      dup5\n        /* \"@openzeppelin/contracts/token/ERC20/ERC20.sol\":11539:11555  currentAllowance */\n      dup5\n        /* \"@openzeppelin/contracts/token/ERC20/ERC20.sol\":11539:11564  currentAllowance - amount */\n      sub\n        /* \"@openzeppelin/contracts/token/ERC20/ERC20.sol\":11514:11522  _approve */\n      tag_87\n        /* \"@openzeppelin/contracts/token/ERC20/ERC20.sol\":11514:11565  _approve(owner, spender, currentAllowance - amount) */\n      jump\t// in\n    tag_158:\n        /* \"@openzeppelin/contracts/token/ERC20/ERC20.sol\":11347:11590  if (currentAllowance != type(uint256).max) {... */\n    tag_154:\n        /* \"@openzeppelin/contracts/token/ERC20/ERC20.sol\":11275:11596  {... */\n      pop\n        /* \"@openzeppelin/contracts/token/ERC20/ERC20.sol\":11155:11596  function _spendAllowance(... */\n      pop\n      pop\n      pop\n      jump\t// out\n        /* \"@openzeppelin/contracts/token/ERC20/ERC20.sol\":7473:8291  function _transfer(... */\n    tag_94:\n        /* \"@openzeppelin/contracts/token/ERC20/ERC20.sol\":7615:7616  0 */\n      0x00\n        /* \"@openzeppelin/contracts/token/ERC20/ERC20.sol\":7599:7617  from != address(0) */\n      0xffffffffffffffffffffffffffffffffffffffff\n      and\n        /* \"@openzeppelin/contracts/token/ERC20/ERC20.sol\":7599:7603  from */\n      dup4\n        /* \"@openzeppelin/contracts/token/ERC20/ERC20.sol\":7599:7617  from != address(0) */\n      0xffffffffffffffffffffffffffffffffffffffff\n      and\n      sub\n        /* \"@openzeppelin/contracts/token/ERC20/ERC20.sol\":7591:7659  require(from != address(0), \"ERC20: transfer from the zero address\") */\n      tag_160\n      jumpi\n      mload(0x40)\n      0x08c379a000000000000000000000000000000000000000000000000000000000\n      dup2\n      mstore\n      0x04\n      add\n      tag_161\n      swap1\n      tag_162\n      jump\t// in\n    tag_161:\n      mload(0x40)\n      dup1\n      swap2\n      sub\n      swap1\n      revert\n    tag_160:\n        /* \"@openzeppelin/contracts/token/ERC20/ERC20.sol\":7691:7692  0 */\n      0x00\n        /* \"@openzeppelin/contracts/token/ERC20/ERC20.sol\":7677:7693  to != address(0) */\n      0xffffffffffffffffffffffffffffffffffffffff\n      and\n        /* \"@openzeppelin/contracts/token/ERC20/ERC20.sol\":7677:7679  to */\n      dup3\n        /* \"@openzeppelin/contracts/token/ERC20/ERC20.sol\":7677:7693  to != address(0) */\n      0xffffffffffffffffffffffffffffffffffffffff\n      and\n      sub\n        /* \"@openzeppelin/contracts/token/ERC20/ERC20.sol\":7669:7733  require(to != address(0), \"ERC20: transfer to the zero address\") */\n      tag_163\n      jumpi\n      mload(0x40)\n      0x08c379a000000000000000000000000000000000000000000000000000000000\n      dup2\n      mstore\n      0x04\n      add\n      tag_164\n      swap1\n      tag_165\n      jump\t// in\n    tag_164:\n      mload(0x40)\n      dup1\n      swap2\n      sub\n      swap1\n      revert\n    tag_163:\n        /* \"@openzeppelin/contracts/token/ERC20/ERC20.sol\":7744:7782  _beforeTokenTransfer(from, to, amount) */\n      tag_166\n        /* \"@openzeppelin/contracts/token/ERC20/ERC20.sol\":7765:7769  from */\n      dup4\n        /* \"@openzeppelin/contracts/token/ERC20/ERC20.sol\":7771:7773  to */\n      dup4\n        /* \"@openzeppelin/contracts/token/ERC20/ERC20.sol\":7775:7781  amount */\n      dup4\n        /* \"@openzeppelin/contracts/token/ERC20/ERC20.sol\":7744:7764  _beforeTokenTransfer */\n      tag_167\n        /* \"@openzeppelin/contracts/token/ERC20/ERC20.sol\":7744:7782  _beforeTokenTransfer(from, to, amount) */\n      jump\t// in\n    tag_166:\n        /* \"@openzeppelin/contracts/token/ERC20/ERC20.sol\":7793:7812  uint256 fromBalance */\n      0x00\n        /* \"@openzeppelin/contracts/token/ERC20/ERC20.sol\":7815:7824  _balances */\n      dup1\n        /* \"@openzeppelin/contracts/token/ERC20/ERC20.sol\":7815:7830  _balances[from] */\n      0x00\n        /* \"@openzeppelin/contracts/token/ERC20/ERC20.sol\":7825:7829  from */\n      dup6\n        /* \"@openzeppelin/contracts/token/ERC20/ERC20.sol\":7815:7830  _balances[from] */\n      0xffffffffffffffffffffffffffffffffffffffff\n      and\n      0xffffffffffffffffffffffffffffffffffffffff\n      and\n      dup2\n      mstore\n      0x20\n      add\n      swap1\n      dup2\n      mstore\n      0x20\n      add\n      0x00\n      keccak256\n      sload\n        /* \"@openzeppelin/contracts/token/ERC20/ERC20.sol\":7793:7830  uint256 fromBalance = _balances[from] */\n      swap1\n      pop\n        /* \"@openzeppelin/contracts/token/ERC20/ERC20.sol\":7863:7869  amount */\n      dup2\n        /* \"@openzeppelin/contracts/token/ERC20/ERC20.sol\":7848:7859  fromBalance */\n      dup2\n        /* \"@openzeppelin/contracts/token/ERC20/ERC20.sol\":7848:7869  fromBalance >= amount */\n      lt\n      iszero\n        /* \"@openzeppelin/contracts/token/ERC20/ERC20.sol\":7840:7912  require(fromBalance >= amount, \"ERC20: transfer amount exceeds balance\") */\n      tag_168\n      jumpi\n      mload(0x40)\n      0x08c379a000000000000000000000000000000000000000000000000000000000\n      dup2\n      mstore\n      0x04\n      add\n      tag_169\n      swap1\n      tag_170\n      jump\t// in\n    tag_169:\n      mload(0x40)\n      dup1\n      swap2\n      sub\n      swap1\n      revert\n    tag_168:\n        /* \"@openzeppelin/contracts/token/ERC20/ERC20.sol\":7978:7984  amount */\n      dup2\n        /* \"@openzeppelin/contracts/token/ERC20/ERC20.sol\":7964:7975  fromBalance */\n      dup2\n        /* \"@openzeppelin/contracts/token/ERC20/ERC20.sol\":7964:7984  fromBalance - amount */\n      sub\n        /* \"@openzeppelin/contracts/token/ERC20/ERC20.sol\":7946:7955  _balances */\n      0x00\n        /* \"@openzeppelin/contracts/token/ERC20/ERC20.sol\":7946:7961  _balances[from] */\n      dup1\n        /* \"@openzeppelin/contracts/token/ERC20/ERC20.sol\":7956:7960  from */\n      dup7\n        /* \"@openzeppelin/contracts/token/ERC20/ERC20.sol\":7946:7961  _balances[from] */\n      0xffffffffffffffffffffffffffffffffffffffff\n      and\n      0xffffffffffffffffffffffffffffffffffffffff\n      and\n      dup2\n      mstore\n      0x20\n      add\n      swap1\n      dup2\n      mstore\n      0x20\n      add\n      0x00\n      keccak256\n        /* \"@openzeppelin/contracts/token/ERC20/ERC20.sol\":7946:7984  _balances[from] = fromBalance - amount */\n      dup2\n      swap1\n      sstore\n      pop\n        /* \"@openzeppelin/contracts/token/ERC20/ERC20.sol\":8178:8184  amount */\n      dup2\n        /* \"@openzeppelin/contracts/token/ERC20/ERC20.sol\":8161:8170  _balances */\n      0x00\n        /* \"@openzeppelin/contracts/token/ERC20/ERC20.sol\":8161:8174  _balances[to] */\n      dup1\n        /* \"@openzeppelin/contracts/token/ERC20/ERC20.sol\":8171:8173  to */\n      dup6\n        /* \"@openzeppelin/contracts/token/ERC20/ERC20.sol\":8161:8174  _balances[to] */\n      0xffffffffffffffffffffffffffffffffffffffff\n      and\n      0xffffffffffffffffffffffffffffffffffffffff\n      and\n      dup2\n      mstore\n      0x20\n      add\n      swap1\n      dup2\n      mstore\n      0x20\n      add\n      0x00\n      keccak256\n      0x00\n        /* \"@openzeppelin/contracts/token/ERC20/ERC20.sol\":8161:8184  _balances[to] += amount */\n      dup3\n      dup3\n      sload\n      add\n      swap3\n      pop\n      pop\n      dup2\n      swap1\n      sstore\n      pop\n        /* \"@openzeppelin/contracts/token/ERC20/ERC20.sol\":8225:8227  to */\n      dup3\n        /* \"@openzeppelin/contracts/token/ERC20/ERC20.sol\":8210:8236  Transfer(from, to, amount) */\n      0xffffffffffffffffffffffffffffffffffffffff\n      and\n        /* \"@openzeppelin/contracts/token/ERC20/ERC20.sol\":8219:8223  from */\n      dup5\n        /* \"@openzeppelin/contracts/token/ERC20/ERC20.sol\":8210:8236  Transfer(from, to, amount) */\n      0xffffffffffffffffffffffffffffffffffffffff\n      and\n      0xddf252ad1be2c89b69c2b068fc378daa952ba7f163c4a11628f55a4df523b3ef\n        /* \"@openzeppelin/contracts/token/ERC20/ERC20.sol\":8229:8235  amount */\n      dup5\n        /* \"@openzeppelin/contracts/token/ERC20/ERC20.sol\":8210:8236  Transfer(from, to, amount) */\n      mload(0x40)\n      tag_171\n      swap2\n      swap1\n      tag_31\n      jump\t// in\n    tag_171:\n      mload(0x40)\n      dup1\n      swap2\n      sub\n      swap1\n      log3\n        /* \"@openzeppelin/contracts/token/ERC20/ERC20.sol\":8247:8284  _afterTokenTransfer(from, to, amount) */\n      tag_172\n        /* \"@openzeppelin/contracts/token/ERC20/ERC20.sol\":8267:8271  from */\n      dup5\n        /* \"@openzeppelin/contracts/token/ERC20/ERC20.sol\":8273:8275  to */\n      dup5\n        /* \"@openzeppelin/contracts/token/ERC20/ERC20.sol\":8277:8283  amount */\n      dup5\n        /* \"@openzeppelin/contracts/token/ERC20/ERC20.sol\":8247:8266  _afterTokenTransfer */\n      tag_173\n        /* \"@openzeppelin/contracts/token/ERC20/ERC20.sol\":8247:8284  _afterTokenTransfer(from, to, amount) */\n      jump\t// in\n    tag_172:\n        /* \"@openzeppelin/contracts/token/ERC20/ERC20.sol\":7581:8291  {... */\n      pop\n        /* \"@openzeppelin/contracts/token/ERC20/ERC20.sol\":7473:8291  function _transfer(... */\n      pop\n      pop\n      pop\n      jump\t// out\n        /* \"@openzeppelin/contracts/utils/Counters.sol\":945:1068  function increment(Counter storage counter) internal {... */\n    tag_101:\n        /* \"@openzeppelin/contracts/utils/Counters.sol\":1050:1051  1 */\n      0x01\n        /* \"@openzeppelin/contracts/utils/Counters.sol\":1032:1039  counter */\n      dup2\n        /* \"@openzeppelin/contracts/utils/Counters.sol\":1032:1046  counter._value */\n      0x00\n      add\n      0x00\n        /* \"@openzeppelin/contracts/utils/Counters.sol\":1032:1051  counter._value += 1 */\n      dup3\n      dup3\n      sload\n      add\n      swap3\n      pop\n      pop\n      dup2\n      swap1\n      sstore\n      pop\n        /* \"@openzeppelin/contracts/utils/Counters.sol\":945:1068  function increment(Counter storage counter) internal {... */\n      pop\n      jump\t// out\n        /* \"@openzeppelin/contracts/utils/Counters.sol\":827:939  function current(Counter storage counter) internal view returns (uint256) {... */\n    tag_103:\n        /* \"@openzeppelin/contracts/utils/Counters.sol\":892:899  uint256 */\n      0x00\n        /* \"@openzeppelin/contracts/utils/Counters.sol\":918:925  counter */\n      dup2\n        /* \"@openzeppelin/contracts/utils/Counters.sol\":918:932  counter._value */\n      0x00\n      add\n      sload\n        /* \"@openzeppelin/contracts/utils/Counters.sol\":911:932  return counter._value */\n      swap1\n      pop\n        /* \"@openzeppelin/contracts/utils/Counters.sol\":827:939  function current(Counter storage counter) internal view returns (uint256) {... */\n      swap2\n      swap1\n      pop\n      jump\t// out\n        /* \"@openzeppelin/contracts/token/ERC20/ERC20.sol\":12180:12301  function _beforeTokenTransfer(... */\n    tag_167:\n      pop\n      pop\n      pop\n      jump\t// out\n        /* \"@openzeppelin/contracts/token/ERC20/ERC20.sol\":12889:13009  function _afterTokenTransfer(... */\n    tag_173:\n      pop\n      pop\n      pop\n      jump\t// out\n        /* \"#utility.yul\":7:106   */\n    tag_178:\n        /* \"#utility.yul\":59:65   */\n      0x00\n        /* \"#utility.yul\":93:98   */\n      dup2\n        /* \"#utility.yul\":87:99   */\n      mload\n        /* \"#utility.yul\":77:99   */\n      swap1\n      pop\n        /* \"#utility.yul\":7:106   */\n      swap2\n      swap1\n      pop\n      jump\t// out\n        /* \"#utility.yul\":112:281   */\n    tag_179:\n        /* \"#utility.yul\":196:207   */\n      0x00\n        /* \"#utility.yul\":230:236   */\n      dup3\n        /* \"#utility.yul\":225:228   */\n      dup3\n        /* \"#utility.yul\":218:237   */\n      mstore\n        /* \"#utility.yul\":270:274   */\n      0x20\n        /* \"#utility.yul\":265:268   */\n      dup3\n        /* \"#utility.yul\":261:275   */\n      add\n        /* \"#utility.yul\":246:275   */\n      swap1\n      pop\n        /* \"#utility.yul\":112:281   */\n      swap3\n      swap2\n      pop\n      pop\n      jump\t// out\n        /* \"#utility.yul\":287:533   */\n    tag_180:\n        /* \"#utility.yul\":368:369   */\n      0x00\n        /* \"#utility.yul\":378:491   */\n    tag_244:\n        /* \"#utility.yul\":392:398   */\n      dup4\n        /* \"#utility.yul\":389:390   */\n      dup2\n        /* \"#utility.yul\":386:399   */\n      lt\n        /* \"#utility.yul\":378:491   */\n      iszero\n      tag_246\n      jumpi\n        /* \"#utility.yul\":477:478   */\n      dup1\n        /* \"#utility.yul\":472:475   */\n      dup3\n        /* \"#utility.yul\":468:479   */\n      add\n        /* \"#utility.yul\":462:480   */\n      mload\n        /* \"#utility.yul\":458:459   */\n      dup2\n        /* \"#utility.yul\":453:456   */\n      dup5\n        /* \"#utility.yul\":449:460   */\n      add\n        /* \"#utility.yul\":442:481   */\n      mstore\n        /* \"#utility.yul\":414:416   */\n      0x20\n        /* \"#utility.yul\":411:412   */\n      dup2\n        /* \"#utility.yul\":407:417   */\n      add\n        /* \"#utility.yul\":402:417   */\n      swap1\n      pop\n        /* \"#utility.yul\":378:491   */\n      jump(tag_244)\n    tag_246:\n        /* \"#utility.yul\":525:526   */\n      0x00\n        /* \"#utility.yul\":516:522   */\n      dup5\n        /* \"#utility.yul\":511:514   */\n      dup5\n        /* \"#utility.yul\":507:523   */\n      add\n        /* \"#utility.yul\":500:527   */\n      mstore\n        /* \"#utility.yul\":349:533   */\n      pop\n        /* \"#utility.yul\":287:533   */\n      pop\n      pop\n      pop\n      jump\t// out\n        /* \"#utility.yul\":539:641   */\n    tag_181:\n        /* \"#utility.yul\":580:586   */\n      0x00\n        /* \"#utility.yul\":631:633   */\n      0x1f\n        /* \"#utility.yul\":627:634   */\n      not\n        /* \"#utility.yul\":622:624   */\n      0x1f\n        /* \"#utility.yul\":615:620   */\n      dup4\n        /* \"#utility.yul\":611:625   */\n      add\n        /* \"#utility.yul\":607:635   */\n      and\n        /* \"#utility.yul\":597:635   */\n      swap1\n      pop\n        /* \"#utility.yul\":539:641   */\n      swap2\n      swap1\n      pop\n      jump\t// out\n        /* \"#utility.yul\":647:1024   */\n    tag_182:\n        /* \"#utility.yul\":735:738   */\n      0x00\n        /* \"#utility.yul\":763:802   */\n      tag_249\n        /* \"#utility.yul\":796:801   */\n      dup3\n        /* \"#utility.yul\":763:802   */\n      tag_178\n      jump\t// in\n    tag_249:\n        /* \"#utility.yul\":818:889   */\n      tag_250\n        /* \"#utility.yul\":882:888   */\n      dup2\n        /* \"#utility.yul\":877:880   */\n      dup6\n        /* \"#utility.yul\":818:889   */\n      tag_179\n      jump\t// in\n    tag_250:\n        /* \"#utility.yul\":811:889   */\n      swap4\n      pop\n        /* \"#utility.yul\":898:963   */\n      tag_251\n        /* \"#utility.yul\":956:962   */\n      dup2\n        /* \"#utility.yul\":951:954   */\n      dup6\n        /* \"#utility.yul\":944:948   */\n      0x20\n        /* \"#utility.yul\":937:942   */\n      dup7\n        /* \"#utility.yul\":933:949   */\n      add\n        /* \"#utility.yul\":898:963   */\n      tag_180\n      jump\t// in\n    tag_251:\n        /* \"#utility.yul\":988:1017   */\n      tag_252\n        /* \"#utility.yul\":1010:1016   */\n      dup2\n        /* \"#utility.yul\":988:1017   */\n      tag_181\n      jump\t// in\n    tag_252:\n        /* \"#utility.yul\":983:986   */\n      dup5\n        /* \"#utility.yul\":979:1018   */\n      add\n        /* \"#utility.yul\":972:1018   */\n      swap2\n      pop\n        /* \"#utility.yul\":739:1024   */\n      pop\n        /* \"#utility.yul\":647:1024   */\n      swap3\n      swap2\n      pop\n      pop\n      jump\t// out\n        /* \"#utility.yul\":1030:1343   */\n    tag_21:\n        /* \"#utility.yul\":1143:1147   */\n      0x00\n        /* \"#utility.yul\":1181:1183   */\n      0x20\n        /* \"#utility.yul\":1170:1179   */\n      dup3\n        /* \"#utility.yul\":1166:1184   */\n      add\n        /* \"#utility.yul\":1158:1184   */\n      swap1\n      pop\n        /* \"#utility.yul\":1230:1239   */\n      dup2\n        /* \"#utility.yul\":1224:1228   */\n      dup2\n        /* \"#utility.yul\":1220:1240   */\n      sub\n        /* \"#utility.yul\":1216:1217   */\n      0x00\n        /* \"#utility.yul\":1205:1214   */\n      dup4\n        /* \"#utility.yul\":1201:1218   */\n      add\n        /* \"#utility.yul\":1194:1241   */\n      mstore\n        /* \"#utility.yul\":1258:1336   */\n      tag_254\n        /* \"#utility.yul\":1331:1335   */\n      dup2\n        /* \"#utility.yul\":1322:1328   */\n      dup5\n        /* \"#utility.yul\":1258:1336   */\n      tag_182\n      jump\t// in\n    tag_254:\n        /* \"#utility.yul\":1250:1336   */\n      swap1\n      pop\n        /* \"#utility.yul\":1030:1343   */\n      swap3\n      swap2\n      pop\n      pop\n      jump\t// out\n        /* \"#utility.yul\":1349:1424   */\n    tag_183:\n        /* \"#utility.yul\":1382:1388   */\n      0x00\n        /* \"#utility.yul\":1415:1417   */\n      0x40\n        /* \"#utility.yul\":1409:1418   */\n      mload\n        /* \"#utility.yul\":1399:1418   */\n      swap1\n      pop\n        /* \"#utility.yul\":1349:1424   */\n      swap1\n      jump\t// out\n        /* \"#utility.yul\":1430:1547   */\n    tag_184:\n        /* \"#utility.yul\":1539:1540   */\n      0x00\n        /* \"#utility.yul\":1536:1537   */\n      dup1\n        /* \"#utility.yul\":1529:1541   */\n      revert\n        /* \"#utility.yul\":1553:1670   */\n    tag_185:\n        /* \"#utility.yul\":1662:1663   */\n      0x00\n        /* \"#utility.yul\":1659:1660   */\n      dup1\n        /* \"#utility.yul\":1652:1664   */\n      revert\n        /* \"#utility.yul\":1676:1802   */\n    tag_186:\n        /* \"#utility.yul\":1713:1720   */\n      0x00\n        /* \"#utility.yul\":1753:1795   */\n      0xffffffffffffffffffffffffffffffffffffffff\n        /* \"#utility.yul\":1746:1751   */\n      dup3\n        /* \"#utility.yul\":1742:1796   */\n      and\n        /* \"#utility.yul\":1731:1796   */\n      swap1\n      pop\n        /* \"#utility.yul\":1676:1802   */\n      swap2\n      swap1\n      pop\n      jump\t// out\n        /* \"#utility.yul\":1808:1904   */\n    tag_187:\n        /* \"#utility.yul\":1845:1852   */\n      0x00\n        /* \"#utility.yul\":1874:1898   */\n      tag_260\n        /* \"#utility.yul\":1892:1897   */\n      dup3\n        /* \"#utility.yul\":1874:1898   */\n      tag_186\n      jump\t// in\n    tag_260:\n        /* \"#utility.yul\":1863:1898   */\n      swap1\n      pop\n        /* \"#utility.yul\":1808:1904   */\n      swap2\n      swap1\n      pop\n      jump\t// out\n        /* \"#utility.yul\":1910:2032   */\n    tag_188:\n        /* \"#utility.yul\":1983:2007   */\n      tag_262\n        /* \"#utility.yul\":2001:2006   */\n      dup2\n        /* \"#utility.yul\":1983:2007   */\n      tag_187\n      jump\t// in\n    tag_262:\n        /* \"#utility.yul\":1976:1981   */\n      dup2\n        /* \"#utility.yul\":1973:2008   */\n      eq\n        /* \"#utility.yul\":1963:2026   */\n      tag_263\n      jumpi\n        /* \"#utility.yul\":2022:2023   */\n      0x00\n        /* \"#utility.yul\":2019:2020   */\n      dup1\n        /* \"#utility.yul\":2012:2024   */\n      revert\n        /* \"#utility.yul\":1963:2026   */\n    tag_263:\n        /* \"#utility.yul\":1910:2032   */\n      pop\n      jump\t// out\n        /* \"#utility.yul\":2038:2177   */\n    tag_189:\n        /* \"#utility.yul\":2084:2089   */\n      0x00\n        /* \"#utility.yul\":2122:2128   */\n      dup2\n        /* \"#utility.yul\":2109:2129   */\n      calldataload\n        /* \"#utility.yul\":2100:2129   */\n      swap1\n      pop\n        /* \"#utility.yul\":2138:2171   */\n      tag_265\n        /* \"#utility.yul\":2165:2170   */\n      dup2\n        /* \"#utility.yul\":2138:2171   */\n      tag_188\n      jump\t// in\n    tag_265:\n        /* \"#utility.yul\":2038:2177   */\n      swap3\n      swap2\n      pop\n      pop\n      jump\t// out\n        /* \"#utility.yul\":2183:2260   */\n    tag_190:\n        /* \"#utility.yul\":2220:2227   */\n      0x00\n        /* \"#utility.yul\":2249:2254   */\n      dup2\n        /* \"#utility.yul\":2238:2254   */\n      swap1\n      pop\n        /* \"#utility.yul\":2183:2260   */\n      swap2\n      swap1\n      pop\n      jump\t// out\n        /* \"#utility.yul\":2266:2388   */\n    tag_191:\n        /* \"#utility.yul\":2339:2363   */\n      tag_268\n        /* \"#utility.yul\":2357:2362   */\n      dup2\n        /* \"#utility.yul\":2339:2363   */\n      tag_190\n      jump\t// in\n    tag_268:\n        /* \"#utility.yul\":2332:2337   */\n      dup2\n        /* \"#utility.yul\":2329:2364   */\n      eq\n        /* \"#utility.yul\":2319:2382   */\n      tag_269\n      jumpi\n        /* \"#utility.yul\":2378:2379   */\n      0x00\n        /* \"#utility.yul\":2375:2376   */\n      dup1\n        /* \"#utility.yul\":2368:2380   */\n      revert\n        /* \"#utility.yul\":2319:2382   */\n    tag_269:\n        /* \"#utility.yul\":2266:2388   */\n      pop\n      jump\t// out\n        /* \"#utility.yul\":2394:2533   */\n    tag_192:\n        /* \"#utility.yul\":2440:2445   */\n      0x00\n        /* \"#utility.yul\":2478:2484   */\n      dup2\n        /* \"#utility.yul\":2465:2485   */\n      calldataload\n        /* \"#utility.yul\":2456:2485   */\n      swap1\n      pop\n        /* \"#utility.yul\":2494:2527   */\n      tag_271\n        /* \"#utility.yul\":2521:2526   */\n      dup2\n        /* \"#utility.yul\":2494:2527   */\n      tag_191\n      jump\t// in\n    tag_271:\n        /* \"#utility.yul\":2394:2533   */\n      swap3\n      swap2\n      pop\n      pop\n      jump\t// out\n        /* \"#utility.yul\":2539:3013   */\n    tag_24:\n        /* \"#utility.yul\":2607:2613   */\n      0x00\n        /* \"#utility.yul\":2615:2621   */\n      dup1\n        /* \"#utility.yul\":2664:2666   */\n      0x40\n        /* \"#utility.yul\":2652:2661   */\n      dup4\n        /* \"#utility.yul\":2643:2650   */\n      dup6\n        /* \"#utility.yul\":2639:2662   */\n      sub\n        /* \"#utility.yul\":2635:2667   */\n      slt\n        /* \"#utility.yul\":2632:2751   */\n      iszero\n      tag_273\n      jumpi\n        /* \"#utility.yul\":2670:2749   */\n      tag_274\n      tag_184\n      jump\t// in\n    tag_274:\n        /* \"#utility.yul\":2632:2751   */\n    tag_273:\n        /* \"#utility.yul\":2790:2791   */\n      0x00\n        /* \"#utility.yul\":2815:2868   */\n      tag_275\n        /* \"#utility.yul\":2860:2867   */\n      dup6\n        /* \"#utility.yul\":2851:2857   */\n      dup3\n        /* \"#utility.yul\":2840:2849   */\n      dup7\n        /* \"#utility.yul\":2836:2858   */\n      add\n        /* \"#utility.yul\":2815:2868   */\n      tag_189\n      jump\t// in\n    tag_275:\n        /* \"#utility.yul\":2805:2868   */\n      swap3\n      pop\n        /* \"#utility.yul\":2761:2878   */\n      pop\n        /* \"#utility.yul\":2917:2919   */\n      0x20\n        /* \"#utility.yul\":2943:2996   */\n      tag_276\n        /* \"#utility.yul\":2988:2995   */\n      dup6\n        /* \"#utility.yul\":2979:2985   */\n      dup3\n        /* \"#utility.yul\":2968:2977   */\n      dup7\n        /* \"#utility.yul\":2964:2986   */\n      add\n        /* \"#utility.yul\":2943:2996   */\n      tag_192\n      jump\t// in\n    tag_276:\n        /* \"#utility.yul\":2933:2996   */\n      swap2\n      pop\n        /* \"#utility.yul\":2888:3006   */\n      pop\n        /* \"#utility.yul\":2539:3013   */\n      swap3\n      pop\n      swap3\n      swap1\n      pop\n      jump\t// out\n        /* \"#utility.yul\":3019:3109   */\n    tag_193:\n        /* \"#utility.yul\":3053:3060   */\n      0x00\n        /* \"#utility.yul\":3096:3101   */\n      dup2\n        /* \"#utility.yul\":3089:3102   */\n      iszero\n        /* \"#utility.yul\":3082:3103   */\n      iszero\n        /* \"#utility.yul\":3071:3103   */\n      swap1\n      pop\n        /* \"#utility.yul\":3019:3109   */\n      swap2\n      swap1\n      pop\n      jump\t// out\n        /* \"#utility.yul\":3115:3224   */\n    tag_194:\n        /* \"#utility.yul\":3196:3217   */\n      tag_279\n        /* \"#utility.yul\":3211:3216   */\n      dup2\n        /* \"#utility.yul\":3196:3217   */\n      tag_193\n      jump\t// in\n    tag_279:\n        /* \"#utility.yul\":3191:3194   */\n      dup3\n        /* \"#utility.yul\":3184:3218   */\n      mstore\n        /* \"#utility.yul\":3115:3224   */\n      pop\n      pop\n      jump\t// out\n        /* \"#utility.yul\":3230:3440   */\n    tag_27:\n        /* \"#utility.yul\":3317:3321   */\n      0x00\n        /* \"#utility.yul\":3355:3357   */\n      0x20\n        /* \"#utility.yul\":3344:3353   */\n      dup3\n        /* \"#utility.yul\":3340:3358   */\n      add\n        /* \"#utility.yul\":3332:3358   */\n      swap1\n      pop\n        /* \"#utility.yul\":3368:3433   */\n      tag_281\n        /* \"#utility.yul\":3430:3431   */\n      0x00\n        /* \"#utility.yul\":3419:3428   */\n      dup4\n        /* \"#utility.yul\":3415:3432   */\n      add\n        /* \"#utility.yul\":3406:3412   */\n      dup5\n        /* \"#utility.yul\":3368:3433   */\n      tag_194\n      jump\t// in\n    tag_281:\n        /* \"#utility.yul\":3230:3440   */\n      swap3\n      swap2\n      pop\n      pop\n      jump\t// out\n        /* \"#utility.yul\":3446:3564   */\n    tag_195:\n        /* \"#utility.yul\":3533:3557   */\n      tag_283\n        /* \"#utility.yul\":3551:3556   */\n      dup2\n        /* \"#utility.yul\":3533:3557   */\n      tag_190\n      jump\t// in\n    tag_283:\n        /* \"#utility.yul\":3528:3531   */\n      dup3\n        /* \"#utility.yul\":3521:3558   */\n      mstore\n        /* \"#utility.yul\":3446:3564   */\n      pop\n      pop\n      jump\t// out\n        /* \"#utility.yul\":3570:3792   */\n    tag_31:\n        /* \"#utility.yul\":3663:3667   */\n      0x00\n        /* \"#utility.yul\":3701:3703   */\n      0x20\n        /* \"#utility.yul\":3690:3699   */\n      dup3\n        /* \"#utility.yul\":3686:3704   */\n      add\n        /* \"#utility.yul\":3678:3704   */\n      swap1\n      pop\n        /* \"#utility.yul\":3714:3785   */\n      tag_285\n        /* \"#utility.yul\":3782:3783   */\n      0x00\n        /* \"#utility.yul\":3771:3780   */\n      dup4\n        /* \"#utility.yul\":3767:3784   */\n      add\n        /* \"#utility.yul\":3758:3764   */\n      dup5\n        /* \"#utility.yul\":3714:3785   */\n      tag_195\n      jump\t// in\n    tag_285:\n        /* \"#utility.yul\":3570:3792   */\n      swap3\n      swap2\n      pop\n      pop\n      jump\t// out\n        /* \"#utility.yul\":3798:4417   */\n    tag_34:\n        /* \"#utility.yul\":3875:3881   */\n      0x00\n        /* \"#utility.yul\":3883:3889   */\n      dup1\n        /* \"#utility.yul\":3891:3897   */\n      0x00\n        /* \"#utility.yul\":3940:3942   */\n      0x60\n        /* \"#utility.yul\":3928:3937   */\n      dup5\n        /* \"#utility.yul\":3919:3926   */\n      dup7\n        /* \"#utility.yul\":3915:3938   */\n      sub\n        /* \"#utility.yul\":3911:3943   */\n      slt\n        /* \"#utility.yul\":3908:4027   */\n      iszero\n      tag_287\n      jumpi\n        /* \"#utility.yul\":3946:4025   */\n      tag_288\n      tag_184\n      jump\t// in\n    tag_288:\n        /* \"#utility.yul\":3908:4027   */\n    tag_287:\n        /* \"#utility.yul\":4066:4067   */\n      0x00\n        /* \"#utility.yul\":4091:4144   */\n      tag_289\n        /* \"#utility.yul\":4136:4143   */\n      dup7\n        /* \"#utility.yul\":4127:4133   */\n      dup3\n        /* \"#utility.yul\":4116:4125   */\n      dup8\n        /* \"#utility.yul\":4112:4134   */\n      add\n        /* \"#utility.yul\":4091:4144   */\n      tag_189\n      jump\t// in\n    tag_289:\n        /* \"#utility.yul\":4081:4144   */\n      swap4\n      pop\n        /* \"#utility.yul\":4037:4154   */\n      pop\n        /* \"#utility.yul\":4193:4195   */\n      0x20\n        /* \"#utility.yul\":4219:4272   */\n      tag_290\n        /* \"#utility.yul\":4264:4271   */\n      dup7\n        /* \"#utility.yul\":4255:4261   */\n      dup3\n        /* \"#utility.yul\":4244:4253   */\n      dup8\n        /* \"#utility.yul\":4240:4262   */\n      add\n        /* \"#utility.yul\":4219:4272   */\n      tag_189\n      jump\t// in\n    tag_290:\n        /* \"#utility.yul\":4209:4272   */\n      swap3\n      pop\n        /* \"#utility.yul\":4164:4282   */\n      pop\n        /* \"#utility.yul\":4321:4323   */\n      0x40\n        /* \"#utility.yul\":4347:4400   */\n      tag_291\n        /* \"#utility.yul\":4392:4399   */\n      dup7\n        /* \"#utility.yul\":4383:4389   */\n      dup3\n        /* \"#utility.yul\":4372:4381   */\n      dup8\n        /* \"#utility.yul\":4368:4390   */\n      add\n        /* \"#utility.yul\":4347:4400   */\n      tag_192\n      jump\t// in\n    tag_291:\n        /* \"#utility.yul\":4337:4400   */\n      swap2\n      pop\n        /* \"#utility.yul\":4292:4410   */\n      pop\n        /* \"#utility.yul\":3798:4417   */\n      swap3\n      pop\n      swap3\n      pop\n      swap3\n      jump\t// out\n        /* \"#utility.yul\":4423:4540   */\n    tag_196:\n        /* \"#utility.yul\":4532:4533   */\n      0x00\n        /* \"#utility.yul\":4529:4530   */\n      dup1\n        /* \"#utility.yul\":4522:4534   */\n      revert\n        /* \"#utility.yul\":4546:4663   */\n    tag_197:\n        /* \"#utility.yul\":4655:4656   */\n      0x00\n        /* \"#utility.yul\":4652:4653   */\n      dup1\n        /* \"#utility.yul\":4645:4657   */\n      revert\n        /* \"#utility.yul\":4669:4849   */\n    tag_198:\n        /* \"#utility.yul\":4717:4794   */\n      0x4e487b7100000000000000000000000000000000000000000000000000000000\n        /* \"#utility.yul\":4714:4715   */\n      0x00\n        /* \"#utility.yul\":4707:4795   */\n      mstore\n        /* \"#utility.yul\":4814:4818   */\n      0x41\n        /* \"#utility.yul\":4811:4812   */\n      0x04\n        /* \"#utility.yul\":4804:4819   */\n      mstore\n        /* \"#utility.yul\":4838:4842   */\n      0x24\n        /* \"#utility.yul\":4835:4836   */\n      0x00\n        /* \"#utility.yul\":4828:4843   */\n      revert\n        /* \"#utility.yul\":4855:5136   */\n    tag_199:\n        /* \"#utility.yul\":4938:4965   */\n      tag_296\n        /* \"#utility.yul\":4960:4964   */\n      dup3\n        /* \"#utility.yul\":4938:4965   */\n      tag_181\n      jump\t// in\n    tag_296:\n        /* \"#utility.yul\":4930:4936   */\n      dup2\n        /* \"#utility.yul\":4926:4966   */\n      add\n        /* \"#utility.yul\":5068:5074   */\n      dup2\n        /* \"#utility.yul\":5056:5066   */\n      dup2\n        /* \"#utility.yul\":5053:5075   */\n      lt\n        /* \"#utility.yul\":5032:5050   */\n      0xffffffffffffffff\n        /* \"#utility.yul\":5020:5030   */\n      dup3\n        /* \"#utility.yul\":5017:5051   */\n      gt\n        /* \"#utility.yul\":5014:5076   */\n      or\n        /* \"#utility.yul\":5011:5099   */\n      iszero\n      tag_297\n      jumpi\n        /* \"#utility.yul\":5079:5097   */\n      tag_298\n      tag_198\n      jump\t// in\n    tag_298:\n        /* \"#utility.yul\":5011:5099   */\n    tag_297:\n        /* \"#utility.yul\":5119:5129   */\n      dup1\n        /* \"#utility.yul\":5115:5117   */\n      0x40\n        /* \"#utility.yul\":5108:5130   */\n      mstore\n        /* \"#utility.yul\":4898:5136   */\n      pop\n        /* \"#utility.yul\":4855:5136   */\n      pop\n      pop\n      jump\t// out\n        /* \"#utility.yul\":5142:5271   */\n    tag_200:\n        /* \"#utility.yul\":5176:5182   */\n      0x00\n        /* \"#utility.yul\":5203:5223   */\n      tag_300\n      tag_183\n      jump\t// in\n    tag_300:\n        /* \"#utility.yul\":5193:5223   */\n      swap1\n      pop\n        /* \"#utility.yul\":5232:5265   */\n      tag_301\n        /* \"#utility.yul\":5260:5264   */\n      dup3\n        /* \"#utility.yul\":5252:5258   */\n      dup3\n        /* \"#utility.yul\":5232:5265   */\n      tag_199\n      jump\t// in\n    tag_301:\n        /* \"#utility.yul\":5142:5271   */\n      swap2\n      swap1\n      pop\n      jump\t// out\n        /* \"#utility.yul\":5277:5585   */\n    tag_201:\n        /* \"#utility.yul\":5339:5343   */\n      0x00\n        /* \"#utility.yul\":5429:5447   */\n      0xffffffffffffffff\n        /* \"#utility.yul\":5421:5427   */\n      dup3\n        /* \"#utility.yul\":5418:5448   */\n      gt\n        /* \"#utility.yul\":5415:5471   */\n      iszero\n      tag_303\n      jumpi\n        /* \"#utility.yul\":5451:5469   */\n      tag_304\n      tag_198\n      jump\t// in\n    tag_304:\n        /* \"#utility.yul\":5415:5471   */\n    tag_303:\n        /* \"#utility.yul\":5489:5518   */\n      tag_305\n        /* \"#utility.yul\":5511:5517   */\n      dup3\n        /* \"#utility.yul\":5489:5518   */\n      tag_181\n      jump\t// in\n    tag_305:\n        /* \"#utility.yul\":5481:5518   */\n      swap1\n      pop\n        /* \"#utility.yul\":5573:5577   */\n      0x20\n        /* \"#utility.yul\":5567:5571   */\n      dup2\n        /* \"#utility.yul\":5563:5578   */\n      add\n        /* \"#utility.yul\":5555:5578   */\n      swap1\n      pop\n        /* \"#utility.yul\":5277:5585   */\n      swap2\n      swap1\n      pop\n      jump\t// out\n        /* \"#utility.yul\":5591:5737   */\n    tag_202:\n        /* \"#utility.yul\":5688:5694   */\n      dup3\n        /* \"#utility.yul\":5683:5686   */\n      dup2\n        /* \"#utility.yul\":5678:5681   */\n      dup4\n        /* \"#utility.yul\":5665:5695   */\n      calldatacopy\n        /* \"#utility.yul\":5729:5730   */\n      0x00\n        /* \"#utility.yul\":5720:5726   */\n      dup4\n        /* \"#utility.yul\":5715:5718   */\n      dup4\n        /* \"#utility.yul\":5711:5727   */\n      add\n        /* \"#utility.yul\":5704:5731   */\n      mstore\n        /* \"#utility.yul\":5591:5737   */\n      pop\n      pop\n      pop\n      jump\t// out\n        /* \"#utility.yul\":5743:6168   */\n    tag_203:\n        /* \"#utility.yul\":5821:5826   */\n      0x00\n        /* \"#utility.yul\":5846:5912   */\n      tag_308\n        /* \"#utility.yul\":5862:5911   */\n      tag_309\n        /* \"#utility.yul\":5904:5910   */\n      dup5\n        /* \"#utility.yul\":5862:5911   */\n      tag_201\n      jump\t// in\n    tag_309:\n        /* \"#utility.yul\":5846:5912   */\n      tag_200\n      jump\t// in\n    tag_308:\n        /* \"#utility.yul\":5837:5912   */\n      swap1\n      pop\n        /* \"#utility.yul\":5935:5941   */\n      dup3\n        /* \"#utility.yul\":5928:5933   */\n      dup2\n        /* \"#utility.yul\":5921:5942   */\n      mstore\n        /* \"#utility.yul\":5973:5977   */\n      0x20\n        /* \"#utility.yul\":5966:5971   */\n      dup2\n        /* \"#utility.yul\":5962:5978   */\n      add\n        /* \"#utility.yul\":6011:6014   */\n      dup5\n        /* \"#utility.yul\":6002:6008   */\n      dup5\n        /* \"#utility.yul\":5997:6000   */\n      dup5\n        /* \"#utility.yul\":5993:6009   */\n      add\n        /* \"#utility.yul\":5990:6015   */\n      gt\n        /* \"#utility.yul\":5987:6099   */\n      iszero\n      tag_310\n      jumpi\n        /* \"#utility.yul\":6018:6097   */\n      tag_311\n      tag_197\n      jump\t// in\n    tag_311:\n        /* \"#utility.yul\":5987:6099   */\n    tag_310:\n        /* \"#utility.yul\":6108:6162   */\n      tag_312\n        /* \"#utility.yul\":6155:6161   */\n      dup5\n        /* \"#utility.yul\":6150:6153   */\n      dup3\n        /* \"#utility.yul\":6145:6148   */\n      dup6\n        /* \"#utility.yul\":6108:6162   */\n      tag_202\n      jump\t// in\n    tag_312:\n        /* \"#utility.yul\":5827:6168   */\n      pop\n        /* \"#utility.yul\":5743:6168   */\n      swap4\n      swap3\n      pop\n      pop\n      pop\n      jump\t// out\n        /* \"#utility.yul\":6188:6528   */\n    tag_204:\n        /* \"#utility.yul\":6244:6249   */\n      0x00\n        /* \"#utility.yul\":6293:6296   */\n      dup3\n        /* \"#utility.yul\":6286:6290   */\n      0x1f\n        /* \"#utility.yul\":6278:6284   */\n      dup4\n        /* \"#utility.yul\":6274:6291   */\n      add\n        /* \"#utility.yul\":6270:6297   */\n      slt\n        /* \"#utility.yul\":6260:6382   */\n      tag_314\n      jumpi\n        /* \"#utility.yul\":6301:6380   */\n      tag_315\n      tag_196\n      jump\t// in\n    tag_315:\n        /* \"#utility.yul\":6260:6382   */\n    tag_314:\n        /* \"#utility.yul\":6418:6424   */\n      dup2\n        /* \"#utility.yul\":6405:6425   */\n      calldataload\n        /* \"#utility.yul\":6443:6522   */\n      tag_316\n        /* \"#utility.yul\":6518:6521   */\n      dup5\n        /* \"#utility.yul\":6510:6516   */\n      dup3\n        /* \"#utility.yul\":6503:6507   */\n      0x20\n        /* \"#utility.yul\":6495:6501   */\n      dup7\n        /* \"#utility.yul\":6491:6508   */\n      add\n        /* \"#utility.yul\":6443:6522   */\n      tag_203\n      jump\t// in\n    tag_316:\n        /* \"#utility.yul\":6434:6522   */\n      swap2\n      pop\n        /* \"#utility.yul\":6250:6528   */\n      pop\n        /* \"#utility.yul\":6188:6528   */\n      swap3\n      swap2\n      pop\n      pop\n      jump\t// out\n        /* \"#utility.yul\":6534:7368   */\n    tag_39:\n        /* \"#utility.yul\":6622:6628   */\n      0x00\n        /* \"#utility.yul\":6630:6636   */\n      dup1\n        /* \"#utility.yul\":6679:6681   */\n      0x40\n        /* \"#utility.yul\":6667:6676   */\n      dup4\n        /* \"#utility.yul\":6658:6665   */\n      dup6\n        /* \"#utility.yul\":6654:6677   */\n      sub\n        /* \"#utility.yul\":6650:6682   */\n      slt\n        /* \"#utility.yul\":6647:6766   */\n      iszero\n      tag_318\n      jumpi\n        /* \"#utility.yul\":6685:6764   */\n      tag_319\n      tag_184\n      jump\t// in\n    tag_319:\n        /* \"#utility.yul\":6647:6766   */\n    tag_318:\n        /* \"#utility.yul\":6833:6834   */\n      0x00\n        /* \"#utility.yul\":6822:6831   */\n      dup4\n        /* \"#utility.yul\":6818:6835   */\n      add\n        /* \"#utility.yul\":6805:6836   */\n      calldataload\n        /* \"#utility.yul\":6863:6881   */\n      0xffffffffffffffff\n        /* \"#utility.yul\":6855:6861   */\n      dup2\n        /* \"#utility.yul\":6852:6882   */\n      gt\n        /* \"#utility.yul\":6849:6966   */\n      iszero\n      tag_320\n      jumpi\n        /* \"#utility.yul\":6885:6964   */\n      tag_321\n      tag_185\n      jump\t// in\n    tag_321:\n        /* \"#utility.yul\":6849:6966   */\n    tag_320:\n        /* \"#utility.yul\":6990:7053   */\n      tag_322\n        /* \"#utility.yul\":7045:7052   */\n      dup6\n        /* \"#utility.yul\":7036:7042   */\n      dup3\n        /* \"#utility.yul\":7025:7034   */\n      dup7\n        /* \"#utility.yul\":7021:7043   */\n      add\n        /* \"#utility.yul\":6990:7053   */\n      tag_204\n      jump\t// in\n    tag_322:\n        /* \"#utility.yul\":6980:7053   */\n      swap3\n      pop\n        /* \"#utility.yul\":6776:7063   */\n      pop\n        /* \"#utility.yul\":7130:7132   */\n      0x20\n        /* \"#utility.yul\":7119:7128   */\n      dup4\n        /* \"#utility.yul\":7115:7133   */\n      add\n        /* \"#utility.yul\":7102:7134   */\n      calldataload\n        /* \"#utility.yul\":7161:7179   */\n      0xffffffffffffffff\n        /* \"#utility.yul\":7153:7159   */\n      dup2\n        /* \"#utility.yul\":7150:7180   */\n      gt\n        /* \"#utility.yul\":7147:7264   */\n      iszero\n      tag_323\n      jumpi\n        /* \"#utility.yul\":7183:7262   */\n      tag_324\n      tag_185\n      jump\t// in\n    tag_324:\n        /* \"#utility.yul\":7147:7264   */\n    tag_323:\n        /* \"#utility.yul\":7288:7351   */\n      tag_325\n        /* \"#utility.yul\":7343:7350   */\n      dup6\n        /* \"#utility.yul\":7334:7340   */\n      dup3\n        /* \"#utility.yul\":7323:7332   */\n      dup7\n        /* \"#utility.yul\":7319:7341   */\n      add\n        /* \"#utility.yul\":7288:7351   */\n      tag_204\n      jump\t// in\n    tag_325:\n        /* \"#utility.yul\":7278:7351   */\n      swap2\n      pop\n        /* \"#utility.yul\":7073:7361   */\n      pop\n        /* \"#utility.yul\":6534:7368   */\n      swap3\n      pop\n      swap3\n      swap1\n      pop\n      jump\t// out\n        /* \"#utility.yul\":7374:7460   */\n    tag_205:\n        /* \"#utility.yul\":7409:7416   */\n      0x00\n        /* \"#utility.yul\":7449:7453   */\n      0xff\n        /* \"#utility.yul\":7442:7447   */\n      dup3\n        /* \"#utility.yul\":7438:7454   */\n      and\n        /* \"#utility.yul\":7427:7454   */\n      swap1\n      pop\n        /* \"#utility.yul\":7374:7460   */\n      swap2\n      swap1\n      pop\n      jump\t// out\n        /* \"#utility.yul\":7466:7578   */\n    tag_206:\n        /* \"#utility.yul\":7549:7571   */\n      tag_328\n        /* \"#utility.yul\":7565:7570   */\n      dup2\n        /* \"#utility.yul\":7549:7571   */\n      tag_205\n      jump\t// in\n    tag_328:\n        /* \"#utility.yul\":7544:7547   */\n      dup3\n        /* \"#utility.yul\":7537:7572   */\n      mstore\n        /* \"#utility.yul\":7466:7578   */\n      pop\n      pop\n      jump\t// out\n        /* \"#utility.yul\":7584:7798   */\n    tag_44:\n        /* \"#utility.yul\":7673:7677   */\n      0x00\n        /* \"#utility.yul\":7711:7713   */\n      0x20\n        /* \"#utility.yul\":7700:7709   */\n      dup3\n        /* \"#utility.yul\":7696:7714   */\n      add\n        /* \"#utility.yul\":7688:7714   */\n      swap1\n      pop\n        /* \"#utility.yul\":7724:7791   */\n      tag_330\n        /* \"#utility.yul\":7788:7789   */\n      0x00\n        /* \"#utility.yul\":7777:7786   */\n      dup4\n        /* \"#utility.yul\":7773:7790   */\n      add\n        /* \"#utility.yul\":7764:7770   */\n      dup5\n        /* \"#utility.yul\":7724:7791   */\n      tag_206\n      jump\t// in\n    tag_330:\n        /* \"#utility.yul\":7584:7798   */\n      swap3\n      swap2\n      pop\n      pop\n      jump\t// out\n        /* \"#utility.yul\":7804:8133   */\n    tag_51:\n        /* \"#utility.yul\":7863:7869   */\n      0x00\n        /* \"#utility.yul\":7912:7914   */\n      0x20\n        /* \"#utility.yul\":7900:7909   */\n      dup3\n        /* \"#utility.yul\":7891:7898   */\n      dup5\n        /* \"#utility.yul\":7887:7910   */\n      sub\n        /* \"#utility.yul\":7883:7915   */\n      slt\n        /* \"#utility.yul\":7880:7999   */\n      iszero\n      tag_332\n      jumpi\n        /* \"#utility.yul\":7918:7997   */\n      tag_333\n      tag_184\n      jump\t// in\n    tag_333:\n        /* \"#utility.yul\":7880:7999   */\n    tag_332:\n        /* \"#utility.yul\":8038:8039   */\n      0x00\n        /* \"#utility.yul\":8063:8116   */\n      tag_334\n        /* \"#utility.yul\":8108:8115   */\n      dup5\n        /* \"#utility.yul\":8099:8105   */\n      dup3\n        /* \"#utility.yul\":8088:8097   */\n      dup6\n        /* \"#utility.yul\":8084:8106   */\n      add\n        /* \"#utility.yul\":8063:8116   */\n      tag_189\n      jump\t// in\n    tag_334:\n        /* \"#utility.yul\":8053:8116   */\n      swap2\n      pop\n        /* \"#utility.yul\":8009:8126   */\n      pop\n        /* \"#utility.yul\":7804:8133   */\n      swap3\n      swap2\n      pop\n      pop\n      jump\t// out\n        /* \"#utility.yul\":8139:8468   */\n    tag_67:\n        /* \"#utility.yul\":8198:8204   */\n      0x00\n        /* \"#utility.yul\":8247:8249   */\n      0x20\n        /* \"#utility.yul\":8235:8244   */\n      dup3\n        /* \"#utility.yul\":8226:8233   */\n      dup5\n        /* \"#utility.yul\":8222:8245   */\n      sub\n        /* \"#utility.yul\":8218:8250   */\n      slt\n        /* \"#utility.yul\":8215:8334   */\n      iszero\n      tag_336\n      jumpi\n        /* \"#utility.yul\":8253:8332   */\n      tag_337\n      tag_184\n      jump\t// in\n    tag_337:\n        /* \"#utility.yul\":8215:8334   */\n    tag_336:\n        /* \"#utility.yul\":8373:8374   */\n      0x00\n        /* \"#utility.yul\":8398:8451   */\n      tag_338\n        /* \"#utility.yul\":8443:8450   */\n      dup5\n        /* \"#utility.yul\":8434:8440   */\n      dup3\n        /* \"#utility.yul\":8423:8432   */\n      dup6\n        /* \"#utility.yul\":8419:8441   */\n      add\n        /* \"#utility.yul\":8398:8451   */\n      tag_192\n      jump\t// in\n    tag_338:\n        /* \"#utility.yul\":8388:8451   */\n      swap2\n      pop\n        /* \"#utility.yul\":8344:8461   */\n      pop\n        /* \"#utility.yul\":8139:8468   */\n      swap3\n      swap2\n      pop\n      pop\n      jump\t// out\n        /* \"#utility.yul\":8474:8988   */\n    tag_70:\n        /* \"#utility.yul\":8635:8639   */\n      0x00\n        /* \"#utility.yul\":8673:8675   */\n      0x40\n        /* \"#utility.yul\":8662:8671   */\n      dup3\n        /* \"#utility.yul\":8658:8676   */\n      add\n        /* \"#utility.yul\":8650:8676   */\n      swap1\n      pop\n        /* \"#utility.yul\":8722:8731   */\n      dup2\n        /* \"#utility.yul\":8716:8720   */\n      dup2\n        /* \"#utility.yul\":8712:8732   */\n      sub\n        /* \"#utility.yul\":8708:8709   */\n      0x00\n        /* \"#utility.yul\":8697:8706   */\n      dup4\n        /* \"#utility.yul\":8693:8710   */\n      add\n        /* \"#utility.yul\":8686:8733   */\n      mstore\n        /* \"#utility.yul\":8750:8828   */\n      tag_340\n        /* \"#utility.yul\":8823:8827   */\n      dup2\n        /* \"#utility.yul\":8814:8820   */\n      dup6\n        /* \"#utility.yul\":8750:8828   */\n      tag_182\n      jump\t// in\n    tag_340:\n        /* \"#utility.yul\":8742:8828   */\n      swap1\n      pop\n        /* \"#utility.yul\":8875:8884   */\n      dup2\n        /* \"#utility.yul\":8869:8873   */\n      dup2\n        /* \"#utility.yul\":8865:8885   */\n      sub\n        /* \"#utility.yul\":8860:8862   */\n      0x20\n        /* \"#utility.yul\":8849:8858   */\n      dup4\n        /* \"#utility.yul\":8845:8863   */\n      add\n        /* \"#utility.yul\":8838:8886   */\n      mstore\n        /* \"#utility.yul\":8903:8981   */\n      tag_341\n        /* \"#utility.yul\":8976:8980   */\n      dup2\n        /* \"#utility.yul\":8967:8973   */\n      dup5\n        /* \"#utility.yul\":8903:8981   */\n      tag_182\n      jump\t// in\n    tag_341:\n        /* \"#utility.yul\":8895:8981   */\n      swap1\n      pop\n        /* \"#utility.yul\":8474:8988   */\n      swap4\n      swap3\n      pop\n      pop\n      pop\n      jump\t// out\n        /* \"#utility.yul\":8994:9468   */\n    tag_73:\n        /* \"#utility.yul\":9062:9068   */\n      0x00\n        /* \"#utility.yul\":9070:9076   */\n      dup1\n        /* \"#utility.yul\":9119:9121   */\n      0x40\n        /* \"#utility.yul\":9107:9116   */\n      dup4\n        /* \"#utility.yul\":9098:9105   */\n      dup6\n        /* \"#utility.yul\":9094:9117   */\n      sub\n        /* \"#utility.yul\":9090:9122   */\n      slt\n        /* \"#utility.yul\":9087:9206   */\n      iszero\n      tag_343\n      jumpi\n        /* \"#utility.yul\":9125:9204   */\n      tag_344\n      tag_184\n      jump\t// in\n    tag_344:\n        /* \"#utility.yul\":9087:9206   */\n    tag_343:\n        /* \"#utility.yul\":9245:9246   */\n      0x00\n        /* \"#utility.yul\":9270:9323   */\n      tag_345\n        /* \"#utility.yul\":9315:9322   */\n      dup6\n        /* \"#utility.yul\":9306:9312   */\n      dup3\n        /* \"#utility.yul\":9295:9304   */\n      dup7\n        /* \"#utility.yul\":9291:9313   */\n      add\n        /* \"#utility.yul\":9270:9323   */\n      tag_189\n      jump\t// in\n    tag_345:\n        /* \"#utility.yul\":9260:9323   */\n      swap3\n      pop\n        /* \"#utility.yul\":9216:9333   */\n      pop\n        /* \"#utility.yul\":9372:9374   */\n      0x20\n        /* \"#utility.yul\":9398:9451   */\n      tag_346\n        /* \"#utility.yul\":9443:9450   */\n      dup6\n        /* \"#utility.yul\":9434:9440   */\n      dup3\n        /* \"#utility.yul\":9423:9432   */\n      dup7\n        /* \"#utility.yul\":9419:9441   */\n      add\n        /* \"#utility.yul\":9398:9451   */\n      tag_189\n      jump\t// in\n    tag_346:\n        /* \"#utility.yul\":9388:9451   */\n      swap2\n      pop\n        /* \"#utility.yul\":9343:9461   */\n      pop\n        /* \"#utility.yul\":8994:9468   */\n      swap3\n      pop\n      swap3\n      swap1\n      pop\n      jump\t// out\n        /* \"#utility.yul\":9474:9654   */\n    tag_207:\n        /* \"#utility.yul\":9522:9599   */\n      0x4e487b7100000000000000000000000000000000000000000000000000000000\n        /* \"#utility.yul\":9519:9520   */\n      0x00\n        /* \"#utility.yul\":9512:9600   */\n      mstore\n        /* \"#utility.yul\":9619:9623   */\n      0x22\n        /* \"#utility.yul\":9616:9617   */\n      0x04\n        /* \"#utility.yul\":9609:9624   */\n      mstore\n        /* \"#utility.yul\":9643:9647   */\n      0x24\n        /* \"#utility.yul\":9640:9641   */\n      0x00\n        /* \"#utility.yul\":9633:9648   */\n      revert\n        /* \"#utility.yul\":9660:9980   */\n    tag_78:\n        /* \"#utility.yul\":9704:9710   */\n      0x00\n        /* \"#utility.yul\":9741:9742   */\n      0x02\n        /* \"#utility.yul\":9735:9739   */\n      dup3\n        /* \"#utility.yul\":9731:9743   */\n      div\n        /* \"#utility.yul\":9721:9743   */\n      swap1\n      pop\n        /* \"#utility.yul\":9788:9789   */\n      0x01\n        /* \"#utility.yul\":9782:9786   */\n      dup3\n        /* \"#utility.yul\":9778:9790   */\n      and\n        /* \"#utility.yul\":9809:9827   */\n      dup1\n        /* \"#utility.yul\":9799:9880   */\n      tag_349\n      jumpi\n        /* \"#utility.yul\":9865:9869   */\n      0x7f\n        /* \"#utility.yul\":9857:9863   */\n      dup3\n        /* \"#utility.yul\":9853:9870   */\n      and\n        /* \"#utility.yul\":9843:9870   */\n      swap2\n      pop\n        /* \"#utility.yul\":9799:9880   */\n    tag_349:\n        /* \"#utility.yul\":9927:9929   */\n      0x20\n        /* \"#utility.yul\":9919:9925   */\n      dup3\n        /* \"#utility.yul\":9916:9930   */\n      lt\n        /* \"#utility.yul\":9896:9914   */\n      dup2\n        /* \"#utility.yul\":9893:9931   */\n      sub\n        /* \"#utility.yul\":9890:9974   */\n      tag_350\n      jumpi\n        /* \"#utility.yul\":9946:9964   */\n      tag_351\n      tag_207\n      jump\t// in\n    tag_351:\n        /* \"#utility.yul\":9890:9974   */\n    tag_350:\n        /* \"#utility.yul\":9711:9980   */\n      pop\n        /* \"#utility.yul\":9660:9980   */\n      swap2\n      swap1\n      pop\n      jump\t// out\n        /* \"#utility.yul\":9986:10167   */\n    tag_208:\n        /* \"#utility.yul\":10126:10159   */\n      0x4d75737420686f6c6420544e5420746f206372656174652061204e6f74652e00\n        /* \"#utility.yul\":10122:10123   */\n      0x00\n        /* \"#utility.yul\":10114:10120   */\n      dup3\n        /* \"#utility.yul\":10110:10124   */\n      add\n        /* \"#utility.yul\":10103:10160   */\n      mstore\n        /* \"#utility.yul\":9986:10167   */\n      pop\n      jump\t// out\n        /* \"#utility.yul\":10173:10539   */\n    tag_209:\n        /* \"#utility.yul\":10315:10318   */\n      0x00\n        /* \"#utility.yul\":10336:10403   */\n      tag_354\n        /* \"#utility.yul\":10400:10402   */\n      0x1f\n        /* \"#utility.yul\":10395:10398   */\n      dup4\n        /* \"#utility.yul\":10336:10403   */\n      tag_179\n      jump\t// in\n    tag_354:\n        /* \"#utility.yul\":10329:10403   */\n      swap2\n      pop\n        /* \"#utility.yul\":10412:10505   */\n      tag_355\n        /* \"#utility.yul\":10501:10504   */\n      dup3\n        /* \"#utility.yul\":10412:10505   */\n      tag_208\n      jump\t// in\n    tag_355:\n        /* \"#utility.yul\":10530:10532   */\n      0x20\n        /* \"#utility.yul\":10525:10528   */\n      dup3\n        /* \"#utility.yul\":10521:10533   */\n      add\n        /* \"#utility.yul\":10514:10533   */\n      swap1\n      pop\n        /* \"#utility.yul\":10173:10539   */\n      swap2\n      swap1\n      pop\n      jump\t// out\n        /* \"#utility.yul\":10545:10964   */\n    tag_99:\n        /* \"#utility.yul\":10711:10715   */\n      0x00\n        /* \"#utility.yul\":10749:10751   */\n      0x20\n        /* \"#utility.yul\":10738:10747   */\n      dup3\n        /* \"#utility.yul\":10734:10752   */\n      add\n        /* \"#utility.yul\":10726:10752   */\n      swap1\n      pop\n        /* \"#utility.yul\":10798:10807   */\n      dup2\n        /* \"#utility.yul\":10792:10796   */\n      dup2\n        /* \"#utility.yul\":10788:10808   */\n      sub\n        /* \"#utility.yul\":10784:10785   */\n      0x00\n        /* \"#utility.yul\":10773:10782   */\n      dup4\n        /* \"#utility.yul\":10769:10786   */\n      add\n        /* \"#utility.yul\":10762:10809   */\n      mstore\n        /* \"#utility.yul\":10826:10957   */\n      tag_357\n        /* \"#utility.yul\":10952:10956   */\n      dup2\n        /* \"#utility.yul\":10826:10957   */\n      tag_209\n      jump\t// in\n    tag_357:\n        /* \"#utility.yul\":10818:10957   */\n      swap1\n      pop\n        /* \"#utility.yul\":10545:10964   */\n      swap2\n      swap1\n      pop\n      jump\t// out\n        /* \"#utility.yul\":10970:11111   */\n    tag_210:\n        /* \"#utility.yul\":11019:11023   */\n      0x00\n        /* \"#utility.yul\":11042:11045   */\n      dup2\n        /* \"#utility.yul\":11034:11045   */\n      swap1\n      pop\n        /* \"#utility.yul\":11065:11068   */\n      dup2\n        /* \"#utility.yul\":11062:11063   */\n      0x00\n        /* \"#utility.yul\":11055:11069   */\n      mstore\n        /* \"#utility.yul\":11099:11103   */\n      0x20\n        /* \"#utility.yul\":11096:11097   */\n      0x00\n        /* \"#utility.yul\":11086:11104   */\n      keccak256\n        /* \"#utility.yul\":11078:11104   */\n      swap1\n      pop\n        /* \"#utility.yul\":10970:11111   */\n      swap2\n      swap1\n      pop\n      jump\t// out\n        /* \"#utility.yul\":11117:11210   */\n    tag_211:\n        /* \"#utility.yul\":11154:11160   */\n      0x00\n        /* \"#utility.yul\":11201:11203   */\n      0x20\n        /* \"#utility.yul\":11196:11198   */\n      0x1f\n        /* \"#utility.yul\":11189:11194   */\n      dup4\n        /* \"#utility.yul\":11185:11199   */\n      add\n        /* \"#utility.yul\":11181:11204   */\n      div\n        /* \"#utility.yul\":11171:11204   */\n      swap1\n      pop\n        /* \"#utility.yul\":11117:11210   */\n      swap2\n      swap1\n      pop\n      jump\t// out\n        /* \"#utility.yul\":11216:11323   */\n    tag_212:\n        /* \"#utility.yul\":11260:11268   */\n      0x00\n        /* \"#utility.yul\":11310:11315   */\n      dup3\n        /* \"#utility.yul\":11304:11308   */\n      dup3\n        /* \"#utility.yul\":11300:11316   */\n      shl\n        /* \"#utility.yul\":11279:11316   */\n      swap1\n      pop\n        /* \"#utility.yul\":11216:11323   */\n      swap3\n      swap2\n      pop\n      pop\n      jump\t// out\n        /* \"#utility.yul\":11329:11722   */\n    tag_213:\n        /* \"#utility.yul\":11398:11404   */\n      0x00\n        /* \"#utility.yul\":11448:11449   */\n      0x08\n        /* \"#utility.yul\":11436:11446   */\n      dup4\n        /* \"#utility.yul\":11432:11450   */\n      mul\n        /* \"#utility.yul\":11471:11568   */\n      tag_362\n        /* \"#utility.yul\":11501:11567   */\n      0xffffffffffffffffffffffffffffffffffffffffffffffffffffffffffffffff\n        /* \"#utility.yul\":11490:11499   */\n      dup3\n        /* \"#utility.yul\":11471:11568   */\n      tag_212\n      jump\t// in\n    tag_362:\n        /* \"#utility.yul\":11589:11628   */\n      tag_363\n        /* \"#utility.yul\":11619:11627   */\n      dup7\n        /* \"#utility.yul\":11608:11617   */\n      dup4\n        /* \"#utility.yul\":11589:11628   */\n      tag_212\n      jump\t// in\n    tag_363:\n        /* \"#utility.yul\":11577:11628   */\n      swap6\n      pop\n        /* \"#utility.yul\":11661:11665   */\n      dup1\n        /* \"#utility.yul\":11657:11666   */\n      not\n        /* \"#utility.yul\":11650:11655   */\n      dup5\n        /* \"#utility.yul\":11646:11667   */\n      and\n        /* \"#utility.yul\":11637:11667   */\n      swap4\n      pop\n        /* \"#utility.yul\":11710:11714   */\n      dup1\n        /* \"#utility.yul\":11700:11708   */\n      dup7\n        /* \"#utility.yul\":11696:11715   */\n      and\n        /* \"#utility.yul\":11689:11694   */\n      dup5\n        /* \"#utility.yul\":11686:11716   */\n      or\n        /* \"#utility.yul\":11676:11716   */\n      swap3\n      pop\n        /* \"#utility.yul\":11405:11722   */\n      pop\n      pop\n        /* \"#utility.yul\":11329:11722   */\n      swap4\n      swap3\n      pop\n      pop\n      pop\n      jump\t// out\n        /* \"#utility.yul\":11728:11788   */\n    tag_214:\n        /* \"#utility.yul\":11756:11759   */\n      0x00\n        /* \"#utility.yul\":11777:11782   */\n      dup2\n        /* \"#utility.yul\":11770:11782   */\n      swap1\n      pop\n        /* \"#utility.yul\":11728:11788   */\n      swap2\n      swap1\n      pop\n      jump\t// out\n        /* \"#utility.yul\":11794:11936   */\n    tag_215:\n        /* \"#utility.yul\":11844:11853   */\n      0x00\n        /* \"#utility.yul\":11877:11930   */\n      tag_366\n        /* \"#utility.yul\":11895:11929   */\n      tag_367\n        /* \"#utility.yul\":11904:11928   */\n      tag_368\n        /* \"#utility.yul\":11922:11927   */\n      dup5\n        /* \"#utility.yul\":11904:11928   */\n      tag_190\n      jump\t// in\n    tag_368:\n        /* \"#utility.yul\":11895:11929   */\n      tag_214\n      jump\t// in\n    tag_367:\n        /* \"#utility.yul\":11877:11930   */\n      tag_190\n      jump\t// in\n    tag_366:\n        /* \"#utility.yul\":11864:11930   */\n      swap1\n      pop\n        /* \"#utility.yul\":11794:11936   */\n      swap2\n      swap1\n      pop\n      jump\t// out\n        /* \"#utility.yul\":11942:12017   */\n    tag_216:\n        /* \"#utility.yul\":11985:11988   */\n      0x00\n        /* \"#utility.yul\":12006:12011   */\n      dup2\n        /* \"#utility.yul\":11999:12011   */\n      swap1\n      pop\n        /* \"#utility.yul\":11942:12017   */\n      swap2\n      swap1\n      pop\n      jump\t// out\n        /* \"#utility.yul\":12023:12292   */\n    tag_217:\n        /* \"#utility.yul\":12133:12172   */\n      tag_371\n        /* \"#utility.yul\":12164:12171   */\n      dup4\n        /* \"#utility.yul\":12133:12172   */\n      tag_215\n      jump\t// in\n    tag_371:\n        /* \"#utility.yul\":12194:12285   */\n      tag_372\n        /* \"#utility.yul\":12243:12284   */\n      tag_373\n        /* \"#utility.yul\":12267:12283   */\n      dup3\n        /* \"#utility.yul\":12243:12284   */\n      tag_216\n      jump\t// in\n    tag_373:\n        /* \"#utility.yul\":12235:12241   */\n      dup5\n        /* \"#utility.yul\":12228:12232   */\n      dup5\n        /* \"#utility.yul\":12222:12233   */\n      sload\n        /* \"#utility.yul\":12194:12285   */\n      tag_213\n      jump\t// in\n    tag_372:\n        /* \"#utility.yul\":12188:12192   */\n      dup3\n        /* \"#utility.yul\":12181:12286   */\n      sstore\n        /* \"#utility.yul\":12099:12292   */\n      pop\n        /* \"#utility.yul\":12023:12292   */\n      pop\n      pop\n      pop\n      jump\t// out\n        /* \"#utility.yul\":12298:12371   */\n    tag_218:\n        /* \"#utility.yul\":12343:12346   */\n      0x00\n        /* \"#utility.yul\":12298:12371   */\n      swap1\n      jump\t// out\n        /* \"#utility.yul\":12377:12566   */\n    tag_219:\n        /* \"#utility.yul\":12454:12486   */\n      tag_376\n      tag_218\n      jump\t// in\n    tag_376:\n        /* \"#utility.yul\":12495:12560   */\n      tag_377\n        /* \"#utility.yul\":12553:12559   */\n      dup2\n        /* \"#utility.yul\":12545:12551   */\n      dup5\n        /* \"#utility.yul\":12539:12543   */\n      dup5\n        /* \"#utility.yul\":12495:12560   */\n      tag_217\n      jump\t// in\n    tag_377:\n        /* \"#utility.yul\":12430:12566   */\n      pop\n        /* \"#utility.yul\":12377:12566   */\n      pop\n      pop\n      jump\t// out\n        /* \"#utility.yul\":12572:12758   */\n    tag_220:\n        /* \"#utility.yul\":12632:12752   */\n    tag_379:\n        /* \"#utility.yul\":12649:12652   */\n      dup2\n        /* \"#utility.yul\":12642:12647   */\n      dup2\n        /* \"#utility.yul\":12639:12653   */\n      lt\n        /* \"#utility.yul\":12632:12752   */\n      iszero\n      tag_381\n      jumpi\n        /* \"#utility.yul\":12703:12742   */\n      tag_382\n        /* \"#utility.yul\":12740:12741   */\n      0x00\n        /* \"#utility.yul\":12733:12738   */\n      dup3\n        /* \"#utility.yul\":12703:12742   */\n      tag_219\n      jump\t// in\n    tag_382:\n        /* \"#utility.yul\":12676:12677   */\n      0x01\n        /* \"#utility.yul\":12669:12674   */\n      dup2\n        /* \"#utility.yul\":12665:12678   */\n      add\n        /* \"#utility.yul\":12656:12678   */\n      swap1\n      pop\n        /* \"#utility.yul\":12632:12752   */\n      jump(tag_379)\n    tag_381:\n        /* \"#utility.yul\":12572:12758   */\n      pop\n      pop\n      jump\t// out\n        /* \"#utility.yul\":12764:13307   */\n    tag_221:\n        /* \"#utility.yul\":12865:12867   */\n      0x1f\n        /* \"#utility.yul\":12860:12863   */\n      dup3\n        /* \"#utility.yul\":12857:12868   */\n      gt\n        /* \"#utility.yul\":12854:13300   */\n      iszero\n      tag_384\n      jumpi\n        /* \"#utility.yul\":12899:12937   */\n      tag_385\n        /* \"#utility.yul\":12931:12936   */\n      dup2\n        /* \"#utility.yul\":12899:12937   */\n      tag_210\n      jump\t// in\n    tag_385:\n        /* \"#utility.yul\":12983:13012   */\n      tag_386\n        /* \"#utility.yul\":13001:13011   */\n      dup5\n        /* \"#utility.yul\":12983:13012   */\n      tag_211\n      jump\t// in\n    tag_386:\n        /* \"#utility.yul\":12973:12981   */\n      dup2\n        /* \"#utility.yul\":12969:13013   */\n      add\n        /* \"#utility.yul\":13166:13168   */\n      0x20\n        /* \"#utility.yul\":13154:13164   */\n      dup6\n        /* \"#utility.yul\":13151:13169   */\n      lt\n        /* \"#utility.yul\":13148:13197   */\n      iszero\n      tag_387\n      jumpi\n        /* \"#utility.yul\":13187:13195   */\n      dup2\n        /* \"#utility.yul\":13172:13195   */\n      swap1\n      pop\n        /* \"#utility.yul\":13148:13197   */\n    tag_387:\n        /* \"#utility.yul\":13210:13290   */\n      tag_388\n        /* \"#utility.yul\":13266:13288   */\n      tag_389\n        /* \"#utility.yul\":13284:13287   */\n      dup6\n        /* \"#utility.yul\":13266:13288   */\n      tag_211\n      jump\t// in\n    tag_389:\n        /* \"#utility.yul\":13256:13264   */\n      dup4\n        /* \"#utility.yul\":13252:13289   */\n      add\n        /* \"#utility.yul\":13239:13250   */\n      dup3\n        /* \"#utility.yul\":13210:13290   */\n      tag_220\n      jump\t// in\n    tag_388:\n        /* \"#utility.yul\":12869:13300   */\n      pop\n      pop\n        /* \"#utility.yul\":12854:13300   */\n    tag_384:\n        /* \"#utility.yul\":12764:13307   */\n      pop\n      pop\n      pop\n      jump\t// out\n        /* \"#utility.yul\":13313:13430   */\n    tag_222:\n        /* \"#utility.yul\":13367:13375   */\n      0x00\n        /* \"#utility.yul\":13417:13422   */\n      dup3\n        /* \"#utility.yul\":13411:13415   */\n      dup3\n        /* \"#utility.yul\":13407:13423   */\n      shr\n        /* \"#utility.yul\":13386:13423   */\n      swap1\n      pop\n        /* \"#utility.yul\":13313:13430   */\n      swap3\n      swap2\n      pop\n      pop\n      jump\t// out\n        /* \"#utility.yul\":13436:13605   */\n    tag_223:\n        /* \"#utility.yul\":13480:13486   */\n      0x00\n        /* \"#utility.yul\":13513:13564   */\n      tag_392\n        /* \"#utility.yul\":13561:13562   */\n      0x00\n        /* \"#utility.yul\":13557:13563   */\n      not\n        /* \"#utility.yul\":13549:13554   */\n      dup5\n        /* \"#utility.yul\":13546:13547   */\n      0x08\n        /* \"#utility.yul\":13542:13555   */\n      mul\n        /* \"#utility.yul\":13513:13564   */\n      tag_222\n      jump\t// in\n    tag_392:\n        /* \"#utility.yul\":13509:13565   */\n      not\n        /* \"#utility.yul\":13594:13598   */\n      dup1\n        /* \"#utility.yul\":13588:13592   */\n      dup4\n        /* \"#utility.yul\":13584:13599   */\n      and\n        /* \"#utility.yul\":13574:13599   */\n      swap2\n      pop\n        /* \"#utility.yul\":13487:13605   */\n      pop\n        /* \"#utility.yul\":13436:13605   */\n      swap3\n      swap2\n      pop\n      pop\n      jump\t// out\n        /* \"#utility.yul\":13610:13905   */\n    tag_224:\n        /* \"#utility.yul\":13686:13690   */\n      0x00\n        /* \"#utility.yul\":13832:13861   */\n      tag_394\n        /* \"#utility.yul\":13857:13860   */\n      dup4\n        /* \"#utility.yul\":13851:13855   */\n      dup4\n        /* \"#utility.yul\":13832:13861   */\n      tag_223\n      jump\t// in\n    tag_394:\n        /* \"#utility.yul\":13824:13861   */\n      swap2\n      pop\n        /* \"#utility.yul\":13894:13897   */\n      dup3\n        /* \"#utility.yul\":13891:13892   */\n      0x02\n        /* \"#utility.yul\":13887:13898   */\n      mul\n        /* \"#utility.yul\":13881:13885   */\n      dup3\n        /* \"#utility.yul\":13878:13899   */\n      or\n        /* \"#utility.yul\":13870:13899   */\n      swap1\n      pop\n        /* \"#utility.yul\":13610:13905   */\n      swap3\n      swap2\n      pop\n      pop\n      jump\t// out\n        /* \"#utility.yul\":13910:15305   */\n    tag_105:\n        /* \"#utility.yul\":14027:14064   */\n      tag_396\n        /* \"#utility.yul\":14060:14063   */\n      dup3\n        /* \"#utility.yul\":14027:14064   */\n      tag_178\n      jump\t// in\n    tag_396:\n        /* \"#utility.yul\":14129:14147   */\n      0xffffffffffffffff\n        /* \"#utility.yul\":14121:14127   */\n      dup2\n        /* \"#utility.yul\":14118:14148   */\n      gt\n        /* \"#utility.yul\":14115:14171   */\n      iszero\n      tag_397\n      jumpi\n        /* \"#utility.yul\":14151:14169   */\n      tag_398\n      tag_198\n      jump\t// in\n    tag_398:\n        /* \"#utility.yul\":14115:14171   */\n    tag_397:\n        /* \"#utility.yul\":14195:14233   */\n      tag_399\n        /* \"#utility.yul\":14227:14231   */\n      dup3\n        /* \"#utility.yul\":14221:14232   */\n      sload\n        /* \"#utility.yul\":14195:14233   */\n      tag_78\n      jump\t// in\n    tag_399:\n        /* \"#utility.yul\":14280:14347   */\n      tag_400\n        /* \"#utility.yul\":14340:14346   */\n      dup3\n        /* \"#utility.yul\":14332:14338   */\n      dup3\n        /* \"#utility.yul\":14326:14330   */\n      dup6\n        /* \"#utility.yul\":14280:14347   */\n      tag_221\n      jump\t// in\n    tag_400:\n        /* \"#utility.yul\":14374:14375   */\n      0x00\n        /* \"#utility.yul\":14398:14402   */\n      0x20\n        /* \"#utility.yul\":14385:14402   */\n      swap1\n      pop\n        /* \"#utility.yul\":14430:14432   */\n      0x1f\n        /* \"#utility.yul\":14422:14428   */\n      dup4\n        /* \"#utility.yul\":14419:14433   */\n      gt\n        /* \"#utility.yul\":14447:14448   */\n      0x01\n        /* \"#utility.yul\":14442:15060   */\n      dup2\n      eq\n      tag_402\n      jumpi\n        /* \"#utility.yul\":15104:15105   */\n      0x00\n        /* \"#utility.yul\":15121:15127   */\n      dup5\n        /* \"#utility.yul\":15118:15195   */\n      iszero\n      tag_403\n      jumpi\n        /* \"#utility.yul\":15170:15179   */\n      dup3\n        /* \"#utility.yul\":15165:15168   */\n      dup8\n        /* \"#utility.yul\":15161:15180   */\n      add\n        /* \"#utility.yul\":15155:15181   */\n      mload\n        /* \"#utility.yul\":15146:15181   */\n      swap1\n      pop\n        /* \"#utility.yul\":15118:15195   */\n    tag_403:\n        /* \"#utility.yul\":15221:15288   */\n      tag_404\n        /* \"#utility.yul\":15281:15287   */\n      dup6\n        /* \"#utility.yul\":15274:15279   */\n      dup3\n        /* \"#utility.yul\":15221:15288   */\n      tag_224\n      jump\t// in\n    tag_404:\n        /* \"#utility.yul\":15215:15219   */\n      dup7\n        /* \"#utility.yul\":15208:15289   */\n      sstore\n        /* \"#utility.yul\":15077:15299   */\n      pop\n        /* \"#utility.yul\":14412:15299   */\n      jump(tag_401)\n        /* \"#utility.yul\":14442:15060   */\n    tag_402:\n        /* \"#utility.yul\":14494:14498   */\n      0x1f\n        /* \"#utility.yul\":14490:14499   */\n      not\n        /* \"#utility.yul\":14482:14488   */\n      dup5\n        /* \"#utility.yul\":14478:14500   */\n      and\n        /* \"#utility.yul\":14528:14565   */\n      tag_405\n        /* \"#utility.yul\":14560:14564   */\n      dup7\n        /* \"#utility.yul\":14528:14565   */\n      tag_210\n      jump\t// in\n    tag_405:\n        /* \"#utility.yul\":14587:14588   */\n      0x00\n        /* \"#utility.yul\":14601:14809   */\n    tag_406:\n        /* \"#utility.yul\":14615:14622   */\n      dup3\n        /* \"#utility.yul\":14612:14613   */\n      dup2\n        /* \"#utility.yul\":14609:14623   */\n      lt\n        /* \"#utility.yul\":14601:14809   */\n      iszero\n      tag_408\n      jumpi\n        /* \"#utility.yul\":14694:14703   */\n      dup5\n        /* \"#utility.yul\":14689:14692   */\n      dup10\n        /* \"#utility.yul\":14685:14704   */\n      add\n        /* \"#utility.yul\":14679:14705   */\n      mload\n        /* \"#utility.yul\":14671:14677   */\n      dup3\n        /* \"#utility.yul\":14664:14706   */\n      sstore\n        /* \"#utility.yul\":14745:14746   */\n      0x01\n        /* \"#utility.yul\":14737:14743   */\n      dup3\n        /* \"#utility.yul\":14733:14747   */\n      add\n        /* \"#utility.yul\":14723:14747   */\n      swap2\n      pop\n        /* \"#utility.yul\":14792:14794   */\n      0x20\n        /* \"#utility.yul\":14781:14790   */\n      dup6\n        /* \"#utility.yul\":14777:14795   */\n      add\n        /* \"#utility.yul\":14764:14795   */\n      swap5\n      pop\n        /* \"#utility.yul\":14638:14642   */\n      0x20\n        /* \"#utility.yul\":14635:14636   */\n      dup2\n        /* \"#utility.yul\":14631:14643   */\n      add\n        /* \"#utility.yul\":14626:14643   */\n      swap1\n      pop\n        /* \"#utility.yul\":14601:14809   */\n      jump(tag_406)\n    tag_408:\n        /* \"#utility.yul\":14837:14843   */\n      dup7\n        /* \"#utility.yul\":14828:14835   */\n      dup4\n        /* \"#utility.yul\":14825:14844   */\n      lt\n        /* \"#utility.yul\":14822:15001   */\n      iszero\n      tag_409\n      jumpi\n        /* \"#utility.yul\":14895:14904   */\n      dup5\n        /* \"#utility.yul\":14890:14893   */\n      dup10\n        /* \"#utility.yul\":14886:14905   */\n      add\n        /* \"#utility.yul\":14880:14906   */\n      mload\n        /* \"#utility.yul\":14938:14986   */\n      tag_410\n        /* \"#utility.yul\":14980:14984   */\n      0x1f\n        /* \"#utility.yul\":14972:14978   */\n      dup10\n        /* \"#utility.yul\":14968:14985   */\n      and\n        /* \"#utility.yul\":14957:14966   */\n      dup3\n        /* \"#utility.yul\":14938:14986   */\n      tag_223\n      jump\t// in\n    tag_410:\n        /* \"#utility.yul\":14930:14936   */\n      dup4\n        /* \"#utility.yul\":14923:14987   */\n      sstore\n        /* \"#utility.yul\":14845:15001   */\n      pop\n        /* \"#utility.yul\":14822:15001   */\n    tag_409:\n        /* \"#utility.yul\":15047:15048   */\n      0x01\n        /* \"#utility.yul\":15043:15044   */\n      0x02\n        /* \"#utility.yul\":15035:15041   */\n      dup9\n        /* \"#utility.yul\":15031:15045   */\n      mul\n        /* \"#utility.yul\":15027:15049   */\n      add\n        /* \"#utility.yul\":15021:15025   */\n      dup9\n        /* \"#utility.yul\":15014:15050   */\n      sstore\n        /* \"#utility.yul\":14449:15060   */\n      pop\n      pop\n      pop\n        /* \"#utility.yul\":14412:15299   */\n    tag_401:\n      pop\n        /* \"#utility.yul\":14002:15305   */\n      pop\n      pop\n      pop\n        /* \"#utility.yul\":13910:15305   */\n      pop\n      pop\n      jump\t// out\n        /* \"#utility.yul\":15311:15491   */\n    tag_225:\n        /* \"#utility.yul\":15359:15436   */\n      0x4e487b7100000000000000000000000000000000000000000000000000000000\n        /* \"#utility.yul\":15356:15357   */\n      0x00\n        /* \"#utility.yul\":15349:15437   */\n      mstore\n        /* \"#utility.yul\":15456:15460   */\n      0x11\n        /* \"#utility.yul\":15453:15454   */\n      0x04\n        /* \"#utility.yul\":15446:15461   */\n      mstore\n        /* \"#utility.yul\":15480:15484   */\n      0x24\n        /* \"#utility.yul\":15477:15478   */\n      0x00\n        /* \"#utility.yul\":15470:15485   */\n      revert\n        /* \"#utility.yul\":15497:15688   */\n    tag_113:\n        /* \"#utility.yul\":15537:15540   */\n      0x00\n        /* \"#utility.yul\":15556:15576   */\n      tag_413\n        /* \"#utility.yul\":15574:15575   */\n      dup3\n        /* \"#utility.yul\":15556:15576   */\n      tag_190\n      jump\t// in\n    tag_413:\n        /* \"#utility.yul\":15551:15576   */\n      swap2\n      pop\n        /* \"#utility.yul\":15590:15610   */\n      tag_414\n        /* \"#utility.yul\":15608:15609   */\n      dup4\n        /* \"#utility.yul\":15590:15610   */\n      tag_190\n      jump\t// in\n    tag_414:\n        /* \"#utility.yul\":15585:15610   */\n      swap3\n      pop\n        /* \"#utility.yul\":15633:15634   */\n      dup3\n        /* \"#utility.yul\":15630:15631   */\n      dup3\n        /* \"#utility.yul\":15626:15635   */\n      add\n        /* \"#utility.yul\":15619:15635   */\n      swap1\n      pop\n        /* \"#utility.yul\":15654:15657   */\n      dup1\n        /* \"#utility.yul\":15651:15652   */\n      dup3\n        /* \"#utility.yul\":15648:15658   */\n      gt\n        /* \"#utility.yul\":15645:15681   */\n      iszero\n      tag_415\n      jumpi\n        /* \"#utility.yul\":15661:15679   */\n      tag_416\n      tag_225\n      jump\t// in\n    tag_416:\n        /* \"#utility.yul\":15645:15681   */\n    tag_415:\n        /* \"#utility.yul\":15497:15688   */\n      swap3\n      swap2\n      pop\n      pop\n      jump\t// out\n        /* \"#utility.yul\":15694:15918   */\n    tag_226:\n        /* \"#utility.yul\":15834:15868   */\n      0x45524332303a2064656372656173656420616c6c6f77616e63652062656c6f77\n        /* \"#utility.yul\":15830:15831   */\n      0x00\n        /* \"#utility.yul\":15822:15828   */\n      dup3\n        /* \"#utility.yul\":15818:15832   */\n      add\n        /* \"#utility.yul\":15811:15869   */\n      mstore\n        /* \"#utility.yul\":15903:15910   */\n      0x207a65726f000000000000000000000000000000000000000000000000000000\n        /* \"#utility.yul\":15898:15900   */\n      0x20\n        /* \"#utility.yul\":15890:15896   */\n      dup3\n        /* \"#utility.yul\":15886:15901   */\n      add\n        /* \"#utility.yul\":15879:15911   */\n      mstore\n        /* \"#utility.yul\":15694:15918   */\n      pop\n      jump\t// out\n        /* \"#utility.yul\":15924:16290   */\n    tag_227:\n        /* \"#utility.yul\":16066:16069   */\n      0x00\n        /* \"#utility.yul\":16087:16154   */\n      tag_419\n        /* \"#utility.yul\":16151:16153   */\n      0x25\n        /* \"#utility.yul\":16146:16149   */\n      dup4\n        /* \"#utility.yul\":16087:16154   */\n      tag_179\n      jump\t// in\n    tag_419:\n        /* \"#utility.yul\":16080:16154   */\n      swap2\n      pop\n        /* \"#utility.yul\":16163:16256   */\n      tag_420\n        /* \"#utility.yul\":16252:16255   */\n      dup3\n        /* \"#utility.yul\":16163:16256   */\n      tag_226\n      jump\t// in\n    tag_420:\n        /* \"#utility.yul\":16281:16283   */\n      0x40\n        /* \"#utility.yul\":16276:16279   */\n      dup3\n        /* \"#utility.yul\":16272:16284   */\n      add\n        /* \"#utility.yul\":16265:16284   */\n      swap1\n      pop\n        /* \"#utility.yul\":15924:16290   */\n      swap2\n      swap1\n      pop\n      jump\t// out\n        /* \"#utility.yul\":16296:16715   */\n    tag_126:\n        /* \"#utility.yul\":16462:16466   */\n      0x00\n        /* \"#utility.yul\":16500:16502   */\n      0x20\n        /* \"#utility.yul\":16489:16498   */\n      dup3\n        /* \"#utility.yul\":16485:16503   */\n      add\n        /* \"#utility.yul\":16477:16503   */\n      swap1\n      pop\n        /* \"#utility.yul\":16549:16558   */\n      dup2\n        /* \"#utility.yul\":16543:16547   */\n      dup2\n        /* \"#utility.yul\":16539:16559   */\n      sub\n        /* \"#utility.yul\":16535:16536   */\n      0x00\n        /* \"#utility.yul\":16524:16533   */\n      dup4\n        /* \"#utility.yul\":16520:16537   */\n      add\n        /* \"#utility.yul\":16513:16560   */\n      mstore\n        /* \"#utility.yul\":16577:16708   */\n      tag_422\n        /* \"#utility.yul\":16703:16707   */\n      dup2\n        /* \"#utility.yul\":16577:16708   */\n      tag_227\n      jump\t// in\n    tag_422:\n        /* \"#utility.yul\":16569:16708   */\n      swap1\n      pop\n        /* \"#utility.yul\":16296:16715   */\n      swap2\n      swap1\n      pop\n      jump\t// out\n        /* \"#utility.yul\":16721:16944   */\n    tag_228:\n        /* \"#utility.yul\":16861:16895   */\n      0x45524332303a20617070726f76652066726f6d20746865207a65726f20616464\n        /* \"#utility.yul\":16857:16858   */\n      0x00\n        /* \"#utility.yul\":16849:16855   */\n      dup3\n        /* \"#utility.yul\":16845:16859   */\n      add\n        /* \"#utility.yul\":16838:16896   */\n      mstore\n        /* \"#utility.yul\":16930:16936   */\n      0x7265737300000000000000000000000000000000000000000000000000000000\n        /* \"#utility.yul\":16925:16927   */\n      0x20\n        /* \"#utility.yul\":16917:16923   */\n      dup3\n        /* \"#utility.yul\":16913:16928   */\n      add\n        /* \"#utility.yul\":16906:16937   */\n      mstore\n        /* \"#utility.yul\":16721:16944   */\n      pop\n      jump\t// out\n        /* \"#utility.yul\":16950:17316   */\n    tag_229:\n        /* \"#utility.yul\":17092:17095   */\n      0x00\n        /* \"#utility.yul\":17113:17180   */\n      tag_425\n        /* \"#utility.yul\":17177:17179   */\n      0x24\n        /* \"#utility.yul\":17172:17175   */\n      dup4\n        /* \"#utility.yul\":17113:17180   */\n      tag_179\n      jump\t// in\n    tag_425:\n        /* \"#utility.yul\":17106:17180   */\n      swap2\n      pop\n        /* \"#utility.yul\":17189:17282   */\n      tag_426\n        /* \"#utility.yul\":17278:17281   */\n      dup3\n        /* \"#utility.yul\":17189:17282   */\n      tag_228\n      jump\t// in\n    tag_426:\n        /* \"#utility.yul\":17307:17309   */\n      0x40\n        /* \"#utility.yul\":17302:17305   */\n      dup3\n        /* \"#utility.yul\":17298:17310   */\n      add\n        /* \"#utility.yul\":17291:17310   */\n      swap1\n      pop\n        /* \"#utility.yul\":16950:17316   */\n      swap2\n      swap1\n      pop\n      jump\t// out\n        /* \"#utility.yul\":17322:17741   */\n    tag_147:\n        /* \"#utility.yul\":17488:17492   */\n      0x00\n        /* \"#utility.yul\":17526:17528   */\n      0x20\n        /* \"#utility.yul\":17515:17524   */\n      dup3\n        /* \"#utility.yul\":17511:17529   */\n      add\n        /* \"#utility.yul\":17503:17529   */\n      swap1\n      pop\n        /* \"#utility.yul\":17575:17584   */\n      dup2\n        /* \"#utility.yul\":17569:17573   */\n      dup2\n        /* \"#utility.yul\":17565:17585   */\n      sub\n        /* \"#utility.yul\":17561:17562   */\n      0x00\n        /* \"#utility.yul\":17550:17559   */\n      dup4\n        /* \"#utility.yul\":17546:17563   */\n      add\n        /* \"#utility.yul\":17539:17586   */\n      mstore\n        /* \"#utility.yul\":17603:17734   */\n      tag_428\n        /* \"#utility.yul\":17729:17733   */\n      dup2\n        /* \"#utility.yul\":17603:17734   */\n      tag_229\n      jump\t// in\n    tag_428:\n        /* \"#utility.yul\":17595:17734   */\n      swap1\n      pop\n        /* \"#utility.yul\":17322:17741   */\n      swap2\n      swap1\n      pop\n      jump\t// out\n        /* \"#utility.yul\":17747:17968   */\n    tag_230:\n        /* \"#utility.yul\":17887:17921   */\n      0x45524332303a20617070726f766520746f20746865207a65726f206164647265\n        /* \"#utility.yul\":17883:17884   */\n      0x00\n        /* \"#utility.yul\":17875:17881   */\n      dup3\n        /* \"#utility.yul\":17871:17885   */\n      add\n        /* \"#utility.yul\":17864:17922   */\n      mstore\n        /* \"#utility.yul\":17956:17960   */\n      0x7373000000000000000000000000000000000000000000000000000000000000\n        /* \"#utility.yul\":17951:17953   */\n      0x20\n        /* \"#utility.yul\":17943:17949   */\n      dup3\n        /* \"#utility.yul\":17939:17954   */\n      add\n        /* \"#utility.yul\":17932:17961   */\n      mstore\n        /* \"#utility.yul\":17747:17968   */\n      pop\n      jump\t// out\n        /* \"#utility.yul\":17974:18340   */\n    tag_231:\n        /* \"#utility.yul\":18116:18119   */\n      0x00\n        /* \"#utility.yul\":18137:18204   */\n      tag_431\n        /* \"#utility.yul\":18201:18203   */\n      0x22\n        /* \"#utility.yul\":18196:18199   */\n      dup4\n        /* \"#utility.yul\":18137:18204   */\n      tag_179\n      jump\t// in\n    tag_431:\n        /* \"#utility.yul\":18130:18204   */\n      swap2\n      pop\n        /* \"#utility.yul\":18213:18306   */\n      tag_432\n        /* \"#utility.yul\":18302:18305   */\n      dup3\n        /* \"#utility.yul\":18213:18306   */\n      tag_230\n      jump\t// in\n    tag_432:\n        /* \"#utility.yul\":18331:18333   */\n      0x40\n        /* \"#utility.yul\":18326:18329   */\n      dup3\n        /* \"#utility.yul\":18322:18334   */\n      add\n        /* \"#utility.yul\":18315:18334   */\n      swap1\n      pop\n        /* \"#utility.yul\":17974:18340   */\n      swap2\n      swap1\n      pop\n      jump\t// out\n        /* \"#utility.yul\":18346:18765   */\n    tag_150:\n        /* \"#utility.yul\":18512:18516   */\n      0x00\n        /* \"#utility.yul\":18550:18552   */\n      0x20\n        /* \"#utility.yul\":18539:18548   */\n      dup3\n        /* \"#utility.yul\":18535:18553   */\n      add\n        /* \"#utility.yul\":18527:18553   */\n      swap1\n      pop\n        /* \"#utility.yul\":18599:18608   */\n      dup2\n        /* \"#utility.yul\":18593:18597   */\n      dup2\n        /* \"#utility.yul\":18589:18609   */\n      sub\n        /* \"#utility.yul\":18585:18586   */\n      0x00\n        /* \"#utility.yul\":18574:18583   */\n      dup4\n        /* \"#utility.yul\":18570:18587   */\n      add\n        /* \"#utility.yul\":18563:18610   */\n      mstore\n        /* \"#utility.yul\":18627:18758   */\n      tag_434\n        /* \"#utility.yul\":18753:18757   */\n      dup2\n        /* \"#utility.yul\":18627:18758   */\n      tag_231\n      jump\t// in\n    tag_434:\n        /* \"#utility.yul\":18619:18758   */\n      swap1\n      pop\n        /* \"#utility.yul\":18346:18765   */\n      swap2\n      swap1\n      pop\n      jump\t// out\n        /* \"#utility.yul\":18771:18950   */\n    tag_232:\n        /* \"#utility.yul\":18911:18942   */\n      0x45524332303a20696e73756666696369656e7420616c6c6f77616e6365000000\n        /* \"#utility.yul\":18907:18908   */\n      0x00\n        /* \"#utility.yul\":18899:18905   */\n      dup3\n        /* \"#utility.yul\":18895:18909   */\n      add\n        /* \"#utility.yul\":18888:18943   */\n      mstore\n        /* \"#utility.yul\":18771:18950   */\n      pop\n      jump\t// out\n        /* \"#utility.yul\":18956:19322   */\n    tag_233:\n        /* \"#utility.yul\":19098:19101   */\n      0x00\n        /* \"#utility.yul\":19119:19186   */\n      tag_437\n        /* \"#utility.yul\":19183:19185   */\n      0x1d\n        /* \"#utility.yul\":19178:19181   */\n      dup4\n        /* \"#utility.yul\":19119:19186   */\n      tag_179\n      jump\t// in\n    tag_437:\n        /* \"#utility.yul\":19112:19186   */\n      swap2\n      pop\n        /* \"#utility.yul\":19195:19288   */\n      tag_438\n        /* \"#utility.yul\":19284:19287   */\n      dup3\n        /* \"#utility.yul\":19195:19288   */\n      tag_232\n      jump\t// in\n    tag_438:\n        /* \"#utility.yul\":19313:19315   */\n      0x20\n        /* \"#utility.yul\":19308:19311   */\n      dup3\n        /* \"#utility.yul\":19304:19316   */\n      add\n        /* \"#utility.yul\":19297:19316   */\n      swap1\n      pop\n        /* \"#utility.yul\":18956:19322   */\n      swap2\n      swap1\n      pop\n      jump\t// out\n        /* \"#utility.yul\":19328:19747   */\n    tag_157:\n        /* \"#utility.yul\":19494:19498   */\n      0x00\n        /* \"#utility.yul\":19532:19534   */\n      0x20\n        /* \"#utility.yul\":19521:19530   */\n      dup3\n        /* \"#utility.yul\":19517:19535   */\n      add\n        /* \"#utility.yul\":19509:19535   */\n      swap1\n      pop\n        /* \"#utility.yul\":19581:19590   */\n      dup2\n        /* \"#utility.yul\":19575:19579   */\n      dup2\n        /* \"#utility.yul\":19571:19591   */\n      sub\n        /* \"#utility.yul\":19567:19568   */\n      0x00\n        /* \"#utility.yul\":19556:19565   */\n      dup4\n        /* \"#utility.yul\":19552:19569   */\n      add\n        /* \"#utility.yul\":19545:19592   */\n      mstore\n        /* \"#utility.yul\":19609:19740   */\n      tag_440\n        /* \"#utility.yul\":19735:19739   */\n      dup2\n        /* \"#utility.yul\":19609:19740   */\n      tag_233\n      jump\t// in\n    tag_440:\n        /* \"#utility.yul\":19601:19740   */\n      swap1\n      pop\n        /* \"#utility.yul\":19328:19747   */\n      swap2\n      swap1\n      pop\n      jump\t// out\n        /* \"#utility.yul\":19753:19977   */\n    tag_234:\n        /* \"#utility.yul\":19893:19927   */\n      0x45524332303a207472616e736665722066726f6d20746865207a65726f206164\n        /* \"#utility.yul\":19889:19890   */\n      0x00\n        /* \"#utility.yul\":19881:19887   */\n      dup3\n        /* \"#utility.yul\":19877:19891   */\n      add\n        /* \"#utility.yul\":19870:19928   */\n      mstore\n        /* \"#utility.yul\":19962:19969   */\n      0x6472657373000000000000000000000000000000000000000000000000000000\n        /* \"#utility.yul\":19957:19959   */\n      0x20\n        /* \"#utility.yul\":19949:19955   */\n      dup3\n        /* \"#utility.yul\":19945:19960   */\n      add\n        /* \"#utility.yul\":19938:19970   */\n      mstore\n        /* \"#utility.yul\":19753:19977   */\n      pop\n      jump\t// out\n        /* \"#utility.yul\":19983:20349   */\n    tag_235:\n        /* \"#utility.yul\":20125:20128   */\n      0x00\n        /* \"#utility.yul\":20146:20213   */\n      tag_443\n        /* \"#utility.yul\":20210:20212   */\n      0x25\n        /* \"#utility.yul\":20205:20208   */\n      dup4\n        /* \"#utility.yul\":20146:20213   */\n      tag_179\n      jump\t// in\n    tag_443:\n        /* \"#utility.yul\":20139:20213   */\n      swap2\n      pop\n        /* \"#utility.yul\":20222:20315   */\n      tag_444\n        /* \"#utility.yul\":20311:20314   */\n      dup3\n        /* \"#utility.yul\":20222:20315   */\n      tag_234\n      jump\t// in\n    tag_444:\n        /* \"#utility.yul\":20340:20342   */\n      0x40\n        /* \"#utility.yul\":20335:20338   */\n      dup3\n        /* \"#utility.yul\":20331:20343   */\n      add\n        /* \"#utility.yul\":20324:20343   */\n      swap1\n      pop\n        /* \"#utility.yul\":19983:20349   */\n      swap2\n      swap1\n      pop\n      jump\t// out\n        /* \"#utility.yul\":20355:20774   */\n    tag_162:\n        /* \"#utility.yul\":20521:20525   */\n      0x00\n        /* \"#utility.yul\":20559:20561   */\n      0x20\n        /* \"#utility.yul\":20548:20557   */\n      dup3\n        /* \"#utility.yul\":20544:20562   */\n      add\n        /* \"#utility.yul\":20536:20562   */\n      swap1\n      pop\n        /* \"#utility.yul\":20608:20617   */\n      dup2\n        /* \"#utility.yul\":20602:20606   */\n      dup2\n        /* \"#utility.yul\":20598:20618   */\n      sub\n        /* \"#utility.yul\":20594:20595   */\n      0x00\n        /* \"#utility.yul\":20583:20592   */\n      dup4\n        /* \"#utility.yul\":20579:20596   */\n      add\n        /* \"#utility.yul\":20572:20619   */\n      mstore\n        /* \"#utility.yul\":20636:20767   */\n      tag_446\n        /* \"#utility.yul\":20762:20766   */\n      dup2\n        /* \"#utility.yul\":20636:20767   */\n      tag_235\n      jump\t// in\n    tag_446:\n        /* \"#utility.yul\":20628:20767   */\n      swap1\n      pop\n        /* \"#utility.yul\":20355:20774   */\n      swap2\n      swap1\n      pop\n      jump\t// out\n        /* \"#utility.yul\":20780:21002   */\n    tag_236:\n        /* \"#utility.yul\":20920:20954   */\n      0x45524332303a207472616e7366657220746f20746865207a65726f2061646472\n        /* \"#utility.yul\":20916:20917   */\n      0x00\n        /* \"#utility.yul\":20908:20914   */\n      dup3\n        /* \"#utility.yul\":20904:20918   */\n      add\n        /* \"#utility.yul\":20897:20955   */\n      mstore\n        /* \"#utility.yul\":20989:20994   */\n      0x6573730000000000000000000000000000000000000000000000000000000000\n        /* \"#utility.yul\":20984:20986   */\n      0x20\n        /* \"#utility.yul\":20976:20982   */\n      dup3\n        /* \"#utility.yul\":20972:20987   */\n      add\n        /* \"#utility.yul\":20965:20995   */\n      mstore\n        /* \"#utility.yul\":20780:21002   */\n      pop\n      jump\t// out\n        /* \"#utility.yul\":21008:21374   */\n    tag_237:\n        /* \"#utility.yul\":21150:21153   */\n      0x00\n        /* \"#utility.yul\":21171:21238   */\n      tag_449\n        /* \"#utility.yul\":21235:21237   */\n      0x23\n        /* \"#utility.yul\":21230:21233   */\n      dup4\n        /* \"#utility.yul\":21171:21238   */\n      tag_179\n      jump\t// in\n    tag_449:\n        /* \"#utility.yul\":21164:21238   */\n      swap2\n      pop\n        /* \"#utility.yul\":21247:21340   */\n      tag_450\n        /* \"#utility.yul\":21336:21339   */\n      dup3\n        /* \"#utility.yul\":21247:21340   */\n      tag_236\n      jump\t// in\n    tag_450:\n        /* \"#utility.yul\":21365:21367   */\n      0x40\n        /* \"#utility.yul\":21360:21363   */\n      dup3\n        /* \"#utility.yul\":21356:21368   */\n      add\n        /* \"#utility.yul\":21349:21368   */\n      swap1\n      pop\n        /* \"#utility.yul\":21008:21374   */\n      swap2\n      swap1\n      pop\n      jump\t// out\n        /* \"#utility.yul\":21380:21799   */\n    tag_165:\n        /* \"#utility.yul\":21546:21550   */\n      0x00\n        /* \"#utility.yul\":21584:21586   */\n      0x20\n        /* \"#utility.yul\":21573:21582   */\n      dup3\n        /* \"#utility.yul\":21569:21587   */\n      add\n        /* \"#utility.yul\":21561:21587   */\n      swap1\n      pop\n        /* \"#utility.yul\":21633:21642   */\n      dup2\n        /* \"#utility.yul\":21627:21631   */\n      dup2\n        /* \"#utility.yul\":21623:21643   */\n      sub\n        /* \"#utility.yul\":21619:21620   */\n      0x00\n        /* \"#utility.yul\":21608:21617   */\n      dup4\n        /* \"#utility.yul\":21604:21621   */\n      add\n        /* \"#utility.yul\":21597:21644   */\n      mstore\n        /* \"#utility.yul\":21661:21792   */\n      tag_452\n        /* \"#utility.yul\":21787:21791   */\n      dup2\n        /* \"#utility.yul\":21661:21792   */\n      tag_237\n      jump\t// in\n    tag_452:\n        /* \"#utility.yul\":21653:21792   */\n      swap1\n      pop\n        /* \"#utility.yul\":21380:21799   */\n      swap2\n      swap1\n      pop\n      jump\t// out\n        /* \"#utility.yul\":21805:22030   */\n    tag_238:\n        /* \"#utility.yul\":21945:21979   */\n      0x45524332303a207472616e7366657220616d6f756e7420657863656564732062\n        /* \"#utility.yul\":21941:21942   */\n      0x00\n        /* \"#utility.yul\":21933:21939   */\n      dup3\n        /* \"#utility.yul\":21929:21943   */\n      add\n        /* \"#utility.yul\":21922:21980   */\n      mstore\n        /* \"#utility.yul\":22014:22022   */\n      0x616c616e63650000000000000000000000000000000000000000000000000000\n        /* \"#utility.yul\":22009:22011   */\n      0x20\n        /* \"#utility.yul\":22001:22007   */\n      dup3\n        /* \"#utility.yul\":21997:22012   */\n      add\n        /* \"#utility.yul\":21990:22023   */\n      mstore\n        /* \"#utility.yul\":21805:22030   */\n      pop\n      jump\t// out\n        /* \"#utility.yul\":22036:22402   */\n    tag_239:\n        /* \"#utility.yul\":22178:22181   */\n      0x00\n        /* \"#utility.yul\":22199:22266   */\n      tag_455\n        /* \"#utility.yul\":22263:22265   */\n      0x26\n        /* \"#utility.yul\":22258:22261   */\n      dup4\n        /* \"#utility.yul\":22199:22266   */\n      tag_179\n      jump\t// in\n    tag_455:\n        /* \"#utility.yul\":22192:22266   */\n      swap2\n      pop\n        /* \"#utility.yul\":22275:22368   */\n      tag_456\n        /* \"#utility.yul\":22364:22367   */\n      dup3\n        /* \"#utility.yul\":22275:22368   */\n      tag_238\n      jump\t// in\n    tag_456:\n        /* \"#utility.yul\":22393:22395   */\n      0x40\n        /* \"#utility.yul\":22388:22391   */\n      dup3\n        /* \"#utility.yul\":22384:22396   */\n      add\n        /* \"#utility.yul\":22377:22396   */\n      swap1\n      pop\n        /* \"#utility.yul\":22036:22402   */\n      swap2\n      swap1\n      pop\n      jump\t// out\n        /* \"#utility.yul\":22408:22827   */\n    tag_170:\n        /* \"#utility.yul\":22574:22578   */\n      0x00\n        /* \"#utility.yul\":22612:22614   */\n      0x20\n        /* \"#utility.yul\":22601:22610   */\n      dup3\n        /* \"#utility.yul\":22597:22615   */\n      add\n        /* \"#utility.yul\":22589:22615   */\n      swap1\n      pop\n        /* \"#utility.yul\":22661:22670   */\n      dup2\n        /* \"#utility.yul\":22655:22659   */\n      dup2\n        /* \"#utility.yul\":22651:22671   */\n      sub\n        /* \"#utility.yul\":22647:22648   */\n      0x00\n        /* \"#utility.yul\":22636:22645   */\n      dup4\n        /* \"#utility.yul\":22632:22649   */\n      add\n        /* \"#utility.yul\":22625:22672   */\n      mstore\n        /* \"#utility.yul\":22689:22820   */\n      tag_458\n        /* \"#utility.yul\":22815:22819   */\n      dup2\n        /* \"#utility.yul\":22689:22820   */\n      tag_239\n      jump\t// in\n    tag_458:\n        /* \"#utility.yul\":22681:22820   */\n      swap1\n      pop\n        /* \"#utility.yul\":22408:22827   */\n      swap2\n      swap1\n      pop\n      jump\t// out\n\n    auxdata: 0xa26469706673582212209cd84eac445ef7c1f9cf1caeb3765ff5eda6a10fa8622ede2896249ade2acc0d64736f6c63430008120033\n}\n",
				"bytecode": {
					"linkReferences": {},
					"object": "60806040523480156200001157600080fd5b506040518060400160405280601081526020017f54696e79204e6f74657320546f6b656e000000000000000000000000000000008152506040518060400160405280600381526020017f544e54000000000000000000000000000000000000000000000000000000000081525081600390816200008f9190620004e4565b508060049081620000a19190620004e4565b505050620000e433620000b9620000ea60201b60201c565b600a620000c791906200075b565b6302cd29c0620000d89190620007ac565b620000f360201b60201c565b620008e3565b60006012905090565b600073ffffffffffffffffffffffffffffffffffffffff168273ffffffffffffffffffffffffffffffffffffffff160362000165576040517f08c379a00000000000000000000000000000000000000000000000000000000081526004016200015c9062000858565b60405180910390fd5b62000179600083836200026060201b60201c565b80600260008282546200018d91906200087a565b92505081905550806000808473ffffffffffffffffffffffffffffffffffffffff1673ffffffffffffffffffffffffffffffffffffffff168152602001908152602001600020600082825401925050819055508173ffffffffffffffffffffffffffffffffffffffff16600073ffffffffffffffffffffffffffffffffffffffff167fddf252ad1be2c89b69c2b068fc378daa952ba7f163c4a11628f55a4df523b3ef83604051620002409190620008c6565b60405180910390a36200025c600083836200026560201b60201c565b5050565b505050565b505050565b600081519050919050565b7f4e487b7100000000000000000000000000000000000000000000000000000000600052604160045260246000fd5b7f4e487b7100000000000000000000000000000000000000000000000000000000600052602260045260246000fd5b60006002820490506001821680620002ec57607f821691505b602082108103620003025762000301620002a4565b5b50919050565b60008190508160005260206000209050919050565b60006020601f8301049050919050565b600082821b905092915050565b6000600883026200036c7fffffffffffffffffffffffffffffffffffffffffffffffffffffffffffffffff826200032d565b6200037886836200032d565b95508019841693508086168417925050509392505050565b6000819050919050565b6000819050919050565b6000620003c5620003bf620003b98462000390565b6200039a565b62000390565b9050919050565b6000819050919050565b620003e183620003a4565b620003f9620003f082620003cc565b8484546200033a565b825550505050565b600090565b6200041062000401565b6200041d818484620003d6565b505050565b5b8181101562000445576200043960008262000406565b60018101905062000423565b5050565b601f82111562000494576200045e8162000308565b62000469846200031d565b8101602085101562000479578190505b6200049162000488856200031d565b83018262000422565b50505b505050565b600082821c905092915050565b6000620004b96000198460080262000499565b1980831691505092915050565b6000620004d48383620004a6565b9150826002028217905092915050565b620004ef826200026a565b67ffffffffffffffff8111156200050b576200050a62000275565b5b620005178254620002d3565b6200052482828562000449565b600060209050601f8311600181146200055c576000841562000547578287015190505b620005538582620004c6565b865550620005c3565b601f1984166200056c8662000308565b60005b8281101562000596578489015182556001820191506020850194506020810190506200056f565b86831015620005b65784890151620005b2601f891682620004a6565b8355505b6001600288020188555050505b505050505050565b7f4e487b7100000000000000000000000000000000000000000000000000000000600052601160045260246000fd5b60008160011c9050919050565b6000808291508390505b60018511156200065957808604811115620006315762000630620005cb565b5b6001851615620006415780820291505b80810290506200065185620005fa565b945062000611565b94509492505050565b60008262000674576001905062000747565b8162000684576000905062000747565b81600181146200069d5760028114620006a857620006de565b600191505062000747565b60ff841115620006bd57620006bc620005cb565b5b8360020a915084821115620006d757620006d6620005cb565b5b5062000747565b5060208310610133831016604e8410600b8410161715620007185782820a905083811115620007125762000711620005cb565b5b62000747565b62000727848484600162000607565b92509050818404811115620007415762000740620005cb565b5b81810290505b9392505050565b600060ff82169050919050565b6000620007688262000390565b915062000775836200074e565b9250620007a47fffffffffffffffffffffffffffffffffffffffffffffffffffffffffffffffff848462000662565b905092915050565b6000620007b98262000390565b9150620007c68362000390565b9250828202620007d68162000390565b91508282048414831517620007f057620007ef620005cb565b5b5092915050565b600082825260208201905092915050565b7f45524332303a206d696e7420746f20746865207a65726f206164647265737300600082015250565b600062000840601f83620007f7565b91506200084d8262000808565b602082019050919050565b60006020820190508181036000830152620008738162000831565b9050919050565b6000620008878262000390565b9150620008948362000390565b9250828201905080821115620008af57620008ae620005cb565b5b92915050565b620008c08162000390565b82525050565b6000602082019050620008dd6000830184620008b5565b92915050565b611aa580620008f36000396000f3fe608060405234801561001057600080fd5b50600436106100cf5760003560e01c8063395093511161008c578063a457c2d711610066578063a457c2d714610228578063a9059cbb14610258578063d311651a14610288578063dd62ed3e146102b9576100cf565b806339509351146101aa57806370a08231146101da57806395d89b411461020a576100cf565b806306fdde03146100d4578063095ea7b3146100f257806318160ddd1461012257806323b872dd146101405780632feaf81714610170578063313ce5671461018c575b600080fd5b6100dc6102e9565b6040516100e99190610e78565b60405180910390f35b61010c60048036038101906101079190610f42565b61037b565b6040516101199190610f9d565b60405180910390f35b61012a61039e565b6040516101379190610fc7565b60405180910390f35b61015a60048036038101906101559190610fe2565b6103a8565b6040516101679190610f9d565b60405180910390f35b61018a6004803603810190610185919061116a565b6103d7565b005b6101946104f9565b6040516101a191906111fe565b60405180910390f35b6101c460048036038101906101bf9190610f42565b610502565b6040516101d19190610f9d565b60405180910390f35b6101f460048036038101906101ef9190611219565b610539565b6040516102019190610fc7565b60405180910390f35b610212610581565b60405161021f9190610e78565b60405180910390f35b610242600480360381019061023d9190610f42565b610613565b60405161024f9190610f9d565b60405180910390f35b610272600480360381019061026d9190610f42565b61068a565b60405161027f9190610f9d565b60405180910390f35b6102a2600480360381019061029d9190611246565b6106ad565b6040516102b0929190611273565b60405180910390f35b6102d360048036038101906102ce91906112aa565b610860565b6040516102e09190610fc7565b60405180910390f35b6060600380546102f890611319565b80601f016020809104026020016040519081016040528092919081815260200182805461032490611319565b80156103715780601f1061034657610100808354040283529160200191610371565b820191906000526020600020905b81548152906001019060200180831161035457829003601f168201915b5050505050905090565b6000806103866108e7565b90506103938185856108ef565b600191505092915050565b6000600254905090565b6000806103b36108e7565b90506103c0858285610ab8565b6103cb858585610b44565b60019150509392505050565b60006103e233610539565b11610422576040517f08c379a000000000000000000000000000000000000000000000000000000000815260040161041990611396565b60405180910390fd5b61042c6005610dba565b60006104386005610dd0565b905060405180606001604052803373ffffffffffffffffffffffffffffffffffffffff168152602001848152602001838152506006600083815260200190815260200160002060008201518160000160006101000a81548173ffffffffffffffffffffffffffffffffffffffff021916908373ffffffffffffffffffffffffffffffffffffffff16021790555060208201518160010190816104da9190611562565b5060408201518160020190816104f09190611562565b50905050505050565b60006012905090565b60008061050d6108e7565b905061052e81858561051f8589610860565b6105299190611663565b6108ef565b600191505092915050565b60008060008373ffffffffffffffffffffffffffffffffffffffff1673ffffffffffffffffffffffffffffffffffffffff168152602001908152602001600020549050919050565b60606004805461059090611319565b80601f01602080910402602001604051908101604052809291908181526020018280546105bc90611319565b80156106095780601f106105de57610100808354040283529160200191610609565b820191906000526020600020905b8154815290600101906020018083116105ec57829003601f168201915b5050505050905090565b60008061061e6108e7565b9050600061062c8286610860565b905083811015610671576040517f08c379a000000000000000000000000000000000000000000000000000000000815260040161066890611709565b60405180910390fd5b61067e82868684036108ef565b60019250505092915050565b6000806106956108e7565b90506106a2818585610b44565b600191505092915050565b6060806000600660008581526020019081526020016000206040518060600160405290816000820160009054906101000a900473ffffffffffffffffffffffffffffffffffffffff1673ffffffffffffffffffffffffffffffffffffffff1673ffffffffffffffffffffffffffffffffffffffff16815260200160018201805461073690611319565b80601f016020809104026020016040519081016040528092919081815260200182805461076290611319565b80156107af5780601f10610784576101008083540402835291602001916107af565b820191906000526020600020905b81548152906001019060200180831161079257829003601f168201915b505050505081526020016002820180546107c890611319565b80601f01602080910402602001604051908101604052809291908181526020018280546107f490611319565b80156108415780601f1061081657610100808354040283529160200191610841565b820191906000526020600020905b81548152906001019060200180831161082457829003601f168201915b5050505050815250509050806020015181604001519250925050915091565b6000600160008473ffffffffffffffffffffffffffffffffffffffff1673ffffffffffffffffffffffffffffffffffffffff16815260200190815260200160002060008373ffffffffffffffffffffffffffffffffffffffff1673ffffffffffffffffffffffffffffffffffffffff16815260200190815260200160002054905092915050565b600033905090565b600073ffffffffffffffffffffffffffffffffffffffff168373ffffffffffffffffffffffffffffffffffffffff160361095e576040517f08c379a00000000000000000000000000000000000000000000000000000000081526004016109559061179b565b60405180910390fd5b600073ffffffffffffffffffffffffffffffffffffffff168273ffffffffffffffffffffffffffffffffffffffff16036109cd576040517f08c379a00000000000000000000000000000000000000000000000000000000081526004016109c49061182d565b60405180910390fd5b80600160008573ffffffffffffffffffffffffffffffffffffffff1673ffffffffffffffffffffffffffffffffffffffff16815260200190815260200160002060008473ffffffffffffffffffffffffffffffffffffffff1673ffffffffffffffffffffffffffffffffffffffff168152602001908152602001600020819055508173ffffffffffffffffffffffffffffffffffffffff168373ffffffffffffffffffffffffffffffffffffffff167f8c5be1e5ebec7d5bd14f71427d1e84f3dd0314c0f7b2291e5b200ac8c7c3b92583604051610aab9190610fc7565b60405180910390a3505050565b6000610ac48484610860565b90507fffffffffffffffffffffffffffffffffffffffffffffffffffffffffffffffff8114610b3e5781811015610b30576040517f08c379a0000000000000000000000000000000000000000000000000000000008152600401610b2790611899565b60405180910390fd5b610b3d84848484036108ef565b5b50505050565b600073ffffffffffffffffffffffffffffffffffffffff168373ffffffffffffffffffffffffffffffffffffffff1603610bb3576040517f08c379a0000000000000000000000000000000000000000000000000000000008152600401610baa9061192b565b60405180910390fd5b600073ffffffffffffffffffffffffffffffffffffffff168273ffffffffffffffffffffffffffffffffffffffff1603610c22576040517f08c379a0000000000000000000000000000000000000000000000000000000008152600401610c19906119bd565b60405180910390fd5b610c2d838383610dde565b60008060008573ffffffffffffffffffffffffffffffffffffffff1673ffffffffffffffffffffffffffffffffffffffff16815260200190815260200160002054905081811015610cb3576040517f08c379a0000000000000000000000000000000000000000000000000000000008152600401610caa90611a4f565b60405180910390fd5b8181036000808673ffffffffffffffffffffffffffffffffffffffff1673ffffffffffffffffffffffffffffffffffffffff16815260200190815260200160002081905550816000808573ffffffffffffffffffffffffffffffffffffffff1673ffffffffffffffffffffffffffffffffffffffff168152602001908152602001600020600082825401925050819055508273ffffffffffffffffffffffffffffffffffffffff168473ffffffffffffffffffffffffffffffffffffffff167fddf252ad1be2c89b69c2b068fc378daa952ba7f163c4a11628f55a4df523b3ef84604051610da19190610fc7565b60405180910390a3610db4848484610de3565b50505050565b6001816000016000828254019250508190555050565b600081600001549050919050565b505050565b505050565b600081519050919050565b600082825260208201905092915050565b60005b83811015610e22578082015181840152602081019050610e07565b60008484015250505050565b6000601f19601f8301169050919050565b6000610e4a82610de8565b610e548185610df3565b9350610e64818560208601610e04565b610e6d81610e2e565b840191505092915050565b60006020820190508181036000830152610e928184610e3f565b905092915050565b6000604051905090565b600080fd5b600080fd5b600073ffffffffffffffffffffffffffffffffffffffff82169050919050565b6000610ed982610eae565b9050919050565b610ee981610ece565b8114610ef457600080fd5b50565b600081359050610f0681610ee0565b92915050565b6000819050919050565b610f1f81610f0c565b8114610f2a57600080fd5b50565b600081359050610f3c81610f16565b92915050565b60008060408385031215610f5957610f58610ea4565b5b6000610f6785828601610ef7565b9250506020610f7885828601610f2d565b9150509250929050565b60008115159050919050565b610f9781610f82565b82525050565b6000602082019050610fb26000830184610f8e565b92915050565b610fc181610f0c565b82525050565b6000602082019050610fdc6000830184610fb8565b92915050565b600080600060608486031215610ffb57610ffa610ea4565b5b600061100986828701610ef7565b935050602061101a86828701610ef7565b925050604061102b86828701610f2d565b9150509250925092565b600080fd5b600080fd5b7f4e487b7100000000000000000000000000000000000000000000000000000000600052604160045260246000fd5b61107782610e2e565b810181811067ffffffffffffffff821117156110965761109561103f565b5b80604052505050565b60006110a9610e9a565b90506110b5828261106e565b919050565b600067ffffffffffffffff8211156110d5576110d461103f565b5b6110de82610e2e565b9050602081019050919050565b82818337600083830152505050565b600061110d611108846110ba565b61109f565b9050828152602081018484840111156111295761112861103a565b5b6111348482856110eb565b509392505050565b600082601f83011261115157611150611035565b5b81356111618482602086016110fa565b91505092915050565b6000806040838503121561118157611180610ea4565b5b600083013567ffffffffffffffff81111561119f5761119e610ea9565b5b6111ab8582860161113c565b925050602083013567ffffffffffffffff8111156111cc576111cb610ea9565b5b6111d88582860161113c565b9150509250929050565b600060ff82169050919050565b6111f8816111e2565b82525050565b600060208201905061121360008301846111ef565b92915050565b60006020828403121561122f5761122e610ea4565b5b600061123d84828501610ef7565b91505092915050565b60006020828403121561125c5761125b610ea4565b5b600061126a84828501610f2d565b91505092915050565b6000604082019050818103600083015261128d8185610e3f565b905081810360208301526112a18184610e3f565b90509392505050565b600080604083850312156112c1576112c0610ea4565b5b60006112cf85828601610ef7565b92505060206112e085828601610ef7565b9150509250929050565b7f4e487b7100000000000000000000000000000000000000000000000000000000600052602260045260246000fd5b6000600282049050600182168061133157607f821691505b602082108103611344576113436112ea565b5b50919050565b7f4d75737420686f6c6420544e5420746f206372656174652061204e6f74652e00600082015250565b6000611380601f83610df3565b915061138b8261134a565b602082019050919050565b600060208201905081810360008301526113af81611373565b9050919050565b60008190508160005260206000209050919050565b60006020601f8301049050919050565b600082821b905092915050565b6000600883026114187fffffffffffffffffffffffffffffffffffffffffffffffffffffffffffffffff826113db565b61142286836113db565b95508019841693508086168417925050509392505050565b6000819050919050565b600061145f61145a61145584610f0c565b61143a565b610f0c565b9050919050565b6000819050919050565b61147983611444565b61148d61148582611466565b8484546113e8565b825550505050565b600090565b6114a2611495565b6114ad818484611470565b505050565b5b818110156114d1576114c660008261149a565b6001810190506114b3565b5050565b601f821115611516576114e7816113b6565b6114f0846113cb565b810160208510156114ff578190505b61151361150b856113cb565b8301826114b2565b50505b505050565b600082821c905092915050565b60006115396000198460080261151b565b1980831691505092915050565b60006115528383611528565b9150826002028217905092915050565b61156b82610de8565b67ffffffffffffffff8111156115845761158361103f565b5b61158e8254611319565b6115998282856114d5565b600060209050601f8311600181146115cc57600084156115ba578287015190505b6115c48582611546565b86555061162c565b601f1984166115da866113b6565b60005b82811015611602578489015182556001820191506020850194506020810190506115dd565b8683101561161f578489015161161b601f891682611528565b8355505b6001600288020188555050505b505050505050565b7f4e487b7100000000000000000000000000000000000000000000000000000000600052601160045260246000fd5b600061166e82610f0c565b915061167983610f0c565b925082820190508082111561169157611690611634565b5b92915050565b7f45524332303a2064656372656173656420616c6c6f77616e63652062656c6f7760008201527f207a65726f000000000000000000000000000000000000000000000000000000602082015250565b60006116f3602583610df3565b91506116fe82611697565b604082019050919050565b60006020820190508181036000830152611722816116e6565b9050919050565b7f45524332303a20617070726f76652066726f6d20746865207a65726f2061646460008201527f7265737300000000000000000000000000000000000000000000000000000000602082015250565b6000611785602483610df3565b915061179082611729565b604082019050919050565b600060208201905081810360008301526117b481611778565b9050919050565b7f45524332303a20617070726f766520746f20746865207a65726f20616464726560008201527f7373000000000000000000000000000000000000000000000000000000000000602082015250565b6000611817602283610df3565b9150611822826117bb565b604082019050919050565b600060208201905081810360008301526118468161180a565b9050919050565b7f45524332303a20696e73756666696369656e7420616c6c6f77616e6365000000600082015250565b6000611883601d83610df3565b915061188e8261184d565b602082019050919050565b600060208201905081810360008301526118b281611876565b9050919050565b7f45524332303a207472616e736665722066726f6d20746865207a65726f20616460008201527f6472657373000000000000000000000000000000000000000000000000000000602082015250565b6000611915602583610df3565b9150611920826118b9565b604082019050919050565b6000602082019050818103600083015261194481611908565b9050919050565b7f45524332303a207472616e7366657220746f20746865207a65726f206164647260008201527f6573730000000000000000000000000000000000000000000000000000000000602082015250565b60006119a7602383610df3565b91506119b28261194b565b604082019050919050565b600060208201905081810360008301526119d68161199a565b9050919050565b7f45524332303a207472616e7366657220616d6f756e742065786365656473206260008201527f616c616e63650000000000000000000000000000000000000000000000000000602082015250565b6000611a39602683610df3565b9150611a44826119dd565b604082019050919050565b60006020820190508181036000830152611a6881611a2c565b905091905056fea26469706673582212209cd84eac445ef7c1f9cf1caeb3765ff5eda6a10fa8622ede2896249ade2acc0d64736f6c63430008120033",
					"opcodes": "PUSH1 0x80 PUSH1 0x40 MSTORE CALLVALUE DUP1 ISZERO PUSH3 0x11 JUMPI PUSH1 0x0 DUP1 REVERT JUMPDEST POP PUSH1 0x40 MLOAD DUP1 PUSH1 0x40 ADD PUSH1 0x40 MSTORE DUP1 PUSH1 0x10 DUP2 MSTORE PUSH1 0x20 ADD PUSH32 0x54696E79204E6F74657320546F6B656E00000000000000000000000000000000 DUP2 MSTORE POP PUSH1 0x40 MLOAD DUP1 PUSH1 0x40 ADD PUSH1 0x40 MSTORE DUP1 PUSH1 0x3 DUP2 MSTORE PUSH1 0x20 ADD PUSH32 0x544E540000000000000000000000000000000000000000000000000000000000 DUP2 MSTORE POP DUP2 PUSH1 0x3 SWAP1 DUP2 PUSH3 0x8F SWAP2 SWAP1 PUSH3 0x4E4 JUMP JUMPDEST POP DUP1 PUSH1 0x4 SWAP1 DUP2 PUSH3 0xA1 SWAP2 SWAP1 PUSH3 0x4E4 JUMP JUMPDEST POP POP POP PUSH3 0xE4 CALLER PUSH3 0xB9 PUSH3 0xEA PUSH1 0x20 SHL PUSH1 0x20 SHR JUMP JUMPDEST PUSH1 0xA PUSH3 0xC7 SWAP2 SWAP1 PUSH3 0x75B JUMP JUMPDEST PUSH4 0x2CD29C0 PUSH3 0xD8 SWAP2 SWAP1 PUSH3 0x7AC JUMP JUMPDEST PUSH3 0xF3 PUSH1 0x20 SHL PUSH1 0x20 SHR JUMP JUMPDEST PUSH3 0x8E3 JUMP JUMPDEST PUSH1 0x0 PUSH1 0x12 SWAP1 POP SWAP1 JUMP JUMPDEST PUSH1 0x0 PUSH20 0xFFFFFFFFFFFFFFFFFFFFFFFFFFFFFFFFFFFFFFFF AND DUP3 PUSH20 0xFFFFFFFFFFFFFFFFFFFFFFFFFFFFFFFFFFFFFFFF AND SUB PUSH3 0x165 JUMPI PUSH1 0x40 MLOAD PUSH32 0x8C379A000000000000000000000000000000000000000000000000000000000 DUP2 MSTORE PUSH1 0x4 ADD PUSH3 0x15C SWAP1 PUSH3 0x858 JUMP JUMPDEST PUSH1 0x40 MLOAD DUP1 SWAP2 SUB SWAP1 REVERT JUMPDEST PUSH3 0x179 PUSH1 0x0 DUP4 DUP4 PUSH3 0x260 PUSH1 0x20 SHL PUSH1 0x20 SHR JUMP JUMPDEST DUP1 PUSH1 0x2 PUSH1 0x0 DUP3 DUP3 SLOAD PUSH3 0x18D SWAP2 SWAP1 PUSH3 0x87A JUMP JUMPDEST SWAP3 POP POP DUP2 SWAP1 SSTORE POP DUP1 PUSH1 0x0 DUP1 DUP5 PUSH20 0xFFFFFFFFFFFFFFFFFFFFFFFFFFFFFFFFFFFFFFFF AND PUSH20 0xFFFFFFFFFFFFFFFFFFFFFFFFFFFFFFFFFFFFFFFF AND DUP2 MSTORE PUSH1 0x20 ADD SWAP1 DUP2 MSTORE PUSH1 0x20 ADD PUSH1 0x0 KECCAK256 PUSH1 0x0 DUP3 DUP3 SLOAD ADD SWAP3 POP POP DUP2 SWAP1 SSTORE POP DUP2 PUSH20 0xFFFFFFFFFFFFFFFFFFFFFFFFFFFFFFFFFFFFFFFF AND PUSH1 0x0 PUSH20 0xFFFFFFFFFFFFFFFFFFFFFFFFFFFFFFFFFFFFFFFF AND PUSH32 0xDDF252AD1BE2C89B69C2B068FC378DAA952BA7F163C4A11628F55A4DF523B3EF DUP4 PUSH1 0x40 MLOAD PUSH3 0x240 SWAP2 SWAP1 PUSH3 0x8C6 JUMP JUMPDEST PUSH1 0x40 MLOAD DUP1 SWAP2 SUB SWAP1 LOG3 PUSH3 0x25C PUSH1 0x0 DUP4 DUP4 PUSH3 0x265 PUSH1 0x20 SHL PUSH1 0x20 SHR JUMP JUMPDEST POP POP JUMP JUMPDEST POP POP POP JUMP JUMPDEST POP POP POP JUMP JUMPDEST PUSH1 0x0 DUP2 MLOAD SWAP1 POP SWAP2 SWAP1 POP JUMP JUMPDEST PUSH32 0x4E487B7100000000000000000000000000000000000000000000000000000000 PUSH1 0x0 MSTORE PUSH1 0x41 PUSH1 0x4 MSTORE PUSH1 0x24 PUSH1 0x0 REVERT JUMPDEST PUSH32 0x4E487B7100000000000000000000000000000000000000000000000000000000 PUSH1 0x0 MSTORE PUSH1 0x22 PUSH1 0x4 MSTORE PUSH1 0x24 PUSH1 0x0 REVERT JUMPDEST PUSH1 0x0 PUSH1 0x2 DUP3 DIV SWAP1 POP PUSH1 0x1 DUP3 AND DUP1 PUSH3 0x2EC JUMPI PUSH1 0x7F DUP3 AND SWAP2 POP JUMPDEST PUSH1 0x20 DUP3 LT DUP2 SUB PUSH3 0x302 JUMPI PUSH3 0x301 PUSH3 0x2A4 JUMP JUMPDEST JUMPDEST POP SWAP2 SWAP1 POP JUMP JUMPDEST PUSH1 0x0 DUP2 SWAP1 POP DUP2 PUSH1 0x0 MSTORE PUSH1 0x20 PUSH1 0x0 KECCAK256 SWAP1 POP SWAP2 SWAP1 POP JUMP JUMPDEST PUSH1 0x0 PUSH1 0x20 PUSH1 0x1F DUP4 ADD DIV SWAP1 POP SWAP2 SWAP1 POP JUMP JUMPDEST PUSH1 0x0 DUP3 DUP3 SHL SWAP1 POP SWAP3 SWAP2 POP POP JUMP JUMPDEST PUSH1 0x0 PUSH1 0x8 DUP4 MUL PUSH3 0x36C PUSH32 0xFFFFFFFFFFFFFFFFFFFFFFFFFFFFFFFFFFFFFFFFFFFFFFFFFFFFFFFFFFFFFFFF DUP3 PUSH3 0x32D JUMP JUMPDEST PUSH3 0x378 DUP7 DUP4 PUSH3 0x32D JUMP JUMPDEST SWAP6 POP DUP1 NOT DUP5 AND SWAP4 POP DUP1 DUP7 AND DUP5 OR SWAP3 POP POP POP SWAP4 SWAP3 POP POP POP JUMP JUMPDEST PUSH1 0x0 DUP2 SWAP1 POP SWAP2 SWAP1 POP JUMP JUMPDEST PUSH1 0x0 DUP2 SWAP1 POP SWAP2 SWAP1 POP JUMP JUMPDEST PUSH1 0x0 PUSH3 0x3C5 PUSH3 0x3BF PUSH3 0x3B9 DUP5 PUSH3 0x390 JUMP JUMPDEST PUSH3 0x39A JUMP JUMPDEST PUSH3 0x390 JUMP JUMPDEST SWAP1 POP SWAP2 SWAP1 POP JUMP JUMPDEST PUSH1 0x0 DUP2 SWAP1 POP SWAP2 SWAP1 POP JUMP JUMPDEST PUSH3 0x3E1 DUP4 PUSH3 0x3A4 JUMP JUMPDEST PUSH3 0x3F9 PUSH3 0x3F0 DUP3 PUSH3 0x3CC JUMP JUMPDEST DUP5 DUP5 SLOAD PUSH3 0x33A JUMP JUMPDEST DUP3 SSTORE POP POP POP POP JUMP JUMPDEST PUSH1 0x0 SWAP1 JUMP JUMPDEST PUSH3 0x410 PUSH3 0x401 JUMP JUMPDEST PUSH3 0x41D DUP2 DUP5 DUP5 PUSH3 0x3D6 JUMP JUMPDEST POP POP POP JUMP JUMPDEST JUMPDEST DUP2 DUP2 LT ISZERO PUSH3 0x445 JUMPI PUSH3 0x439 PUSH1 0x0 DUP3 PUSH3 0x406 JUMP JUMPDEST PUSH1 0x1 DUP2 ADD SWAP1 POP PUSH3 0x423 JUMP JUMPDEST POP POP JUMP JUMPDEST PUSH1 0x1F DUP3 GT ISZERO PUSH3 0x494 JUMPI PUSH3 0x45E DUP2 PUSH3 0x308 JUMP JUMPDEST PUSH3 0x469 DUP5 PUSH3 0x31D JUMP JUMPDEST DUP2 ADD PUSH1 0x20 DUP6 LT ISZERO PUSH3 0x479 JUMPI DUP2 SWAP1 POP JUMPDEST PUSH3 0x491 PUSH3 0x488 DUP6 PUSH3 0x31D JUMP JUMPDEST DUP4 ADD DUP3 PUSH3 0x422 JUMP JUMPDEST POP POP JUMPDEST POP POP POP JUMP JUMPDEST PUSH1 0x0 DUP3 DUP3 SHR SWAP1 POP SWAP3 SWAP2 POP POP JUMP JUMPDEST PUSH1 0x0 PUSH3 0x4B9 PUSH1 0x0 NOT DUP5 PUSH1 0x8 MUL PUSH3 0x499 JUMP JUMPDEST NOT DUP1 DUP4 AND SWAP2 POP POP SWAP3 SWAP2 POP POP JUMP JUMPDEST PUSH1 0x0 PUSH3 0x4D4 DUP4 DUP4 PUSH3 0x4A6 JUMP JUMPDEST SWAP2 POP DUP3 PUSH1 0x2 MUL DUP3 OR SWAP1 POP SWAP3 SWAP2 POP POP JUMP JUMPDEST PUSH3 0x4EF DUP3 PUSH3 0x26A JUMP JUMPDEST PUSH8 0xFFFFFFFFFFFFFFFF DUP2 GT ISZERO PUSH3 0x50B JUMPI PUSH3 0x50A PUSH3 0x275 JUMP JUMPDEST JUMPDEST PUSH3 0x517 DUP3 SLOAD PUSH3 0x2D3 JUMP JUMPDEST PUSH3 0x524 DUP3 DUP3 DUP6 PUSH3 0x449 JUMP JUMPDEST PUSH1 0x0 PUSH1 0x20 SWAP1 POP PUSH1 0x1F DUP4 GT PUSH1 0x1 DUP2 EQ PUSH3 0x55C JUMPI PUSH1 0x0 DUP5 ISZERO PUSH3 0x547 JUMPI DUP3 DUP8 ADD MLOAD SWAP1 POP JUMPDEST PUSH3 0x553 DUP6 DUP3 PUSH3 0x4C6 JUMP JUMPDEST DUP7 SSTORE POP PUSH3 0x5C3 JUMP JUMPDEST PUSH1 0x1F NOT DUP5 AND PUSH3 0x56C DUP7 PUSH3 0x308 JUMP JUMPDEST PUSH1 0x0 JUMPDEST DUP3 DUP2 LT ISZERO PUSH3 0x596 JUMPI DUP5 DUP10 ADD MLOAD DUP3 SSTORE PUSH1 0x1 DUP3 ADD SWAP2 POP PUSH1 0x20 DUP6 ADD SWAP5 POP PUSH1 0x20 DUP2 ADD SWAP1 POP PUSH3 0x56F JUMP JUMPDEST DUP7 DUP4 LT ISZERO PUSH3 0x5B6 JUMPI DUP5 DUP10 ADD MLOAD PUSH3 0x5B2 PUSH1 0x1F DUP10 AND DUP3 PUSH3 0x4A6 JUMP JUMPDEST DUP4 SSTORE POP JUMPDEST PUSH1 0x1 PUSH1 0x2 DUP9 MUL ADD DUP9 SSTORE POP POP POP JUMPDEST POP POP POP POP POP POP JUMP JUMPDEST PUSH32 0x4E487B7100000000000000000000000000000000000000000000000000000000 PUSH1 0x0 MSTORE PUSH1 0x11 PUSH1 0x4 MSTORE PUSH1 0x24 PUSH1 0x0 REVERT JUMPDEST PUSH1 0x0 DUP2 PUSH1 0x1 SHR SWAP1 POP SWAP2 SWAP1 POP JUMP JUMPDEST PUSH1 0x0 DUP1 DUP3 SWAP2 POP DUP4 SWAP1 POP JUMPDEST PUSH1 0x1 DUP6 GT ISZERO PUSH3 0x659 JUMPI DUP1 DUP7 DIV DUP2 GT ISZERO PUSH3 0x631 JUMPI PUSH3 0x630 PUSH3 0x5CB JUMP JUMPDEST JUMPDEST PUSH1 0x1 DUP6 AND ISZERO PUSH3 0x641 JUMPI DUP1 DUP3 MUL SWAP2 POP JUMPDEST DUP1 DUP2 MUL SWAP1 POP PUSH3 0x651 DUP6 PUSH3 0x5FA JUMP JUMPDEST SWAP5 POP PUSH3 0x611 JUMP JUMPDEST SWAP5 POP SWAP5 SWAP3 POP POP POP JUMP JUMPDEST PUSH1 0x0 DUP3 PUSH3 0x674 JUMPI PUSH1 0x1 SWAP1 POP PUSH3 0x747 JUMP JUMPDEST DUP2 PUSH3 0x684 JUMPI PUSH1 0x0 SWAP1 POP PUSH3 0x747 JUMP JUMPDEST DUP2 PUSH1 0x1 DUP2 EQ PUSH3 0x69D JUMPI PUSH1 0x2 DUP2 EQ PUSH3 0x6A8 JUMPI PUSH3 0x6DE JUMP JUMPDEST PUSH1 0x1 SWAP2 POP POP PUSH3 0x747 JUMP JUMPDEST PUSH1 0xFF DUP5 GT ISZERO PUSH3 0x6BD JUMPI PUSH3 0x6BC PUSH3 0x5CB JUMP JUMPDEST JUMPDEST DUP4 PUSH1 0x2 EXP SWAP2 POP DUP5 DUP3 GT ISZERO PUSH3 0x6D7 JUMPI PUSH3 0x6D6 PUSH3 0x5CB JUMP JUMPDEST JUMPDEST POP PUSH3 0x747 JUMP JUMPDEST POP PUSH1 0x20 DUP4 LT PUSH2 0x133 DUP4 LT AND PUSH1 0x4E DUP5 LT PUSH1 0xB DUP5 LT AND OR ISZERO PUSH3 0x718 JUMPI DUP3 DUP3 EXP SWAP1 POP DUP4 DUP2 GT ISZERO PUSH3 0x712 JUMPI PUSH3 0x711 PUSH3 0x5CB JUMP JUMPDEST JUMPDEST PUSH3 0x747 JUMP JUMPDEST PUSH3 0x727 DUP5 DUP5 DUP5 PUSH1 0x1 PUSH3 0x607 JUMP JUMPDEST SWAP3 POP SWAP1 POP DUP2 DUP5 DIV DUP2 GT ISZERO PUSH3 0x741 JUMPI PUSH3 0x740 PUSH3 0x5CB JUMP JUMPDEST JUMPDEST DUP2 DUP2 MUL SWAP1 POP JUMPDEST SWAP4 SWAP3 POP POP POP JUMP JUMPDEST PUSH1 0x0 PUSH1 0xFF DUP3 AND SWAP1 POP SWAP2 SWAP1 POP JUMP JUMPDEST PUSH1 0x0 PUSH3 0x768 DUP3 PUSH3 0x390 JUMP JUMPDEST SWAP2 POP PUSH3 0x775 DUP4 PUSH3 0x74E JUMP JUMPDEST SWAP3 POP PUSH3 0x7A4 PUSH32 0xFFFFFFFFFFFFFFFFFFFFFFFFFFFFFFFFFFFFFFFFFFFFFFFFFFFFFFFFFFFFFFFF DUP5 DUP5 PUSH3 0x662 JUMP JUMPDEST SWAP1 POP SWAP3 SWAP2 POP POP JUMP JUMPDEST PUSH1 0x0 PUSH3 0x7B9 DUP3 PUSH3 0x390 JUMP JUMPDEST SWAP2 POP PUSH3 0x7C6 DUP4 PUSH3 0x390 JUMP JUMPDEST SWAP3 POP DUP3 DUP3 MUL PUSH3 0x7D6 DUP2 PUSH3 0x390 JUMP JUMPDEST SWAP2 POP DUP3 DUP3 DIV DUP5 EQ DUP4 ISZERO OR PUSH3 0x7F0 JUMPI PUSH3 0x7EF PUSH3 0x5CB JUMP JUMPDEST JUMPDEST POP SWAP3 SWAP2 POP POP JUMP JUMPDEST PUSH1 0x0 DUP3 DUP3 MSTORE PUSH1 0x20 DUP3 ADD SWAP1 POP SWAP3 SWAP2 POP POP JUMP JUMPDEST PUSH32 0x45524332303A206D696E7420746F20746865207A65726F206164647265737300 PUSH1 0x0 DUP3 ADD MSTORE POP JUMP JUMPDEST PUSH1 0x0 PUSH3 0x840 PUSH1 0x1F DUP4 PUSH3 0x7F7 JUMP JUMPDEST SWAP2 POP PUSH3 0x84D DUP3 PUSH3 0x808 JUMP JUMPDEST PUSH1 0x20 DUP3 ADD SWAP1 POP SWAP2 SWAP1 POP JUMP JUMPDEST PUSH1 0x0 PUSH1 0x20 DUP3 ADD SWAP1 POP DUP2 DUP2 SUB PUSH1 0x0 DUP4 ADD MSTORE PUSH3 0x873 DUP2 PUSH3 0x831 JUMP JUMPDEST SWAP1 POP SWAP2 SWAP1 POP JUMP JUMPDEST PUSH1 0x0 PUSH3 0x887 DUP3 PUSH3 0x390 JUMP JUMPDEST SWAP2 POP PUSH3 0x894 DUP4 PUSH3 0x390 JUMP JUMPDEST SWAP3 POP DUP3 DUP3 ADD SWAP1 POP DUP1 DUP3 GT ISZERO PUSH3 0x8AF JUMPI PUSH3 0x8AE PUSH3 0x5CB JUMP JUMPDEST JUMPDEST SWAP3 SWAP2 POP POP JUMP JUMPDEST PUSH3 0x8C0 DUP2 PUSH3 0x390 JUMP JUMPDEST DUP3 MSTORE POP POP JUMP JUMPDEST PUSH1 0x0 PUSH1 0x20 DUP3 ADD SWAP1 POP PUSH3 0x8DD PUSH1 0x0 DUP4 ADD DUP5 PUSH3 0x8B5 JUMP JUMPDEST SWAP3 SWAP2 POP POP JUMP JUMPDEST PUSH2 0x1AA5 DUP1 PUSH3 0x8F3 PUSH1 0x0 CODECOPY PUSH1 0x0 RETURN INVALID PUSH1 0x80 PUSH1 0x40 MSTORE CALLVALUE DUP1 ISZERO PUSH2 0x10 JUMPI PUSH1 0x0 DUP1 REVERT JUMPDEST POP PUSH1 0x4 CALLDATASIZE LT PUSH2 0xCF JUMPI PUSH1 0x0 CALLDATALOAD PUSH1 0xE0 SHR DUP1 PUSH4 0x39509351 GT PUSH2 0x8C JUMPI DUP1 PUSH4 0xA457C2D7 GT PUSH2 0x66 JUMPI DUP1 PUSH4 0xA457C2D7 EQ PUSH2 0x228 JUMPI DUP1 PUSH4 0xA9059CBB EQ PUSH2 0x258 JUMPI DUP1 PUSH4 0xD311651A EQ PUSH2 0x288 JUMPI DUP1 PUSH4 0xDD62ED3E EQ PUSH2 0x2B9 JUMPI PUSH2 0xCF JUMP JUMPDEST DUP1 PUSH4 0x39509351 EQ PUSH2 0x1AA JUMPI DUP1 PUSH4 0x70A08231 EQ PUSH2 0x1DA JUMPI DUP1 PUSH4 0x95D89B41 EQ PUSH2 0x20A JUMPI PUSH2 0xCF JUMP JUMPDEST DUP1 PUSH4 0x6FDDE03 EQ PUSH2 0xD4 JUMPI DUP1 PUSH4 0x95EA7B3 EQ PUSH2 0xF2 JUMPI DUP1 PUSH4 0x18160DDD EQ PUSH2 0x122 JUMPI DUP1 PUSH4 0x23B872DD EQ PUSH2 0x140 JUMPI DUP1 PUSH4 0x2FEAF817 EQ PUSH2 0x170 JUMPI DUP1 PUSH4 0x313CE567 EQ PUSH2 0x18C JUMPI JUMPDEST PUSH1 0x0 DUP1 REVERT JUMPDEST PUSH2 0xDC PUSH2 0x2E9 JUMP JUMPDEST PUSH1 0x40 MLOAD PUSH2 0xE9 SWAP2 SWAP1 PUSH2 0xE78 JUMP JUMPDEST PUSH1 0x40 MLOAD DUP1 SWAP2 SUB SWAP1 RETURN JUMPDEST PUSH2 0x10C PUSH1 0x4 DUP1 CALLDATASIZE SUB DUP2 ADD SWAP1 PUSH2 0x107 SWAP2 SWAP1 PUSH2 0xF42 JUMP JUMPDEST PUSH2 0x37B JUMP JUMPDEST PUSH1 0x40 MLOAD PUSH2 0x119 SWAP2 SWAP1 PUSH2 0xF9D JUMP JUMPDEST PUSH1 0x40 MLOAD DUP1 SWAP2 SUB SWAP1 RETURN JUMPDEST PUSH2 0x12A PUSH2 0x39E JUMP JUMPDEST PUSH1 0x40 MLOAD PUSH2 0x137 SWAP2 SWAP1 PUSH2 0xFC7 JUMP JUMPDEST PUSH1 0x40 MLOAD DUP1 SWAP2 SUB SWAP1 RETURN JUMPDEST PUSH2 0x15A PUSH1 0x4 DUP1 CALLDATASIZE SUB DUP2 ADD SWAP1 PUSH2 0x155 SWAP2 SWAP1 PUSH2 0xFE2 JUMP JUMPDEST PUSH2 0x3A8 JUMP JUMPDEST PUSH1 0x40 MLOAD PUSH2 0x167 SWAP2 SWAP1 PUSH2 0xF9D JUMP JUMPDEST PUSH1 0x40 MLOAD DUP1 SWAP2 SUB SWAP1 RETURN JUMPDEST PUSH2 0x18A PUSH1 0x4 DUP1 CALLDATASIZE SUB DUP2 ADD SWAP1 PUSH2 0x185 SWAP2 SWAP1 PUSH2 0x116A JUMP JUMPDEST PUSH2 0x3D7 JUMP JUMPDEST STOP JUMPDEST PUSH2 0x194 PUSH2 0x4F9 JUMP JUMPDEST PUSH1 0x40 MLOAD PUSH2 0x1A1 SWAP2 SWAP1 PUSH2 0x11FE JUMP JUMPDEST PUSH1 0x40 MLOAD DUP1 SWAP2 SUB SWAP1 RETURN JUMPDEST PUSH2 0x1C4 PUSH1 0x4 DUP1 CALLDATASIZE SUB DUP2 ADD SWAP1 PUSH2 0x1BF SWAP2 SWAP1 PUSH2 0xF42 JUMP JUMPDEST PUSH2 0x502 JUMP JUMPDEST PUSH1 0x40 MLOAD PUSH2 0x1D1 SWAP2 SWAP1 PUSH2 0xF9D JUMP JUMPDEST PUSH1 0x40 MLOAD DUP1 SWAP2 SUB SWAP1 RETURN JUMPDEST PUSH2 0x1F4 PUSH1 0x4 DUP1 CALLDATASIZE SUB DUP2 ADD SWAP1 PUSH2 0x1EF SWAP2 SWAP1 PUSH2 0x1219 JUMP JUMPDEST PUSH2 0x539 JUMP JUMPDEST PUSH1 0x40 MLOAD PUSH2 0x201 SWAP2 SWAP1 PUSH2 0xFC7 JUMP JUMPDEST PUSH1 0x40 MLOAD DUP1 SWAP2 SUB SWAP1 RETURN JUMPDEST PUSH2 0x212 PUSH2 0x581 JUMP JUMPDEST PUSH1 0x40 MLOAD PUSH2 0x21F SWAP2 SWAP1 PUSH2 0xE78 JUMP JUMPDEST PUSH1 0x40 MLOAD DUP1 SWAP2 SUB SWAP1 RETURN JUMPDEST PUSH2 0x242 PUSH1 0x4 DUP1 CALLDATASIZE SUB DUP2 ADD SWAP1 PUSH2 0x23D SWAP2 SWAP1 PUSH2 0xF42 JUMP JUMPDEST PUSH2 0x613 JUMP JUMPDEST PUSH1 0x40 MLOAD PUSH2 0x24F SWAP2 SWAP1 PUSH2 0xF9D JUMP JUMPDEST PUSH1 0x40 MLOAD DUP1 SWAP2 SUB SWAP1 RETURN JUMPDEST PUSH2 0x272 PUSH1 0x4 DUP1 CALLDATASIZE SUB DUP2 ADD SWAP1 PUSH2 0x26D SWAP2 SWAP1 PUSH2 0xF42 JUMP JUMPDEST PUSH2 0x68A JUMP JUMPDEST PUSH1 0x40 MLOAD PUSH2 0x27F SWAP2 SWAP1 PUSH2 0xF9D JUMP JUMPDEST PUSH1 0x40 MLOAD DUP1 SWAP2 SUB SWAP1 RETURN JUMPDEST PUSH2 0x2A2 PUSH1 0x4 DUP1 CALLDATASIZE SUB DUP2 ADD SWAP1 PUSH2 0x29D SWAP2 SWAP1 PUSH2 0x1246 JUMP JUMPDEST PUSH2 0x6AD JUMP JUMPDEST PUSH1 0x40 MLOAD PUSH2 0x2B0 SWAP3 SWAP2 SWAP1 PUSH2 0x1273 JUMP JUMPDEST PUSH1 0x40 MLOAD DUP1 SWAP2 SUB SWAP1 RETURN JUMPDEST PUSH2 0x2D3 PUSH1 0x4 DUP1 CALLDATASIZE SUB DUP2 ADD SWAP1 PUSH2 0x2CE SWAP2 SWAP1 PUSH2 0x12AA JUMP JUMPDEST PUSH2 0x860 JUMP JUMPDEST PUSH1 0x40 MLOAD PUSH2 0x2E0 SWAP2 SWAP1 PUSH2 0xFC7 JUMP JUMPDEST PUSH1 0x40 MLOAD DUP1 SWAP2 SUB SWAP1 RETURN JUMPDEST PUSH1 0x60 PUSH1 0x3 DUP1 SLOAD PUSH2 0x2F8 SWAP1 PUSH2 0x1319 JUMP JUMPDEST DUP1 PUSH1 0x1F ADD PUSH1 0x20 DUP1 SWAP2 DIV MUL PUSH1 0x20 ADD PUSH1 0x40 MLOAD SWAP1 DUP2 ADD PUSH1 0x40 MSTORE DUP1 SWAP3 SWAP2 SWAP1 DUP2 DUP2 MSTORE PUSH1 0x20 ADD DUP3 DUP1 SLOAD PUSH2 0x324 SWAP1 PUSH2 0x1319 JUMP JUMPDEST DUP1 ISZERO PUSH2 0x371 JUMPI DUP1 PUSH1 0x1F LT PUSH2 0x346 JUMPI PUSH2 0x100 DUP1 DUP4 SLOAD DIV MUL DUP4 MSTORE SWAP2 PUSH1 0x20 ADD SWAP2 PUSH2 0x371 JUMP JUMPDEST DUP3 ADD SWAP2 SWAP1 PUSH1 0x0 MSTORE PUSH1 0x20 PUSH1 0x0 KECCAK256 SWAP1 JUMPDEST DUP2 SLOAD DUP2 MSTORE SWAP1 PUSH1 0x1 ADD SWAP1 PUSH1 0x20 ADD DUP1 DUP4 GT PUSH2 0x354 JUMPI DUP3 SWAP1 SUB PUSH1 0x1F AND DUP3 ADD SWAP2 JUMPDEST POP POP POP POP POP SWAP1 POP SWAP1 JUMP JUMPDEST PUSH1 0x0 DUP1 PUSH2 0x386 PUSH2 0x8E7 JUMP JUMPDEST SWAP1 POP PUSH2 0x393 DUP2 DUP6 DUP6 PUSH2 0x8EF JUMP JUMPDEST PUSH1 0x1 SWAP2 POP POP SWAP3 SWAP2 POP POP JUMP JUMPDEST PUSH1 0x0 PUSH1 0x2 SLOAD SWAP1 POP SWAP1 JUMP JUMPDEST PUSH1 0x0 DUP1 PUSH2 0x3B3 PUSH2 0x8E7 JUMP JUMPDEST SWAP1 POP PUSH2 0x3C0 DUP6 DUP3 DUP6 PUSH2 0xAB8 JUMP JUMPDEST PUSH2 0x3CB DUP6 DUP6 DUP6 PUSH2 0xB44 JUMP JUMPDEST PUSH1 0x1 SWAP2 POP POP SWAP4 SWAP3 POP POP POP JUMP JUMPDEST PUSH1 0x0 PUSH2 0x3E2 CALLER PUSH2 0x539 JUMP JUMPDEST GT PUSH2 0x422 JUMPI PUSH1 0x40 MLOAD PUSH32 0x8C379A000000000000000000000000000000000000000000000000000000000 DUP2 MSTORE PUSH1 0x4 ADD PUSH2 0x419 SWAP1 PUSH2 0x1396 JUMP JUMPDEST PUSH1 0x40 MLOAD DUP1 SWAP2 SUB SWAP1 REVERT JUMPDEST PUSH2 0x42C PUSH1 0x5 PUSH2 0xDBA JUMP JUMPDEST PUSH1 0x0 PUSH2 0x438 PUSH1 0x5 PUSH2 0xDD0 JUMP JUMPDEST SWAP1 POP PUSH1 0x40 MLOAD DUP1 PUSH1 0x60 ADD PUSH1 0x40 MSTORE DUP1 CALLER PUSH20 0xFFFFFFFFFFFFFFFFFFFFFFFFFFFFFFFFFFFFFFFF AND DUP2 MSTORE PUSH1 0x20 ADD DUP5 DUP2 MSTORE PUSH1 0x20 ADD DUP4 DUP2 MSTORE POP PUSH1 0x6 PUSH1 0x0 DUP4 DUP2 MSTORE PUSH1 0x20 ADD SWAP1 DUP2 MSTORE PUSH1 0x20 ADD PUSH1 0x0 KECCAK256 PUSH1 0x0 DUP3 ADD MLOAD DUP2 PUSH1 0x0 ADD PUSH1 0x0 PUSH2 0x100 EXP DUP2 SLOAD DUP2 PUSH20 0xFFFFFFFFFFFFFFFFFFFFFFFFFFFFFFFFFFFFFFFF MUL NOT AND SWAP1 DUP4 PUSH20 0xFFFFFFFFFFFFFFFFFFFFFFFFFFFFFFFFFFFFFFFF AND MUL OR SWAP1 SSTORE POP PUSH1 0x20 DUP3 ADD MLOAD DUP2 PUSH1 0x1 ADD SWAP1 DUP2 PUSH2 0x4DA SWAP2 SWAP1 PUSH2 0x1562 JUMP JUMPDEST POP PUSH1 0x40 DUP3 ADD MLOAD DUP2 PUSH1 0x2 ADD SWAP1 DUP2 PUSH2 0x4F0 SWAP2 SWAP1 PUSH2 0x1562 JUMP JUMPDEST POP SWAP1 POP POP POP POP POP JUMP JUMPDEST PUSH1 0x0 PUSH1 0x12 SWAP1 POP SWAP1 JUMP JUMPDEST PUSH1 0x0 DUP1 PUSH2 0x50D PUSH2 0x8E7 JUMP JUMPDEST SWAP1 POP PUSH2 0x52E DUP2 DUP6 DUP6 PUSH2 0x51F DUP6 DUP10 PUSH2 0x860 JUMP JUMPDEST PUSH2 0x529 SWAP2 SWAP1 PUSH2 0x1663 JUMP JUMPDEST PUSH2 0x8EF JUMP JUMPDEST PUSH1 0x1 SWAP2 POP POP SWAP3 SWAP2 POP POP JUMP JUMPDEST PUSH1 0x0 DUP1 PUSH1 0x0 DUP4 PUSH20 0xFFFFFFFFFFFFFFFFFFFFFFFFFFFFFFFFFFFFFFFF AND PUSH20 0xFFFFFFFFFFFFFFFFFFFFFFFFFFFFFFFFFFFFFFFF AND DUP2 MSTORE PUSH1 0x20 ADD SWAP1 DUP2 MSTORE PUSH1 0x20 ADD PUSH1 0x0 KECCAK256 SLOAD SWAP1 POP SWAP2 SWAP1 POP JUMP JUMPDEST PUSH1 0x60 PUSH1 0x4 DUP1 SLOAD PUSH2 0x590 SWAP1 PUSH2 0x1319 JUMP JUMPDEST DUP1 PUSH1 0x1F ADD PUSH1 0x20 DUP1 SWAP2 DIV MUL PUSH1 0x20 ADD PUSH1 0x40 MLOAD SWAP1 DUP2 ADD PUSH1 0x40 MSTORE DUP1 SWAP3 SWAP2 SWAP1 DUP2 DUP2 MSTORE PUSH1 0x20 ADD DUP3 DUP1 SLOAD PUSH2 0x5BC SWAP1 PUSH2 0x1319 JUMP JUMPDEST DUP1 ISZERO PUSH2 0x609 JUMPI DUP1 PUSH1 0x1F LT PUSH2 0x5DE JUMPI PUSH2 0x100 DUP1 DUP4 SLOAD DIV MUL DUP4 MSTORE SWAP2 PUSH1 0x20 ADD SWAP2 PUSH2 0x609 JUMP JUMPDEST DUP3 ADD SWAP2 SWAP1 PUSH1 0x0 MSTORE PUSH1 0x20 PUSH1 0x0 KECCAK256 SWAP1 JUMPDEST DUP2 SLOAD DUP2 MSTORE SWAP1 PUSH1 0x1 ADD SWAP1 PUSH1 0x20 ADD DUP1 DUP4 GT PUSH2 0x5EC JUMPI DUP3 SWAP1 SUB PUSH1 0x1F AND DUP3 ADD SWAP2 JUMPDEST POP POP POP POP POP SWAP1 POP SWAP1 JUMP JUMPDEST PUSH1 0x0 DUP1 PUSH2 0x61E PUSH2 0x8E7 JUMP JUMPDEST SWAP1 POP PUSH1 0x0 PUSH2 0x62C DUP3 DUP7 PUSH2 0x860 JUMP JUMPDEST SWAP1 POP DUP4 DUP2 LT ISZERO PUSH2 0x671 JUMPI PUSH1 0x40 MLOAD PUSH32 0x8C379A000000000000000000000000000000000000000000000000000000000 DUP2 MSTORE PUSH1 0x4 ADD PUSH2 0x668 SWAP1 PUSH2 0x1709 JUMP JUMPDEST PUSH1 0x40 MLOAD DUP1 SWAP2 SUB SWAP1 REVERT JUMPDEST PUSH2 0x67E DUP3 DUP7 DUP7 DUP5 SUB PUSH2 0x8EF JUMP JUMPDEST PUSH1 0x1 SWAP3 POP POP POP SWAP3 SWAP2 POP POP JUMP JUMPDEST PUSH1 0x0 DUP1 PUSH2 0x695 PUSH2 0x8E7 JUMP JUMPDEST SWAP1 POP PUSH2 0x6A2 DUP2 DUP6 DUP6 PUSH2 0xB44 JUMP JUMPDEST PUSH1 0x1 SWAP2 POP POP SWAP3 SWAP2 POP POP JUMP JUMPDEST PUSH1 0x60 DUP1 PUSH1 0x0 PUSH1 0x6 PUSH1 0x0 DUP6 DUP2 MSTORE PUSH1 0x20 ADD SWAP1 DUP2 MSTORE PUSH1 0x20 ADD PUSH1 0x0 KECCAK256 PUSH1 0x40 MLOAD DUP1 PUSH1 0x60 ADD PUSH1 0x40 MSTORE SWAP1 DUP2 PUSH1 0x0 DUP3 ADD PUSH1 0x0 SWAP1 SLOAD SWAP1 PUSH2 0x100 EXP SWAP1 DIV PUSH20 0xFFFFFFFFFFFFFFFFFFFFFFFFFFFFFFFFFFFFFFFF AND PUSH20 0xFFFFFFFFFFFFFFFFFFFFFFFFFFFFFFFFFFFFFFFF AND PUSH20 0xFFFFFFFFFFFFFFFFFFFFFFFFFFFFFFFFFFFFFFFF AND DUP2 MSTORE PUSH1 0x20 ADD PUSH1 0x1 DUP3 ADD DUP1 SLOAD PUSH2 0x736 SWAP1 PUSH2 0x1319 JUMP JUMPDEST DUP1 PUSH1 0x1F ADD PUSH1 0x20 DUP1 SWAP2 DIV MUL PUSH1 0x20 ADD PUSH1 0x40 MLOAD SWAP1 DUP2 ADD PUSH1 0x40 MSTORE DUP1 SWAP3 SWAP2 SWAP1 DUP2 DUP2 MSTORE PUSH1 0x20 ADD DUP3 DUP1 SLOAD PUSH2 0x762 SWAP1 PUSH2 0x1319 JUMP JUMPDEST DUP1 ISZERO PUSH2 0x7AF JUMPI DUP1 PUSH1 0x1F LT PUSH2 0x784 JUMPI PUSH2 0x100 DUP1 DUP4 SLOAD DIV MUL DUP4 MSTORE SWAP2 PUSH1 0x20 ADD SWAP2 PUSH2 0x7AF JUMP JUMPDEST DUP3 ADD SWAP2 SWAP1 PUSH1 0x0 MSTORE PUSH1 0x20 PUSH1 0x0 KECCAK256 SWAP1 JUMPDEST DUP2 SLOAD DUP2 MSTORE SWAP1 PUSH1 0x1 ADD SWAP1 PUSH1 0x20 ADD DUP1 DUP4 GT PUSH2 0x792 JUMPI DUP3 SWAP1 SUB PUSH1 0x1F AND DUP3 ADD SWAP2 JUMPDEST POP POP POP POP POP DUP2 MSTORE PUSH1 0x20 ADD PUSH1 0x2 DUP3 ADD DUP1 SLOAD PUSH2 0x7C8 SWAP1 PUSH2 0x1319 JUMP JUMPDEST DUP1 PUSH1 0x1F ADD PUSH1 0x20 DUP1 SWAP2 DIV MUL PUSH1 0x20 ADD PUSH1 0x40 MLOAD SWAP1 DUP2 ADD PUSH1 0x40 MSTORE DUP1 SWAP3 SWAP2 SWAP1 DUP2 DUP2 MSTORE PUSH1 0x20 ADD DUP3 DUP1 SLOAD PUSH2 0x7F4 SWAP1 PUSH2 0x1319 JUMP JUMPDEST DUP1 ISZERO PUSH2 0x841 JUMPI DUP1 PUSH1 0x1F LT PUSH2 0x816 JUMPI PUSH2 0x100 DUP1 DUP4 SLOAD DIV MUL DUP4 MSTORE SWAP2 PUSH1 0x20 ADD SWAP2 PUSH2 0x841 JUMP JUMPDEST DUP3 ADD SWAP2 SWAP1 PUSH1 0x0 MSTORE PUSH1 0x20 PUSH1 0x0 KECCAK256 SWAP1 JUMPDEST DUP2 SLOAD DUP2 MSTORE SWAP1 PUSH1 0x1 ADD SWAP1 PUSH1 0x20 ADD DUP1 DUP4 GT PUSH2 0x824 JUMPI DUP3 SWAP1 SUB PUSH1 0x1F AND DUP3 ADD SWAP2 JUMPDEST POP POP POP POP POP DUP2 MSTORE POP POP SWAP1 POP DUP1 PUSH1 0x20 ADD MLOAD DUP2 PUSH1 0x40 ADD MLOAD SWAP3 POP SWAP3 POP POP SWAP2 POP SWAP2 JUMP JUMPDEST PUSH1 0x0 PUSH1 0x1 PUSH1 0x0 DUP5 PUSH20 0xFFFFFFFFFFFFFFFFFFFFFFFFFFFFFFFFFFFFFFFF AND PUSH20 0xFFFFFFFFFFFFFFFFFFFFFFFFFFFFFFFFFFFFFFFF AND DUP2 MSTORE PUSH1 0x20 ADD SWAP1 DUP2 MSTORE PUSH1 0x20 ADD PUSH1 0x0 KECCAK256 PUSH1 0x0 DUP4 PUSH20 0xFFFFFFFFFFFFFFFFFFFFFFFFFFFFFFFFFFFFFFFF AND PUSH20 0xFFFFFFFFFFFFFFFFFFFFFFFFFFFFFFFFFFFFFFFF AND DUP2 MSTORE PUSH1 0x20 ADD SWAP1 DUP2 MSTORE PUSH1 0x20 ADD PUSH1 0x0 KECCAK256 SLOAD SWAP1 POP SWAP3 SWAP2 POP POP JUMP JUMPDEST PUSH1 0x0 CALLER SWAP1 POP SWAP1 JUMP JUMPDEST PUSH1 0x0 PUSH20 0xFFFFFFFFFFFFFFFFFFFFFFFFFFFFFFFFFFFFFFFF AND DUP4 PUSH20 0xFFFFFFFFFFFFFFFFFFFFFFFFFFFFFFFFFFFFFFFF AND SUB PUSH2 0x95E JUMPI PUSH1 0x40 MLOAD PUSH32 0x8C379A000000000000000000000000000000000000000000000000000000000 DUP2 MSTORE PUSH1 0x4 ADD PUSH2 0x955 SWAP1 PUSH2 0x179B JUMP JUMPDEST PUSH1 0x40 MLOAD DUP1 SWAP2 SUB SWAP1 REVERT JUMPDEST PUSH1 0x0 PUSH20 0xFFFFFFFFFFFFFFFFFFFFFFFFFFFFFFFFFFFFFFFF AND DUP3 PUSH20 0xFFFFFFFFFFFFFFFFFFFFFFFFFFFFFFFFFFFFFFFF AND SUB PUSH2 0x9CD JUMPI PUSH1 0x40 MLOAD PUSH32 0x8C379A000000000000000000000000000000000000000000000000000000000 DUP2 MSTORE PUSH1 0x4 ADD PUSH2 0x9C4 SWAP1 PUSH2 0x182D JUMP JUMPDEST PUSH1 0x40 MLOAD DUP1 SWAP2 SUB SWAP1 REVERT JUMPDEST DUP1 PUSH1 0x1 PUSH1 0x0 DUP6 PUSH20 0xFFFFFFFFFFFFFFFFFFFFFFFFFFFFFFFFFFFFFFFF AND PUSH20 0xFFFFFFFFFFFFFFFFFFFFFFFFFFFFFFFFFFFFFFFF AND DUP2 MSTORE PUSH1 0x20 ADD SWAP1 DUP2 MSTORE PUSH1 0x20 ADD PUSH1 0x0 KECCAK256 PUSH1 0x0 DUP5 PUSH20 0xFFFFFFFFFFFFFFFFFFFFFFFFFFFFFFFFFFFFFFFF AND PUSH20 0xFFFFFFFFFFFFFFFFFFFFFFFFFFFFFFFFFFFFFFFF AND DUP2 MSTORE PUSH1 0x20 ADD SWAP1 DUP2 MSTORE PUSH1 0x20 ADD PUSH1 0x0 KECCAK256 DUP2 SWAP1 SSTORE POP DUP2 PUSH20 0xFFFFFFFFFFFFFFFFFFFFFFFFFFFFFFFFFFFFFFFF AND DUP4 PUSH20 0xFFFFFFFFFFFFFFFFFFFFFFFFFFFFFFFFFFFFFFFF AND PUSH32 0x8C5BE1E5EBEC7D5BD14F71427D1E84F3DD0314C0F7B2291E5B200AC8C7C3B925 DUP4 PUSH1 0x40 MLOAD PUSH2 0xAAB SWAP2 SWAP1 PUSH2 0xFC7 JUMP JUMPDEST PUSH1 0x40 MLOAD DUP1 SWAP2 SUB SWAP1 LOG3 POP POP POP JUMP JUMPDEST PUSH1 0x0 PUSH2 0xAC4 DUP5 DUP5 PUSH2 0x860 JUMP JUMPDEST SWAP1 POP PUSH32 0xFFFFFFFFFFFFFFFFFFFFFFFFFFFFFFFFFFFFFFFFFFFFFFFFFFFFFFFFFFFFFFFF DUP2 EQ PUSH2 0xB3E JUMPI DUP2 DUP2 LT ISZERO PUSH2 0xB30 JUMPI PUSH1 0x40 MLOAD PUSH32 0x8C379A000000000000000000000000000000000000000000000000000000000 DUP2 MSTORE PUSH1 0x4 ADD PUSH2 0xB27 SWAP1 PUSH2 0x1899 JUMP JUMPDEST PUSH1 0x40 MLOAD DUP1 SWAP2 SUB SWAP1 REVERT JUMPDEST PUSH2 0xB3D DUP5 DUP5 DUP5 DUP5 SUB PUSH2 0x8EF JUMP JUMPDEST JUMPDEST POP POP POP POP JUMP JUMPDEST PUSH1 0x0 PUSH20 0xFFFFFFFFFFFFFFFFFFFFFFFFFFFFFFFFFFFFFFFF AND DUP4 PUSH20 0xFFFFFFFFFFFFFFFFFFFFFFFFFFFFFFFFFFFFFFFF AND SUB PUSH2 0xBB3 JUMPI PUSH1 0x40 MLOAD PUSH32 0x8C379A000000000000000000000000000000000000000000000000000000000 DUP2 MSTORE PUSH1 0x4 ADD PUSH2 0xBAA SWAP1 PUSH2 0x192B JUMP JUMPDEST PUSH1 0x40 MLOAD DUP1 SWAP2 SUB SWAP1 REVERT JUMPDEST PUSH1 0x0 PUSH20 0xFFFFFFFFFFFFFFFFFFFFFFFFFFFFFFFFFFFFFFFF AND DUP3 PUSH20 0xFFFFFFFFFFFFFFFFFFFFFFFFFFFFFFFFFFFFFFFF AND SUB PUSH2 0xC22 JUMPI PUSH1 0x40 MLOAD PUSH32 0x8C379A000000000000000000000000000000000000000000000000000000000 DUP2 MSTORE PUSH1 0x4 ADD PUSH2 0xC19 SWAP1 PUSH2 0x19BD JUMP JUMPDEST PUSH1 0x40 MLOAD DUP1 SWAP2 SUB SWAP1 REVERT JUMPDEST PUSH2 0xC2D DUP4 DUP4 DUP4 PUSH2 0xDDE JUMP JUMPDEST PUSH1 0x0 DUP1 PUSH1 0x0 DUP6 PUSH20 0xFFFFFFFFFFFFFFFFFFFFFFFFFFFFFFFFFFFFFFFF AND PUSH20 0xFFFFFFFFFFFFFFFFFFFFFFFFFFFFFFFFFFFFFFFF AND DUP2 MSTORE PUSH1 0x20 ADD SWAP1 DUP2 MSTORE PUSH1 0x20 ADD PUSH1 0x0 KECCAK256 SLOAD SWAP1 POP DUP2 DUP2 LT ISZERO PUSH2 0xCB3 JUMPI PUSH1 0x40 MLOAD PUSH32 0x8C379A000000000000000000000000000000000000000000000000000000000 DUP2 MSTORE PUSH1 0x4 ADD PUSH2 0xCAA SWAP1 PUSH2 0x1A4F JUMP JUMPDEST PUSH1 0x40 MLOAD DUP1 SWAP2 SUB SWAP1 REVERT JUMPDEST DUP2 DUP2 SUB PUSH1 0x0 DUP1 DUP7 PUSH20 0xFFFFFFFFFFFFFFFFFFFFFFFFFFFFFFFFFFFFFFFF AND PUSH20 0xFFFFFFFFFFFFFFFFFFFFFFFFFFFFFFFFFFFFFFFF AND DUP2 MSTORE PUSH1 0x20 ADD SWAP1 DUP2 MSTORE PUSH1 0x20 ADD PUSH1 0x0 KECCAK256 DUP2 SWAP1 SSTORE POP DUP2 PUSH1 0x0 DUP1 DUP6 PUSH20 0xFFFFFFFFFFFFFFFFFFFFFFFFFFFFFFFFFFFFFFFF AND PUSH20 0xFFFFFFFFFFFFFFFFFFFFFFFFFFFFFFFFFFFFFFFF AND DUP2 MSTORE PUSH1 0x20 ADD SWAP1 DUP2 MSTORE PUSH1 0x20 ADD PUSH1 0x0 KECCAK256 PUSH1 0x0 DUP3 DUP3 SLOAD ADD SWAP3 POP POP DUP2 SWAP1 SSTORE POP DUP3 PUSH20 0xFFFFFFFFFFFFFFFFFFFFFFFFFFFFFFFFFFFFFFFF AND DUP5 PUSH20 0xFFFFFFFFFFFFFFFFFFFFFFFFFFFFFFFFFFFFFFFF AND PUSH32 0xDDF252AD1BE2C89B69C2B068FC378DAA952BA7F163C4A11628F55A4DF523B3EF DUP5 PUSH1 0x40 MLOAD PUSH2 0xDA1 SWAP2 SWAP1 PUSH2 0xFC7 JUMP JUMPDEST PUSH1 0x40 MLOAD DUP1 SWAP2 SUB SWAP1 LOG3 PUSH2 0xDB4 DUP5 DUP5 DUP5 PUSH2 0xDE3 JUMP JUMPDEST POP POP POP POP JUMP JUMPDEST PUSH1 0x1 DUP2 PUSH1 0x0 ADD PUSH1 0x0 DUP3 DUP3 SLOAD ADD SWAP3 POP POP DUP2 SWAP1 SSTORE POP POP JUMP JUMPDEST PUSH1 0x0 DUP2 PUSH1 0x0 ADD SLOAD SWAP1 POP SWAP2 SWAP1 POP JUMP JUMPDEST POP POP POP JUMP JUMPDEST POP POP POP JUMP JUMPDEST PUSH1 0x0 DUP2 MLOAD SWAP1 POP SWAP2 SWAP1 POP JUMP JUMPDEST PUSH1 0x0 DUP3 DUP3 MSTORE PUSH1 0x20 DUP3 ADD SWAP1 POP SWAP3 SWAP2 POP POP JUMP JUMPDEST PUSH1 0x0 JUMPDEST DUP4 DUP2 LT ISZERO PUSH2 0xE22 JUMPI DUP1 DUP3 ADD MLOAD DUP2 DUP5 ADD MSTORE PUSH1 0x20 DUP2 ADD SWAP1 POP PUSH2 0xE07 JUMP JUMPDEST PUSH1 0x0 DUP5 DUP5 ADD MSTORE POP POP POP POP JUMP JUMPDEST PUSH1 0x0 PUSH1 0x1F NOT PUSH1 0x1F DUP4 ADD AND SWAP1 POP SWAP2 SWAP1 POP JUMP JUMPDEST PUSH1 0x0 PUSH2 0xE4A DUP3 PUSH2 0xDE8 JUMP JUMPDEST PUSH2 0xE54 DUP2 DUP6 PUSH2 0xDF3 JUMP JUMPDEST SWAP4 POP PUSH2 0xE64 DUP2 DUP6 PUSH1 0x20 DUP7 ADD PUSH2 0xE04 JUMP JUMPDEST PUSH2 0xE6D DUP2 PUSH2 0xE2E JUMP JUMPDEST DUP5 ADD SWAP2 POP POP SWAP3 SWAP2 POP POP JUMP JUMPDEST PUSH1 0x0 PUSH1 0x20 DUP3 ADD SWAP1 POP DUP2 DUP2 SUB PUSH1 0x0 DUP4 ADD MSTORE PUSH2 0xE92 DUP2 DUP5 PUSH2 0xE3F JUMP JUMPDEST SWAP1 POP SWAP3 SWAP2 POP POP JUMP JUMPDEST PUSH1 0x0 PUSH1 0x40 MLOAD SWAP1 POP SWAP1 JUMP JUMPDEST PUSH1 0x0 DUP1 REVERT JUMPDEST PUSH1 0x0 DUP1 REVERT JUMPDEST PUSH1 0x0 PUSH20 0xFFFFFFFFFFFFFFFFFFFFFFFFFFFFFFFFFFFFFFFF DUP3 AND SWAP1 POP SWAP2 SWAP1 POP JUMP JUMPDEST PUSH1 0x0 PUSH2 0xED9 DUP3 PUSH2 0xEAE JUMP JUMPDEST SWAP1 POP SWAP2 SWAP1 POP JUMP JUMPDEST PUSH2 0xEE9 DUP2 PUSH2 0xECE JUMP JUMPDEST DUP2 EQ PUSH2 0xEF4 JUMPI PUSH1 0x0 DUP1 REVERT JUMPDEST POP JUMP JUMPDEST PUSH1 0x0 DUP2 CALLDATALOAD SWAP1 POP PUSH2 0xF06 DUP2 PUSH2 0xEE0 JUMP JUMPDEST SWAP3 SWAP2 POP POP JUMP JUMPDEST PUSH1 0x0 DUP2 SWAP1 POP SWAP2 SWAP1 POP JUMP JUMPDEST PUSH2 0xF1F DUP2 PUSH2 0xF0C JUMP JUMPDEST DUP2 EQ PUSH2 0xF2A JUMPI PUSH1 0x0 DUP1 REVERT JUMPDEST POP JUMP JUMPDEST PUSH1 0x0 DUP2 CALLDATALOAD SWAP1 POP PUSH2 0xF3C DUP2 PUSH2 0xF16 JUMP JUMPDEST SWAP3 SWAP2 POP POP JUMP JUMPDEST PUSH1 0x0 DUP1 PUSH1 0x40 DUP4 DUP6 SUB SLT ISZERO PUSH2 0xF59 JUMPI PUSH2 0xF58 PUSH2 0xEA4 JUMP JUMPDEST JUMPDEST PUSH1 0x0 PUSH2 0xF67 DUP6 DUP3 DUP7 ADD PUSH2 0xEF7 JUMP JUMPDEST SWAP3 POP POP PUSH1 0x20 PUSH2 0xF78 DUP6 DUP3 DUP7 ADD PUSH2 0xF2D JUMP JUMPDEST SWAP2 POP POP SWAP3 POP SWAP3 SWAP1 POP JUMP JUMPDEST PUSH1 0x0 DUP2 ISZERO ISZERO SWAP1 POP SWAP2 SWAP1 POP JUMP JUMPDEST PUSH2 0xF97 DUP2 PUSH2 0xF82 JUMP JUMPDEST DUP3 MSTORE POP POP JUMP JUMPDEST PUSH1 0x0 PUSH1 0x20 DUP3 ADD SWAP1 POP PUSH2 0xFB2 PUSH1 0x0 DUP4 ADD DUP5 PUSH2 0xF8E JUMP JUMPDEST SWAP3 SWAP2 POP POP JUMP JUMPDEST PUSH2 0xFC1 DUP2 PUSH2 0xF0C JUMP JUMPDEST DUP3 MSTORE POP POP JUMP JUMPDEST PUSH1 0x0 PUSH1 0x20 DUP3 ADD SWAP1 POP PUSH2 0xFDC PUSH1 0x0 DUP4 ADD DUP5 PUSH2 0xFB8 JUMP JUMPDEST SWAP3 SWAP2 POP POP JUMP JUMPDEST PUSH1 0x0 DUP1 PUSH1 0x0 PUSH1 0x60 DUP5 DUP7 SUB SLT ISZERO PUSH2 0xFFB JUMPI PUSH2 0xFFA PUSH2 0xEA4 JUMP JUMPDEST JUMPDEST PUSH1 0x0 PUSH2 0x1009 DUP7 DUP3 DUP8 ADD PUSH2 0xEF7 JUMP JUMPDEST SWAP4 POP POP PUSH1 0x20 PUSH2 0x101A DUP7 DUP3 DUP8 ADD PUSH2 0xEF7 JUMP JUMPDEST SWAP3 POP POP PUSH1 0x40 PUSH2 0x102B DUP7 DUP3 DUP8 ADD PUSH2 0xF2D JUMP JUMPDEST SWAP2 POP POP SWAP3 POP SWAP3 POP SWAP3 JUMP JUMPDEST PUSH1 0x0 DUP1 REVERT JUMPDEST PUSH1 0x0 DUP1 REVERT JUMPDEST PUSH32 0x4E487B7100000000000000000000000000000000000000000000000000000000 PUSH1 0x0 MSTORE PUSH1 0x41 PUSH1 0x4 MSTORE PUSH1 0x24 PUSH1 0x0 REVERT JUMPDEST PUSH2 0x1077 DUP3 PUSH2 0xE2E JUMP JUMPDEST DUP2 ADD DUP2 DUP2 LT PUSH8 0xFFFFFFFFFFFFFFFF DUP3 GT OR ISZERO PUSH2 0x1096 JUMPI PUSH2 0x1095 PUSH2 0x103F JUMP JUMPDEST JUMPDEST DUP1 PUSH1 0x40 MSTORE POP POP POP JUMP JUMPDEST PUSH1 0x0 PUSH2 0x10A9 PUSH2 0xE9A JUMP JUMPDEST SWAP1 POP PUSH2 0x10B5 DUP3 DUP3 PUSH2 0x106E JUMP JUMPDEST SWAP2 SWAP1 POP JUMP JUMPDEST PUSH1 0x0 PUSH8 0xFFFFFFFFFFFFFFFF DUP3 GT ISZERO PUSH2 0x10D5 JUMPI PUSH2 0x10D4 PUSH2 0x103F JUMP JUMPDEST JUMPDEST PUSH2 0x10DE DUP3 PUSH2 0xE2E JUMP JUMPDEST SWAP1 POP PUSH1 0x20 DUP2 ADD SWAP1 POP SWAP2 SWAP1 POP JUMP JUMPDEST DUP3 DUP2 DUP4 CALLDATACOPY PUSH1 0x0 DUP4 DUP4 ADD MSTORE POP POP POP JUMP JUMPDEST PUSH1 0x0 PUSH2 0x110D PUSH2 0x1108 DUP5 PUSH2 0x10BA JUMP JUMPDEST PUSH2 0x109F JUMP JUMPDEST SWAP1 POP DUP3 DUP2 MSTORE PUSH1 0x20 DUP2 ADD DUP5 DUP5 DUP5 ADD GT ISZERO PUSH2 0x1129 JUMPI PUSH2 0x1128 PUSH2 0x103A JUMP JUMPDEST JUMPDEST PUSH2 0x1134 DUP5 DUP3 DUP6 PUSH2 0x10EB JUMP JUMPDEST POP SWAP4 SWAP3 POP POP POP JUMP JUMPDEST PUSH1 0x0 DUP3 PUSH1 0x1F DUP4 ADD SLT PUSH2 0x1151 JUMPI PUSH2 0x1150 PUSH2 0x1035 JUMP JUMPDEST JUMPDEST DUP2 CALLDATALOAD PUSH2 0x1161 DUP5 DUP3 PUSH1 0x20 DUP7 ADD PUSH2 0x10FA JUMP JUMPDEST SWAP2 POP POP SWAP3 SWAP2 POP POP JUMP JUMPDEST PUSH1 0x0 DUP1 PUSH1 0x40 DUP4 DUP6 SUB SLT ISZERO PUSH2 0x1181 JUMPI PUSH2 0x1180 PUSH2 0xEA4 JUMP JUMPDEST JUMPDEST PUSH1 0x0 DUP4 ADD CALLDATALOAD PUSH8 0xFFFFFFFFFFFFFFFF DUP2 GT ISZERO PUSH2 0x119F JUMPI PUSH2 0x119E PUSH2 0xEA9 JUMP JUMPDEST JUMPDEST PUSH2 0x11AB DUP6 DUP3 DUP7 ADD PUSH2 0x113C JUMP JUMPDEST SWAP3 POP POP PUSH1 0x20 DUP4 ADD CALLDATALOAD PUSH8 0xFFFFFFFFFFFFFFFF DUP2 GT ISZERO PUSH2 0x11CC JUMPI PUSH2 0x11CB PUSH2 0xEA9 JUMP JUMPDEST JUMPDEST PUSH2 0x11D8 DUP6 DUP3 DUP7 ADD PUSH2 0x113C JUMP JUMPDEST SWAP2 POP POP SWAP3 POP SWAP3 SWAP1 POP JUMP JUMPDEST PUSH1 0x0 PUSH1 0xFF DUP3 AND SWAP1 POP SWAP2 SWAP1 POP JUMP JUMPDEST PUSH2 0x11F8 DUP2 PUSH2 0x11E2 JUMP JUMPDEST DUP3 MSTORE POP POP JUMP JUMPDEST PUSH1 0x0 PUSH1 0x20 DUP3 ADD SWAP1 POP PUSH2 0x1213 PUSH1 0x0 DUP4 ADD DUP5 PUSH2 0x11EF JUMP JUMPDEST SWAP3 SWAP2 POP POP JUMP JUMPDEST PUSH1 0x0 PUSH1 0x20 DUP3 DUP5 SUB SLT ISZERO PUSH2 0x122F JUMPI PUSH2 0x122E PUSH2 0xEA4 JUMP JUMPDEST JUMPDEST PUSH1 0x0 PUSH2 0x123D DUP5 DUP3 DUP6 ADD PUSH2 0xEF7 JUMP JUMPDEST SWAP2 POP POP SWAP3 SWAP2 POP POP JUMP JUMPDEST PUSH1 0x0 PUSH1 0x20 DUP3 DUP5 SUB SLT ISZERO PUSH2 0x125C JUMPI PUSH2 0x125B PUSH2 0xEA4 JUMP JUMPDEST JUMPDEST PUSH1 0x0 PUSH2 0x126A DUP5 DUP3 DUP6 ADD PUSH2 0xF2D JUMP JUMPDEST SWAP2 POP POP SWAP3 SWAP2 POP POP JUMP JUMPDEST PUSH1 0x0 PUSH1 0x40 DUP3 ADD SWAP1 POP DUP2 DUP2 SUB PUSH1 0x0 DUP4 ADD MSTORE PUSH2 0x128D DUP2 DUP6 PUSH2 0xE3F JUMP JUMPDEST SWAP1 POP DUP2 DUP2 SUB PUSH1 0x20 DUP4 ADD MSTORE PUSH2 0x12A1 DUP2 DUP5 PUSH2 0xE3F JUMP JUMPDEST SWAP1 POP SWAP4 SWAP3 POP POP POP JUMP JUMPDEST PUSH1 0x0 DUP1 PUSH1 0x40 DUP4 DUP6 SUB SLT ISZERO PUSH2 0x12C1 JUMPI PUSH2 0x12C0 PUSH2 0xEA4 JUMP JUMPDEST JUMPDEST PUSH1 0x0 PUSH2 0x12CF DUP6 DUP3 DUP7 ADD PUSH2 0xEF7 JUMP JUMPDEST SWAP3 POP POP PUSH1 0x20 PUSH2 0x12E0 DUP6 DUP3 DUP7 ADD PUSH2 0xEF7 JUMP JUMPDEST SWAP2 POP POP SWAP3 POP SWAP3 SWAP1 POP JUMP JUMPDEST PUSH32 0x4E487B7100000000000000000000000000000000000000000000000000000000 PUSH1 0x0 MSTORE PUSH1 0x22 PUSH1 0x4 MSTORE PUSH1 0x24 PUSH1 0x0 REVERT JUMPDEST PUSH1 0x0 PUSH1 0x2 DUP3 DIV SWAP1 POP PUSH1 0x1 DUP3 AND DUP1 PUSH2 0x1331 JUMPI PUSH1 0x7F DUP3 AND SWAP2 POP JUMPDEST PUSH1 0x20 DUP3 LT DUP2 SUB PUSH2 0x1344 JUMPI PUSH2 0x1343 PUSH2 0x12EA JUMP JUMPDEST JUMPDEST POP SWAP2 SWAP1 POP JUMP JUMPDEST PUSH32 0x4D75737420686F6C6420544E5420746F206372656174652061204E6F74652E00 PUSH1 0x0 DUP3 ADD MSTORE POP JUMP JUMPDEST PUSH1 0x0 PUSH2 0x1380 PUSH1 0x1F DUP4 PUSH2 0xDF3 JUMP JUMPDEST SWAP2 POP PUSH2 0x138B DUP3 PUSH2 0x134A JUMP JUMPDEST PUSH1 0x20 DUP3 ADD SWAP1 POP SWAP2 SWAP1 POP JUMP JUMPDEST PUSH1 0x0 PUSH1 0x20 DUP3 ADD SWAP1 POP DUP2 DUP2 SUB PUSH1 0x0 DUP4 ADD MSTORE PUSH2 0x13AF DUP2 PUSH2 0x1373 JUMP JUMPDEST SWAP1 POP SWAP2 SWAP1 POP JUMP JUMPDEST PUSH1 0x0 DUP2 SWAP1 POP DUP2 PUSH1 0x0 MSTORE PUSH1 0x20 PUSH1 0x0 KECCAK256 SWAP1 POP SWAP2 SWAP1 POP JUMP JUMPDEST PUSH1 0x0 PUSH1 0x20 PUSH1 0x1F DUP4 ADD DIV SWAP1 POP SWAP2 SWAP1 POP JUMP JUMPDEST PUSH1 0x0 DUP3 DUP3 SHL SWAP1 POP SWAP3 SWAP2 POP POP JUMP JUMPDEST PUSH1 0x0 PUSH1 0x8 DUP4 MUL PUSH2 0x1418 PUSH32 0xFFFFFFFFFFFFFFFFFFFFFFFFFFFFFFFFFFFFFFFFFFFFFFFFFFFFFFFFFFFFFFFF DUP3 PUSH2 0x13DB JUMP JUMPDEST PUSH2 0x1422 DUP7 DUP4 PUSH2 0x13DB JUMP JUMPDEST SWAP6 POP DUP1 NOT DUP5 AND SWAP4 POP DUP1 DUP7 AND DUP5 OR SWAP3 POP POP POP SWAP4 SWAP3 POP POP POP JUMP JUMPDEST PUSH1 0x0 DUP2 SWAP1 POP SWAP2 SWAP1 POP JUMP JUMPDEST PUSH1 0x0 PUSH2 0x145F PUSH2 0x145A PUSH2 0x1455 DUP5 PUSH2 0xF0C JUMP JUMPDEST PUSH2 0x143A JUMP JUMPDEST PUSH2 0xF0C JUMP JUMPDEST SWAP1 POP SWAP2 SWAP1 POP JUMP JUMPDEST PUSH1 0x0 DUP2 SWAP1 POP SWAP2 SWAP1 POP JUMP JUMPDEST PUSH2 0x1479 DUP4 PUSH2 0x1444 JUMP JUMPDEST PUSH2 0x148D PUSH2 0x1485 DUP3 PUSH2 0x1466 JUMP JUMPDEST DUP5 DUP5 SLOAD PUSH2 0x13E8 JUMP JUMPDEST DUP3 SSTORE POP POP POP POP JUMP JUMPDEST PUSH1 0x0 SWAP1 JUMP JUMPDEST PUSH2 0x14A2 PUSH2 0x1495 JUMP JUMPDEST PUSH2 0x14AD DUP2 DUP5 DUP5 PUSH2 0x1470 JUMP JUMPDEST POP POP POP JUMP JUMPDEST JUMPDEST DUP2 DUP2 LT ISZERO PUSH2 0x14D1 JUMPI PUSH2 0x14C6 PUSH1 0x0 DUP3 PUSH2 0x149A JUMP JUMPDEST PUSH1 0x1 DUP2 ADD SWAP1 POP PUSH2 0x14B3 JUMP JUMPDEST POP POP JUMP JUMPDEST PUSH1 0x1F DUP3 GT ISZERO PUSH2 0x1516 JUMPI PUSH2 0x14E7 DUP2 PUSH2 0x13B6 JUMP JUMPDEST PUSH2 0x14F0 DUP5 PUSH2 0x13CB JUMP JUMPDEST DUP2 ADD PUSH1 0x20 DUP6 LT ISZERO PUSH2 0x14FF JUMPI DUP2 SWAP1 POP JUMPDEST PUSH2 0x1513 PUSH2 0x150B DUP6 PUSH2 0x13CB JUMP JUMPDEST DUP4 ADD DUP3 PUSH2 0x14B2 JUMP JUMPDEST POP POP JUMPDEST POP POP POP JUMP JUMPDEST PUSH1 0x0 DUP3 DUP3 SHR SWAP1 POP SWAP3 SWAP2 POP POP JUMP JUMPDEST PUSH1 0x0 PUSH2 0x1539 PUSH1 0x0 NOT DUP5 PUSH1 0x8 MUL PUSH2 0x151B JUMP JUMPDEST NOT DUP1 DUP4 AND SWAP2 POP POP SWAP3 SWAP2 POP POP JUMP JUMPDEST PUSH1 0x0 PUSH2 0x1552 DUP4 DUP4 PUSH2 0x1528 JUMP JUMPDEST SWAP2 POP DUP3 PUSH1 0x2 MUL DUP3 OR SWAP1 POP SWAP3 SWAP2 POP POP JUMP JUMPDEST PUSH2 0x156B DUP3 PUSH2 0xDE8 JUMP JUMPDEST PUSH8 0xFFFFFFFFFFFFFFFF DUP2 GT ISZERO PUSH2 0x1584 JUMPI PUSH2 0x1583 PUSH2 0x103F JUMP JUMPDEST JUMPDEST PUSH2 0x158E DUP3 SLOAD PUSH2 0x1319 JUMP JUMPDEST PUSH2 0x1599 DUP3 DUP3 DUP6 PUSH2 0x14D5 JUMP JUMPDEST PUSH1 0x0 PUSH1 0x20 SWAP1 POP PUSH1 0x1F DUP4 GT PUSH1 0x1 DUP2 EQ PUSH2 0x15CC JUMPI PUSH1 0x0 DUP5 ISZERO PUSH2 0x15BA JUMPI DUP3 DUP8 ADD MLOAD SWAP1 POP JUMPDEST PUSH2 0x15C4 DUP6 DUP3 PUSH2 0x1546 JUMP JUMPDEST DUP7 SSTORE POP PUSH2 0x162C JUMP JUMPDEST PUSH1 0x1F NOT DUP5 AND PUSH2 0x15DA DUP7 PUSH2 0x13B6 JUMP JUMPDEST PUSH1 0x0 JUMPDEST DUP3 DUP2 LT ISZERO PUSH2 0x1602 JUMPI DUP5 DUP10 ADD MLOAD DUP3 SSTORE PUSH1 0x1 DUP3 ADD SWAP2 POP PUSH1 0x20 DUP6 ADD SWAP5 POP PUSH1 0x20 DUP2 ADD SWAP1 POP PUSH2 0x15DD JUMP JUMPDEST DUP7 DUP4 LT ISZERO PUSH2 0x161F JUMPI DUP5 DUP10 ADD MLOAD PUSH2 0x161B PUSH1 0x1F DUP10 AND DUP3 PUSH2 0x1528 JUMP JUMPDEST DUP4 SSTORE POP JUMPDEST PUSH1 0x1 PUSH1 0x2 DUP9 MUL ADD DUP9 SSTORE POP POP POP JUMPDEST POP POP POP POP POP POP JUMP JUMPDEST PUSH32 0x4E487B7100000000000000000000000000000000000000000000000000000000 PUSH1 0x0 MSTORE PUSH1 0x11 PUSH1 0x4 MSTORE PUSH1 0x24 PUSH1 0x0 REVERT JUMPDEST PUSH1 0x0 PUSH2 0x166E DUP3 PUSH2 0xF0C JUMP JUMPDEST SWAP2 POP PUSH2 0x1679 DUP4 PUSH2 0xF0C JUMP JUMPDEST SWAP3 POP DUP3 DUP3 ADD SWAP1 POP DUP1 DUP3 GT ISZERO PUSH2 0x1691 JUMPI PUSH2 0x1690 PUSH2 0x1634 JUMP JUMPDEST JUMPDEST SWAP3 SWAP2 POP POP JUMP JUMPDEST PUSH32 0x45524332303A2064656372656173656420616C6C6F77616E63652062656C6F77 PUSH1 0x0 DUP3 ADD MSTORE PUSH32 0x207A65726F000000000000000000000000000000000000000000000000000000 PUSH1 0x20 DUP3 ADD MSTORE POP JUMP JUMPDEST PUSH1 0x0 PUSH2 0x16F3 PUSH1 0x25 DUP4 PUSH2 0xDF3 JUMP JUMPDEST SWAP2 POP PUSH2 0x16FE DUP3 PUSH2 0x1697 JUMP JUMPDEST PUSH1 0x40 DUP3 ADD SWAP1 POP SWAP2 SWAP1 POP JUMP JUMPDEST PUSH1 0x0 PUSH1 0x20 DUP3 ADD SWAP1 POP DUP2 DUP2 SUB PUSH1 0x0 DUP4 ADD MSTORE PUSH2 0x1722 DUP2 PUSH2 0x16E6 JUMP JUMPDEST SWAP1 POP SWAP2 SWAP1 POP JUMP JUMPDEST PUSH32 0x45524332303A20617070726F76652066726F6D20746865207A65726F20616464 PUSH1 0x0 DUP3 ADD MSTORE PUSH32 0x7265737300000000000000000000000000000000000000000000000000000000 PUSH1 0x20 DUP3 ADD MSTORE POP JUMP JUMPDEST PUSH1 0x0 PUSH2 0x1785 PUSH1 0x24 DUP4 PUSH2 0xDF3 JUMP JUMPDEST SWAP2 POP PUSH2 0x1790 DUP3 PUSH2 0x1729 JUMP JUMPDEST PUSH1 0x40 DUP3 ADD SWAP1 POP SWAP2 SWAP1 POP JUMP JUMPDEST PUSH1 0x0 PUSH1 0x20 DUP3 ADD SWAP1 POP DUP2 DUP2 SUB PUSH1 0x0 DUP4 ADD MSTORE PUSH2 0x17B4 DUP2 PUSH2 0x1778 JUMP JUMPDEST SWAP1 POP SWAP2 SWAP1 POP JUMP JUMPDEST PUSH32 0x45524332303A20617070726F766520746F20746865207A65726F206164647265 PUSH1 0x0 DUP3 ADD MSTORE PUSH32 0x7373000000000000000000000000000000000000000000000000000000000000 PUSH1 0x20 DUP3 ADD MSTORE POP JUMP JUMPDEST PUSH1 0x0 PUSH2 0x1817 PUSH1 0x22 DUP4 PUSH2 0xDF3 JUMP JUMPDEST SWAP2 POP PUSH2 0x1822 DUP3 PUSH2 0x17BB JUMP JUMPDEST PUSH1 0x40 DUP3 ADD SWAP1 POP SWAP2 SWAP1 POP JUMP JUMPDEST PUSH1 0x0 PUSH1 0x20 DUP3 ADD SWAP1 POP DUP2 DUP2 SUB PUSH1 0x0 DUP4 ADD MSTORE PUSH2 0x1846 DUP2 PUSH2 0x180A JUMP JUMPDEST SWAP1 POP SWAP2 SWAP1 POP JUMP JUMPDEST PUSH32 0x45524332303A20696E73756666696369656E7420616C6C6F77616E6365000000 PUSH1 0x0 DUP3 ADD MSTORE POP JUMP JUMPDEST PUSH1 0x0 PUSH2 0x1883 PUSH1 0x1D DUP4 PUSH2 0xDF3 JUMP JUMPDEST SWAP2 POP PUSH2 0x188E DUP3 PUSH2 0x184D JUMP JUMPDEST PUSH1 0x20 DUP3 ADD SWAP1 POP SWAP2 SWAP1 POP JUMP JUMPDEST PUSH1 0x0 PUSH1 0x20 DUP3 ADD SWAP1 POP DUP2 DUP2 SUB PUSH1 0x0 DUP4 ADD MSTORE PUSH2 0x18B2 DUP2 PUSH2 0x1876 JUMP JUMPDEST SWAP1 POP SWAP2 SWAP1 POP JUMP JUMPDEST PUSH32 0x45524332303A207472616E736665722066726F6D20746865207A65726F206164 PUSH1 0x0 DUP3 ADD MSTORE PUSH32 0x6472657373000000000000000000000000000000000000000000000000000000 PUSH1 0x20 DUP3 ADD MSTORE POP JUMP JUMPDEST PUSH1 0x0 PUSH2 0x1915 PUSH1 0x25 DUP4 PUSH2 0xDF3 JUMP JUMPDEST SWAP2 POP PUSH2 0x1920 DUP3 PUSH2 0x18B9 JUMP JUMPDEST PUSH1 0x40 DUP3 ADD SWAP1 POP SWAP2 SWAP1 POP JUMP JUMPDEST PUSH1 0x0 PUSH1 0x20 DUP3 ADD SWAP1 POP DUP2 DUP2 SUB PUSH1 0x0 DUP4 ADD MSTORE PUSH2 0x1944 DUP2 PUSH2 0x1908 JUMP JUMPDEST SWAP1 POP SWAP2 SWAP1 POP JUMP JUMPDEST PUSH32 0x45524332303A207472616E7366657220746F20746865207A65726F2061646472 PUSH1 0x0 DUP3 ADD MSTORE PUSH32 0x6573730000000000000000000000000000000000000000000000000000000000 PUSH1 0x20 DUP3 ADD MSTORE POP JUMP JUMPDEST PUSH1 0x0 PUSH2 0x19A7 PUSH1 0x23 DUP4 PUSH2 0xDF3 JUMP JUMPDEST SWAP2 POP PUSH2 0x19B2 DUP3 PUSH2 0x194B JUMP JUMPDEST PUSH1 0x40 DUP3 ADD SWAP1 POP SWAP2 SWAP1 POP JUMP JUMPDEST PUSH1 0x0 PUSH1 0x20 DUP3 ADD SWAP1 POP DUP2 DUP2 SUB PUSH1 0x0 DUP4 ADD MSTORE PUSH2 0x19D6 DUP2 PUSH2 0x199A JUMP JUMPDEST SWAP1 POP SWAP2 SWAP1 POP JUMP JUMPDEST PUSH32 0x45524332303A207472616E7366657220616D6F756E7420657863656564732062 PUSH1 0x0 DUP3 ADD MSTORE PUSH32 0x616C616E63650000000000000000000000000000000000000000000000000000 PUSH1 0x20 DUP3 ADD MSTORE POP JUMP JUMPDEST PUSH1 0x0 PUSH2 0x1A39 PUSH1 0x26 DUP4 PUSH2 0xDF3 JUMP JUMPDEST SWAP2 POP PUSH2 0x1A44 DUP3 PUSH2 0x19DD JUMP JUMPDEST PUSH1 0x40 DUP3 ADD SWAP1 POP SWAP2 SWAP1 POP JUMP JUMPDEST PUSH1 0x0 PUSH1 0x20 DUP3 ADD SWAP1 POP DUP2 DUP2 SUB PUSH1 0x0 DUP4 ADD MSTORE PUSH2 0x1A68 DUP2 PUSH2 0x1A2C JUMP JUMPDEST SWAP1 POP SWAP2 SWAP1 POP JUMP INVALID LOG2 PUSH5 0x6970667358 0x22 SLT KECCAK256 SWAP13 0xD8 0x4E 0xAC PREVRANDAO 0x5E 0xF7 0xC1 0xF9 0xCF SHR 0xAE 0xB3 PUSH23 0x5FF5EDA6A10FA8622EDE2896249ADE2ACC0D64736F6C63 NUMBER STOP ADDMOD SLT STOP CALLER "
				},
				"gasEstimates": {
					"creation": {
						"codeDepositCost": "1364200",
						"executionCost": "infinite",
						"totalCost": "infinite"
					},
					"external": {
						"allowance(address,address)": "infinite",
						"approve(address,uint256)": "infinite",
						"balanceOf(address)": "2886",
						"createNote(string,string)": "infinite",
						"decimals()": "454",
						"decreaseAllowance(address,uint256)": "infinite",
						"increaseAllowance(address,uint256)": "infinite",
						"name()": "infinite",
						"readNote(uint256)": "infinite",
						"symbol()": "infinite",
						"totalSupply()": "2482",
						"transfer(address,uint256)": "infinite",
						"transferFrom(address,address,uint256)": "infinite"
					}
				},
				"methodIdentifiers": {
					"allowance(address,address)": "dd62ed3e",
					"approve(address,uint256)": "095ea7b3",
					"balanceOf(address)": "70a08231",
					"createNote(string,string)": "2feaf817",
					"decimals()": "313ce567",
					"decreaseAllowance(address,uint256)": "a457c2d7",
					"increaseAllowance(address,uint256)": "39509351",
					"name()": "06fdde03",
					"readNote(uint256)": "d311651a",
					"symbol()": "95d89b41",
					"totalSupply()": "18160ddd",
					"transfer(address,uint256)": "a9059cbb",
					"transferFrom(address,address,uint256)": "23b872dd"
				}
			},
			"storageLayout": {
				"storage": [
					{
						"astId": 15,
						"contract": "contracts/TinyNotesToken.sol:TinyNotesToken",
						"label": "_balances",
						"offset": 0,
						"slot": "0",
						"type": "t_mapping(t_address,t_uint256)"
					},
					{
						"astId": 21,
						"contract": "contracts/TinyNotesToken.sol:TinyNotesToken",
						"label": "_allowances",
						"offset": 0,
						"slot": "1",
						"type": "t_mapping(t_address,t_mapping(t_address,t_uint256))"
					},
					{
						"astId": 23,
						"contract": "contracts/TinyNotesToken.sol:TinyNotesToken",
						"label": "_totalSupply",
						"offset": 0,
						"slot": "2",
						"type": "t_uint256"
					},
					{
						"astId": 25,
						"contract": "contracts/TinyNotesToken.sol:TinyNotesToken",
						"label": "_name",
						"offset": 0,
						"slot": "3",
						"type": "t_string_storage"
					},
					{
						"astId": 27,
						"contract": "contracts/TinyNotesToken.sol:TinyNotesToken",
						"label": "_symbol",
						"offset": 0,
						"slot": "4",
						"type": "t_string_storage"
					},
					{
						"astId": 798,
						"contract": "contracts/TinyNotesToken.sol:TinyNotesToken",
						"label": "_noteIds",
						"offset": 0,
						"slot": "5",
						"type": "t_struct(Counter)717_storage"
					},
					{
						"astId": 810,
						"contract": "contracts/TinyNotesToken.sol:TinyNotesToken",
						"label": "idToNote",
						"offset": 0,
						"slot": "6",
						"type": "t_mapping(t_uint256,t_struct(Note)805_storage)"
					}
				],
				"types": {
					"t_address": {
						"encoding": "inplace",
						"label": "address",
						"numberOfBytes": "20"
					},
					"t_mapping(t_address,t_mapping(t_address,t_uint256))": {
						"encoding": "mapping",
						"key": "t_address",
						"label": "mapping(address => mapping(address => uint256))",
						"numberOfBytes": "32",
						"value": "t_mapping(t_address,t_uint256)"
					},
					"t_mapping(t_address,t_uint256)": {
						"encoding": "mapping",
						"key": "t_address",
						"label": "mapping(address => uint256)",
						"numberOfBytes": "32",
						"value": "t_uint256"
					},
					"t_mapping(t_uint256,t_struct(Note)805_storage)": {
						"encoding": "mapping",
						"key": "t_uint256",
						"label": "mapping(uint256 => struct TinyNotesToken.Note)",
						"numberOfBytes": "32",
						"value": "t_struct(Note)805_storage"
					},
					"t_string_storage": {
						"encoding": "bytes",
						"label": "string",
						"numberOfBytes": "32"
					},
					"t_struct(Counter)717_storage": {
						"encoding": "inplace",
						"label": "struct Counters.Counter",
						"members": [
							{
								"astId": 716,
								"contract": "contracts/TinyNotesToken.sol:TinyNotesToken",
								"label": "_value",
								"offset": 0,
								"slot": "0",
								"type": "t_uint256"
							}
						],
						"numberOfBytes": "32"
					},
					"t_struct(Note)805_storage": {
						"encoding": "inplace",
						"label": "struct TinyNotesToken.Note",
						"members": [
							{
								"astId": 800,
								"contract": "contracts/TinyNotesToken.sol:TinyNotesToken",
								"label": "creator",
								"offset": 0,
								"slot": "0",
								"type": "t_address"
							},
							{
								"astId": 802,
								"contract": "contracts/TinyNotesToken.sol:TinyNotesToken",
								"label": "title",
								"offset": 0,
								"slot": "1",
								"type": "t_string_storage"
							},
							{
								"astId": 804,
								"contract": "contracts/TinyNotesToken.sol:TinyNotesToken",
								"label": "content",
								"offset": 0,
								"slot": "2",
								"type": "t_string_storage"
							}
						],
						"numberOfBytes": "96"
					},
					"t_uint256": {
						"encoding": "inplace",
						"label": "uint256",
						"numberOfBytes": "32"
					}
				}
			},
			"userdoc": {
				"kind": "user",
				"methods": {},
				"version": 1
			}
		}
	}
}